{
  "_format": "hh-sol-artifact-1",
  "contractName": "PZkpToken",
  "sourceName": "contracts/PZkpToken.sol",
  "abi": [
    {
      "inputs": [
        {
          "internalType": "address",
          "name": "owner",
          "type": "address"
        }
      ],
      "stateMutability": "nonpayable",
      "type": "constructor"
    },
    {
      "anonymous": false,
      "inputs": [
        {
          "indexed": true,
          "internalType": "address",
          "name": "owner",
          "type": "address"
        },
        {
          "indexed": true,
          "internalType": "address",
          "name": "spender",
          "type": "address"
        },
        {
          "indexed": false,
          "internalType": "uint256",
          "name": "value",
          "type": "uint256"
        }
      ],
      "name": "Approval",
      "type": "event"
    },
    {
      "anonymous": false,
      "inputs": [
        {
          "indexed": false,
          "internalType": "address",
          "name": "userAddress",
          "type": "address"
        },
        {
          "indexed": false,
          "internalType": "address",
          "name": "relayerAddress",
          "type": "address"
        },
        {
          "indexed": false,
          "internalType": "bytes",
          "name": "functionSignature",
          "type": "bytes"
        }
      ],
      "name": "MetaTransactionExecuted",
      "type": "event"
    },
    {
      "anonymous": false,
      "inputs": [
        {
          "indexed": true,
          "internalType": "address",
          "name": "from",
          "type": "address"
        },
        {
          "indexed": true,
          "internalType": "address",
          "name": "to",
          "type": "address"
        },
        {
          "indexed": false,
          "internalType": "uint256",
          "name": "value",
          "type": "uint256"
        }
      ],
      "name": "Transfer",
      "type": "event"
    },
    {
      "inputs": [],
      "name": "DOMAIN_SEPARATOR",
      "outputs": [
        {
          "internalType": "bytes32",
          "name": "",
          "type": "bytes32"
        }
      ],
      "stateMutability": "view",
      "type": "function"
    },
    {
      "inputs": [],
      "name": "OWNER",
      "outputs": [
        {
          "internalType": "address",
          "name": "",
          "type": "address"
        }
      ],
      "stateMutability": "view",
      "type": "function"
    },
    {
      "inputs": [
        {
          "internalType": "address",
          "name": "owner",
          "type": "address"
        },
        {
          "internalType": "address",
          "name": "spender",
          "type": "address"
        }
      ],
      "name": "allowance",
      "outputs": [
        {
          "internalType": "uint256",
          "name": "",
          "type": "uint256"
        }
      ],
      "stateMutability": "view",
      "type": "function"
    },
    {
      "inputs": [
        {
          "internalType": "address",
          "name": "spender",
          "type": "address"
        },
        {
          "internalType": "uint256",
          "name": "amount",
          "type": "uint256"
        }
      ],
      "name": "approve",
      "outputs": [
        {
          "internalType": "bool",
          "name": "",
          "type": "bool"
        }
      ],
      "stateMutability": "nonpayable",
      "type": "function"
    },
    {
      "inputs": [
        {
          "internalType": "address",
          "name": "account",
          "type": "address"
        }
      ],
      "name": "balanceOf",
      "outputs": [
        {
          "internalType": "uint256",
          "name": "",
          "type": "uint256"
        }
      ],
      "stateMutability": "view",
      "type": "function"
    },
    {
      "inputs": [
        {
          "internalType": "address[]",
          "name": "_spenders",
          "type": "address[]"
        },
        {
          "internalType": "uint256[]",
          "name": "_subtractedValues",
          "type": "uint256[]"
        }
      ],
      "name": "batchDecreaseAllowance",
      "outputs": [
        {
          "internalType": "bool",
          "name": "",
          "type": "bool"
        }
      ],
      "stateMutability": "nonpayable",
      "type": "function"
    },
    {
      "inputs": [
        {
          "internalType": "address[]",
          "name": "_spenders",
          "type": "address[]"
        },
        {
          "internalType": "uint256[]",
          "name": "_addedValues",
          "type": "uint256[]"
        }
      ],
      "name": "batchIncreaseAllowance",
      "outputs": [
        {
          "internalType": "bool",
          "name": "",
          "type": "bool"
        }
      ],
      "stateMutability": "nonpayable",
      "type": "function"
    },
    {
      "inputs": [
        {
          "internalType": "address[]",
          "name": "_recipients",
          "type": "address[]"
        },
        {
          "internalType": "uint256[]",
          "name": "_values",
          "type": "uint256[]"
        }
      ],
      "name": "batchTransfer",
      "outputs": [
        {
          "internalType": "bool",
          "name": "",
          "type": "bool"
        }
      ],
      "stateMutability": "nonpayable",
      "type": "function"
    },
    {
      "inputs": [
        {
          "internalType": "address",
          "name": "_from",
          "type": "address"
        },
        {
          "internalType": "address[]",
          "name": "_recipients",
          "type": "address[]"
        },
        {
          "internalType": "uint256[]",
          "name": "_values",
          "type": "uint256[]"
        }
      ],
      "name": "batchTransferFrom",
      "outputs": [
        {
          "internalType": "bool",
          "name": "",
          "type": "bool"
        }
      ],
      "stateMutability": "nonpayable",
      "type": "function"
    },
    {
      "inputs": [
        {
          "internalType": "address",
          "name": "claimedToken",
          "type": "address"
        },
        {
          "internalType": "address",
          "name": "to",
          "type": "address"
        },
        {
          "internalType": "uint256",
          "name": "amount",
          "type": "uint256"
        }
      ],
      "name": "claimErc20",
      "outputs": [],
      "stateMutability": "nonpayable",
      "type": "function"
    },
    {
      "inputs": [],
      "name": "decimals",
      "outputs": [
        {
          "internalType": "uint8",
          "name": "",
          "type": "uint8"
        }
      ],
      "stateMutability": "view",
      "type": "function"
    },
    {
      "inputs": [
        {
          "internalType": "address",
          "name": "spender",
          "type": "address"
        },
        {
          "internalType": "uint256",
          "name": "subtractedValue",
          "type": "uint256"
        }
      ],
      "name": "decreaseAllowance",
      "outputs": [
        {
          "internalType": "bool",
          "name": "",
          "type": "bool"
        }
      ],
      "stateMutability": "nonpayable",
      "type": "function"
    },
    {
      "inputs": [
        {
          "internalType": "address",
          "name": "user",
          "type": "address"
        },
        {
          "internalType": "bytes",
          "name": "depositData",
          "type": "bytes"
        }
      ],
      "name": "deposit",
      "outputs": [],
      "stateMutability": "nonpayable",
      "type": "function"
    },
    {
      "inputs": [
        {
          "internalType": "address",
          "name": "userAddress",
          "type": "address"
        },
        {
          "internalType": "bytes",
          "name": "functionSignature",
          "type": "bytes"
        },
        {
          "internalType": "bytes32",
          "name": "r",
          "type": "bytes32"
        },
        {
          "internalType": "bytes32",
          "name": "s",
          "type": "bytes32"
        },
        {
          "internalType": "uint8",
          "name": "v",
          "type": "uint8"
        }
      ],
      "name": "executeMetaTransaction",
      "outputs": [
        {
          "internalType": "bytes",
          "name": "",
          "type": "bytes"
        }
      ],
      "stateMutability": "payable",
      "type": "function"
    },
    {
      "inputs": [
        {
          "internalType": "address",
          "name": "spender",
          "type": "address"
        },
        {
          "internalType": "uint256",
          "name": "addedValue",
          "type": "uint256"
        }
      ],
      "name": "increaseAllowance",
      "outputs": [
        {
          "internalType": "bool",
          "name": "",
          "type": "bool"
        }
      ],
      "stateMutability": "nonpayable",
      "type": "function"
    },
    {
      "inputs": [],
      "name": "minter",
      "outputs": [
        {
          "internalType": "address",
          "name": "",
          "type": "address"
        }
      ],
      "stateMutability": "view",
      "type": "function"
    },
    {
      "inputs": [],
      "name": "name",
      "outputs": [
        {
          "internalType": "string",
          "name": "",
          "type": "string"
        }
      ],
      "stateMutability": "view",
      "type": "function"
    },
    {
      "inputs": [
        {
          "internalType": "address",
          "name": "owner",
          "type": "address"
        }
      ],
      "name": "nonces",
      "outputs": [
        {
          "internalType": "uint256",
          "name": "",
          "type": "uint256"
        }
      ],
      "stateMutability": "view",
      "type": "function"
    },
    {
      "inputs": [
        {
          "internalType": "address",
          "name": "owner",
          "type": "address"
        },
        {
          "internalType": "address",
          "name": "spender",
          "type": "address"
        },
        {
          "internalType": "uint256",
          "name": "value",
          "type": "uint256"
        },
        {
          "internalType": "uint256",
          "name": "deadline",
          "type": "uint256"
        },
        {
          "internalType": "uint8",
          "name": "v",
          "type": "uint8"
        },
        {
          "internalType": "bytes32",
          "name": "r",
          "type": "bytes32"
        },
        {
          "internalType": "bytes32",
          "name": "s",
          "type": "bytes32"
        }
      ],
      "name": "permit",
      "outputs": [],
      "stateMutability": "nonpayable",
      "type": "function"
    },
    {
      "inputs": [
        {
          "internalType": "address",
          "name": "_minter",
          "type": "address"
        }
      ],
      "name": "setMinter",
      "outputs": [],
      "stateMutability": "nonpayable",
      "type": "function"
    },
    {
      "inputs": [],
      "name": "symbol",
      "outputs": [
        {
          "internalType": "string",
          "name": "",
          "type": "string"
        }
      ],
      "stateMutability": "view",
      "type": "function"
    },
    {
      "inputs": [],
      "name": "totalSupply",
      "outputs": [
        {
          "internalType": "uint256",
          "name": "",
          "type": "uint256"
        }
      ],
      "stateMutability": "view",
      "type": "function"
    },
    {
      "inputs": [
        {
          "internalType": "address",
          "name": "recipient",
          "type": "address"
        },
        {
          "internalType": "uint256",
          "name": "amount",
          "type": "uint256"
        }
      ],
      "name": "transfer",
      "outputs": [
        {
          "internalType": "bool",
          "name": "",
          "type": "bool"
        }
      ],
      "stateMutability": "nonpayable",
      "type": "function"
    },
    {
      "inputs": [
        {
          "internalType": "address",
          "name": "sender",
          "type": "address"
        },
        {
          "internalType": "address",
          "name": "recipient",
          "type": "address"
        },
        {
          "internalType": "uint256",
          "name": "amount",
          "type": "uint256"
        }
      ],
      "name": "transferFrom",
      "outputs": [
        {
          "internalType": "bool",
          "name": "",
          "type": "bool"
        }
      ],
      "stateMutability": "nonpayable",
      "type": "function"
    },
    {
      "inputs": [
        {
          "internalType": "uint256",
          "name": "amount",
          "type": "uint256"
        }
      ],
      "name": "withdraw",
      "outputs": [],
      "stateMutability": "nonpayable",
      "type": "function"
    }
  ],
  "bytecode": "0x6101606040527f6e71edae12b1b97f4d1f60370fef10105fa2faae0126114a169c64845d6126c9610120523480156200003757600080fd5b506040516200277d3803806200277d8339810160408190526200005a9162000333565b806040518060400160405280600a815260200169122d25a8102a37b5b2b760b11b81525080604051806040016040528060018152602001603160f81b8152506040518060400160405280600a815260200169122d25a8102a37b5b2b760b11b815250604051806040016040528060048152602001630245a4b560e41b8152508160039080519060200190620000f19291906200028d565b508051620001079060049060208401906200028d565b5050825160209384012082519284019290922060c083815260e08290524660a0818152604080517f8b73c3c69bb8fe3d512ecc4cf759cc79239f7b179b0ffacaa9a75d522b39400f818a018190528183019890985260608101959095526080808601939093523085830152805180860390920182529390920190925280519401939093209092526101005250506001600160a01b038116620001f05760405162461bcd60e51b815260206004820152601a60248201527f496d6d4f776e3a207a65726f206f776e6572206164647265737300000000000060448201526064015b60405180910390fd5b60601b6001600160601b031916610140526200020c8162000213565b50620003a0565b6001600160a01b0381166200026b5760405162461bcd60e51b815260206004820152601860248201527f5a4b503a207a65726f206d696e746572206164647265737300000000000000006044820152606401620001e7565b600780546001600160a01b0319166001600160a01b0392909216919091179055565b8280546200029b9062000363565b90600052602060002090601f016020900481019282620002bf57600085556200030a565b82601f10620002da57805160ff19168380011785556200030a565b828001600101855582156200030a579182015b828111156200030a578251825591602001919060010190620002ed565b50620003189291506200031c565b5090565b5b808211156200031857600081556001016200031d565b60006020828403121562000345578081fd5b81516001600160a01b03811681146200035c578182fd5b9392505050565b600181811c908216806200037857607f821691505b602082108114156200039a57634e487b7160e01b600052602260045260246000fd5b50919050565b60805160a05160c05160e05161010051610120516101405160601c61236a620004136000396000818161025301528181610c0601528181610dfa01526110c701526000610edc015260006116ff0152600061174e01526000611729015260006116ad015260006116d6015261236a6000f3fe6080604052600436106101965760003560e01c806364d7cabc116100e1578063a457c2d71161008a578063d505accf11610064578063d505accf14610472578063d8bc226314610492578063dd62ed3e146104b2578063fca3b5aa146104f857600080fd5b8063a457c2d714610412578063a9059cbb14610432578063cf2c52cb1461045257600080fd5b806388d695b2116100bb57806388d695b2146103bd57806392a70fb0146103dd57806395d89b41146103fd57600080fd5b806364d7cabc1461034757806370a08231146103675780637ecebe001461039d57600080fd5b806323b872dd116101435780633644e5151161011d5780633644e515146102f257806339509351146103075780634885b2541461032757600080fd5b806323b872dd146102945780632e1a7d4d146102b4578063313ce567146102d657600080fd5b80630c53c51c116101745780630c53c51c1461022e578063117803e31461024157806318160ddd1461027557600080fd5b806306fdde031461019b57806307546172146101c6578063095ea7b3146101fe575b600080fd5b3480156101a757600080fd5b506101b0610518565b6040516101bd9190612273565b60405180910390f35b3480156101d257600080fd5b506007546101e6906001600160a01b031681565b6040516001600160a01b0390911681526020016101bd565b34801561020a57600080fd5b5061021e6102193660046120f5565b6105aa565b60405190151581526020016101bd565b6101b061023c366004612016565b6105c7565b34801561024d57600080fd5b506101e67f000000000000000000000000000000000000000000000000000000000000000081565b34801561028157600080fd5b506002545b6040519081526020016101bd565b3480156102a057600080fd5b5061021e6102af366004611e76565b6107e2565b3480156102c057600080fd5b506102d46102cf3660046121a7565b6108c8565b005b3480156102e257600080fd5b50604051601281526020016101bd565b3480156102fe57600080fd5b506102866108dc565b34801561031357600080fd5b5061021e6103223660046120f5565b6108eb565b34801561033357600080fd5b5061021e610342366004611f1a565b61093f565b34801561035357600080fd5b5061021e61036236600461211e565b610a26565b34801561037357600080fd5b50610286610382366004611e23565b6001600160a01b031660009081526020819052604090205490565b3480156103a957600080fd5b506102866103b8366004611e23565b610b0b565b3480156103c957600080fd5b5061021e6103d836600461211e565b610b2b565b3480156103e957600080fd5b506102d46103f8366004611e76565b610c04565b34801561040957600080fd5b506101b0610ce9565b34801561041e57600080fd5b5061021e61042d3660046120f5565b610cf8565b34801561043e57600080fd5b5061021e61044d3660046120f5565b610dc7565b34801561045e57600080fd5b506102d461046d366004611f98565b610ddb565b34801561047e57600080fd5b506102d461048d366004611eb1565b610e88565b34801561049e57600080fd5b5061021e6104ad36600461211e565b610fec565b3480156104be57600080fd5b506102866104cd366004611e44565b6001600160a01b03918216600090815260016020908152604080832093909416825291909152205490565b34801561050457600080fd5b506102d4610513366004611e23565b6110c5565b606060038054610527906122e1565b80601f0160208091040260200160405190810160405280929190818152602001828054610553906122e1565b80156105a05780601f10610575576101008083540402835291602001916105a0565b820191906000526020600020905b81548152906001019060200180831161058357829003601f168201915b5050505050905090565b60006105be6105b7611146565b84846111a3565b50600192915050565b606060007f23d10def3caacba2e4042e0c75d44a42d2558aabcf5ce951d0642a8032e1e6536105f5886112c8565b888880519060200120604051602001610630949392919093845260208401929092526001600160a01b03166040830152606082015260800190565b6040516020818303038152906040528051906020012090506000610653826112f0565b905060006106638286898961133e565b9050886001600160a01b0316816001600160a01b0316146106cb5760405162461bcd60e51b815260206004820152601660248201527f5a4b503a20696e76616c6964207369676e61747572650000000000000000000060448201526064015b60405180910390fd5b7f5845892132946850460bff5a0083f71031bc5bf9aadcd40f1de79423eac9b10b89338a6040516106fe9392919061223e565b60405180910390a1600080306001600160a01b03168a8c604051602001610726929190612207565b60408051601f1981840301815290829052610740916121eb565b6000604051808303816000865af19150503d806000811461077d576040519150601f19603f3d011682016040523d82523d6000602084013e610782565b606091505b5091509150816107d45760405162461bcd60e51b815260206004820152601860248201527f5a4b503a204d6574612074782063616c6c206661696c6564000000000000000060448201526064016106c2565b9a9950505050505050505050565b60006107ef848484611366565b6001600160a01b038416600090815260016020526040812081610810611146565b6001600160a01b03166001600160a01b03168152602001908152602001600020549050828110156108a95760405162461bcd60e51b815260206004820152602860248201527f45524332303a207472616e7366657220616d6f756e742065786365656473206160448201527f6c6c6f77616e636500000000000000000000000000000000000000000000000060648201526084016106c2565b6108bd856108b5611146565b8584036111a3565b506001949350505050565b6108d96108d3611146565b82611563565b50565b60006108e66116a9565b905090565b60006105be6108f8611146565b848460016000610906611146565b6001600160a01b03908116825260208083019390935260409182016000908120918b168152925290205461093a9190612286565b6111a3565b600061094b848361179c565b60005b84811015610a19576109bb8787878481811061097a57634e487b7160e01b600052603260045260246000fd5b905060200201602081019061098f9190611e23565b8686858181106109af57634e487b7160e01b600052603260045260246000fd5b905060200201356107e2565b610a075760405162461bcd60e51b815260206004820152601760248201527f5a4b503a20756e61626c6520746f207472616e7366657200000000000000000060448201526064016106c2565b80610a1181612316565b91505061094e565b5060019695505050505050565b6000610a32848361179c565b60005b82811015610aff57610aa1868683818110610a6057634e487b7160e01b600052603260045260246000fd5b9050602002016020810190610a759190611e23565b858584818110610a9557634e487b7160e01b600052603260045260246000fd5b905060200201356108eb565b610aed5760405162461bcd60e51b815260206004820152601760248201527f5a4b503a20756e61626c6520746f20696e63726561736500000000000000000060448201526064016106c2565b80610af781612316565b915050610a35565b50600195945050505050565b6001600160a01b0381166000908152600560205260408120545b92915050565b6000610b37848361179c565b60005b84811015610aff57610ba6868683818110610b6557634e487b7160e01b600052603260045260246000fd5b9050602002016020810190610b7a9190611e23565b858584818110610b9a57634e487b7160e01b600052603260045260246000fd5b90506020020135610dc7565b610bf25760405162461bcd60e51b815260206004820152601760248201527f5a4b503a20756e61626c6520746f207472616e7366657200000000000000000060448201526064016106c2565b80610bfc81612316565b915050610b3a565b7f00000000000000000000000000000000000000000000000000000000000000006001600160a01b03163314610c7c5760405162461bcd60e51b815260206004820152601460248201527f496d6d4f776e3a20756e617574686f72697a656400000000000000000000000060448201526064016106c2565b60026006541415610ccf5760405162461bcd60e51b815260206004820152601a60248201527f636c61696d45726332303a207265656e7472616e742063616c6c00000000000060448201526064016106c2565b6002600655610cdf8383836117ef565b5050600160065550565b606060048054610527906122e1565b60008060016000610d07611146565b6001600160a01b0390811682526020808301939093526040918201600090812091881681529252902054905082811015610da95760405162461bcd60e51b815260206004820152602560248201527f45524332303a2064656372656173656420616c6c6f77616e63652062656c6f7760448201527f207a65726f00000000000000000000000000000000000000000000000000000060648201526084016106c2565b610dbd610db4611146565b858584036111a3565b5060019392505050565b60006105be610dd4611146565b8484611366565b6007546001600160a01b0316331480610e1c5750336001600160a01b037f000000000000000000000000000000000000000000000000000000000000000016145b610e685760405162461bcd60e51b815260206004820152601160248201527f5a4b503a20756e617574686f72697a656400000000000000000000000000000060448201526064016106c2565b6000610e76828401846121a7565b9050610e82848261194f565b50505050565b83421115610ed85760405162461bcd60e51b815260206004820152601d60248201527f45524332305065726d69743a206578706972656420646561646c696e6500000060448201526064016106c2565b60007f0000000000000000000000000000000000000000000000000000000000000000888888610f078c6112c8565b6040805160208101969096526001600160a01b0394851690860152929091166060840152608083015260a082015260c0810186905260e0016040516020818303038152906040528051906020012090506000610f62826112f0565b90506000610f728287878761133e565b9050896001600160a01b0316816001600160a01b031614610fd55760405162461bcd60e51b815260206004820152601e60248201527f45524332305065726d69743a20696e76616c6964207369676e6174757265000060448201526064016106c2565b610fe08a8a8a6111a3565b50505050505050505050565b6000610ff8848361179c565b60005b82811015610aff5761106786868381811061102657634e487b7160e01b600052603260045260246000fd5b905060200201602081019061103b9190611e23565b85858481811061105b57634e487b7160e01b600052603260045260246000fd5b90506020020135610cf8565b6110b35760405162461bcd60e51b815260206004820152601760248201527f5a4b503a20756e61626c6520746f20646563726561736500000000000000000060448201526064016106c2565b806110bd81612316565b915050610ffb565b7f00000000000000000000000000000000000000000000000000000000000000006001600160a01b0316331461113d5760405162461bcd60e51b815260206004820152601460248201527f496d6d4f776e3a20756e617574686f72697a656400000000000000000000000060448201526064016106c2565b6108d981611a2e565b60003330141561119d57600080368080601f0160208091040260200160405190810160405280939291908181526020018383808284376000920191909152505050503601516001600160a01b031691506111a09050565b50335b90565b6001600160a01b0383166112055760405162461bcd60e51b8152602060048201526024808201527f45524332303a20617070726f76652066726f6d20746865207a65726f206164646044820152637265737360e01b60648201526084016106c2565b6001600160a01b0382166112665760405162461bcd60e51b815260206004820152602260248201527f45524332303a20617070726f766520746f20746865207a65726f206164647265604482015261737360f01b60648201526084016106c2565b6001600160a01b0383811660008181526001602090815260408083209487168084529482529182902085905590518481527f8c5be1e5ebec7d5bd14f71427d1e84f3dd0314c0f7b2291e5b200ac8c7c3b92591015b60405180910390a3505050565b6001600160a01b03811660009081526005602052604090208054600181018255905b50919050565b6000610b256112fd6116a9565b8360405161190160f01b6020820152602281018390526042810182905260009060620160405160208183030381529060405280519060200120905092915050565b600080600061134f87878787611abe565b9150915061135c81611bab565b5095945050505050565b6001600160a01b0383166113e25760405162461bcd60e51b815260206004820152602560248201527f45524332303a207472616e736665722066726f6d20746865207a65726f20616460448201527f647265737300000000000000000000000000000000000000000000000000000060648201526084016106c2565b6001600160a01b0382166114445760405162461bcd60e51b815260206004820152602360248201527f45524332303a207472616e7366657220746f20746865207a65726f206164647260448201526265737360e81b60648201526084016106c2565b6001600160a01b038316600090815260208190526040902054818110156114d35760405162461bcd60e51b815260206004820152602660248201527f45524332303a207472616e7366657220616d6f756e742065786365656473206260448201527f616c616e6365000000000000000000000000000000000000000000000000000060648201526084016106c2565b6001600160a01b0380851660009081526020819052604080822085850390559185168152908120805484929061150a908490612286565b92505081905550826001600160a01b0316846001600160a01b03167fddf252ad1be2c89b69c2b068fc378daa952ba7f163c4a11628f55a4df523b3ef8460405161155691815260200190565b60405180910390a3610e82565b6001600160a01b0382166115c35760405162461bcd60e51b815260206004820152602160248201527f45524332303a206275726e2066726f6d20746865207a65726f206164647265736044820152607360f81b60648201526084016106c2565b6001600160a01b038216600090815260208190526040902054818110156116375760405162461bcd60e51b815260206004820152602260248201527f45524332303a206275726e20616d6f756e7420657863656564732062616c616e604482015261636560f01b60648201526084016106c2565b6001600160a01b038316600090815260208190526040812083830390556002805484929061166690849061229e565b90915550506040518281526000906001600160a01b038516907fddf252ad1be2c89b69c2b068fc378daa952ba7f163c4a11628f55a4df523b3ef906020016112bb565b60007f00000000000000000000000000000000000000000000000000000000000000004614156116f857507f000000000000000000000000000000000000000000000000000000000000000090565b50604080517f00000000000000000000000000000000000000000000000000000000000000006020808301919091527f0000000000000000000000000000000000000000000000000000000000000000828401527f000000000000000000000000000000000000000000000000000000000000000060608301524660808301523060a0808401919091528351808403909101815260c0909201909252805191012090565b8082146117eb5760405162461bcd60e51b815260206004820152601260248201527f5a4b503a20696e76616c696420696e707574000000000000000000000000000060448201526064016106c2565b5050565b604080518082018252601981527f7472616e7366657228616464726573732c75696e74323536290000000000000060209182015281516001600160a01b0385811660248301526044808301869052845180840390910181526064909201845291810180517bffffffffffffffffffffffffffffffffffffffffffffffffffffffff1663a9059cbb60e01b1790529151600092839287169161189091906121eb565b6000604051808303816000865af19150503d80600081146118cd576040519150601f19603f3d011682016040523d82523d6000602084013e6118d2565b606091505b50915091508180156118fc5750805115806118fc5750808060200190518101906118fc9190612187565b6119485760405162461bcd60e51b815260206004820152601b60248201527f636c61696d45726332303a205452414e534645525f4641494c4544000000000060448201526064016106c2565b5050505050565b6001600160a01b0382166119a55760405162461bcd60e51b815260206004820152601f60248201527f45524332303a206d696e7420746f20746865207a65726f20616464726573730060448201526064016106c2565b80600260008282546119b79190612286565b90915550506001600160a01b038216600090815260208190526040812080548392906119e4908490612286565b90915550506040518181526001600160a01b038316906000907fddf252ad1be2c89b69c2b068fc378daa952ba7f163c4a11628f55a4df523b3ef9060200160405180910390a35050565b6001600160a01b038116611a845760405162461bcd60e51b815260206004820152601860248201527f5a4b503a207a65726f206d696e7465722061646472657373000000000000000060448201526064016106c2565b600780547fffffffffffffffffffffffff0000000000000000000000000000000000000000166001600160a01b0392909216919091179055565b6000807f7fffffffffffffffffffffffffffffff5d576e7357a4501ddfe92f46681b20a0831115611af55750600090506003611ba2565b8460ff16601b14158015611b0d57508460ff16601c14155b15611b1e5750600090506004611ba2565b6040805160008082526020820180845289905260ff881692820192909252606081018690526080810185905260019060a0016020604051602081039080840390855afa158015611b72573d6000803e3d6000fd5b5050604051601f1901519150506001600160a01b038116611b9b57600060019250925050611ba2565b9150600090505b94509492505050565b6000816004811115611bcd57634e487b7160e01b600052602160045260246000fd5b1415611bd65750565b6001816004811115611bf857634e487b7160e01b600052602160045260246000fd5b1415611c465760405162461bcd60e51b815260206004820152601860248201527f45434453413a20696e76616c6964207369676e6174757265000000000000000060448201526064016106c2565b6002816004811115611c6857634e487b7160e01b600052602160045260246000fd5b1415611cb65760405162461bcd60e51b815260206004820152601f60248201527f45434453413a20696e76616c6964207369676e6174757265206c656e6774680060448201526064016106c2565b6003816004811115611cd857634e487b7160e01b600052602160045260246000fd5b1415611d315760405162461bcd60e51b815260206004820152602260248201527f45434453413a20696e76616c6964207369676e6174757265202773272076616c604482015261756560f01b60648201526084016106c2565b6004816004811115611d5357634e487b7160e01b600052602160045260246000fd5b14156108d95760405162461bcd60e51b815260206004820152602260248201527f45434453413a20696e76616c6964207369676e6174757265202776272076616c604482015261756560f01b60648201526084016106c2565b80356001600160a01b0381168114611dc357600080fd5b919050565b60008083601f840112611dd9578081fd5b50813567ffffffffffffffff811115611df0578182fd5b6020830191508360208260051b8501011115611e0b57600080fd5b9250929050565b803560ff81168114611dc357600080fd5b600060208284031215611e34578081fd5b611e3d82611dac565b9392505050565b60008060408385031215611e56578081fd5b611e5f83611dac565b9150611e6d60208401611dac565b90509250929050565b600080600060608486031215611e8a578081fd5b611e9384611dac565b9250611ea160208501611dac565b9150604084013590509250925092565b600080600080600080600060e0888a031215611ecb578283fd5b611ed488611dac565b9650611ee260208901611dac565b95506040880135945060608801359350611efe60808901611e12565b925060a0880135915060c0880135905092959891949750929550565b600080600080600060608688031215611f31578081fd5b611f3a86611dac565b9450602086013567ffffffffffffffff80821115611f56578283fd5b611f6289838a01611dc8565b90965094506040880135915080821115611f7a578283fd5b50611f8788828901611dc8565b969995985093965092949392505050565b600080600060408486031215611fac578283fd5b611fb584611dac565b9250602084013567ffffffffffffffff80821115611fd1578384fd5b818601915086601f830112611fe4578384fd5b813581811115611ff2578485fd5b876020828501011115612003578485fd5b6020830194508093505050509250925092565b600080600080600060a0868803121561202d578081fd5b61203686611dac565b9450602086013567ffffffffffffffff80821115612052578283fd5b818801915088601f830112612065578283fd5b81358181111561207757612077612347565b604051601f8201601f19908116603f0116810190838211818310171561209f5761209f612347565b816040528281528b60208487010111156120b7578586fd5b82602086016020830137918201602001859052509550505060408601359250606086013591506120e960808701611e12565b90509295509295909350565b60008060408385031215612107578182fd5b61211083611dac565b946020939093013593505050565b60008060008060408587031215612133578384fd5b843567ffffffffffffffff8082111561214a578586fd5b61215688838901611dc8565b9096509450602087013591508082111561216e578384fd5b5061217b87828801611dc8565b95989497509550505050565b600060208284031215612198578081fd5b81518015158114611e3d578182fd5b6000602082840312156121b8578081fd5b5035919050565b600081518084526121d78160208601602086016122b5565b601f01601f19169290920160200192915050565b600082516121fd8184602087016122b5565b9190910192915050565b600083516122198184602088016122b5565b60609390931b6bffffffffffffffffffffffff19169190920190815260140192915050565b60006001600160a01b0380861683528085166020840152506060604083015261226a60608301846121bf565b95945050505050565b602081526000611e3d60208301846121bf565b6000821982111561229957612299612331565b500190565b6000828210156122b0576122b0612331565b500390565b60005b838110156122d05781810151838201526020016122b8565b83811115610e825750506000910152565b600181811c908216806122f557607f821691505b602082108114156112ea57634e487b7160e01b600052602260045260246000fd5b600060001982141561232a5761232a612331565b5060010190565b634e487b7160e01b600052601160045260246000fd5b634e487b7160e01b600052604160045260246000fdfea164736f6c6343000804000a",
  "linkReferences": {},
  "deployedLinkReferences": {}
}