{
  "_format": "hh-sol-artifact-1",
  "contractName": "ZKPToken",
  "sourceName": "contracts/ZKPToken.sol",
  "abi": [
    {
      "inputs": [
        {
          "internalType": "address",
          "name": "_minter",
          "type": "address"
        }
      ],
      "stateMutability": "nonpayable",
      "type": "constructor"
    },
    {
      "anonymous": false,
      "inputs": [
        {
          "indexed": true,
          "internalType": "address",
          "name": "owner",
          "type": "address"
        },
        {
          "indexed": true,
          "internalType": "address",
          "name": "spender",
          "type": "address"
        },
        {
          "indexed": false,
          "internalType": "uint256",
          "name": "value",
          "type": "uint256"
        }
      ],
      "name": "Approval",
      "type": "event"
    },
    {
      "anonymous": false,
      "inputs": [
        {
          "indexed": true,
          "internalType": "address",
          "name": "from",
          "type": "address"
        },
        {
          "indexed": true,
          "internalType": "address",
          "name": "to",
          "type": "address"
        },
        {
          "indexed": false,
          "internalType": "uint256",
          "name": "value",
          "type": "uint256"
        }
      ],
      "name": "Transfer",
      "type": "event"
    },
    {
      "inputs": [],
      "name": "DOMAIN_SEPARATOR",
      "outputs": [
        {
          "internalType": "bytes32",
          "name": "",
          "type": "bytes32"
        }
      ],
      "stateMutability": "view",
      "type": "function"
    },
    {
      "inputs": [],
      "name": "OWNER",
      "outputs": [
        {
          "internalType": "address",
          "name": "",
          "type": "address"
        }
      ],
      "stateMutability": "view",
      "type": "function"
    },
    {
      "inputs": [
        {
          "internalType": "address",
          "name": "owner",
          "type": "address"
        },
        {
          "internalType": "address",
          "name": "spender",
          "type": "address"
        }
      ],
      "name": "allowance",
      "outputs": [
        {
          "internalType": "uint256",
          "name": "",
          "type": "uint256"
        }
      ],
      "stateMutability": "view",
      "type": "function"
    },
    {
      "inputs": [
        {
          "internalType": "address",
          "name": "spender",
          "type": "address"
        },
        {
          "internalType": "uint256",
          "name": "amount",
          "type": "uint256"
        }
      ],
      "name": "approve",
      "outputs": [
        {
          "internalType": "bool",
          "name": "",
          "type": "bool"
        }
      ],
      "stateMutability": "nonpayable",
      "type": "function"
    },
    {
      "inputs": [
        {
          "internalType": "address",
          "name": "account",
          "type": "address"
        }
      ],
      "name": "balanceOf",
      "outputs": [
        {
          "internalType": "uint256",
          "name": "",
          "type": "uint256"
        }
      ],
      "stateMutability": "view",
      "type": "function"
    },
    {
      "inputs": [
        {
          "internalType": "address[]",
          "name": "_spenders",
          "type": "address[]"
        },
        {
          "internalType": "uint256[]",
          "name": "_subtractedValues",
          "type": "uint256[]"
        }
      ],
      "name": "batchDecreaseAllowance",
      "outputs": [
        {
          "internalType": "bool",
          "name": "",
          "type": "bool"
        }
      ],
      "stateMutability": "nonpayable",
      "type": "function"
    },
    {
      "inputs": [
        {
          "internalType": "address[]",
          "name": "_spenders",
          "type": "address[]"
        },
        {
          "internalType": "uint256[]",
          "name": "_addedValues",
          "type": "uint256[]"
        }
      ],
      "name": "batchIncreaseAllowance",
      "outputs": [
        {
          "internalType": "bool",
          "name": "",
          "type": "bool"
        }
      ],
      "stateMutability": "nonpayable",
      "type": "function"
    },
    {
      "inputs": [
        {
          "internalType": "address[]",
          "name": "_recipients",
          "type": "address[]"
        },
        {
          "internalType": "uint256[]",
          "name": "_values",
          "type": "uint256[]"
        }
      ],
      "name": "batchTransfer",
      "outputs": [
        {
          "internalType": "bool",
          "name": "",
          "type": "bool"
        }
      ],
      "stateMutability": "nonpayable",
      "type": "function"
    },
    {
      "inputs": [
        {
          "internalType": "address",
          "name": "_from",
          "type": "address"
        },
        {
          "internalType": "address[]",
          "name": "_recipients",
          "type": "address[]"
        },
        {
          "internalType": "uint256[]",
          "name": "_values",
          "type": "uint256[]"
        }
      ],
      "name": "batchTransferFrom",
      "outputs": [
        {
          "internalType": "bool",
          "name": "",
          "type": "bool"
        }
      ],
      "stateMutability": "nonpayable",
      "type": "function"
    },
    {
      "inputs": [],
      "name": "decimals",
      "outputs": [
        {
          "internalType": "uint8",
          "name": "",
          "type": "uint8"
        }
      ],
      "stateMutability": "view",
      "type": "function"
    },
    {
      "inputs": [
        {
          "internalType": "address",
          "name": "spender",
          "type": "address"
        },
        {
          "internalType": "uint256",
          "name": "subtractedValue",
          "type": "uint256"
        }
      ],
      "name": "decreaseAllowance",
      "outputs": [
        {
          "internalType": "bool",
          "name": "",
          "type": "bool"
        }
      ],
      "stateMutability": "nonpayable",
      "type": "function"
    },
    {
      "inputs": [
        {
          "internalType": "address",
          "name": "spender",
          "type": "address"
        },
        {
          "internalType": "uint256",
          "name": "addedValue",
          "type": "uint256"
        }
      ],
      "name": "increaseAllowance",
      "outputs": [
        {
          "internalType": "bool",
          "name": "",
          "type": "bool"
        }
      ],
      "stateMutability": "nonpayable",
      "type": "function"
    },
    {
      "inputs": [
        {
          "internalType": "address",
          "name": "_account",
          "type": "address"
        },
        {
          "internalType": "uint256",
          "name": "_amount",
          "type": "uint256"
        }
      ],
      "name": "mint",
      "outputs": [
        {
          "internalType": "bool",
          "name": "",
          "type": "bool"
        }
      ],
      "stateMutability": "nonpayable",
      "type": "function"
    },
    {
      "inputs": [],
      "name": "minter",
      "outputs": [
        {
          "internalType": "address",
          "name": "",
          "type": "address"
        }
      ],
      "stateMutability": "view",
      "type": "function"
    },
    {
      "inputs": [],
      "name": "name",
      "outputs": [
        {
          "internalType": "string",
          "name": "",
          "type": "string"
        }
      ],
      "stateMutability": "view",
      "type": "function"
    },
    {
      "inputs": [
        {
          "internalType": "address",
          "name": "owner",
          "type": "address"
        }
      ],
      "name": "nonces",
      "outputs": [
        {
          "internalType": "uint256",
          "name": "",
          "type": "uint256"
        }
      ],
      "stateMutability": "view",
      "type": "function"
    },
    {
      "inputs": [
        {
          "internalType": "address",
          "name": "owner",
          "type": "address"
        },
        {
          "internalType": "address",
          "name": "spender",
          "type": "address"
        },
        {
          "internalType": "uint256",
          "name": "value",
          "type": "uint256"
        },
        {
          "internalType": "uint256",
          "name": "deadline",
          "type": "uint256"
        },
        {
          "internalType": "uint8",
          "name": "v",
          "type": "uint8"
        },
        {
          "internalType": "bytes32",
          "name": "r",
          "type": "bytes32"
        },
        {
          "internalType": "bytes32",
          "name": "s",
          "type": "bytes32"
        }
      ],
      "name": "permit",
      "outputs": [],
      "stateMutability": "nonpayable",
      "type": "function"
    },
    {
      "inputs": [
        {
          "internalType": "address",
          "name": "_minter",
          "type": "address"
        }
      ],
      "name": "setMinter",
      "outputs": [],
      "stateMutability": "nonpayable",
      "type": "function"
    },
    {
      "inputs": [],
      "name": "symbol",
      "outputs": [
        {
          "internalType": "string",
          "name": "",
          "type": "string"
        }
      ],
      "stateMutability": "view",
      "type": "function"
    },
    {
      "inputs": [],
      "name": "totalSupply",
      "outputs": [
        {
          "internalType": "uint256",
          "name": "",
          "type": "uint256"
        }
      ],
      "stateMutability": "view",
      "type": "function"
    },
    {
      "inputs": [
        {
          "internalType": "address",
          "name": "recipient",
          "type": "address"
        },
        {
          "internalType": "uint256",
          "name": "amount",
          "type": "uint256"
        }
      ],
      "name": "transfer",
      "outputs": [
        {
          "internalType": "bool",
          "name": "",
          "type": "bool"
        }
      ],
      "stateMutability": "nonpayable",
      "type": "function"
    },
    {
      "inputs": [
        {
          "internalType": "address",
          "name": "sender",
          "type": "address"
        },
        {
          "internalType": "address",
          "name": "recipient",
          "type": "address"
        },
        {
          "internalType": "uint256",
          "name": "amount",
          "type": "uint256"
        }
      ],
      "name": "transferFrom",
      "outputs": [
        {
          "internalType": "bool",
          "name": "",
          "type": "bool"
        }
      ],
      "stateMutability": "nonpayable",
      "type": "function"
    }
  ],
  "bytecode": "0x6101606040527f6e71edae12b1b97f4d1f60370fef10105fa2faae0126114a169c64845d6126c9610120523480156200003757600080fd5b5060405162001d8f38038062001d8f8339810160408190526200005a9162000333565b806040518060400160405280600a815260200169122d25a8102a37b5b2b760b11b81525080604051806040016040528060018152602001603160f81b8152506040518060400160405280600a815260200169122d25a8102a37b5b2b760b11b815250604051806040016040528060048152602001630245a4b560e41b8152508160039080519060200190620000f19291906200028d565b508051620001079060049060208401906200028d565b5050825160209384012082519284019290922060c083815260e08290524660a0818152604080517f8b73c3c69bb8fe3d512ecc4cf759cc79239f7b179b0ffacaa9a75d522b39400f818a018190528183019890985260608101959095526080808601939093523085830152805180860390920182529390920190925280519401939093209092526101005250506001600160a01b038116620001f05760405162461bcd60e51b815260206004820152601a60248201527f496d6d4f776e3a207a65726f206f776e6572206164647265737300000000000060448201526064015b60405180910390fd5b60601b6001600160601b031916610140526200020c8162000213565b50620003a0565b6001600160a01b0381166200026b5760405162461bcd60e51b815260206004820152601860248201527f5a4b503a207a65726f206d696e746572206164647265737300000000000000006044820152606401620001e7565b600680546001600160a01b0319166001600160a01b0392909216919091179055565b8280546200029b9062000363565b90600052602060002090601f016020900481019282620002bf57600085556200030a565b82601f10620002da57805160ff19168380011785556200030a565b828001600101855582156200030a579182015b828111156200030a578251825591602001919060010190620002ed565b50620003189291506200031c565b5090565b5b808211156200031857600081556001016200031d565b60006020828403121562000345578081fd5b81516001600160a01b03811681146200035c578182fd5b9392505050565b600181811c908216806200037857607f821691505b602082108114156200039a57634e487b7160e01b600052602260045260246000fd5b50919050565b60805160a05160c05160e05161010051610120516101405160601c6119836200040c600039600081816101f80152818161056c0152610bb5015260006109ca01526000610fba0152600061100901526000610fe401526000610f6801526000610f9101526119836000f3fe608060405234801561001057600080fd5b50600436106101825760003560e01c806364d7cabc116100d8578063a457c2d71161008c578063d8bc226311610066578063d8bc226314610334578063dd62ed3e14610347578063fca3b5aa1461038057600080fd5b8063a457c2d7146102f9578063a9059cbb1461030c578063d505accf1461031f57600080fd5b80637ecebe00116100bd5780637ecebe00146102cb57806388d695b2146102de57806395d89b41146102f157600080fd5b806364d7cabc1461028f57806370a08231146102a257600080fd5b806323b872dd1161013a5780633950935111610114578063395093511461025657806340c10f19146102695780634885b2541461027c57600080fd5b806323b872dd1461022c578063313ce5671461023f5780633644e5151461024e57600080fd5b8063095ea7b31161016b578063095ea7b3146101d0578063117803e3146101f357806318160ddd1461021a57600080fd5b806306fdde031461018757806307546172146101a5575b600080fd5b61018f610393565b60405161019c91906118a5565b60405180910390f35b6006546101b8906001600160a01b031681565b6040516001600160a01b03909116815260200161019c565b6101e36101de366004611813565b610425565b604051901515815260200161019c565b6101b87f000000000000000000000000000000000000000000000000000000000000000081565b6002545b60405190815260200161019c565b6101e361023a3660046116e9565b61043b565b6040516012815260200161019c565b61021e6104ff565b6101e3610264366004611813565b61050e565b6101e3610277366004611813565b61054a565b6101e361028a366004611795565b6105e4565b6101e361029d36600461183c565b6106cb565b61021e6102b0366004611696565b6001600160a01b031660009081526020819052604090205490565b61021e6102d9366004611696565b6107b0565b6101e36102ec36600461183c565b6107d0565b61018f6108a9565b6101e3610307366004611813565b6108b8565b6101e361031a366004611813565b610969565b61033261032d366004611724565b610976565b005b6101e361034236600461183c565b610ada565b61021e6103553660046116b7565b6001600160a01b03918216600090815260016020908152604080832093909416825291909152205490565b61033261038e366004611696565b610bb3565b6060600380546103a290611910565b80601f01602080910402602001604051908101604052809291908181526020018280546103ce90611910565b801561041b5780601f106103f05761010080835404028352916020019161041b565b820191906000526020600020905b8154815290600101906020018083116103fe57829003601f168201915b5050505050905090565b6000610432338484610c37565b50600192915050565b6000610448848484610d5b565b6001600160a01b0384166000908152600160209081526040808320338452909152902054828110156104e75760405162461bcd60e51b815260206004820152602860248201527f45524332303a207472616e7366657220616d6f756e742065786365656473206160448201527f6c6c6f77616e636500000000000000000000000000000000000000000000000060648201526084015b60405180910390fd5b6104f48533858403610c37565b506001949350505050565b6000610509610f64565b905090565b3360008181526001602090815260408083206001600160a01b038716845290915281205490916104329185906105459086906118f8565b610c37565b6006546000906001600160a01b031633148061058e5750336001600160a01b037f000000000000000000000000000000000000000000000000000000000000000016145b6105da5760405162461bcd60e51b815260206004820152601160248201527f5a4b503a20756e617574686f72697a656400000000000000000000000000000060448201526064016104de565b6104328383611057565b60006105f08483611143565b60005b848110156106be576106608787878481811061061f57634e487b7160e01b600052603260045260246000fd5b90506020020160208101906106349190611696565b86868581811061065457634e487b7160e01b600052603260045260246000fd5b9050602002013561043b565b6106ac5760405162461bcd60e51b815260206004820152601860248201527f245a4b503a20756e61626c6520746f207472616e73666572000000000000000060448201526064016104de565b806106b681611945565b9150506105f3565b5060019695505050505050565b60006106d78483611143565b60005b828110156107a45761074686868381811061070557634e487b7160e01b600052603260045260246000fd5b905060200201602081019061071a9190611696565b85858481811061073a57634e487b7160e01b600052603260045260246000fd5b9050602002013561050e565b6107925760405162461bcd60e51b815260206004820152601760248201527f5a4b503a20756e61626c6520746f20696e63726561736500000000000000000060448201526064016104de565b8061079c81611945565b9150506106da565b50600195945050505050565b6001600160a01b0381166000908152600560205260408120545b92915050565b60006107dc8483611143565b60005b848110156107a45761084b86868381811061080a57634e487b7160e01b600052603260045260246000fd5b905060200201602081019061081f9190611696565b85858481811061083f57634e487b7160e01b600052603260045260246000fd5b90506020020135610969565b6108975760405162461bcd60e51b815260206004820152601760248201527f5a4b503a20756e61626c6520746f207472616e7366657200000000000000000060448201526064016104de565b806108a181611945565b9150506107df565b6060600480546103a290611910565b3360009081526001602090815260408083206001600160a01b0386168452909152812054828110156109525760405162461bcd60e51b815260206004820152602560248201527f45524332303a2064656372656173656420616c6c6f77616e63652062656c6f7760448201527f207a65726f00000000000000000000000000000000000000000000000000000060648201526084016104de565b61095f3385858403610c37565b5060019392505050565b6000610432338484610d5b565b834211156109c65760405162461bcd60e51b815260206004820152601d60248201527f45524332305065726d69743a206578706972656420646561646c696e6500000060448201526064016104de565b60007f00000000000000000000000000000000000000000000000000000000000000008888886109f58c611192565b6040805160208101969096526001600160a01b0394851690860152929091166060840152608083015260a082015260c0810186905260e0016040516020818303038152906040528051906020012090506000610a50826111ba565b90506000610a6082878787611208565b9050896001600160a01b0316816001600160a01b031614610ac35760405162461bcd60e51b815260206004820152601e60248201527f45524332305065726d69743a20696e76616c6964207369676e6174757265000060448201526064016104de565b610ace8a8a8a610c37565b50505050505050505050565b6000610ae68483611143565b60005b828110156107a457610b55868683818110610b1457634e487b7160e01b600052603260045260246000fd5b9050602002016020810190610b299190611696565b858584818110610b4957634e487b7160e01b600052603260045260246000fd5b905060200201356108b8565b610ba15760405162461bcd60e51b815260206004820152601760248201527f5a4b503a20756e61626c6520746f20646563726561736500000000000000000060448201526064016104de565b80610bab81611945565b915050610ae9565b7f00000000000000000000000000000000000000000000000000000000000000006001600160a01b03163314610c2b5760405162461bcd60e51b815260206004820152601460248201527f496d6d4f776e3a20756e617574686f72697a656400000000000000000000000060448201526064016104de565b610c3481611230565b50565b6001600160a01b038316610c995760405162461bcd60e51b8152602060048201526024808201527f45524332303a20617070726f76652066726f6d20746865207a65726f206164646044820152637265737360e01b60648201526084016104de565b6001600160a01b038216610cfa5760405162461bcd60e51b815260206004820152602260248201527f45524332303a20617070726f766520746f20746865207a65726f206164647265604482015261737360f01b60648201526084016104de565b6001600160a01b0383811660008181526001602090815260408083209487168084529482529182902085905590518481527f8c5be1e5ebec7d5bd14f71427d1e84f3dd0314c0f7b2291e5b200ac8c7c3b925910160405180910390a3505050565b6001600160a01b038316610dd75760405162461bcd60e51b815260206004820152602560248201527f45524332303a207472616e736665722066726f6d20746865207a65726f20616460448201527f647265737300000000000000000000000000000000000000000000000000000060648201526084016104de565b6001600160a01b038216610e395760405162461bcd60e51b815260206004820152602360248201527f45524332303a207472616e7366657220746f20746865207a65726f206164647260448201526265737360e81b60648201526084016104de565b610e448383836112c0565b6001600160a01b03831660009081526020819052604090205481811015610ed35760405162461bcd60e51b815260206004820152602660248201527f45524332303a207472616e7366657220616d6f756e742065786365656473206260448201527f616c616e6365000000000000000000000000000000000000000000000000000060648201526084016104de565b6001600160a01b03808516600090815260208190526040808220858503905591851681529081208054849290610f0a9084906118f8565b92505081905550826001600160a01b0316846001600160a01b03167fddf252ad1be2c89b69c2b068fc378daa952ba7f163c4a11628f55a4df523b3ef84604051610f5691815260200190565b60405180910390a350505050565b60007f0000000000000000000000000000000000000000000000000000000000000000461415610fb357507f000000000000000000000000000000000000000000000000000000000000000090565b50604080517f00000000000000000000000000000000000000000000000000000000000000006020808301919091527f0000000000000000000000000000000000000000000000000000000000000000828401527f000000000000000000000000000000000000000000000000000000000000000060608301524660808301523060a0808401919091528351808403909101815260c0909201909252805191012090565b6001600160a01b0382166110ad5760405162461bcd60e51b815260206004820152601f60248201527f45524332303a206d696e7420746f20746865207a65726f20616464726573730060448201526064016104de565b6110b9600083836112c0565b80600260008282546110cb91906118f8565b90915550506001600160a01b038216600090815260208190526040812080548392906110f89084906118f8565b90915550506040518181526001600160a01b038316906000907fddf252ad1be2c89b69c2b068fc378daa952ba7f163c4a11628f55a4df523b3ef9060200160405180910390a35b5050565b80821461113f5760405162461bcd60e51b815260206004820152601260248201527f5a4b503a20696e76616c696420696e707574000000000000000000000000000060448201526064016104de565b6001600160a01b03811660009081526005602052604090208054600181018255905b50919050565b60006107ca6111c7610f64565b8360405161190160f01b6020820152602281018390526042810182905260009060620160405160208183030381529060405280519060200120905092915050565b600080600061121987878787611342565b915091506112268161142f565b5095945050505050565b6001600160a01b0381166112865760405162461bcd60e51b815260206004820152601860248201527f5a4b503a207a65726f206d696e7465722061646472657373000000000000000060448201526064016104de565b600680547fffffffffffffffffffffffff0000000000000000000000000000000000000000166001600160a01b0392909216919091179055565b6001600160a01b03831661133d576b033b2e3c9fd0803ce8000000816112e560025490565b6112ef91906118f8565b111561133d5760405162461bcd60e51b815260206004820152601160248201527f5a4b503a2063617020657863656564656400000000000000000000000000000060448201526064016104de565b505050565b6000807f7fffffffffffffffffffffffffffffff5d576e7357a4501ddfe92f46681b20a08311156113795750600090506003611426565b8460ff16601b1415801561139157508460ff16601c14155b156113a25750600090506004611426565b6040805160008082526020820180845289905260ff881692820192909252606081018690526080810185905260019060a0016020604051602081039080840390855afa1580156113f6573d6000803e3d6000fd5b5050604051601f1901519150506001600160a01b03811661141f57600060019250925050611426565b9150600090505b94509492505050565b600081600481111561145157634e487b7160e01b600052602160045260246000fd5b141561145a5750565b600181600481111561147c57634e487b7160e01b600052602160045260246000fd5b14156114ca5760405162461bcd60e51b815260206004820152601860248201527f45434453413a20696e76616c6964207369676e6174757265000000000000000060448201526064016104de565b60028160048111156114ec57634e487b7160e01b600052602160045260246000fd5b141561153a5760405162461bcd60e51b815260206004820152601f60248201527f45434453413a20696e76616c6964207369676e6174757265206c656e6774680060448201526064016104de565b600381600481111561155c57634e487b7160e01b600052602160045260246000fd5b14156115b55760405162461bcd60e51b815260206004820152602260248201527f45434453413a20696e76616c6964207369676e6174757265202773272076616c604482015261756560f01b60648201526084016104de565b60048160048111156115d757634e487b7160e01b600052602160045260246000fd5b1415610c345760405162461bcd60e51b815260206004820152602260248201527f45434453413a20696e76616c6964207369676e6174757265202776272076616c604482015261756560f01b60648201526084016104de565b80356001600160a01b038116811461164757600080fd5b919050565b60008083601f84011261165d578182fd5b50813567ffffffffffffffff811115611674578182fd5b6020830191508360208260051b850101111561168f57600080fd5b9250929050565b6000602082840312156116a7578081fd5b6116b082611630565b9392505050565b600080604083850312156116c9578081fd5b6116d283611630565b91506116e060208401611630565b90509250929050565b6000806000606084860312156116fd578081fd5b61170684611630565b925061171460208501611630565b9150604084013590509250925092565b600080600080600080600060e0888a03121561173e578283fd5b61174788611630565b965061175560208901611630565b95506040880135945060608801359350608088013560ff81168114611778578384fd5b9699959850939692959460a0840135945060c09093013592915050565b6000806000806000606086880312156117ac578081fd5b6117b586611630565b9450602086013567ffffffffffffffff808211156117d1578283fd5b6117dd89838a0161164c565b909650945060408801359150808211156117f5578283fd5b506118028882890161164c565b969995985093965092949392505050565b60008060408385031215611825578182fd5b61182e83611630565b946020939093013593505050565b60008060008060408587031215611851578384fd5b843567ffffffffffffffff80821115611868578586fd5b6118748883890161164c565b9096509450602087013591508082111561188c578384fd5b506118998782880161164c565b95989497509550505050565b6000602080835283518082850152825b818110156118d1578581018301518582016040015282016118b5565b818111156118e25783604083870101525b50601f01601f1916929092016040019392505050565b6000821982111561190b5761190b611960565b500190565b600181811c9082168061192457607f821691505b602082108114156111b457634e487b7160e01b600052602260045260246000fd5b600060001982141561195957611959611960565b5060010190565b634e487b7160e01b600052601160045260246000fdfea164736f6c6343000804000a",
  "linkReferences": {},
  "deployedLinkReferences": {}
}