{
  "_format": "hh-sol-artifact-1",
  "contractName": "EntryPoint",
  "sourceName": "@account-abstraction/contracts/core/EntryPoint.sol",
  "abi": [
    {
      "inputs": [
        {
          "internalType": "uint256",
          "name": "preOpGas",
          "type": "uint256"
        },
        {
          "internalType": "uint256",
          "name": "paid",
          "type": "uint256"
        },
        {
          "internalType": "uint48",
          "name": "validAfter",
          "type": "uint48"
        },
        {
          "internalType": "uint48",
          "name": "validUntil",
          "type": "uint48"
        },
        {
          "internalType": "bool",
          "name": "targetSuccess",
          "type": "bool"
        },
        {
          "internalType": "bytes",
          "name": "targetResult",
          "type": "bytes"
        }
      ],
      "name": "ExecutionResult",
      "type": "error"
    },
    {
      "inputs": [
        {
          "internalType": "uint256",
          "name": "opIndex",
          "type": "uint256"
        },
        {
          "internalType": "string",
          "name": "reason",
          "type": "string"
        }
      ],
      "name": "FailedOp",
      "type": "error"
    },
    {
      "inputs": [
        {
          "internalType": "address",
          "name": "sender",
          "type": "address"
        }
      ],
      "name": "SenderAddressResult",
      "type": "error"
    },
    {
      "inputs": [
        {
          "internalType": "address",
          "name": "aggregator",
          "type": "address"
        }
      ],
      "name": "SignatureValidationFailed",
      "type": "error"
    },
    {
      "inputs": [
        {
          "components": [
            {
              "internalType": "uint256",
              "name": "preOpGas",
              "type": "uint256"
            },
            {
              "internalType": "uint256",
              "name": "prefund",
              "type": "uint256"
            },
            {
              "internalType": "bool",
              "name": "sigFailed",
              "type": "bool"
            },
            {
              "internalType": "uint48",
              "name": "validAfter",
              "type": "uint48"
            },
            {
              "internalType": "uint48",
              "name": "validUntil",
              "type": "uint48"
            },
            {
              "internalType": "bytes",
              "name": "paymasterContext",
              "type": "bytes"
            }
          ],
          "internalType": "struct IEntryPoint.ReturnInfo",
          "name": "returnInfo",
          "type": "tuple"
        },
        {
          "components": [
            {
              "internalType": "uint256",
              "name": "stake",
              "type": "uint256"
            },
            {
              "internalType": "uint256",
              "name": "unstakeDelaySec",
              "type": "uint256"
            }
          ],
          "internalType": "struct IStakeManager.StakeInfo",
          "name": "senderInfo",
          "type": "tuple"
        },
        {
          "components": [
            {
              "internalType": "uint256",
              "name": "stake",
              "type": "uint256"
            },
            {
              "internalType": "uint256",
              "name": "unstakeDelaySec",
              "type": "uint256"
            }
          ],
          "internalType": "struct IStakeManager.StakeInfo",
          "name": "factoryInfo",
          "type": "tuple"
        },
        {
          "components": [
            {
              "internalType": "uint256",
              "name": "stake",
              "type": "uint256"
            },
            {
              "internalType": "uint256",
              "name": "unstakeDelaySec",
              "type": "uint256"
            }
          ],
          "internalType": "struct IStakeManager.StakeInfo",
          "name": "paymasterInfo",
          "type": "tuple"
        }
      ],
      "name": "ValidationResult",
      "type": "error"
    },
    {
      "inputs": [
        {
          "components": [
            {
              "internalType": "uint256",
              "name": "preOpGas",
              "type": "uint256"
            },
            {
              "internalType": "uint256",
              "name": "prefund",
              "type": "uint256"
            },
            {
              "internalType": "bool",
              "name": "sigFailed",
              "type": "bool"
            },
            {
              "internalType": "uint48",
              "name": "validAfter",
              "type": "uint48"
            },
            {
              "internalType": "uint48",
              "name": "validUntil",
              "type": "uint48"
            },
            {
              "internalType": "bytes",
              "name": "paymasterContext",
              "type": "bytes"
            }
          ],
          "internalType": "struct IEntryPoint.ReturnInfo",
          "name": "returnInfo",
          "type": "tuple"
        },
        {
          "components": [
            {
              "internalType": "uint256",
              "name": "stake",
              "type": "uint256"
            },
            {
              "internalType": "uint256",
              "name": "unstakeDelaySec",
              "type": "uint256"
            }
          ],
          "internalType": "struct IStakeManager.StakeInfo",
          "name": "senderInfo",
          "type": "tuple"
        },
        {
          "components": [
            {
              "internalType": "uint256",
              "name": "stake",
              "type": "uint256"
            },
            {
              "internalType": "uint256",
              "name": "unstakeDelaySec",
              "type": "uint256"
            }
          ],
          "internalType": "struct IStakeManager.StakeInfo",
          "name": "factoryInfo",
          "type": "tuple"
        },
        {
          "components": [
            {
              "internalType": "uint256",
              "name": "stake",
              "type": "uint256"
            },
            {
              "internalType": "uint256",
              "name": "unstakeDelaySec",
              "type": "uint256"
            }
          ],
          "internalType": "struct IStakeManager.StakeInfo",
          "name": "paymasterInfo",
          "type": "tuple"
        },
        {
          "components": [
            {
              "internalType": "address",
              "name": "aggregator",
              "type": "address"
            },
            {
              "components": [
                {
                  "internalType": "uint256",
                  "name": "stake",
                  "type": "uint256"
                },
                {
                  "internalType": "uint256",
                  "name": "unstakeDelaySec",
                  "type": "uint256"
                }
              ],
              "internalType": "struct IStakeManager.StakeInfo",
              "name": "stakeInfo",
              "type": "tuple"
            }
          ],
          "internalType": "struct IEntryPoint.AggregatorStakeInfo",
          "name": "aggregatorInfo",
          "type": "tuple"
        }
      ],
      "name": "ValidationResultWithAggregation",
      "type": "error"
    },
    {
      "anonymous": false,
      "inputs": [
        {
          "indexed": true,
          "internalType": "bytes32",
          "name": "userOpHash",
          "type": "bytes32"
        },
        {
          "indexed": true,
          "internalType": "address",
          "name": "sender",
          "type": "address"
        },
        {
          "indexed": false,
          "internalType": "address",
          "name": "factory",
          "type": "address"
        },
        {
          "indexed": false,
          "internalType": "address",
          "name": "paymaster",
          "type": "address"
        }
      ],
      "name": "AccountDeployed",
      "type": "event"
    },
    {
      "anonymous": false,
      "inputs": [],
      "name": "BeforeExecution",
      "type": "event"
    },
    {
      "anonymous": false,
      "inputs": [
        {
          "indexed": true,
          "internalType": "address",
          "name": "account",
          "type": "address"
        },
        {
          "indexed": false,
          "internalType": "uint256",
          "name": "totalDeposit",
          "type": "uint256"
        }
      ],
      "name": "Deposited",
      "type": "event"
    },
    {
      "anonymous": false,
      "inputs": [
        {
          "indexed": true,
          "internalType": "address",
          "name": "aggregator",
          "type": "address"
        }
      ],
      "name": "SignatureAggregatorChanged",
      "type": "event"
    },
    {
      "anonymous": false,
      "inputs": [
        {
          "indexed": true,
          "internalType": "address",
          "name": "account",
          "type": "address"
        },
        {
          "indexed": false,
          "internalType": "uint256",
          "name": "totalStaked",
          "type": "uint256"
        },
        {
          "indexed": false,
          "internalType": "uint256",
          "name": "unstakeDelaySec",
          "type": "uint256"
        }
      ],
      "name": "StakeLocked",
      "type": "event"
    },
    {
      "anonymous": false,
      "inputs": [
        {
          "indexed": true,
          "internalType": "address",
          "name": "account",
          "type": "address"
        },
        {
          "indexed": false,
          "internalType": "uint256",
          "name": "withdrawTime",
          "type": "uint256"
        }
      ],
      "name": "StakeUnlocked",
      "type": "event"
    },
    {
      "anonymous": false,
      "inputs": [
        {
          "indexed": true,
          "internalType": "address",
          "name": "account",
          "type": "address"
        },
        {
          "indexed": false,
          "internalType": "address",
          "name": "withdrawAddress",
          "type": "address"
        },
        {
          "indexed": false,
          "internalType": "uint256",
          "name": "amount",
          "type": "uint256"
        }
      ],
      "name": "StakeWithdrawn",
      "type": "event"
    },
    {
      "anonymous": false,
      "inputs": [
        {
          "indexed": true,
          "internalType": "bytes32",
          "name": "userOpHash",
          "type": "bytes32"
        },
        {
          "indexed": true,
          "internalType": "address",
          "name": "sender",
          "type": "address"
        },
        {
          "indexed": true,
          "internalType": "address",
          "name": "paymaster",
          "type": "address"
        },
        {
          "indexed": false,
          "internalType": "uint256",
          "name": "nonce",
          "type": "uint256"
        },
        {
          "indexed": false,
          "internalType": "bool",
          "name": "success",
          "type": "bool"
        },
        {
          "indexed": false,
          "internalType": "uint256",
          "name": "actualGasCost",
          "type": "uint256"
        },
        {
          "indexed": false,
          "internalType": "uint256",
          "name": "actualGasUsed",
          "type": "uint256"
        }
      ],
      "name": "UserOperationEvent",
      "type": "event"
    },
    {
      "anonymous": false,
      "inputs": [
        {
          "indexed": true,
          "internalType": "bytes32",
          "name": "userOpHash",
          "type": "bytes32"
        },
        {
          "indexed": true,
          "internalType": "address",
          "name": "sender",
          "type": "address"
        },
        {
          "indexed": false,
          "internalType": "uint256",
          "name": "nonce",
          "type": "uint256"
        },
        {
          "indexed": false,
          "internalType": "bytes",
          "name": "revertReason",
          "type": "bytes"
        }
      ],
      "name": "UserOperationRevertReason",
      "type": "event"
    },
    {
      "anonymous": false,
      "inputs": [
        {
          "indexed": true,
          "internalType": "address",
          "name": "account",
          "type": "address"
        },
        {
          "indexed": false,
          "internalType": "address",
          "name": "withdrawAddress",
          "type": "address"
        },
        {
          "indexed": false,
          "internalType": "uint256",
          "name": "amount",
          "type": "uint256"
        }
      ],
      "name": "Withdrawn",
      "type": "event"
    },
    {
      "inputs": [],
      "name": "SIG_VALIDATION_FAILED",
      "outputs": [
        {
          "internalType": "uint256",
          "name": "",
          "type": "uint256"
        }
      ],
      "stateMutability": "view",
      "type": "function"
    },
    {
      "inputs": [
        {
          "internalType": "bytes",
          "name": "initCode",
          "type": "bytes"
        },
        {
          "internalType": "address",
          "name": "sender",
          "type": "address"
        },
        {
          "internalType": "bytes",
          "name": "paymasterAndData",
          "type": "bytes"
        }
      ],
      "name": "_validateSenderAndPaymaster",
      "outputs": [],
      "stateMutability": "view",
      "type": "function"
    },
    {
      "inputs": [
        {
          "internalType": "uint32",
          "name": "unstakeDelaySec",
          "type": "uint32"
        }
      ],
      "name": "addStake",
      "outputs": [],
      "stateMutability": "payable",
      "type": "function"
    },
    {
      "inputs": [
        {
          "internalType": "address",
          "name": "account",
          "type": "address"
        }
      ],
      "name": "balanceOf",
      "outputs": [
        {
          "internalType": "uint256",
          "name": "",
          "type": "uint256"
        }
      ],
      "stateMutability": "view",
      "type": "function"
    },
    {
      "inputs": [
        {
          "internalType": "address",
          "name": "account",
          "type": "address"
        }
      ],
      "name": "depositTo",
      "outputs": [],
      "stateMutability": "payable",
      "type": "function"
    },
    {
      "inputs": [
        {
          "internalType": "address",
          "name": "",
          "type": "address"
        }
      ],
      "name": "deposits",
      "outputs": [
        {
          "internalType": "uint112",
          "name": "deposit",
          "type": "uint112"
        },
        {
          "internalType": "bool",
          "name": "staked",
          "type": "bool"
        },
        {
          "internalType": "uint112",
          "name": "stake",
          "type": "uint112"
        },
        {
          "internalType": "uint32",
          "name": "unstakeDelaySec",
          "type": "uint32"
        },
        {
          "internalType": "uint48",
          "name": "withdrawTime",
          "type": "uint48"
        }
      ],
      "stateMutability": "view",
      "type": "function"
    },
    {
      "inputs": [
        {
          "internalType": "address",
          "name": "account",
          "type": "address"
        }
      ],
      "name": "getDepositInfo",
      "outputs": [
        {
          "components": [
            {
              "internalType": "uint112",
              "name": "deposit",
              "type": "uint112"
            },
            {
              "internalType": "bool",
              "name": "staked",
              "type": "bool"
            },
            {
              "internalType": "uint112",
              "name": "stake",
              "type": "uint112"
            },
            {
              "internalType": "uint32",
              "name": "unstakeDelaySec",
              "type": "uint32"
            },
            {
              "internalType": "uint48",
              "name": "withdrawTime",
              "type": "uint48"
            }
          ],
          "internalType": "struct IStakeManager.DepositInfo",
          "name": "info",
          "type": "tuple"
        }
      ],
      "stateMutability": "view",
      "type": "function"
    },
    {
      "inputs": [
        {
          "internalType": "address",
          "name": "sender",
          "type": "address"
        },
        {
          "internalType": "uint192",
          "name": "key",
          "type": "uint192"
        }
      ],
      "name": "getNonce",
      "outputs": [
        {
          "internalType": "uint256",
          "name": "nonce",
          "type": "uint256"
        }
      ],
      "stateMutability": "view",
      "type": "function"
    },
    {
      "inputs": [
        {
          "internalType": "bytes",
          "name": "initCode",
          "type": "bytes"
        }
      ],
      "name": "getSenderAddress",
      "outputs": [],
      "stateMutability": "nonpayable",
      "type": "function"
    },
    {
      "inputs": [
        {
          "components": [
            {
              "internalType": "address",
              "name": "sender",
              "type": "address"
            },
            {
              "internalType": "uint256",
              "name": "nonce",
              "type": "uint256"
            },
            {
              "internalType": "bytes",
              "name": "initCode",
              "type": "bytes"
            },
            {
              "internalType": "bytes",
              "name": "callData",
              "type": "bytes"
            },
            {
              "internalType": "uint256",
              "name": "callGasLimit",
              "type": "uint256"
            },
            {
              "internalType": "uint256",
              "name": "verificationGasLimit",
              "type": "uint256"
            },
            {
              "internalType": "uint256",
              "name": "preVerificationGas",
              "type": "uint256"
            },
            {
              "internalType": "uint256",
              "name": "maxFeePerGas",
              "type": "uint256"
            },
            {
              "internalType": "uint256",
              "name": "maxPriorityFeePerGas",
              "type": "uint256"
            },
            {
              "internalType": "bytes",
              "name": "paymasterAndData",
              "type": "bytes"
            },
            {
              "internalType": "bytes",
              "name": "signature",
              "type": "bytes"
            }
          ],
          "internalType": "struct UserOperation",
          "name": "userOp",
          "type": "tuple"
        }
      ],
      "name": "getUserOpHash",
      "outputs": [
        {
          "internalType": "bytes32",
          "name": "",
          "type": "bytes32"
        }
      ],
      "stateMutability": "view",
      "type": "function"
    },
    {
      "inputs": [
        {
          "components": [
            {
              "components": [
                {
                  "internalType": "address",
                  "name": "sender",
                  "type": "address"
                },
                {
                  "internalType": "uint256",
                  "name": "nonce",
                  "type": "uint256"
                },
                {
                  "internalType": "bytes",
                  "name": "initCode",
                  "type": "bytes"
                },
                {
                  "internalType": "bytes",
                  "name": "callData",
                  "type": "bytes"
                },
                {
                  "internalType": "uint256",
                  "name": "callGasLimit",
                  "type": "uint256"
                },
                {
                  "internalType": "uint256",
                  "name": "verificationGasLimit",
                  "type": "uint256"
                },
                {
                  "internalType": "uint256",
                  "name": "preVerificationGas",
                  "type": "uint256"
                },
                {
                  "internalType": "uint256",
                  "name": "maxFeePerGas",
                  "type": "uint256"
                },
                {
                  "internalType": "uint256",
                  "name": "maxPriorityFeePerGas",
                  "type": "uint256"
                },
                {
                  "internalType": "bytes",
                  "name": "paymasterAndData",
                  "type": "bytes"
                },
                {
                  "internalType": "bytes",
                  "name": "signature",
                  "type": "bytes"
                }
              ],
              "internalType": "struct UserOperation[]",
              "name": "userOps",
              "type": "tuple[]"
            },
            {
              "internalType": "contract IAggregator",
              "name": "aggregator",
              "type": "address"
            },
            {
              "internalType": "bytes",
              "name": "signature",
              "type": "bytes"
            }
          ],
          "internalType": "struct IEntryPoint.UserOpsPerAggregator[]",
          "name": "opsPerAggregator",
          "type": "tuple[]"
        },
        {
          "internalType": "address payable",
          "name": "beneficiary",
          "type": "address"
        }
      ],
      "name": "handleAggregatedOps",
      "outputs": [],
      "stateMutability": "nonpayable",
      "type": "function"
    },
    {
      "inputs": [
        {
          "components": [
            {
              "internalType": "address",
              "name": "sender",
              "type": "address"
            },
            {
              "internalType": "uint256",
              "name": "nonce",
              "type": "uint256"
            },
            {
              "internalType": "bytes",
              "name": "initCode",
              "type": "bytes"
            },
            {
              "internalType": "bytes",
              "name": "callData",
              "type": "bytes"
            },
            {
              "internalType": "uint256",
              "name": "callGasLimit",
              "type": "uint256"
            },
            {
              "internalType": "uint256",
              "name": "verificationGasLimit",
              "type": "uint256"
            },
            {
              "internalType": "uint256",
              "name": "preVerificationGas",
              "type": "uint256"
            },
            {
              "internalType": "uint256",
              "name": "maxFeePerGas",
              "type": "uint256"
            },
            {
              "internalType": "uint256",
              "name": "maxPriorityFeePerGas",
              "type": "uint256"
            },
            {
              "internalType": "bytes",
              "name": "paymasterAndData",
              "type": "bytes"
            },
            {
              "internalType": "bytes",
              "name": "signature",
              "type": "bytes"
            }
          ],
          "internalType": "struct UserOperation[]",
          "name": "ops",
          "type": "tuple[]"
        },
        {
          "internalType": "address payable",
          "name": "beneficiary",
          "type": "address"
        }
      ],
      "name": "handleOps",
      "outputs": [],
      "stateMutability": "nonpayable",
      "type": "function"
    },
    {
      "inputs": [
        {
          "internalType": "uint192",
          "name": "key",
          "type": "uint192"
        }
      ],
      "name": "incrementNonce",
      "outputs": [],
      "stateMutability": "nonpayable",
      "type": "function"
    },
    {
      "inputs": [
        {
          "internalType": "bytes",
          "name": "callData",
          "type": "bytes"
        },
        {
          "components": [
            {
              "components": [
                {
                  "internalType": "address",
                  "name": "sender",
                  "type": "address"
                },
                {
                  "internalType": "uint256",
                  "name": "nonce",
                  "type": "uint256"
                },
                {
                  "internalType": "uint256",
                  "name": "callGasLimit",
                  "type": "uint256"
                },
                {
                  "internalType": "uint256",
                  "name": "verificationGasLimit",
                  "type": "uint256"
                },
                {
                  "internalType": "uint256",
                  "name": "preVerificationGas",
                  "type": "uint256"
                },
                {
                  "internalType": "address",
                  "name": "paymaster",
                  "type": "address"
                },
                {
                  "internalType": "uint256",
                  "name": "maxFeePerGas",
                  "type": "uint256"
                },
                {
                  "internalType": "uint256",
                  "name": "maxPriorityFeePerGas",
                  "type": "uint256"
                }
              ],
              "internalType": "struct EntryPoint.MemoryUserOp",
              "name": "mUserOp",
              "type": "tuple"
            },
            {
              "internalType": "bytes32",
              "name": "userOpHash",
              "type": "bytes32"
            },
            {
              "internalType": "uint256",
              "name": "prefund",
              "type": "uint256"
            },
            {
              "internalType": "uint256",
              "name": "contextOffset",
              "type": "uint256"
            },
            {
              "internalType": "uint256",
              "name": "preOpGas",
              "type": "uint256"
            }
          ],
          "internalType": "struct EntryPoint.UserOpInfo",
          "name": "opInfo",
          "type": "tuple"
        },
        {
          "internalType": "bytes",
          "name": "context",
          "type": "bytes"
        }
      ],
      "name": "innerHandleOp",
      "outputs": [
        {
          "internalType": "uint256",
          "name": "actualGasCost",
          "type": "uint256"
        }
      ],
      "stateMutability": "nonpayable",
      "type": "function"
    },
    {
      "inputs": [
        {
          "internalType": "address",
          "name": "",
          "type": "address"
        },
        {
          "internalType": "uint192",
          "name": "",
          "type": "uint192"
        }
      ],
      "name": "nonceSequenceNumber",
      "outputs": [
        {
          "internalType": "uint256",
          "name": "",
          "type": "uint256"
        }
      ],
      "stateMutability": "view",
      "type": "function"
    },
    {
      "inputs": [
        {
          "components": [
            {
              "internalType": "address",
              "name": "sender",
              "type": "address"
            },
            {
              "internalType": "uint256",
              "name": "nonce",
              "type": "uint256"
            },
            {
              "internalType": "bytes",
              "name": "initCode",
              "type": "bytes"
            },
            {
              "internalType": "bytes",
              "name": "callData",
              "type": "bytes"
            },
            {
              "internalType": "uint256",
              "name": "callGasLimit",
              "type": "uint256"
            },
            {
              "internalType": "uint256",
              "name": "verificationGasLimit",
              "type": "uint256"
            },
            {
              "internalType": "uint256",
              "name": "preVerificationGas",
              "type": "uint256"
            },
            {
              "internalType": "uint256",
              "name": "maxFeePerGas",
              "type": "uint256"
            },
            {
              "internalType": "uint256",
              "name": "maxPriorityFeePerGas",
              "type": "uint256"
            },
            {
              "internalType": "bytes",
              "name": "paymasterAndData",
              "type": "bytes"
            },
            {
              "internalType": "bytes",
              "name": "signature",
              "type": "bytes"
            }
          ],
          "internalType": "struct UserOperation",
          "name": "op",
          "type": "tuple"
        },
        {
          "internalType": "address",
          "name": "target",
          "type": "address"
        },
        {
          "internalType": "bytes",
          "name": "targetCallData",
          "type": "bytes"
        }
      ],
      "name": "simulateHandleOp",
      "outputs": [],
      "stateMutability": "nonpayable",
      "type": "function"
    },
    {
      "inputs": [
        {
          "components": [
            {
              "internalType": "address",
              "name": "sender",
              "type": "address"
            },
            {
              "internalType": "uint256",
              "name": "nonce",
              "type": "uint256"
            },
            {
              "internalType": "bytes",
              "name": "initCode",
              "type": "bytes"
            },
            {
              "internalType": "bytes",
              "name": "callData",
              "type": "bytes"
            },
            {
              "internalType": "uint256",
              "name": "callGasLimit",
              "type": "uint256"
            },
            {
              "internalType": "uint256",
              "name": "verificationGasLimit",
              "type": "uint256"
            },
            {
              "internalType": "uint256",
              "name": "preVerificationGas",
              "type": "uint256"
            },
            {
              "internalType": "uint256",
              "name": "maxFeePerGas",
              "type": "uint256"
            },
            {
              "internalType": "uint256",
              "name": "maxPriorityFeePerGas",
              "type": "uint256"
            },
            {
              "internalType": "bytes",
              "name": "paymasterAndData",
              "type": "bytes"
            },
            {
              "internalType": "bytes",
              "name": "signature",
              "type": "bytes"
            }
          ],
          "internalType": "struct UserOperation",
          "name": "userOp",
          "type": "tuple"
        }
      ],
      "name": "simulateValidation",
      "outputs": [],
      "stateMutability": "nonpayable",
      "type": "function"
    },
    {
      "inputs": [],
      "name": "unlockStake",
      "outputs": [],
      "stateMutability": "nonpayable",
      "type": "function"
    },
    {
      "inputs": [
        {
          "internalType": "address payable",
          "name": "withdrawAddress",
          "type": "address"
        }
      ],
      "name": "withdrawStake",
      "outputs": [],
      "stateMutability": "nonpayable",
      "type": "function"
    },
    {
      "inputs": [
        {
          "internalType": "address payable",
          "name": "withdrawAddress",
          "type": "address"
        },
        {
          "internalType": "uint256",
          "name": "withdrawAmount",
          "type": "uint256"
        }
      ],
      "name": "withdrawTo",
      "outputs": [],
      "stateMutability": "nonpayable",
      "type": "function"
    },
    {
      "stateMutability": "payable",
      "type": "receive"
    }
  ],
  "bytecode": "0x60a0604052604051620000129062000055565b604051809103906000f0801580156200002f573d6000803e3d6000fd5b506001600160a01b03166080523480156200004957600080fd5b50600160025562000063565b6101ea8062003fa383390190565b608051613f1d62000086600039600081816112820152612d9d0152613f1d6000f3fe6080604052600436106101235760003560e01c80638f41ec5a116100a0578063bb9fe6bf11610064578063bb9fe6bf1461041a578063c23a5cea1461042f578063d6383f941461044f578063ee2194231461046f578063fc7e286d1461048f57600080fd5b80638f41ec5a14610392578063957122ab146103a75780639b249f69146103c7578063a6193531146103e7578063b760faf91461040757600080fd5b8063205c2878116100e7578063205c2878146101f657806335567e1a146102165780634b1d7cf5146102365780635287ce121461025657806370a082311461037257600080fd5b80630396cb60146101385780630bd28e3b1461014b5780631b2e01b81461016b5780631d732756146101b65780631fad948c146101d657600080fd5b366101335761013133610543565b005b600080fd5b610131610146366004613070565b6105aa565b34801561015757600080fd5b506101316101663660046130b2565b610830565b34801561017757600080fd5b506101a36101863660046130ed565b600160209081526000928352604080842090915290825290205481565b6040519081526020015b60405180910390f35b3480156101c257600080fd5b506101a36101d13660046132e7565b610867565b3480156101e257600080fd5b506101316101f13660046133f0565b6109d4565b34801561020257600080fd5b50610131610211366004613446565b610b50565b34801561022257600080fd5b506101a36102313660046130ed565b610cc8565b34801561024257600080fd5b506101316102513660046133f0565b610d0e565b34801561026257600080fd5b5061031a610271366004613472565b6040805160a081018252600080825260208201819052918101829052606081018290526080810191909152506001600160a01b031660009081526020818152604091829020825160a08101845281546001600160701b038082168352600160701b820460ff16151594830194909452600160781b90049092169282019290925260019091015463ffffffff81166060830152600160201b900465ffffffffffff16608082015290565b6040805182516001600160701b03908116825260208085015115159083015283830151169181019190915260608083015163ffffffff169082015260809182015165ffffffffffff169181019190915260a0016101ad565b34801561037e57600080fd5b506101a361038d366004613472565b61114b565b34801561039e57600080fd5b506101a3600181565b3480156103b357600080fd5b506101316103c236600461348f565b61116f565b3480156103d357600080fd5b506101316103e2366004613513565b611268565b3480156103f357600080fd5b506101a361040236600461356d565b611323565b610131610415366004613472565b610543565b34801561042657600080fd5b50610131611365565b34801561043b57600080fd5b5061013161044a366004613472565b61148d565b34801561045b57600080fd5b5061013161046a3660046135a1565b6116be565b34801561047b57600080fd5b5061013161048a36600461356d565b6117b9565b34801561049b57600080fd5b506104fd6104aa366004613472565b600060208190529081526040902080546001909101546001600160701b0380831692600160701b810460ff1692600160781b9091049091169063ffffffff811690600160201b900465ffffffffffff1685565b604080516001600160701b0396871681529415156020860152929094169183019190915263ffffffff16606082015265ffffffffffff909116608082015260a0016101ad565b61054d8134611995565b6001600160a01b03811660008181526020818152604091829020805492516001600160701b03909316835292917f2da466a7b24304f47e87fa2e1e5a81b9831ce54fec19055ce277ca2f39ba42c491015b60405180910390a25050565b33600090815260208190526040902063ffffffff82166106115760405162461bcd60e51b815260206004820152601a60248201527f6d757374207370656369667920756e7374616b652064656c617900000000000060448201526064015b60405180910390fd5b600181015463ffffffff908116908316101561066f5760405162461bcd60e51b815260206004820152601c60248201527f63616e6e6f7420646563726561736520756e7374616b652074696d65000000006044820152606401610608565b805460009061068f903490600160781b90046001600160701b0316613618565b9050600081116106d65760405162461bcd60e51b81526020600482015260126024820152711b9bc81cdd185ad9481cdc1958da599a595960721b6044820152606401610608565b6001600160701b0381111561071e5760405162461bcd60e51b815260206004820152600e60248201526d7374616b65206f766572666c6f7760901b6044820152606401610608565b6040805160a08101825283546001600160701b0390811682526001602080840182815286841685870190815263ffffffff808b16606088019081526000608089018181523380835296829052908a902098518954955194518916600160781b02600160781b600160e81b0319951515600160701b026001600160781b03199097169190991617949094179290921695909517865551949092018054925165ffffffffffff16600160201b0269ffffffffffffffffffff19909316949093169390931717905590517fa5ae833d0bb1dcd632d98a8b70973e8516812898e19bf27b70071ebc8dc52c0190610823908490879091825263ffffffff16602082015260400190565b60405180910390a2505050565b3360009081526001602090815260408083206001600160c01b0385168452909152812080549161085f8361362b565b919050555050565b6000805a90503330146108b65760405162461bcd60e51b81526020600482015260176024820152764141393220696e7465726e616c2063616c6c206f6e6c7960481b6044820152606401610608565b8451604081015160608201518101611388015a10156108e05763deaddead60e01b60005260206000fd5b8751600090156109745760006108fd846000015160008c86611a31565b905080610972576000610911610800611a49565b80519091501561096c5784600001516001600160a01b03168a602001517f1c4fada7374c0a9ee8841fc38afe82932dc0f8e69012e927f061a8bae611a201876020015184604051610963929190613694565b60405180910390a35b60019250505b505b600088608001515a86030190506109c66000838b8b8b8080601f016020809104026020016040519081016040528093929190818152602001838380828437600092019190915250889250611a75915050565b9a9950505050505050505050565b6109dc611d6c565b816000816001600160401b038111156109f7576109f7613122565b604051908082528060200260200182016040528015610a3057816020015b610a1d612fe6565b815260200190600190039081610a155790505b50905060005b82811015610aa9576000828281518110610a5257610a526136ad565b60200260200101519050600080610a8d848a8a87818110610a7557610a756136ad565b9050602002810190610a8791906136c3565b85611dc3565b91509150610a9e8483836000611fa1565b505050600101610a36565b506040516000907fbb47ee3e183a558b1a2ff0874b079f3fc5478b7454eacf2bfc5af2ff5878f972908290a160005b83811015610b3357610b2781888884818110610af657610af66136ad565b9050602002810190610b0891906136c3565b858481518110610b1a57610b1a6136ad565b6020026020010151612137565b90910190600101610ad8565b50610b3e848261225e565b505050610b4b6001600255565b505050565b33600090815260208190526040902080546001600160701b0316821115610bb55760405162461bcd60e51b8152602060048201526019602482015278576974686472617720616d6f756e7420746f6f206c6172676560381b6044820152606401610608565b8054610bcb9083906001600160701b03166136e4565b81546001600160701b0319166001600160701b0391909116178155604080516001600160a01b03851681526020810184905233917fd1c19fbcd4551a5edfb66d43d2e337c04837afda3482b42bdf569a8fccdae5fb910160405180910390a26000836001600160a01b03168360405160006040518083038185875af1925050503d8060008114610c77576040519150601f19603f3d011682016040523d82523d6000602084013e610c7c565b606091505b5050905080610cc25760405162461bcd60e51b81526020600482015260126024820152716661696c656420746f20776974686472617760701b6044820152606401610608565b50505050565b6001600160a01b03821660009081526001602090815260408083206001600160c01b038516845290915290819020549082901b67ffffffffffffffff1916175b92915050565b610d16611d6c565b816000805b82811015610e845736868683818110610d3657610d366136ad565b9050602002810190610d4891906136f7565b9050366000610d57838061370d565b90925090506000610d6e6040850160208601613472565b90506000196001600160a01b03821601610dc45760405162461bcd60e51b815260206004820152601760248201527620a09c9b1034b73b30b634b21030b3b3b932b3b0ba37b960491b6044820152606401610608565b6001600160a01b03811615610e61576001600160a01b03811663e3563a4f8484610df16040890189613756565b6040518563ffffffff1660e01b8152600401610e109493929190613901565b60006040518083038186803b158015610e2857600080fd5b505afa925050508015610e39575060015b610e615760405163086a9f7560e41b81526001600160a01b0382166004820152602401610608565b610e6b8287613618565b9550505050508080610e7c9061362b565b915050610d1b565b506000816001600160401b03811115610e9f57610e9f613122565b604051908082528060200260200182016040528015610ed857816020015b610ec5612fe6565b815260200190600190039081610ebd5790505b506040519091507fbb47ee3e183a558b1a2ff0874b079f3fc5478b7454eacf2bfc5af2ff5878f97290600090a16000805b84811015610fed5736888883818110610f2457610f246136ad565b9050602002810190610f3691906136f7565b9050366000610f45838061370d565b90925090506000610f5c6040850160208601613472565b90508160005b81811015610fd4576000898981518110610f7e57610f7e6136ad565b60200260200101519050600080610fa18b898987818110610a7557610a756136ad565b91509150610fb184838389611fa1565b8a610fbb8161362b565b9b50505050508080610fcc9061362b565b915050610f62565b5050505050508080610fe59061362b565b915050610f09565b50600080915060005b858110156111065736898983818110611011576110116136ad565b905060200281019061102391906136f7565b90506110356040820160208301613472565b6001600160a01b03167f575ff3acadd5ab348fe1855e217e0f3678f8d767d7494c9f9fefbee2e17cca4d60405160405180910390a2366000611077838061370d565b90925090508060005b818110156110ee576110c28885858481811061109e5761109e6136ad565b90506020028101906110b091906136c3565b8b8b81518110610b1a57610b1a6136ad565b6110cc9088613618565b9650876110d88161362b565b98505080806110e69061362b565b915050611080565b505050505080806110fe9061362b565b915050610ff6565b506040516000907f575ff3acadd5ab348fe1855e217e0f3678f8d767d7494c9f9fefbee2e17cca4d908290a261113c868261225e565b5050505050610b4b6001600255565b6001600160a01b03166000908152602081905260409020546001600160701b031690565b8315801561118557506001600160a01b0383163b155b156111ce5760405162461bcd60e51b815260206004820152601960248201527810504c8c081858d8dbdd5b9d081b9bdd0819195c1b1bde5959603a1b6044820152606401610608565b601481106112465760006111e5601482848661397e565b6111ee916139a8565b60601c9050803b6000036112445760405162461bcd60e51b815260206004820152601b60248201527f41413330207061796d6173746572206e6f74206465706c6f79656400000000006044820152606401610608565b505b60405162461bcd60e51b81526020600482015260006024820152604401610608565b604051632b870d1b60e11b81526000906001600160a01b037f0000000000000000000000000000000000000000000000000000000000000000169063570e1a36906112b990869086906004016139dd565b6020604051808303816000875af11580156112d8573d6000803e3d6000fd5b505050506040513d601f19601f820116820180604052508101906112fc91906139f1565b604051633653dc0360e11b81526001600160a01b0382166004820152909150602401610608565b600061132e82612352565b6040805160208101929092523090820152466060820152608001604051602081830303815290604052805190602001209050919050565b3360009081526020819052604081206001810154909163ffffffff90911690036113be5760405162461bcd60e51b815260206004820152600a6024820152691b9bdd081cdd185ad95960b21b6044820152606401610608565b8054600160701b900460ff1661140a5760405162461bcd60e51b8152602060048201526011602482015270616c726561647920756e7374616b696e6760781b6044820152606401610608565b60018101546000906114229063ffffffff1642613a0e565b60018301805469ffffffffffff000000001916600160201b65ffffffffffff841690810291909117909155835460ff60701b1916845560405190815290915033907ffa9b3c14cc825c412c9ed81b3ba365a5b459439403f18829e572ed53a4180f0a9060200161059e565b3360009081526020819052604090208054600160781b90046001600160701b0316806114f25760405162461bcd60e51b81526020600482015260146024820152734e6f207374616b6520746f20776974686472617760601b6044820152606401610608565b6001820154600160201b900465ffffffffffff166115525760405162461bcd60e51b815260206004820152601d60248201527f6d7573742063616c6c20756e6c6f636b5374616b6528292066697273740000006044820152606401610608565b600182015442600160201b90910465ffffffffffff1611156115b65760405162461bcd60e51b815260206004820152601b60248201527f5374616b65207769746864726177616c206973206e6f742064756500000000006044820152606401610608565b60018201805469ffffffffffffffffffff191690558154600160781b600160e81b0319168255604080516001600160a01b03851681526020810183905233917fb7c918e0e249f999e965cafeb6c664271b3f4317d296461500e71da39f0cbda3910160405180910390a26000836001600160a01b03168260405160006040518083038185875af1925050503d806000811461166d576040519150601f19603f3d011682016040523d82523d6000602084013e611672565b606091505b5050905080610cc25760405162461bcd60e51b81526020600482015260186024820152776661696c656420746f207769746864726177207374616b6560401b6044820152606401610608565b6116c6612fe6565b6116cf8561236b565b6000806116de60008885611dc3565b9150915060006116ee8383612445565b90506116f943600052565b600061170760008a87612137565b905061171243600052565b600060606001600160a01b038a161561178857896001600160a01b0316898960405161173f929190613a34565b6000604051808303816000865af19150503d806000811461177c576040519150601f19603f3d011682016040523d82523d6000602084013e611781565b606091505b5090925090505b866080015183856020015186604001518585604051630116f59360e71b815260040161060896959493929190613a44565b6117c1612fe6565b6117ca8261236b565b6000806117d960008585611dc3565b9150915060006117f0846000015160a00151612511565b84515190915060009061180290612511565b9050611821604051806040016040528060008152602001600081525090565b36600061183160408a018a613756565b909250905060006014821015611848576000611863565b61185660146000848661397e565b61185f916139a8565b60601c5b905061186e81612511565b9350505050600061187f8686612445565b9050600081600001519050600060016001600160a01b0316826001600160a01b031614905060006040518060c001604052808b6080015181526020018b6040015181526020018315158152602001856020015165ffffffffffff168152602001856040015165ffffffffffff1681526020016118fc8c6060015190565b905290506001600160a01b0383161580159061192257506001600160a01b038316600114155b156119745760006040518060400160405280856001600160a01b0316815260200161194c86612511565b81525090508187878a84604051633ebb2d3960e21b8152600401610608959493929190613ae6565b8086868960405163e0cff05f60e01b81526004016106089493929190613b66565b6001600160a01b038216600090815260208190526040812080549091906119c69084906001600160701b0316613618565b90506001600160701b03811115611a125760405162461bcd60e51b815260206004820152601060248201526f6465706f736974206f766572666c6f7760801b6044820152606401610608565b81546001600160701b0319166001600160701b03919091161790555050565b6000806000845160208601878987f195945050505050565b60603d82811115611a575750815b604051602082018101604052818152816000602083013e9392505050565b6000805a855190915060009081611a8b82612560565b60a08301519091506001600160a01b038116611aaa5782519350611c51565b809350600088511115611c5157868202955060028a6002811115611ad057611ad0613bbd565b14611b4257606083015160405163a9a2340960e01b81526001600160a01b0383169163a9a2340991611b0a908e908d908c90600401613bd3565b600060405180830381600088803b158015611b2457600080fd5b5087f1158015611b38573d6000803e3d6000fd5b5050505050611c51565b606083015160405163a9a2340960e01b81526001600160a01b0383169163a9a2340991611b77908e908d908c90600401613bd3565b600060405180830381600088803b158015611b9157600080fd5b5087f193505050508015611ba3575060015b611c5157611baf613c1a565b806308c379a003611c085750611bc3613c36565b80611bce5750611c0a565b8b81604051602001611be09190613cbf565b60408051601f1981840301815290829052631101335b60e11b82526106089291600401613694565b505b8a604051631101335b60e11b81526004016106089181526040602082018190526012908201527110504d4c081c1bdcdd13dc081c995d995c9d60721b606082015260800190565b5a85038701965081870295508589604001511015611cba578a604051631101335b60e11b815260040161060891815260406020808301829052908201527f414135312070726566756e642062656c6f772061637475616c476173436f7374606082015260800190565b6040890151869003611ccc8582611995565b6000808c6002811115611ce157611ce1613bbd565b1490508460a001516001600160a01b031685600001516001600160a01b03168c602001517f49628fd1471006c1482da88028e9ce4dbb080b815c9b0344d39e5a8e6ec1419f8860200151858d8f604051611d54949392919093845291151560208401526040830152606082015260800190565b60405180910390a45050505050505095945050505050565b6002805403611dbd5760405162461bcd60e51b815260206004820152601f60248201527f5265656e7472616e637947756172643a207265656e7472616e742063616c6c006044820152606401610608565b60028055565b60008060005a8451909150611dd88682612590565b611de186611323565b6020860152604081015160608201516080830151171760e087013517610100870135176001600160781b03811115611e565760405162461bcd60e51b815260206004820152601860248201527741413934206761732076616c756573206f766572666c6f7760401b6044820152606401610608565b600080611e6284612689565b9050611e708a8a8a846126d6565b85516020870151919950919350611e8791906128f3565b611edd5789604051631101335b60e11b8152600401610608918152604060208201819052601a908201527f4141323520696e76616c6964206163636f756e74206e6f6e6365000000000000606082015260800190565b611ee643600052565b60a08401516060906001600160a01b031615611f0e57611f098b8b8b8587612940565b975090505b60005a87039050808b60a001351015611f73578b604051631101335b60e11b8152600401610608918152604060208201819052601e908201527f41413430206f76657220766572696669636174696f6e4761734c696d69740000606082015260800190565b60408a018390528160608b015260c08b01355a8803018a608001818152505050505050505050935093915050565b600080611fad85612b63565b91509150816001600160a01b0316836001600160a01b0316146120135785604051631101335b60e11b81526004016106089181526040602082018190526014908201527320a0991a1039b4b3b730ba3ab9329032b93937b960611b606082015260800190565b80156120655785604051631101335b60e11b815260040161060891815260406020820181905260179082015276414132322065787069726564206f72206e6f742064756560481b606082015260800190565b600061207085612b63565b925090506001600160a01b038116156120cc5786604051631101335b60e11b81526004016106089181526040602082018190526014908201527320a0999a1039b4b3b730ba3ab9329032b93937b960611b606082015260800190565b811561212e5786604051631101335b60e11b81526004016106089181526040602082018190526021908201527f41413332207061796d61737465722065787069726564206f72206e6f742064756060820152606560f81b608082015260a00190565b50505050505050565b6000805a9050600061214a846060015190565b905030631d73275661215f6060880188613756565b87856040518563ffffffff1660e01b81526004016121809493929190613cfd565b6020604051808303816000875af19250505080156121bb575060408051601f3d908101601f191682019092526121b891810190613db0565b60015b61225257600060206000803e50600051632152215360e01b810161221d5786604051631101335b60e11b8152600401610608918152604060208201819052600f908201526e41413935206f7574206f662067617360881b606082015260800190565b600085608001515a61222f90866136e4565b6122399190613618565b9050612249886002888685611a75565b94505050612255565b92505b50509392505050565b6001600160a01b0382166122af5760405162461bcd60e51b81526020600482015260186024820152774141393020696e76616c69642062656e656669636961727960401b6044820152606401610608565b6000826001600160a01b03168260405160006040518083038185875af1925050503d80600081146122fc576040519150601f19603f3d011682016040523d82523d6000602084013e612301565b606091505b5050905080610b4b5760405162461bcd60e51b815260206004820152601f60248201527f41413931206661696c65642073656e6420746f2062656e6566696369617279006044820152606401610608565b600061235d82612bb6565b805190602001209050919050565b3063957122ab61237e6040840184613756565b61238b6020860186613472565b612399610120870187613756565b6040518663ffffffff1660e01b81526004016123b9959493929190613dc9565b60006040518083038186803b1580156123d157600080fd5b505afa9250505080156123e2575060015b612442576123ee613c1a565b806308c379a0036124365750612402613c36565b8061240d5750612438565b80511561243257600081604051631101335b60e11b8152600401610608929190613694565b5050565b505b3d6000803e3d6000fd5b50565b604080516060810182526000808252602082018190529181018290529061246b84612c89565b9050600061247884612c89565b82519091506001600160a01b03811661248f575080515b602080840151604080860151928501519085015191929165ffffffffffff80831690851610156124bd578193505b8065ffffffffffff168365ffffffffffff1611156124d9578092505b5050604080516060810182526001600160a01b03909416845265ffffffffffff92831660208501529116908201529250505092915050565b604080518082018252600080825260208083018281526001600160a01b03959095168252819052919091208054600160781b90046001600160701b031682526001015463ffffffff1690915290565b60c081015160e08201516000919080820361257c575092915050565b61258882488301612cfa565b949350505050565b61259d6020830183613472565b6001600160a01b0316815260208083013590820152608080830135604083015260a0830135606083015260c0808401359183019190915260e08084013591830191909152610100830135908201523660006125fc610120850185613756565b9092509050801561267c5760148110156126585760405162461bcd60e51b815260206004820152601d60248201527f4141393320696e76616c6964207061796d6173746572416e64446174610000006044820152606401610608565b61266660146000838561397e565b61266f916139a8565b60601c60a0840152610cc2565b600060a084015250505050565b60a081015160009081906001600160a01b03166126a75760016126aa565b60035b60ff16905060008360800151828560600151028560400151010190508360c00151810292505050919050565b60008060005a85518051919250906126fb89886126f660408c018c613756565b612d12565b60a082015161270943600052565b60006001600160a01b03821661273c5760006127248461114b565b905088811161273557808903612738565b60005b9150505b606084015160208a0151604051633a871cdd60e01b81526001600160a01b03861692633a871cdd929091612776918f918790600401613dff565b60206040518083038160008887f1935050505080156127b2575060408051601f3d908101601f191682019092526127af91810190613db0565b60015b61283c576127be613c1a565b806308c379a0036127ef57506127d2613c36565b806127dd57506127f1565b8b81604051602001611be09190613e24565b505b8a604051631101335b60e11b8152600401610608918152604060208201819052601690820152754141323320726576657274656420286f72204f4f472960501b606082015260800190565b95506001600160a01b0382166128e0576001600160a01b038316600090815260208190526040902080546001600160701b0316808a11156128c3578c604051631101335b60e11b81526004016106089181526040602082018190526017908201527610504c8c48191a591b89dd081c185e481c1c99599d5b99604a1b606082015260800190565b81546001600160701b031916908a90036001600160701b03161790555b5a85039650505050505094509492505050565b6001600160a01b038216600090815260016020908152604080832084821c80855292528220805484916001600160401b0383169190856129328361362b565b909155501495945050505050565b8251606081810151909160009184811161299c5760405162461bcd60e51b815260206004820152601f60248201527f4141343120746f6f206c6974746c6520766572696669636174696f6e476173006044820152606401610608565b60a08201516001600160a01b038116600090815260208190526040902080548784039291906001600160701b031689811015612a24578c604051631101335b60e11b8152600401610608918152604060208201819052601e908201527f41413331207061796d6173746572206465706f73697420746f6f206c6f770000606082015260800190565b8981038260000160006101000a8154816001600160701b0302191690836001600160701b03160217905550826001600160a01b031663f465c77e858e8e602001518e6040518563ffffffff1660e01b8152600401612a8493929190613dff565b60006040518083038160008887f193505050508015612ac557506040513d6000823e601f3d908101601f19168201604052612ac29190810190613e5b565b60015b612b4f57612ad1613c1a565b806308c379a003612b025750612ae5613c36565b80612af05750612b04565b8d81604051602001611be09190613ee6565b505b8c604051631101335b60e11b8152600401610608918152604060208201819052601690820152754141333320726576657274656420286f72204f4f472960501b606082015260800190565b909e909d509b505050505050505050505050565b60008082600003612b7957506000928392509050565b6000612b8484612c89565b9050806040015165ffffffffffff16421180612bab5750806020015165ffffffffffff1642105b905194909350915050565b6060813560208301356000612bd6612bd16040870187613756565b612fd3565b90506000612bea612bd16060880188613756565b9050608086013560a087013560c088013560e08901356101008a01356000612c19612bd16101208e018e613756565b604080516001600160a01b039c909c1660208d01528b81019a909a5260608b019890985250608089019590955260a088019390935260c087019190915260e08601526101008501526101208401526101408084019190915281518084039091018152610160909201905292915050565b60408051606081018252600080825260208201819052918101919091528160a081901c65ffffffffffff8116600003612cc5575065ffffffffffff5b604080516060810182526001600160a01b03909316835260d09490941c602083015265ffffffffffff16928101929092525090565b6000818310612d095781612d0b565b825b9392505050565b8015610cc2578251516001600160a01b0381163b15612d7d5784604051631101335b60e11b8152600401610608918152604060208201819052601f908201527f414131302073656e64657220616c726561647920636f6e737472756374656400606082015260800190565b835160600151604051632b870d1b60e11b81526000916001600160a01b037f0000000000000000000000000000000000000000000000000000000000000000169163570e1a369190612dd590889088906004016139dd565b60206040518083038160008887f1158015612df4573d6000803e3d6000fd5b50505050506040513d601f19601f82011682018060405250810190612e1991906139f1565b90506001600160a01b038116612e7b5785604051631101335b60e11b8152600401610608918152604060208201819052601b908201527f4141313320696e6974436f6465206661696c6564206f72204f4f470000000000606082015260800190565b816001600160a01b0316816001600160a01b031614612ee55785604051631101335b60e11b815260040161060891815260406020808301829052908201527f4141313420696e6974436f6465206d7573742072657475726e2073656e646572606082015260800190565b806001600160a01b03163b600003612f485785604051631101335b60e11b815260040161060891815260406020808301829052908201527f4141313520696e6974436f6465206d757374206372656174652073656e646572606082015260800190565b6000612f57601482868861397e565b612f60916139a8565b60601c9050826001600160a01b031686602001517fd51a9c61267aa6196961883ecf5ff2da6619c37dac0fa92122513fb32c032d2d83896000015160a00151604051612fc29291906001600160a01b0392831681529116602082015260400190565b60405180910390a350505050505050565b6000604051828085833790209392505050565b6040518060a0016040528061304b60405180610100016040528060006001600160a01b031681526020016000815260200160008152602001600081526020016000815260200160006001600160a01b0316815260200160008152602001600081525090565b8152602001600080191681526020016000815260200160008152602001600081525090565b60006020828403121561308257600080fd5b813563ffffffff81168114612d0b57600080fd5b80356001600160c01b03811681146130ad57600080fd5b919050565b6000602082840312156130c457600080fd5b612d0b82613096565b6001600160a01b038116811461244257600080fd5b80356130ad816130cd565b6000806040838503121561310057600080fd5b823561310b816130cd565b915061311960208401613096565b90509250929050565b634e487b7160e01b600052604160045260246000fd5b60a081018181106001600160401b038211171561315757613157613122565b60405250565b61010081018181106001600160401b038211171561315757613157613122565b601f8201601f191681016001600160401b03811182821017156131a2576131a2613122565b6040525050565b60006001600160401b038211156131c2576131c2613122565b50601f01601f191660200190565b60008183036101808112156131e457600080fd5b6040516131f081613138565b8092506101008083121561320357600080fd5b60405192506132118361315d565b61321a856130e2565b83526020850135602084015260408501356040840152606085013560608401526080850135608084015261325060a086016130e2565b60a084015260c085013560c084015260e085013560e084015282825280850135602083015250610120840135604082015261014084013560608201526101608401356080820152505092915050565b60008083601f8401126132b157600080fd5b5081356001600160401b038111156132c857600080fd5b6020830191508360208285010111156132e057600080fd5b9250929050565b6000806000806101c085870312156132fe57600080fd5b84356001600160401b038082111561331557600080fd5b818701915087601f83011261332957600080fd5b8135613334816131a9565b604051613341828261317d565b8281528a602084870101111561335657600080fd5b8260208601602083013760006020848301015280985050505061337c88602089016131d0565b94506101a087013591508082111561339357600080fd5b506133a08782880161329f565b95989497509550505050565b60008083601f8401126133be57600080fd5b5081356001600160401b038111156133d557600080fd5b6020830191508360208260051b85010111156132e057600080fd5b60008060006040848603121561340557600080fd5b83356001600160401b0381111561341b57600080fd5b613427868287016133ac565b909450925050602084013561343b816130cd565b809150509250925092565b6000806040838503121561345957600080fd5b8235613464816130cd565b946020939093013593505050565b60006020828403121561348457600080fd5b8135612d0b816130cd565b6000806000806000606086880312156134a757600080fd5b85356001600160401b03808211156134be57600080fd5b6134ca89838a0161329f565b9097509550602088013591506134df826130cd565b909350604087013590808211156134f557600080fd5b506135028882890161329f565b969995985093965092949392505050565b6000806020838503121561352657600080fd5b82356001600160401b0381111561353c57600080fd5b6135488582860161329f565b90969095509350505050565b6000610160828403121561356757600080fd5b50919050565b60006020828403121561357f57600080fd5b81356001600160401b0381111561359557600080fd5b61258884828501613554565b600080600080606085870312156135b757600080fd5b84356001600160401b03808211156135ce57600080fd5b6135da88838901613554565b9550602087013591506135ec826130cd565b9093506040860135908082111561339357600080fd5b634e487b7160e01b600052601160045260246000fd5b80820180821115610d0857610d08613602565b60006001820161363d5761363d613602565b5060010190565b60005b8381101561365f578181015183820152602001613647565b50506000910152565b60008151808452613680816020860160208601613644565b601f01601f19169290920160200192915050565b8281526040602082015260006125886040830184613668565b634e487b7160e01b600052603260045260246000fd5b6000823561015e198336030181126136da57600080fd5b9190910192915050565b81810381811115610d0857610d08613602565b60008235605e198336030181126136da57600080fd5b6000808335601e1984360301811261372457600080fd5b8301803591506001600160401b0382111561373e57600080fd5b6020019150600581901b36038213156132e057600080fd5b6000808335601e1984360301811261376d57600080fd5b8301803591506001600160401b0382111561378757600080fd5b6020019150368190038213156132e057600080fd5b6000808335601e198436030181126137b357600080fd5b83016020810192503590506001600160401b038111156137d257600080fd5b8036038213156132e057600080fd5b81835281816020850137506000828201602090810191909152601f909101601f19169091010190565b60006101606138298461381c856130e2565b6001600160a01b03169052565b60208301356020850152613840604084018461379c565b82604087015261385383870182846137e1565b92505050613864606084018461379c565b85830360608701526138778382846137e1565b925050506080830135608085015260a083013560a085015260c083013560c085015260e083013560e08501526101008084013581860152506101206138be8185018561379c565b868403838801526138d08482846137e1565b93505050506101406138e48185018561379c565b868403838801526138f68482846137e1565b979650505050505050565b6040808252810184905260006060600586901b830181019083018783805b8981101561396757868503605f190184528235368c900361015e19018112613945578283fd5b613951868d830161380a565b955050602093840193929092019160010161391f565b5050505082810360208401526138f68185876137e1565b6000808585111561398e57600080fd5b8386111561399b57600080fd5b5050820193919092039150565b6bffffffffffffffffffffffff1981358181169160148510156139d55780818660140360031b1b83161692505b505092915050565b6020815260006125886020830184866137e1565b600060208284031215613a0357600080fd5b8151612d0b816130cd565b65ffffffffffff818116838216019080821115613a2d57613a2d613602565b5092915050565b8183823760009101908152919050565b868152856020820152600065ffffffffffff8087166040840152808616606084015250831515608083015260c060a0830152613a8360c0830184613668565b98975050505050505050565b80518252602081015160208301526040810151151560408301526000606082015165ffffffffffff8082166060860152806080850151166080860152505060a082015160c060a085015261258860c0850182613668565b6000610140808352613afa81840189613a8f565b915050613b14602083018780518252602090810151910152565b845160608301526020948501516080830152835160a08301529284015160c082015281516001600160a01b031660e0820152908301518051610100830152909201516101209092019190915292915050565b60e081526000613b7960e0830187613a8f565b9050613b92602083018680518252602090810151910152565b8351606083015260208401516080830152825160a0830152602083015160c083015295945050505050565b634e487b7160e01b600052602160045260246000fd5b600060038510613bf357634e487b7160e01b600052602160045260246000fd5b84825260606020830152613c0a6060830185613668565b9050826040830152949350505050565b600060033d1115613c335760046000803e5060005160e01c5b90565b600060443d1015613c445790565b6040516003193d81016004833e81513d6001600160401b038160248401118184111715613c7357505050505090565b8285019150815181811115613c8b5750505050505090565b843d8701016020828501011115613ca55750505050505090565b613cb46020828601018761317d565b509095945050505050565b75020a09a98103837b9ba27b8103932bb32b93a32b21d160551b815260008251613cf0816016850160208701613644565b9190910160160192915050565b60006101c0808352613d1281840187896137e1565b9050845160018060a01b03808251166020860152602082015160408601526040820151606086015260608201516080860152608082015160a08601528060a08301511660c08601525060c081015160e085015260e08101516101008501525060208501516101208401526040850151610140840152606085015161016084015260808501516101808401528281036101a08401526138f68185613668565b600060208284031215613dc257600080fd5b5051919050565b606081526000613ddd6060830187896137e1565b6001600160a01b03861660208401528281036040840152613a838185876137e1565b606081526000613e12606083018661380a565b60208301949094525060400152919050565b6e020a09919903932bb32b93a32b21d1608d1b815260008251613e4e81600f850160208701613644565b91909101600f0192915050565b60008060408385031215613e6e57600080fd5b82516001600160401b03811115613e8457600080fd5b8301601f81018513613e9557600080fd5b8051613ea0816131a9565b604051613ead828261317d565b828152876020848601011115613ec257600080fd5b613ed3836020830160208701613644565b6020969096015195979596505050505050565b6e020a09999903932bb32b93a32b21d1608d1b815260008251613e4e81600f85016020870161364456fea164736f6c6343000813000a608060405234801561001057600080fd5b506101ca806100206000396000f3fe608060405234801561001057600080fd5b506004361061002b5760003560e01c8063570e1a3614610030575b600080fd5b61004361003e3660046100ec565b61005f565b6040516001600160a01b03909116815260200160405180910390f35b60008061006f601482858761015e565b61007891610188565b60601c9050600061008c846014818861015e565b8080601f016020809104026020016040519081016040528093929190818152602001838380828437600092018290525084519495509360209350849250905082850182875af190506000519350806100e357600093505b50505092915050565b600080602083850312156100ff57600080fd5b823567ffffffffffffffff8082111561011757600080fd5b818501915085601f83011261012b57600080fd5b81358181111561013a57600080fd5b86602082850101111561014c57600080fd5b60209290920196919550909350505050565b6000808585111561016e57600080fd5b8386111561017b57600080fd5b5050820193919092039150565b6bffffffffffffffffffffffff1981358181169160148510156101b55780818660140360031b1b83161692505b50509291505056fea164736f6c6343000813000a",
  "linkReferences": {},
  "deployedLinkReferences": {}
}