{
  "address": "0x0Ab02321Fc701C3C539F92b563B9cD4a2c0f75A4",
  "abi": [
    {
      "inputs": [],
      "name": "A",
      "outputs": [
        {
          "internalType": "uint256",
          "name": "",
          "type": "uint256"
        }
      ],
      "stateMutability": "view",
      "type": "function"
    },
    {
      "inputs": [],
      "name": "BASE8_X",
      "outputs": [
        {
          "internalType": "uint256",
          "name": "",
          "type": "uint256"
        }
      ],
      "stateMutability": "view",
      "type": "function"
    },
    {
      "inputs": [],
      "name": "BASE8_Y",
      "outputs": [
        {
          "internalType": "uint256",
          "name": "",
          "type": "uint256"
        }
      ],
      "stateMutability": "view",
      "type": "function"
    },
    {
      "inputs": [],
      "name": "D",
      "outputs": [
        {
          "internalType": "uint256",
          "name": "",
          "type": "uint256"
        }
      ],
      "stateMutability": "view",
      "type": "function"
    },
    {
      "inputs": [],
      "name": "PM1D2",
      "outputs": [
        {
          "internalType": "uint256",
          "name": "",
          "type": "uint256"
        }
      ],
      "stateMutability": "view",
      "type": "function"
    },
    {
      "inputs": [],
      "name": "Q",
      "outputs": [
        {
          "internalType": "uint256",
          "name": "",
          "type": "uint256"
        }
      ],
      "stateMutability": "view",
      "type": "function"
    }
  ],
  "transactionHash": "0xf2141ea9181ae7785786fc59c5b8abcc0acc68731d82e0dcd3726a3ac398139c",
  "args": [],
  "numDeployments": 1,
  "solcInputHash": "8ced4b4e64f70b0ab3e17932cf8fd4ee",
  "bytecode": "0x61015061003a600b82828239805160001a60731461002d57634e487b7160e01b600052600060045260246000fd5b30600052607381538281f3fe730000000000000000000000000000000000000000301460806040526004361061007c5760003560e01c8063a8a573e31161005a578063a8a573e3146100eb578063e493ef8c14610112578063f446c1d01461013957600080fd5b80630f529ba214610081578063278c61fc1461009d57806368d551ce146100c4575b600080fd5b61008b620292f881565b60405190815260200160405180910390f35b61008b7f183227397098d014dc2822db40c0ac2e9419f4243cdcb848a1f0fac9f800000081565b61008b7f0bb77a6ad63e739b4eacb2e09d6277c12ab8d8010534e0b62893f3f6bb95705181565b61008b7f25797203f7a0b24925572e1cd16bf9edfce0051fb9e133774b3c257a872d7d8b81565b61008b7f30644e72e131a029b85045b68181585d2833e84879b9709143e1f593f000000181565b61008b620292fc8156fea164736f6c6343000810000a",
  "devdoc": {
    "kind": "dev",
    "methods": {},
    "version": 1
  },
  "userdoc": {
    "kind": "user",
    "methods": {},
    "version": 1
  },
  "storageLayout": {
    "storage": [],
    "types": null
  }
}