{
  "address": "0x74FC161573bDe26ac884dd88e7C82951E2e1B577",
  "abi": [
    {
      "inputs": [
        {
          "internalType": "address",
          "name": "_owner",
          "type": "address"
        },
        {
          "internalType": "address",
          "name": "_zkpToken",
          "type": "address"
        },
        {
          "internalType": "address",
          "name": "_pZkpToken",
          "type": "address"
        }
      ],
      "stateMutability": "nonpayable",
      "type": "constructor"
    },
    {
      "anonymous": false,
      "inputs": [
        {
          "indexed": false,
          "internalType": "address",
          "name": "receiver",
          "type": "address"
        },
        {
          "indexed": false,
          "internalType": "address",
          "name": "token",
          "type": "address"
        },
        {
          "indexed": false,
          "internalType": "bytes",
          "name": "depositData",
          "type": "bytes"
        }
      ],
      "name": "DepositForLog",
      "type": "event"
    },
    {
      "anonymous": false,
      "inputs": [
        {
          "indexed": false,
          "internalType": "uint256",
          "name": "stateId",
          "type": "uint256"
        },
        {
          "indexed": false,
          "internalType": "address",
          "name": "rootMessageSender",
          "type": "address"
        },
        {
          "indexed": false,
          "internalType": "bytes",
          "name": "data",
          "type": "bytes"
        }
      ],
      "name": "ProcessMessageFromRootLog",
      "type": "event"
    },
    {
      "anonymous": false,
      "inputs": [
        {
          "indexed": false,
          "internalType": "address",
          "name": "_receiver",
          "type": "address"
        },
        {
          "indexed": false,
          "internalType": "bytes",
          "name": "_data",
          "type": "bytes"
        }
      ],
      "name": "SendMessageToChildLog",
      "type": "event"
    },
    {
      "inputs": [],
      "name": "OWNER",
      "outputs": [
        {
          "internalType": "address",
          "name": "",
          "type": "address"
        }
      ],
      "stateMutability": "view",
      "type": "function"
    },
    {
      "inputs": [],
      "name": "PZKP_TOKEN",
      "outputs": [
        {
          "internalType": "address",
          "name": "",
          "type": "address"
        }
      ],
      "stateMutability": "view",
      "type": "function"
    },
    {
      "inputs": [],
      "name": "ZKP_TOKEN",
      "outputs": [
        {
          "internalType": "address",
          "name": "",
          "type": "address"
        }
      ],
      "stateMutability": "view",
      "type": "function"
    },
    {
      "inputs": [
        {
          "internalType": "address",
          "name": "receiver",
          "type": "address"
        },
        {
          "internalType": "address",
          "name": "token",
          "type": "address"
        },
        {
          "internalType": "bytes",
          "name": "depositData",
          "type": "bytes"
        }
      ],
      "name": "depositFor",
      "outputs": [],
      "stateMutability": "nonpayable",
      "type": "function"
    },
    {
      "inputs": [
        {
          "internalType": "address",
          "name": "receiver",
          "type": "address"
        },
        {
          "internalType": "bytes",
          "name": "data",
          "type": "bytes"
        }
      ],
      "name": "sendMessageToChild",
      "outputs": [],
      "stateMutability": "nonpayable",
      "type": "function"
    },
    {
      "inputs": [
        {
          "internalType": "address",
          "name": "newMinter",
          "type": "address"
        }
      ],
      "name": "tempSetMinter",
      "outputs": [],
      "stateMutability": "nonpayable",
      "type": "function"
    }
  ],
  "transactionHash": "0xbf138e07b619372ff2019878adb20a6a7de0bf11c2a800afab8e2f90361e7e08",
  "args": [
    "0xfB474a7FeCDaFBD412ebF0d60A0C32794F82d3dD",
    "0x4004C49aBb96B11D89A52DeCCa2D1522da7f3089",
    "0x4004C49aBb96B11D89A52DeCCa2D1522da7f3089"
  ],
  "numDeployments": 3,
  "solcInputHash": "41886c76ddb1a578f316001a3c179f61",
  "bytecode": "0x60e060405234801561001057600080fd5b50604051610cbb380380610cbb83398101604081905261002f91610126565b826001600160a01b03811661008b5760405162461bcd60e51b815260206004820152601a60248201527f496d6d4f776e3a207a65726f206f776e6572206164647265737300000000000060448201526064015b60405180910390fd5b6001600160a01b039081166080528216158015906100b157506001600160a01b03811615155b6100f25760405162461bcd60e51b8152602060048201526012602482015271696e69743a207a65726f206164647265737360701b6044820152606401610082565b6001600160a01b0391821660c0521660a05250610169565b80516001600160a01b038116811461012157600080fd5b919050565b60008060006060848603121561013b57600080fd5b6101448461010a565b92506101526020850161010a565b91506101606040850161010a565b90509250925092565b60805160a05160c051610b026101b96000396000818160bf01526102c20152600081816101210152818161014a01528181610176015281816101bb01526103dc01526000607c0152610b026000f3fe608060405234801561001057600080fd5b50600436106100725760003560e01c8063b472047711610050578063b4720477146100f6578063e3dec8fb14610109578063f0bb58e51461011c57600080fd5b8063117803e314610077578063830caefa146100ba578063a541b97a146100e1575b600080fd5b61009e7f000000000000000000000000000000000000000000000000000000000000000081565b6040516001600160a01b03909116815260200160405180910390f35b61009e7f000000000000000000000000000000000000000000000000000000000000000081565b6100f46100ef3660046108a7565b610143565b005b6100f4610104366004610912565b61021b565b6100f4610117366004610965565b6102c0565b61009e7f000000000000000000000000000000000000000000000000000000000000000081565b600061016f7f00000000000000000000000000000000000000000000000000000000000000003061048b565b905061019c7f000000000000000000000000000000000000000000000000000000000000000083836105db565b604051637e51dad560e11b81526001600160a01b0383811660048301527f0000000000000000000000000000000000000000000000000000000000000000169063fca3b5aa90602401600060405180830381600087803b1580156101ff57600080fd5b505af1158015610213573d6000803e3d6000fd5b505050505050565b604051639a7c4b7160e01b81526001600160a01b03841690639a7c4b719061024e906000903390879087906004016109ef565b600060405180830381600087803b15801561026857600080fd5b505af115801561027c573d6000803e3d6000fd5b505050507fb8a3e8f2c9b8ad291f031f9300e6da16d8ec76737c5c0dbe4b789758e2766f208383836040516102b393929190610a22565b60405180910390a1505050565b7f00000000000000000000000000000000000000000000000000000000000000006001600160a01b0316836001600160a01b0316146103505760405162461bcd60e51b815260206004820152602160248201527f4d4f434b46583a3a6465706f736974466f723a20696e76616c696420746f6b656044820152603760f91b60648201526084015b60405180910390fd5b600061035e82840184610a45565b9050600081116103b05760405162461bcd60e51b815260206004820152601f60248201527f4d4f434b46583a3a6465706f736974466f723a207a65726f20616d6f756e74006044820152606401610347565b6103c56001600160a01b0385163330846106e1565b60405163cf2c52cb60e01b81526001600160a01b037f0000000000000000000000000000000000000000000000000000000000000000169063cf2c52cb9061041590889087908790600401610a22565b600060405180830381600087803b15801561042f57600080fd5b505af1158015610443573d6000803e3d6000fd5b505050507fb468779add4cf865ada64b40972742070701c7564c6353c49d4541bfffcea55c8585858560405161047c9493929190610a5e565b60405180910390a15050505050565b6000806000846001600160a01b03166370a08231856040516024016104bf91906001600160a01b0391909116815260200190565b6040516020818303038152906040529060e01b6020820180516001600160e01b0383818316178352505050506040516104f89190610a8b565b6000604051808303816000865af19150503d8060008114610535576040519150601f19603f3d011682016040523d82523d6000602084013e61053a565b606091505b509150915081801561054c5750805115155b6105be5760405162461bcd60e51b815260206004820152602560248201527f5472616e7366657248656c7065723a2062616c616e63654f662063616c6c206660448201527f61696c65640000000000000000000000000000000000000000000000000000006064820152608401610347565b808060200190518101906105d29190610aba565b95945050505050565b82803b8061062b5760405162461bcd60e51b815260206004820152601d60248201527f5472616e7366657248656c7065723a207a65726f20636f646573697a650000006044820152606401610347565b604080516001600160a01b038681166024830152604480830187905283518084039091018152606490920183526020820180516001600160e01b031663a9059cbb60e01b17905291516000928392908916916106879190610a8b565b6000604051808303816000865af19150503d80600081146106c4576040519150601f19603f3d011682016040523d82523d6000602084013e6106c9565b606091505b50915091506106d882826107f0565b50505050505050565b83803b806107315760405162461bcd60e51b815260206004820152601d60248201527f5472616e7366657248656c7065723a207a65726f20636f646573697a650000006044820152606401610347565b604080516001600160a01b0387811660248301528681166044830152606480830187905283518084039091018152608490920183526020820180516001600160e01b03166323b872dd60e01b17905291516000928392908a16916107959190610a8b565b6000604051808303816000865af19150503d80600081146107d2576040519150601f19603f3d011682016040523d82523d6000602084013e6107d7565b606091505b50915091506107e682826107f0565b5050505050505050565b8180156108155750805115806108155750808060200190518101906108159190610ad3565b6108875760405162461bcd60e51b815260206004820152602a60248201527f5472616e7366657248656c7065723a20746f6b656e20636f6e7472616374206360448201527f616c6c206661696c6564000000000000000000000000000000000000000000006064820152608401610347565b5050565b80356001600160a01b03811681146108a257600080fd5b919050565b6000602082840312156108b957600080fd5b6108c28261088b565b9392505050565b60008083601f8401126108db57600080fd5b50813567ffffffffffffffff8111156108f357600080fd5b60208301915083602082850101111561090b57600080fd5b9250929050565b60008060006040848603121561092757600080fd5b6109308461088b565b9250602084013567ffffffffffffffff81111561094c57600080fd5b610958868287016108c9565b9497909650939450505050565b6000806000806060858703121561097b57600080fd5b6109848561088b565b93506109926020860161088b565b9250604085013567ffffffffffffffff8111156109ae57600080fd5b6109ba878288016108c9565b95989497509550505050565b81835281816020850137506000828201602090810191909152601f909101601f19169091010190565b8481526001600160a01b0384166020820152606060408201526000610a186060830184866109c6565b9695505050505050565b6001600160a01b03841681526040602082015260006105d26040830184866109c6565b600060208284031215610a5757600080fd5b5035919050565b60006001600160a01b03808716835280861660208401525060606040830152610a186060830184866109c6565b6000825160005b81811015610aac5760208186018101518583015201610a92565b506000920191825250919050565b600060208284031215610acc57600080fd5b5051919050565b600060208284031215610ae557600080fd5b815180151581146108c257600080fdfea164736f6c6343000810000a",
  "devdoc": {
    "kind": "dev",
    "methods": {},
    "version": 1
  },
  "userdoc": {
    "kind": "user",
    "methods": {
      "OWNER()": {
        "notice": "The owner who has privileged rights"
      }
    },
    "version": 1
  },
  "storageLayout": {
    "storage": [
      {
        "astId": 515,
        "contract": "contracts/common/mocks/MockFxPortal.sol:MockFxPortal",
        "label": "__gap",
        "offset": 0,
        "slot": "0",
        "type": "t_array(t_uint256)50_storage"
      }
    ],
    "types": {
      "t_array(t_uint256)50_storage": {
        "base": "t_uint256",
        "encoding": "inplace",
        "label": "uint256[50]",
        "numberOfBytes": "1600"
      },
      "t_uint256": {
        "encoding": "inplace",
        "label": "uint256",
        "numberOfBytes": "32"
      }
    }
  }
}