{
  "address": "0x52666A3D702Ab6C268addA3911C0E40648F21360",
  "abi": [
    {
      "inputs": [
        {
          "internalType": "address",
          "name": "_owner",
          "type": "address"
        },
        {
          "internalType": "address",
          "name": "_fxChild",
          "type": "address"
        },
        {
          "internalType": "address",
          "name": "_rootChainManager",
          "type": "address"
        },
        {
          "internalType": "address",
          "name": "_childToken",
          "type": "address"
        }
      ],
      "stateMutability": "nonpayable",
      "type": "constructor"
    },
    {
      "anonymous": false,
      "inputs": [
        {
          "indexed": true,
          "internalType": "address",
          "name": "rootToken",
          "type": "address"
        },
        {
          "indexed": true,
          "internalType": "address",
          "name": "depositor",
          "type": "address"
        },
        {
          "indexed": true,
          "internalType": "address",
          "name": "userAddress",
          "type": "address"
        },
        {
          "indexed": false,
          "internalType": "uint256",
          "name": "amount",
          "type": "uint256"
        }
      ],
      "name": "FxDepositERC20",
      "type": "event"
    },
    {
      "inputs": [],
      "name": "CHILD_TOKEN",
      "outputs": [
        {
          "internalType": "address",
          "name": "",
          "type": "address"
        }
      ],
      "stateMutability": "view",
      "type": "function"
    },
    {
      "inputs": [],
      "name": "FX_CHILD",
      "outputs": [
        {
          "internalType": "address",
          "name": "",
          "type": "address"
        }
      ],
      "stateMutability": "view",
      "type": "function"
    },
    {
      "inputs": [],
      "name": "OWNER",
      "outputs": [
        {
          "internalType": "address",
          "name": "",
          "type": "address"
        }
      ],
      "stateMutability": "view",
      "type": "function"
    },
    {
      "inputs": [
        {
          "internalType": "uint256",
          "name": "",
          "type": "uint256"
        },
        {
          "internalType": "address",
          "name": "rootMessageSender",
          "type": "address"
        },
        {
          "internalType": "bytes",
          "name": "content",
          "type": "bytes"
        }
      ],
      "name": "processMessageFromRoot",
      "outputs": [],
      "stateMutability": "nonpayable",
      "type": "function"
    },
    {
      "inputs": [
        {
          "internalType": "address",
          "name": "_minter",
          "type": "address"
        }
      ],
      "name": "setPzkpMinter",
      "outputs": [],
      "stateMutability": "nonpayable",
      "type": "function"
    }
  ],
  "transactionHash": "0xdc19fd49b6636bdbe1180468e0e98a5912cef47d06de18383ee38bef514a6528",
  "args": [
    "0xfB474a7FeCDaFBD412ebF0d60A0C32794F82d3dD",
    "0xCf73231F28B7331BBe3124B907840A94851f9f11",
    "0xA543d6badE63ff48dEed3ceC066003f295A09790",
    "0x4004C49aBb96B11D89A52DeCCa2D1522da7f3089"
  ],
  "numDeployments": 1,
  "solcInputHash": "57b21eaaf9910c76f4d0118432267c50",
  "bytecode": "0x61010060405234801561001157600080fd5b5060405161080b38038061080b8339810160408190526100309161012c565b836001600160a01b03811661008c5760405162461bcd60e51b815260206004820152601a60248201527f496d6d4f776e3a207a65726f206f776e6572206164647265737300000000000060448201526064015b60405180910390fd5b6001600160a01b039081166080528316158015906100b257506001600160a01b03821615155b6100f25760405162461bcd60e51b8152602060048201526011602482015270696e69743a7a65726f206164647265737360781b6044820152606401610083565b6001600160a01b0392831660a05290821660c0521660e05250610180565b80516001600160a01b038116811461012757600080fd5b919050565b6000806000806080858703121561014257600080fd5b61014b85610110565b935061015960208601610110565b925061016760408601610110565b915061017560608601610110565b905092959194509250565b60805160a05160c05160e0516106316101da60003960008181610103015281816101ae015281816102a301526104100152600061037c01526000818160b4015261030d0152600081816071015261012701526106316000f3fe608060405234801561001057600080fd5b50600436106100675760003560e01c8063886933791161005057806388693379146100d65780639a7c4b71146100eb578063fd41b71d146100fe57600080fd5b8063117803e31461006c57806382f9deb5146100af575b600080fd5b6100937f000000000000000000000000000000000000000000000000000000000000000081565b6040516001600160a01b03909116815260200160405180910390f35b6100937f000000000000000000000000000000000000000000000000000000000000000081565b6100e96100e43660046104cf565b610125565b005b6100e96100f93660046104f3565b610302565b6100937f000000000000000000000000000000000000000000000000000000000000000081565b7f00000000000000000000000000000000000000000000000000000000000000006001600160a01b031633146101a25760405162461bcd60e51b815260206004820152601460248201527f496d6d4f776e3a20756e617574686f72697a656400000000000000000000000060448201526064015b60405180910390fd5b306001600160a01b03167f00000000000000000000000000000000000000000000000000000000000000006001600160a01b031663075461726040518163ffffffff1660e01b8152600401602060405180830381865afa15801561020a573d6000803e3d6000fd5b505050506040513d601f19601f8201168201806040525081019061022e919061057c565b6001600160a01b0316146102845760405162461bcd60e51b815260206004820152600c60248201527f556e617574686f72697a656400000000000000000000000000000000000000006044820152606401610199565b604051637e51dad560e11b81526001600160a01b0382811660048301527f0000000000000000000000000000000000000000000000000000000000000000169063fca3b5aa90602401600060405180830381600087803b1580156102e757600080fd5b505af11580156102fb573d6000803e3d6000fd5b5050505050565b336001600160a01b037f0000000000000000000000000000000000000000000000000000000000000000161461037a5760405162461bcd60e51b815260206004820152601260248201527f504d523a494e56414c49445f43414c4c455200000000000000000000000000006044820152606401610199565b7f00000000000000000000000000000000000000000000000000000000000000006001600160a01b0316836001600160a01b0316146103fb5760405162461bcd60e51b815260206004820152601260248201527f504d523a494e56414c49445f53454e44455200000000000000000000000000006044820152606401610199565b60008061040a83850185610599565b915091507f00000000000000000000000000000000000000000000000000000000000000006001600160a01b031663cf2c52cb838360405160200161045191815260200190565b6040516020818303038152906040526040518363ffffffff1660e01b815260040161047d9291906105c5565b600060405180830381600087803b15801561049757600080fd5b505af11580156104ab573d6000803e3d6000fd5b50505050505050505050565b6001600160a01b03811681146104cc57600080fd5b50565b6000602082840312156104e157600080fd5b81356104ec816104b7565b9392505050565b6000806000806060858703121561050957600080fd5b84359350602085013561051b816104b7565b9250604085013567ffffffffffffffff8082111561053857600080fd5b818701915087601f83011261054c57600080fd5b81358181111561055b57600080fd5b88602082850101111561056d57600080fd5b95989497505060200194505050565b60006020828403121561058e57600080fd5b81516104ec816104b7565b600080604083850312156105ac57600080fd5b82356105b7816104b7565b946020939093013593505050565b6001600160a01b038316815260006020604081840152835180604085015260005b81811015610602578581018301518582016060015282016105e6565b506000606082860101526060601f19601f83011685010192505050939250505056fea164736f6c6343000810000a",
  "devdoc": {
    "kind": "dev",
    "methods": {},
    "version": 1
  },
  "userdoc": {
    "kind": "user",
    "methods": {
      "OWNER()": {
        "notice": "The owner who has privileged rights"
      }
    },
    "version": 1
  },
  "storageLayout": {
    "storage": [
      {
        "astId": 5793,
        "contract": "contracts/common/mocks/MockChildChainManager.sol:MockChildChainManager",
        "label": "__gap",
        "offset": 0,
        "slot": "0",
        "type": "t_array(t_uint256)50_storage"
      }
    ],
    "types": {
      "t_array(t_uint256)50_storage": {
        "base": "t_uint256",
        "encoding": "inplace",
        "label": "uint256[50]",
        "numberOfBytes": "1600"
      },
      "t_uint256": {
        "encoding": "inplace",
        "label": "uint256",
        "numberOfBytes": "32"
      }
    }
  }
}