{
  "address": "0xE8A5730355df24322797b1a4E0A2C3E3231d5F84",
  "abi": [
    {
      "inputs": [
        {
          "internalType": "bytes[]",
          "name": "data",
          "type": "bytes[]"
        }
      ],
      "name": "multicall",
      "outputs": [
        {
          "internalType": "bytes[]",
          "name": "results",
          "type": "bytes[]"
        }
      ],
      "stateMutability": "nonpayable",
      "type": "function"
    }
  ],
  "transactionHash": "0x592ba630133ba6912afe28c499c51ef56afcaaa267e7a2e7cb7d124e93a82118",
  "args": [],
  "numDeployments": 1,
  "solcInputHash": "990d076ba33abdaa453668d9a5408f91",
  "bytecode": "0x608060405234801561001057600080fd5b50610604806100206000396000f3fe608060405234801561001057600080fd5b506004361061002b5760003560e01c8063ac9650d814610030575b600080fd5b61004361003e36600461028a565b610059565b604051610050919061034f565b60405180910390f35b60608167ffffffffffffffff811115610074576100746103b1565b6040519080825280602002602001820160405280156100a757816020015b60608152602001906001900390816100925790505b50905060005b8281101561021e576000808585848181106100ca576100ca6103c7565b90506020028101906100dc91906103dd565b8101906100e99190610484565b90925090506001600160a01b0382161580159061010f57506001600160a01b0382163b15155b6101605760405162461bcd60e51b815260206004820152601660248201527f4d433a4552525f494e56414c49445f544f5f414444520000000000000000000060448201526064015b60405180910390fd5b600080836001600160a01b03168360405161017b9190610523565b6000604051808303816000865af19150503d80600081146101b8576040519150601f19603f3d011682016040523d82523d6000602084013e6101bd565b606091505b5091509150816101e9576101d081610225565b60405162461bcd60e51b8152600401610157919061053f565b808686815181106101fc576101fc6103c7565b602002602001018190525050505050808061021690610559565b9150506100ad565b5092915050565b606060458251101561026a57505060408051808201909152601681527f43616c6c2072657665727465642073696c656e746c7900000000000000000000602082015290565b600482019150818060200190518101906102849190610580565b92915050565b6000806020838503121561029d57600080fd5b823567ffffffffffffffff808211156102b557600080fd5b818501915085601f8301126102c957600080fd5b8135818111156102d857600080fd5b8660208260051b85010111156102ed57600080fd5b60209290920196919550909350505050565b60005b8381101561031a578181015183820152602001610302565b50506000910152565b6000815180845261033b8160208601602086016102ff565b601f01601f19169290920160200192915050565b6000602080830181845280855180835260408601915060408160051b870101925083870160005b828110156103a457603f19888603018452610392858351610323565b94509285019290850190600101610376565b5092979650505050505050565b634e487b7160e01b600052604160045260246000fd5b634e487b7160e01b600052603260045260246000fd5b6000808335601e198436030181126103f457600080fd5b83018035915067ffffffffffffffff82111561040f57600080fd5b60200191503681900382131561042457600080fd5b9250929050565b604051601f8201601f1916810167ffffffffffffffff81118282101715610454576104546103b1565b604052919050565b600067ffffffffffffffff821115610476576104766103b1565b50601f01601f191660200190565b6000806040838503121561049757600080fd5b82356001600160a01b03811681146104ae57600080fd5b9150602083013567ffffffffffffffff8111156104ca57600080fd5b8301601f810185136104db57600080fd5b80356104ee6104e98261045c565b61042b565b81815286602083850101111561050357600080fd5b816020840160208301376000602083830101528093505050509250929050565b600082516105358184602087016102ff565b9190910192915050565b6020815260006105526020830184610323565b9392505050565b60006001820161057957634e487b7160e01b600052601160045260246000fd5b5060010190565b60006020828403121561059257600080fd5b815167ffffffffffffffff8111156105a957600080fd5b8201601f810184136105ba57600080fd5b80516105c86104e98261045c565b8181528560208385010111156105dd57600080fd5b6105ee8260208301602086016102ff565b9594505050505056fea164736f6c6343000810000a",
  "devdoc": {
    "kind": "dev",
    "methods": {},
    "version": 1
  },
  "userdoc": {
    "kind": "user",
    "methods": {},
    "version": 1
  },
  "storageLayout": {
    "storage": [],
    "types": null
  }
}