{
  "address": "0x7cc56241e421Cf6F6322d79c480875c58504fc78",
  "abi": [
    {
      "inputs": [
        {
          "internalType": "address",
          "name": "_owner",
          "type": "address"
        },
        {
          "internalType": "address",
          "name": "_zkpToken",
          "type": "address"
        },
        {
          "internalType": "address",
          "name": "_zAccountRegistry",
          "type": "address"
        },
        {
          "internalType": "address",
          "name": "_prpVoucherGrantor",
          "type": "address"
        },
        {
          "internalType": "address",
          "name": "_vault",
          "type": "address"
        }
      ],
      "stateMutability": "nonpayable",
      "type": "constructor"
    },
    {
      "anonymous": false,
      "inputs": [
        {
          "indexed": false,
          "internalType": "uint256",
          "name": "amount",
          "type": "uint256"
        }
      ],
      "name": "ReserveControllerApproved",
      "type": "event"
    },
    {
      "anonymous": false,
      "inputs": [
        {
          "indexed": false,
          "internalType": "uint96",
          "name": "zkpAmountScaled",
          "type": "uint96"
        },
        {
          "indexed": false,
          "internalType": "uint96",
          "name": "zZkpAmountScaled",
          "type": "uint96"
        }
      ],
      "name": "RewardParamsUpdated",
      "type": "event"
    },
    {
      "anonymous": false,
      "inputs": [
        {
          "indexed": false,
          "internalType": "uint256",
          "name": "rewardsLimit",
          "type": "uint256"
        }
      ],
      "name": "RewardsLimtUpdated",
      "type": "event"
    },
    {
      "anonymous": false,
      "inputs": [
        {
          "indexed": false,
          "internalType": "address",
          "name": "user",
          "type": "address"
        },
        {
          "indexed": false,
          "internalType": "uint256",
          "name": "zZkpAmount",
          "type": "uint256"
        },
        {
          "indexed": false,
          "internalType": "uint256",
          "name": "prpAmount",
          "type": "uint256"
        }
      ],
      "name": "ZzkpAndPrpAllocated",
      "type": "event"
    },
    {
      "inputs": [],
      "name": "OWNER",
      "outputs": [
        {
          "internalType": "address",
          "name": "",
          "type": "address"
        }
      ],
      "stateMutability": "view",
      "type": "function"
    },
    {
      "inputs": [],
      "name": "PRP_VOUCHER_GRANTOR",
      "outputs": [
        {
          "internalType": "address",
          "name": "",
          "type": "address"
        }
      ],
      "stateMutability": "view",
      "type": "function"
    },
    {
      "inputs": [],
      "name": "VAULT",
      "outputs": [
        {
          "internalType": "address",
          "name": "",
          "type": "address"
        }
      ],
      "stateMutability": "view",
      "type": "function"
    },
    {
      "inputs": [],
      "name": "ZACCOUNT_REGISTRY",
      "outputs": [
        {
          "internalType": "address",
          "name": "",
          "type": "address"
        }
      ],
      "stateMutability": "view",
      "type": "function"
    },
    {
      "inputs": [],
      "name": "ZKP_TOKEN",
      "outputs": [
        {
          "internalType": "address",
          "name": "",
          "type": "address"
        }
      ],
      "stateMutability": "view",
      "type": "function"
    },
    {
      "inputs": [
        {
          "internalType": "address",
          "name": "_user",
          "type": "address"
        },
        {
          "internalType": "uint8",
          "name": "_prevStatus",
          "type": "uint8"
        },
        {
          "internalType": "uint8",
          "name": "_newStatus",
          "type": "uint8"
        },
        {
          "internalType": "bytes",
          "name": "_data",
          "type": "bytes"
        }
      ],
      "name": "grantRewards",
      "outputs": [
        {
          "internalType": "uint256",
          "name": "_zZkpRewardAlloc",
          "type": "uint256"
        }
      ],
      "stateMutability": "nonpayable",
      "type": "function"
    },
    {
      "inputs": [],
      "name": "rewardParams",
      "outputs": [
        {
          "internalType": "uint96",
          "name": "zkpAmount",
          "type": "uint96"
        },
        {
          "internalType": "uint96",
          "name": "zZkpAmount",
          "type": "uint96"
        },
        {
          "internalType": "uint64",
          "name": "_unused",
          "type": "uint64"
        }
      ],
      "stateMutability": "view",
      "type": "function"
    },
    {
      "inputs": [],
      "name": "rewardsGranted",
      "outputs": [
        {
          "internalType": "uint128",
          "name": "",
          "type": "uint128"
        }
      ],
      "stateMutability": "view",
      "type": "function"
    },
    {
      "inputs": [],
      "name": "rewardsLimit",
      "outputs": [
        {
          "internalType": "uint128",
          "name": "",
          "type": "uint128"
        }
      ],
      "stateMutability": "view",
      "type": "function"
    },
    {
      "inputs": [
        {
          "internalType": "uint96",
          "name": "_zkpAmount",
          "type": "uint96"
        },
        {
          "internalType": "uint96",
          "name": "_zZkpAmount",
          "type": "uint96"
        }
      ],
      "name": "updateRewardParams",
      "outputs": [],
      "stateMutability": "nonpayable",
      "type": "function"
    },
    {
      "inputs": [],
      "name": "updateRewardsLimitAndVaultAllowance",
      "outputs": [],
      "stateMutability": "nonpayable",
      "type": "function"
    }
  ],
  "transactionHash": "0x843a1a920ca7c9bab13533c066a18141da35f354fc1c0e5c5fc69bd2c36f55e7",
  "args": [
    "0xfB474a7FeCDaFBD412ebF0d60A0C32794F82d3dD",
    "0x4004C49aBb96B11D89A52DeCCa2D1522da7f3089",
    "0x518cD70a767d87Bcec1262adcf7bf5520e2e3B5D",
    "0x0b8D09a40B696d8173088cdA505DaD0167394B4C",
    "0x9619bd59411a8387a4119e548017C5b86c7bCec5"
  ],
  "numDeployments": 4,
  "solcInputHash": "953bef2a812f9e32210a935f8847691a",
  "bytecode": "0x6101206040523480156200001257600080fd5b5060405162000fa338038062000fa3833981016040819052620000359162000154565b846001600160a01b038116620000925760405162461bcd60e51b815260206004820152601a60248201527f496d6d4f776e3a207a65726f206f776e6572206164647265737300000000000060448201526064015b60405180910390fd5b6001600160a01b03908116608052831615801590620000b957506001600160a01b03841615155b8015620000ce57506001600160a01b03811615155b620001115760405162461bcd60e51b8152602060048201526012602482015271696e69743a207a65726f206164647265737360701b604482015260640162000089565b6001600160a01b0392831660a05290821660c05291811660e052166101005250620001c4565b80516001600160a01b03811681146200014f57600080fd5b919050565b600080600080600060a086880312156200016d57600080fd5b620001788662000137565b9450620001886020870162000137565b9350620001986040870162000137565b9250620001a86060870162000137565b9150620001b86080870162000137565b90509295509295909350565b60805160a05160c05160e05161010051610d71620002326000396000818161013801526105ac0152600081816101f60152818161051e015261058a01526000818161021d01526107b501526000818161024e01526102aa01526000818160f9015261065c0152610d716000f3fe608060405234801561001057600080fd5b50600436106100c95760003560e01c8063830caefa116100815780639c45c0c91161005b5780639c45c0c914610249578063b6e6096d14610270578063d0ec3fd51461028a57600080fd5b8063830caefa146101f15780638c1ce02c1461021857806396f201231461023f57600080fd5b8063411557d1116100b2578063411557d114610133578063497cbba71461015a578063763469141461018557600080fd5b80630b73522f146100ce578063117803e3146100f4575b600080fd5b6100e16100dc366004610b77565b61029d565b6040519081526020015b60405180910390f35b61011b7f000000000000000000000000000000000000000000000000000000000000000081565b6040516001600160a01b0390911681526020016100eb565b61011b7f000000000000000000000000000000000000000000000000000000000000000081565b60015461016d906001600160801b031681565b6040516001600160801b0390911681526020016100eb565b6000546101bc906bffffffffffffffffffffffff80821691600160601b810490911690600160c01b900467ffffffffffffffff1683565b604080516bffffffffffffffffffffffff948516815293909216602084015267ffffffffffffffff16908201526060016100eb565b61011b7f000000000000000000000000000000000000000000000000000000000000000081565b61011b7f000000000000000000000000000000000000000000000000000000000000000081565b6102476104ea565b005b61011b7f000000000000000000000000000000000000000000000000000000000000000081565b60015461016d90600160801b90046001600160801b031681565b610247610298366004610c84565b61065a565b6000336001600160a01b037f0000000000000000000000000000000000000000000000000000000000000000161461031c5760405162461bcd60e51b815260206004820152600c60248201527f756e617574686f72697a6564000000000000000000000000000000000000000060448201526064015b60405180910390fd5b815160201461036d5760405162461bcd60e51b815260206004820152601760248201527f4f433a20696e76616c69642064617461206c656e6774680000000000000000006044820152606401610313565b60408051606081018252600080546bffffffffffffffffffffffff8082168452600160601b8204166020840152600160c01b900467ffffffffffffffff169282019290925290600160ff8716146103c55760006103d9565b81602001516bffffffffffffffffffffffff165b905060008183600001516bffffffffffffffffffffffff166103fb9190610ccd565b60015461041191906001600160801b0316610ccd565b600154909150600160801b90046001600160801b0316811115610436575050506104e2565b60ff8716600114801561044c575060ff86166002145b156104b6576020850151600061046182610788565b604080516001600160a01b038d1681526020810187905290810182905294965086949091507f5d823ab74aeaefc675c5a07f3a1ed20201aae4d4b35190276c9e80dc05a3b2d09060600160405180910390a150505b600180546fffffffffffffffffffffffffffffffff19166001600160801b039290921691909117905550505b949350505050565b6001546001600160801b03600160801b820481169160009161050d911683610ce0565b905060006105446001600160a01b037f00000000000000000000000000000000000000000000000000000000000000001630610830565b905081810361055257505050565b818111156105d75760006105668383610ce0565b905061057b6001600160801b03821685610ccd565b93506105d16001600160a01b037f0000000000000000000000000000000000000000000000000000000000000000167f000000000000000000000000000000000000000000000000000000000000000083610995565b50610601565b60006105e38284610ce0565b90508084116105f35760006105fd565b6105fd8185610ce0565b9350505b600180546001600160801b03808616600160801b0291161790556040517f51d83f8f0547b43a181c7bfc606b40e9e7c34e86a5730a533081df12a78ba9c29061064d9085815260200190565b60405180910390a1505050565b7f00000000000000000000000000000000000000000000000000000000000000006001600160a01b031633146106d25760405162461bcd60e51b815260206004820152601460248201527f496d6d4f776e3a20756e617574686f72697a65640000000000000000000000006044820152606401610313565b604080516060810182526bffffffffffffffffffffffff8481168083529084166020808401829052600093850184905283547fffffffffffffffff000000000000000000000000000000000000000000000000168317600160601b83021777ffffffffffffffffffffffffffffffffffffffffffffffff169093558351918252918101919091527f56ba48d426836029926a0db021c48353410895f4e915aa2c2fe90e25b3813b4b910160405180910390a15050565b604051638abfdf8760e01b8152600481018290526000602482018190526349d9095760e11b6044830152907f00000000000000000000000000000000000000000000000000000000000000006001600160a01b031690638abfdf87906064016020604051808303816000875af1158015610806573d6000803e3d6000fd5b505050506040513d601f19601f8201168201806040525081019061082a9190610cf3565b92915050565b6000806000846001600160a01b03166370a082318560405160240161086491906001600160a01b0391909116815260200190565b6040516020818303038152906040529060e01b6020820180517bffffffffffffffffffffffffffffffffffffffffffffffffffffffff83818316178352505050506040516108b29190610d0c565b6000604051808303816000865af19150503d80600081146108ef576040519150601f19603f3d011682016040523d82523d6000602084013e6108f4565b606091505b50915091508180156109065750805115155b6109785760405162461bcd60e51b815260206004820152602560248201527f5472616e7366657248656c7065723a2062616c616e63654f662063616c6c206660448201527f61696c65640000000000000000000000000000000000000000000000000000006064820152608401610313565b8080602001905181019061098c9190610cf3565b95945050505050565b82803b806109e55760405162461bcd60e51b815260206004820152601d60248201527f5472616e7366657248656c7065723a207a65726f20636f646573697a650000006044820152606401610313565b604080516001600160a01b038681166024830152604480830187905283518084039091018152606490920183526020820180517bffffffffffffffffffffffffffffffffffffffffffffffffffffffff16633950935160e01b1790529151600092839290891691610a569190610d0c565b6000604051808303816000865af19150503d8060008114610a93576040519150601f19603f3d011682016040523d82523d6000602084013e610a98565b606091505b5091509150610aa78282610ab0565b50505050505050565b818015610ad5575080511580610ad5575080806020019051810190610ad59190610d3b565b610b475760405162461bcd60e51b815260206004820152602a60248201527f5472616e7366657248656c7065723a20746f6b656e20636f6e7472616374206360448201527f616c6c206661696c6564000000000000000000000000000000000000000000006064820152608401610313565b5050565b803560ff81168114610b5c57600080fd5b919050565b634e487b7160e01b600052604160045260246000fd5b60008060008060808587031215610b8d57600080fd5b84356001600160a01b0381168114610ba457600080fd5b9350610bb260208601610b4b565b9250610bc060408601610b4b565b9150606085013567ffffffffffffffff80821115610bdd57600080fd5b818701915087601f830112610bf157600080fd5b813581811115610c0357610c03610b61565b604051601f8201601f19908116603f01168101908382118183101715610c2b57610c2b610b61565b816040528281528a6020848701011115610c4457600080fd5b82602086016020830137600060208483010152809550505050505092959194509250565b80356bffffffffffffffffffffffff81168114610b5c57600080fd5b60008060408385031215610c9757600080fd5b610ca083610c68565b9150610cae60208401610c68565b90509250929050565b634e487b7160e01b600052601160045260246000fd5b8082018082111561082a5761082a610cb7565b8181038181111561082a5761082a610cb7565b600060208284031215610d0557600080fd5b5051919050565b6000825160005b81811015610d2d5760208186018101518583015201610d13565b506000920191825250919050565b600060208284031215610d4d57600080fd5b81518015158114610d5d57600080fd5b939250505056fea164736f6c6343000810000a",
  "devdoc": {
    "kind": "dev",
    "methods": {},
    "version": 1
  },
  "userdoc": {
    "kind": "user",
    "methods": {
      "OWNER()": {
        "notice": "The owner who has privileged rights"
      }
    },
    "version": 1
  },
  "storageLayout": {
    "storage": [
      {
        "astId": 3270,
        "contract": "contracts/protocol/OnboardingController.sol:OnboardingController",
        "label": "rewardParams",
        "offset": 0,
        "slot": "0",
        "type": "t_struct(RewardParams)3267_storage"
      },
      {
        "astId": 3272,
        "contract": "contracts/protocol/OnboardingController.sol:OnboardingController",
        "label": "rewardsGranted",
        "offset": 0,
        "slot": "1",
        "type": "t_uint128"
      },
      {
        "astId": 3274,
        "contract": "contracts/protocol/OnboardingController.sol:OnboardingController",
        "label": "rewardsLimit",
        "offset": 16,
        "slot": "1",
        "type": "t_uint128"
      }
    ],
    "types": {
      "t_struct(RewardParams)3267_storage": {
        "encoding": "inplace",
        "label": "struct OnboardingController.RewardParams",
        "members": [
          {
            "astId": 3262,
            "contract": "contracts/protocol/OnboardingController.sol:OnboardingController",
            "label": "zkpAmount",
            "offset": 0,
            "slot": "0",
            "type": "t_uint96"
          },
          {
            "astId": 3264,
            "contract": "contracts/protocol/OnboardingController.sol:OnboardingController",
            "label": "zZkpAmount",
            "offset": 12,
            "slot": "0",
            "type": "t_uint96"
          },
          {
            "astId": 3266,
            "contract": "contracts/protocol/OnboardingController.sol:OnboardingController",
            "label": "_unused",
            "offset": 24,
            "slot": "0",
            "type": "t_uint64"
          }
        ],
        "numberOfBytes": "32"
      },
      "t_uint128": {
        "encoding": "inplace",
        "label": "uint128",
        "numberOfBytes": "16"
      },
      "t_uint64": {
        "encoding": "inplace",
        "label": "uint64",
        "numberOfBytes": "8"
      },
      "t_uint96": {
        "encoding": "inplace",
        "label": "uint96",
        "numberOfBytes": "12"
      }
    }
  }
}