{
  "address": "0x556999825A0BC192d050B093F1F9060ecfA7aA0a",
  "abi": [
    {
      "inputs": [
        {
          "internalType": "address",
          "name": "_owner",
          "type": "address"
        },
        {
          "internalType": "address",
          "name": "_pantherForest",
          "type": "address"
        },
        {
          "internalType": "address",
          "name": "_zAssetsTreeController",
          "type": "address"
        },
        {
          "internalType": "address",
          "name": "_zAccountsBlacklistedTreeController",
          "type": "address"
        },
        {
          "internalType": "address",
          "name": "_zNetworksTreeController",
          "type": "address"
        },
        {
          "internalType": "address",
          "name": "_zZnonesTreeController",
          "type": "address"
        },
        {
          "internalType": "address",
          "name": "_providersKeysTreeController",
          "type": "address"
        }
      ],
      "stateMutability": "nonpayable",
      "type": "constructor"
    },
    {
      "anonymous": false,
      "inputs": [
        {
          "indexed": true,
          "internalType": "uint256",
          "name": "leafIndex",
          "type": "uint256"
        },
        {
          "indexed": false,
          "internalType": "bytes32",
          "name": "updatedLeaf",
          "type": "bytes32"
        },
        {
          "indexed": false,
          "internalType": "bytes32",
          "name": "updatedRoot",
          "type": "bytes32"
        }
      ],
      "name": "RootUpdated",
      "type": "event"
    },
    {
      "inputs": [],
      "name": "OWNER",
      "outputs": [
        {
          "internalType": "address",
          "name": "",
          "type": "address"
        }
      ],
      "stateMutability": "view",
      "type": "function"
    },
    {
      "inputs": [],
      "name": "PANTHER_FOREST",
      "outputs": [
        {
          "internalType": "address",
          "name": "",
          "type": "address"
        }
      ],
      "stateMutability": "view",
      "type": "function"
    },
    {
      "inputs": [],
      "name": "PROVIDERS_KEYS_TREE_CONTROLLER",
      "outputs": [
        {
          "internalType": "address",
          "name": "",
          "type": "address"
        }
      ],
      "stateMutability": "view",
      "type": "function"
    },
    {
      "inputs": [],
      "name": "ZACCOUNTS_BLACKLISTED_TREE_CONTROLLER",
      "outputs": [
        {
          "internalType": "address",
          "name": "",
          "type": "address"
        }
      ],
      "stateMutability": "view",
      "type": "function"
    },
    {
      "inputs": [],
      "name": "ZASSETS_TREE_CONTROLLER",
      "outputs": [
        {
          "internalType": "address",
          "name": "",
          "type": "address"
        }
      ],
      "stateMutability": "view",
      "type": "function"
    },
    {
      "inputs": [],
      "name": "ZNETWORKS_TREE_CONTROLLER",
      "outputs": [
        {
          "internalType": "address",
          "name": "",
          "type": "address"
        }
      ],
      "stateMutability": "view",
      "type": "function"
    },
    {
      "inputs": [],
      "name": "ZZONES_TREE_CONTROLLER",
      "outputs": [
        {
          "internalType": "address",
          "name": "",
          "type": "address"
        }
      ],
      "stateMutability": "view",
      "type": "function"
    },
    {
      "inputs": [],
      "name": "getRoot",
      "outputs": [
        {
          "internalType": "bytes32",
          "name": "",
          "type": "bytes32"
        }
      ],
      "stateMutability": "view",
      "type": "function"
    },
    {
      "inputs": [],
      "name": "initialize",
      "outputs": [],
      "stateMutability": "nonpayable",
      "type": "function"
    },
    {
      "inputs": [
        {
          "internalType": "uint8",
          "name": "",
          "type": "uint8"
        }
      ],
      "name": "leafControllers",
      "outputs": [
        {
          "internalType": "address",
          "name": "",
          "type": "address"
        }
      ],
      "stateMutability": "view",
      "type": "function"
    },
    {
      "inputs": [
        {
          "internalType": "uint256",
          "name": "",
          "type": "uint256"
        }
      ],
      "name": "leafs",
      "outputs": [
        {
          "internalType": "bytes32",
          "name": "",
          "type": "bytes32"
        }
      ],
      "stateMutability": "view",
      "type": "function"
    },
    {
      "inputs": [],
      "name": "setDebugRoot",
      "outputs": [],
      "stateMutability": "nonpayable",
      "type": "function"
    },
    {
      "inputs": [
        {
          "internalType": "bytes32",
          "name": "updatedLeaf",
          "type": "bytes32"
        },
        {
          "internalType": "uint256",
          "name": "leafIndex",
          "type": "uint256"
        }
      ],
      "name": "updateRoot",
      "outputs": [],
      "stateMutability": "nonpayable",
      "type": "function"
    }
  ],
  "transactionHash": "0x13adf379e1da04325d60b3f5aecf09ddc7742e796e818d0b555525096704b9ea",
  "args": [
    "0xfB474a7FeCDaFBD412ebF0d60A0C32794F82d3dD",
    "0xfDfD920F2152565E9D7b589e4e9faeE6699AD4bd",
    "0xED87B63df8E6DBa9acE271177f7AEBfc4e58AcF6",
    "0x518cD70a767d87Bcec1262adcf7bf5520e2e3B5D",
    "0x02293E811938d00241A509780d3Cf0275d73893a",
    "0x275550f478358D816387F02AeEbCC4c6DEc80c67",
    "0x5c71fEe2E7f7B2Ca67dc621E89542C9299aba551"
  ],
  "numDeployments": 2,
  "solcInputHash": "8929a618e86647edd07b95deef0dbe59",
  "bytecode": "0x6101606040523480156200001257600080fd5b5060405162000e5b38038062000e5b83398101604081905262000035916200018a565b866001600160a01b038116620000925760405162461bcd60e51b815260206004820152601a60248201527f496d6d4f776e3a207a65726f206f776e6572206164647265737300000000000060448201526064015b60405180910390fd5b6001600160a01b03908116608052851615801590620000b957506001600160a01b03841615155b8015620000ce57506001600160a01b03831615155b8015620000e357506001600160a01b03821615155b8015620000f857506001600160a01b03811615155b6200013b5760405162461bcd60e51b8152602060048201526012602482015271696e69743a207a65726f206164647265737360701b604482015260640162000089565b6001600160a01b0395861660a05293851660c05291841660e0528316610100528216610120521661014052506200021f565b80516001600160a01b03811681146200018557600080fd5b919050565b600080600080600080600060e0888a031215620001a657600080fd5b620001b1886200016d565b9650620001c1602089016200016d565b9550620001d1604089016200016d565b9450620001e1606089016200016d565b9350620001f1608089016200016d565b92506200020160a089016200016d565b91506200021160c089016200016d565b905092959891949750929550565b60805160a05160c05160e051610100516101205161014051610ba3620002b8600039600081816101f401526108980152600081816101a6015261086d01526000818161024c0152610842015260008181610225015261081701526000818160e901526107ec0152600081816101cd01528181610517015261072c01526000818161012d015281816102a201526105c60152610ba36000f3fe608060405234801561001057600080fd5b50600436106100df5760003560e01c80636c7330ad1161008c5780638cae2754116100665780638cae275414610220578063acbb8bf314610247578063c2e3e62b1461026e578063d12312491461028157600080fd5b80636c7330ad146101c85780637ca9a8b6146101ef5780638129fc1c1461021657600080fd5b80634bcd7322116100bd5780634bcd7322146101705780635ca1e1651461019957806369723fe4146101a157600080fd5b80630eb20a43146100e4578063117803e3146101285780633ff721ba1461014f575b600080fd5b61010b7f000000000000000000000000000000000000000000000000000000000000000081565b6040516001600160a01b0390911681526020015b60405180910390f35b61010b7f000000000000000000000000000000000000000000000000000000000000000081565b61016261015d366004610a61565b610289565b60405190815260200161011f565b61010b61017e366004610a7a565b6038602052600090815260409020546001600160a01b031681565b603254610162565b61010b7f000000000000000000000000000000000000000000000000000000000000000081565b61010b7f000000000000000000000000000000000000000000000000000000000000000081565b61010b7f000000000000000000000000000000000000000000000000000000000000000081565b61021e6102a0565b005b61010b7f000000000000000000000000000000000000000000000000000000000000000081565b61010b7f000000000000000000000000000000000000000000000000000000000000000081565b61021e61027c366004610aa4565b610445565b61021e6105c4565b6033816005811061029957600080fd5b0154905081565b7f00000000000000000000000000000000000000000000000000000000000000006001600160a01b0316331461031d5760405162461bcd60e51b815260206004820152601460248201527f496d6d4f776e3a20756e617574686f72697a656400000000000000000000000060448201526064015b60405180910390fd5b6032541561036d5760405162461bcd60e51b815260206004820152601760248201527f50463a20416c726561647920696e697469616c697a65640000000000000000006044820152606401610314565b60005b60058160ff161015610409576103888160ff16610792565b6001600160a01b0316635ca1e1656040518163ffffffff1660e01b8152600401602060405180830381865afa1580156103c5573d6000803e3d6000fd5b505050506040513d601f19601f820116820180604052508101906103e99190610ac6565b60338260ff16600581106103ff576103ff610adf565b0155600101610370565b506040805160a08101918290526104409160339060059082845b8154815260200190600101908083116104235750505050506108bd565b603255565b61044e81610792565b6001600160a01b0316336001600160a01b0316146104ae5760405162461bcd60e51b815260206004820152600c60248201527f756e617574686f72697a656400000000000000000000000000000000000000006044820152606401610314565b81603382600581106104c2576104c2610adf565b01556040805160a08101918290526033805482526104f4926005906034602085018083116104235750505050506108bd565b603281905560405163c2e3e62b60e01b81526004810191909152600360248201527f00000000000000000000000000000000000000000000000000000000000000006001600160a01b03169063c2e3e62b90604401600060405180830381600087803b15801561056357600080fd5b505af1158015610577573d6000803e3d6000fd5b50505050807f66042f3a2aa2447638b4b91008bb67ce4bcb31954f19979f71c7238ad2175c7d836032546040516105b8929190918252602082015260400190565b60405180910390a25050565b7f00000000000000000000000000000000000000000000000000000000000000006001600160a01b0316331461063c5760405162461bcd60e51b815260206004820152601460248201527f496d6d4f776e3a20756e617574686f72697a65640000000000000000000000006044820152606401610314565b60005b60058160ff1610156106d8576106578160ff16610792565b6001600160a01b0316635ca1e1656040518163ffffffff1660e01b8152600401602060405180830381865afa158015610694573d6000803e3d6000fd5b505050506040513d601f19601f820116820180604052508101906106b89190610ac6565b60338260ff16600581106106ce576106ce610adf565b015560010161063f565b506040805160a0810191829052603380548252610709926005906034602085018083116104235750505050506108bd565b603281905560405163c2e3e62b60e01b81526004810191909152600360248201527f00000000000000000000000000000000000000000000000000000000000000006001600160a01b03169063c2e3e62b90604401600060405180830381600087803b15801561077857600080fd5b505af115801561078c573d6000803e3d6000fd5b50505050565b6000600582106107e45760405162461bcd60e51b815260206004820152601460248201527f50463a20494e56414c49445f4c4541465f494e440000000000000000000000006044820152606401610314565b8161080c57507f00000000000000000000000000000000000000000000000000000000000000005b6001820361083757507f00000000000000000000000000000000000000000000000000000000000000005b6002820361086257507f00000000000000000000000000000000000000000000000000000000000000005b6003820361088d57507f00000000000000000000000000000000000000000000000000000000000000005b600482036108b857507f00000000000000000000000000000000000000000000000000000000000000005b919050565b60006108c8826108ce565b92915050565b80516000907f30644e72e131a029b85045b68181585d2833e84879b9709143e1f593f0000001118015610924575060208201517f30644e72e131a029b85045b68181585d2833e84879b9709143e1f593f0000001115b8015610953575060408201517f30644e72e131a029b85045b68181585d2833e84879b9709143e1f593f0000001115b8015610982575060608201517f30644e72e131a029b85045b68181585d2833e84879b9709143e1f593f0000001115b80156109b1575060808201517f30644e72e131a029b85045b68181585d2833e84879b9709143e1f593f0000001115b604051806060016040528060228152602001610b7560229139906109e85760405162461bcd60e51b81526004016103149190610af5565b50604051633691146b60e11b815273DFBD1b0a49089D6ce523280fAdB49Bd14E37A3ED90636d2228d690610a20908590600401610b43565b602060405180830381865af4158015610a3d573d6000803e3d6000fd5b505050506040513d601f19601f820116820180604052508101906108c89190610ac6565b600060208284031215610a7357600080fd5b5035919050565b600060208284031215610a8c57600080fd5b813560ff81168114610a9d57600080fd5b9392505050565b60008060408385031215610ab757600080fd5b50508035926020909101359150565b600060208284031215610ad857600080fd5b5051919050565b634e487b7160e01b600052603260045260246000fd5b600060208083528351808285015260005b81811015610b2257858101830151858201604001528201610b06565b506000604082860101526040601f19601f8301168501019250505092915050565b60a08101818360005b6005811015610b6b578151835260209283019290910190600101610b4c565b5050509291505056fe506f736569646f6e4861736865723a20696e707574206e6f7420696e206669656c64a164736f6c6343000810000a",
  "deployedBytecode": "0x608060405234801561001057600080fd5b50600436106100df5760003560e01c80636c7330ad1161008c5780638cae2754116100665780638cae275414610220578063acbb8bf314610247578063c2e3e62b1461026e578063d12312491461028157600080fd5b80636c7330ad146101c85780637ca9a8b6146101ef5780638129fc1c1461021657600080fd5b80634bcd7322116100bd5780634bcd7322146101705780635ca1e1651461019957806369723fe4146101a157600080fd5b80630eb20a43146100e4578063117803e3146101285780633ff721ba1461014f575b600080fd5b61010b7f000000000000000000000000000000000000000000000000000000000000000081565b6040516001600160a01b0390911681526020015b60405180910390f35b61010b7f000000000000000000000000000000000000000000000000000000000000000081565b61016261015d366004610a61565b610289565b60405190815260200161011f565b61010b61017e366004610a7a565b6038602052600090815260409020546001600160a01b031681565b603254610162565b61010b7f000000000000000000000000000000000000000000000000000000000000000081565b61010b7f000000000000000000000000000000000000000000000000000000000000000081565b61010b7f000000000000000000000000000000000000000000000000000000000000000081565b61021e6102a0565b005b61010b7f000000000000000000000000000000000000000000000000000000000000000081565b61010b7f000000000000000000000000000000000000000000000000000000000000000081565b61021e61027c366004610aa4565b610445565b61021e6105c4565b6033816005811061029957600080fd5b0154905081565b7f00000000000000000000000000000000000000000000000000000000000000006001600160a01b0316331461031d5760405162461bcd60e51b815260206004820152601460248201527f496d6d4f776e3a20756e617574686f72697a656400000000000000000000000060448201526064015b60405180910390fd5b6032541561036d5760405162461bcd60e51b815260206004820152601760248201527f50463a20416c726561647920696e697469616c697a65640000000000000000006044820152606401610314565b60005b60058160ff161015610409576103888160ff16610792565b6001600160a01b0316635ca1e1656040518163ffffffff1660e01b8152600401602060405180830381865afa1580156103c5573d6000803e3d6000fd5b505050506040513d601f19601f820116820180604052508101906103e99190610ac6565b60338260ff16600581106103ff576103ff610adf565b0155600101610370565b506040805160a08101918290526104409160339060059082845b8154815260200190600101908083116104235750505050506108bd565b603255565b61044e81610792565b6001600160a01b0316336001600160a01b0316146104ae5760405162461bcd60e51b815260206004820152600c60248201527f756e617574686f72697a656400000000000000000000000000000000000000006044820152606401610314565b81603382600581106104c2576104c2610adf565b01556040805160a08101918290526033805482526104f4926005906034602085018083116104235750505050506108bd565b603281905560405163c2e3e62b60e01b81526004810191909152600360248201527f00000000000000000000000000000000000000000000000000000000000000006001600160a01b03169063c2e3e62b90604401600060405180830381600087803b15801561056357600080fd5b505af1158015610577573d6000803e3d6000fd5b50505050807f66042f3a2aa2447638b4b91008bb67ce4bcb31954f19979f71c7238ad2175c7d836032546040516105b8929190918252602082015260400190565b60405180910390a25050565b7f00000000000000000000000000000000000000000000000000000000000000006001600160a01b0316331461063c5760405162461bcd60e51b815260206004820152601460248201527f496d6d4f776e3a20756e617574686f72697a65640000000000000000000000006044820152606401610314565b60005b60058160ff1610156106d8576106578160ff16610792565b6001600160a01b0316635ca1e1656040518163ffffffff1660e01b8152600401602060405180830381865afa158015610694573d6000803e3d6000fd5b505050506040513d601f19601f820116820180604052508101906106b89190610ac6565b60338260ff16600581106106ce576106ce610adf565b015560010161063f565b506040805160a0810191829052603380548252610709926005906034602085018083116104235750505050506108bd565b603281905560405163c2e3e62b60e01b81526004810191909152600360248201527f00000000000000000000000000000000000000000000000000000000000000006001600160a01b03169063c2e3e62b90604401600060405180830381600087803b15801561077857600080fd5b505af115801561078c573d6000803e3d6000fd5b50505050565b6000600582106107e45760405162461bcd60e51b815260206004820152601460248201527f50463a20494e56414c49445f4c4541465f494e440000000000000000000000006044820152606401610314565b8161080c57507f00000000000000000000000000000000000000000000000000000000000000005b6001820361083757507f00000000000000000000000000000000000000000000000000000000000000005b6002820361086257507f00000000000000000000000000000000000000000000000000000000000000005b6003820361088d57507f00000000000000000000000000000000000000000000000000000000000000005b600482036108b857507f00000000000000000000000000000000000000000000000000000000000000005b919050565b60006108c8826108ce565b92915050565b80516000907f30644e72e131a029b85045b68181585d2833e84879b9709143e1f593f0000001118015610924575060208201517f30644e72e131a029b85045b68181585d2833e84879b9709143e1f593f0000001115b8015610953575060408201517f30644e72e131a029b85045b68181585d2833e84879b9709143e1f593f0000001115b8015610982575060608201517f30644e72e131a029b85045b68181585d2833e84879b9709143e1f593f0000001115b80156109b1575060808201517f30644e72e131a029b85045b68181585d2833e84879b9709143e1f593f0000001115b604051806060016040528060228152602001610b7560229139906109e85760405162461bcd60e51b81526004016103149190610af5565b50604051633691146b60e11b815273__$f4ced4ad911a532f42104c201bc2409c3d$__90636d2228d690610a20908590600401610b43565b602060405180830381865af4158015610a3d573d6000803e3d6000fd5b505050506040513d601f19601f820116820180604052508101906108c89190610ac6565b600060208284031215610a7357600080fd5b5035919050565b600060208284031215610a8c57600080fd5b813560ff81168114610a9d57600080fd5b9392505050565b60008060408385031215610ab757600080fd5b50508035926020909101359150565b600060208284031215610ad857600080fd5b5051919050565b634e487b7160e01b600052603260045260246000fd5b600060208083528351808285015260005b81811015610b2257858101830151858201604001528201610b06565b506000604082860101526040601f19601f8301168501019250505092915050565b60a08101818360005b6005811015610b6b578151835260209283019290910190600101610b4c565b5050509291505056fe506f736569646f6e4861736865723a20696e707574206e6f7420696e206669656c64a164736f6c6343000810000a",
  "libraries": {
    "PoseidonT6": "0xDFBD1b0a49089D6ce523280fAdB49Bd14E37A3ED"
  },
  "devdoc": {
    "kind": "dev",
    "methods": {},
    "version": 1
  },
  "userdoc": {
    "kind": "user",
    "methods": {
      "OWNER()": {
        "notice": "The owner who has privileged rights"
      }
    },
    "version": 1
  },
  "storageLayout": {
    "storage": [
      {
        "astId": 10671,
        "contract": "contracts/protocol/PantherStaticTree.sol:PantherStaticTree",
        "label": "_gap",
        "offset": 0,
        "slot": "0",
        "type": "t_array(t_bytes32)50_storage"
      },
      {
        "astId": 10688,
        "contract": "contracts/protocol/PantherStaticTree.sol:PantherStaticTree",
        "label": "_staticTreeRoot",
        "offset": 0,
        "slot": "50",
        "type": "t_bytes32"
      },
      {
        "astId": 10692,
        "contract": "contracts/protocol/PantherStaticTree.sol:PantherStaticTree",
        "label": "leafs",
        "offset": 0,
        "slot": "51",
        "type": "t_array(t_bytes32)5_storage"
      },
      {
        "astId": 10696,
        "contract": "contracts/protocol/PantherStaticTree.sol:PantherStaticTree",
        "label": "leafControllers",
        "offset": 0,
        "slot": "56",
        "type": "t_mapping(t_uint8,t_address)"
      }
    ],
    "types": {
      "t_address": {
        "encoding": "inplace",
        "label": "address",
        "numberOfBytes": "20"
      },
      "t_array(t_bytes32)50_storage": {
        "base": "t_bytes32",
        "encoding": "inplace",
        "label": "bytes32[50]",
        "numberOfBytes": "1600"
      },
      "t_array(t_bytes32)5_storage": {
        "base": "t_bytes32",
        "encoding": "inplace",
        "label": "bytes32[5]",
        "numberOfBytes": "160"
      },
      "t_bytes32": {
        "encoding": "inplace",
        "label": "bytes32",
        "numberOfBytes": "32"
      },
      "t_mapping(t_uint8,t_address)": {
        "encoding": "mapping",
        "key": "t_uint8",
        "label": "mapping(uint8 => address)",
        "numberOfBytes": "32",
        "value": "t_address"
      },
      "t_uint8": {
        "encoding": "inplace",
        "label": "uint8",
        "numberOfBytes": "1"
      }
    }
  }
}