{
  "address": "0x5c91d70Cd7cf569CA9Ac8DE588705B3f118647DF",
  "abi": [
    {
      "inputs": [],
      "name": "getRoot",
      "outputs": [
        {
          "internalType": "bytes32",
          "name": "",
          "type": "bytes32"
        }
      ],
      "stateMutability": "pure",
      "type": "function"
    }
  ],
  "transactionHash": "0x30f495cf7b5f5cc767a3dd34a200bdfb4b14e22527dcd696c80d886657c2b3a1",
  "args": [],
  "numDeployments": 1,
  "solcInputHash": "8ced4b4e64f70b0ab3e17932cf8fd4ee",
  "bytecode": "0x6080604052348015600f57600080fd5b50606d80601d6000396000f3fe6080604052348015600f57600080fd5b506004361060285760003560e01c80635ca1e16514602d575b600080fd5b7f24ab16594d418ca2e66ca284f56a4cb7039c6d8f8e0c3c8f362cf18b5afa19d060405190815260200160405180910390f3fea164736f6c6343000810000a",
  "devdoc": {
    "kind": "dev",
    "methods": {},
    "version": 1
  },
  "userdoc": {
    "kind": "user",
    "methods": {},
    "version": 1
  },
  "storageLayout": {
    "storage": [],
    "types": null
  }
}