{
  "address": "0xeeAfce13506847a19141A4513718df17383f4f7b",
  "abi": [
    {
      "inputs": [
        {
          "internalType": "uint160",
          "name": "circuitId",
          "type": "uint160"
        }
      ],
      "name": "getVerifyingKey",
      "outputs": [
        {
          "components": [
            {
              "components": [
                {
                  "internalType": "uint256",
                  "name": "x",
                  "type": "uint256"
                },
                {
                  "internalType": "uint256",
                  "name": "y",
                  "type": "uint256"
                }
              ],
              "internalType": "struct G1Point",
              "name": "alfa1",
              "type": "tuple"
            },
            {
              "components": [
                {
                  "internalType": "uint256[2]",
                  "name": "x",
                  "type": "uint256[2]"
                },
                {
                  "internalType": "uint256[2]",
                  "name": "y",
                  "type": "uint256[2]"
                }
              ],
              "internalType": "struct G2Point",
              "name": "beta2",
              "type": "tuple"
            },
            {
              "components": [
                {
                  "internalType": "uint256[2]",
                  "name": "x",
                  "type": "uint256[2]"
                },
                {
                  "internalType": "uint256[2]",
                  "name": "y",
                  "type": "uint256[2]"
                }
              ],
              "internalType": "struct G2Point",
              "name": "gamma2",
              "type": "tuple"
            },
            {
              "components": [
                {
                  "internalType": "uint256[2]",
                  "name": "x",
                  "type": "uint256[2]"
                },
                {
                  "internalType": "uint256[2]",
                  "name": "y",
                  "type": "uint256[2]"
                }
              ],
              "internalType": "struct G2Point",
              "name": "delta2",
              "type": "tuple"
            },
            {
              "components": [
                {
                  "internalType": "uint256",
                  "name": "x",
                  "type": "uint256"
                },
                {
                  "internalType": "uint256",
                  "name": "y",
                  "type": "uint256"
                }
              ],
              "internalType": "struct G1Point[]",
              "name": "ic",
              "type": "tuple[]"
            }
          ],
          "internalType": "struct VerifyingKey",
          "name": "",
          "type": "tuple"
        }
      ],
      "stateMutability": "view",
      "type": "function"
    },
    {
      "inputs": [
        {
          "internalType": "uint160",
          "name": "circuitId",
          "type": "uint160"
        },
        {
          "internalType": "uint256[]",
          "name": "input",
          "type": "uint256[]"
        },
        {
          "components": [
            {
              "components": [
                {
                  "internalType": "uint256",
                  "name": "x",
                  "type": "uint256"
                },
                {
                  "internalType": "uint256",
                  "name": "y",
                  "type": "uint256"
                }
              ],
              "internalType": "struct G1Point",
              "name": "a",
              "type": "tuple"
            },
            {
              "components": [
                {
                  "internalType": "uint256[2]",
                  "name": "x",
                  "type": "uint256[2]"
                },
                {
                  "internalType": "uint256[2]",
                  "name": "y",
                  "type": "uint256[2]"
                }
              ],
              "internalType": "struct G2Point",
              "name": "b",
              "type": "tuple"
            },
            {
              "components": [
                {
                  "internalType": "uint256",
                  "name": "x",
                  "type": "uint256"
                },
                {
                  "internalType": "uint256",
                  "name": "y",
                  "type": "uint256"
                }
              ],
              "internalType": "struct G1Point",
              "name": "c",
              "type": "tuple"
            }
          ],
          "internalType": "struct SnarkProof",
          "name": "proof",
          "type": "tuple"
        }
      ],
      "name": "verify",
      "outputs": [
        {
          "internalType": "bool",
          "name": "isVerified",
          "type": "bool"
        }
      ],
      "stateMutability": "view",
      "type": "function"
    }
  ],
  "transactionHash": "0x0c39c515b78ade3ee0206b3904fa56bba0c1a3ecbf063100b8a8304f3cba2f5d",
  "args": [],
  "numDeployments": 1,
  "solcInputHash": "b8eeeddae64fd5c3b79a196914bed59a",
  "bytecode": "0x608060405234801561001057600080fd5b506111af806100206000396000f3fe608060405234801561001057600080fd5b50600436106100365760003560e01c80633bd61b361461003b5780639ea4cf6e14610064575b600080fd5b61004e610049366004610b5c565b610087565b60405161005b9190610bc9565b60405180910390f35b610077610072366004610e6d565b61009e565b604051901515815260200161005b565b61008f610a45565b6100988261029a565b92915050565b6000806100aa8561029a565b9050806080015151845160016100c09190610f3e565b146101125760405162461bcd60e51b815260206004820152601260248201527f76657269666965722d6261642d696e707574000000000000000000000000000060448201526064015b60405180910390fd5b604080518082019091526000808252602082018190525b8551811015610223577f30644e72e131a029b85045b68181585d2833e84879b9709143e1f593f000000186828151811061016557610165610f51565b6020026020010151106101ba5760405162461bcd60e51b815260206004820152601f60248201527f76657269666965722d6774652d736e61726b2d7363616c61722d6669656c64006044820152606401610109565b61020f8261020a85608001518460016101d39190610f3e565b815181106101e3576101e3610f51565b60200260200101518985815181106101fd576101fd610f51565b60200260200101516102c0565b610361565b91508061021b81610f67565b915050610129565b5061024c81836080015160008151811061023f5761023f610f51565b6020026020010151610361565b905061028261025e8560000151610405565b8560200151846000015185602001518587604001518a6040015189606001516104bf565b8061029057503263deadc0de145b9695505050505050565b6102a2610a45565b6102ad82600161064a565b8060200190518101906100989190611035565b60408051808201909152600080825260208201526102dc610a96565b835181526020808501519082015260408101839052600060608360808460076107d05a03fa9050808061030b57fe5b50806103595760405162461bcd60e51b815260206004820152601260248201527f70616972696e672d6d756c2d6661696c656400000000000000000000000000006044820152606401610109565b505092915050565b604080518082019091526000808252602082015261037d610ab4565b8351815260208085015181830152835160408301528301516060808301919091526000908360c08460066107d05a03fa905080806103b757fe5b50806103595760405162461bcd60e51b815260206004820152601260248201527f70616972696e672d6164642d6661696c656400000000000000000000000000006044820152606401610109565b6040805180820190915260008082526020820152815115801561042a57506020820151155b15610448575050604080518082019091526000808252602082015290565b6040518060400160405280836000015181526020017f30644e72e131a029b85045b68181585d97816a916871ca8d3c208c16d87cfd47846020015161048d919061114e565b6104b7907f30644e72e131a029b85045b68181585d97816a916871ca8d3c208c16d87cfd47611170565b905292915050565b60408051600480825260a08201909252600091829190816020015b60408051808201909152600080825260208201528152602001906001900390816104da57505060408051600480825260a0820190925291925060009190602082015b610524610ad2565b81526020019060019003908161051c5790505090508a8260008151811061054d5761054d610f51565b6020026020010181905250888260018151811061056c5761056c610f51565b6020026020010181905250868260028151811061058b5761058b610f51565b602002602001018190525084826003815181106105aa576105aa610f51565b602002602001018190525089816000815181106105c9576105c9610f51565b602002602001018190525087816001815181106105e8576105e8610f51565b6020026020010181905250858160028151811061060757610607610f51565b6020026020010181905250838160038151811061062657610626610f51565b602002602001018190525061063b82826106de565b9b9a5050505050505050505050565b606073ffffffffffffffffffffffffffffffffffffffff83163b828110156106b45760405162461bcd60e51b815260206004820152600d60248201527f4f55545f4f465f424f554e4453000000000000000000000000000000000000006044820152606401610109565b60408051603f92859003928301601f191681019091528181529150808360208401863c5092915050565b600081518351146107315760405162461bcd60e51b815260206004820152601660248201527f70616972696e672d6c656e677468732d6661696c6564000000000000000000006044820152606401610109565b82516000610740826006611183565b905060008167ffffffffffffffff81111561075d5761075d610c7c565b604051908082528060200260200182016040528015610786578160200160208202803683370190505b50905060005b838110156109c1578681815181106107a6576107a6610f51565b602002602001015160000151828260066107c09190611183565b6107cb906000610f3e565b815181106107db576107db610f51565b6020026020010181815250508681815181106107f9576107f9610f51565b602002602001015160200151828260066108139190611183565b61081e906001610f3e565b8151811061082e5761082e610f51565b60200260200101818152505085818151811061084c5761084c610f51565b6020908102919091010151515182610865836006611183565b610870906002610f3e565b8151811061088057610880610f51565b60200260200101818152505085818151811061089e5761089e610f51565b602090810291909101810151510151826108b9836006611183565b6108c4906003610f3e565b815181106108d4576108d4610f51565b6020026020010181815250508581815181106108f2576108f2610f51565b60200260200101516020015160006002811061091057610910610f51565b602002015182610921836006611183565b61092c906004610f3e565b8151811061093c5761093c610f51565b60200260200101818152505085818151811061095a5761095a610f51565b60200260200101516020015160016002811061097857610978610f51565b602002015182610989836006611183565b610994906005610f3e565b815181106109a4576109a4610f51565b6020908102919091010152806109b981610f67565b91505061078c565b506109ca610af7565b6000602082602086026020860160086107d05a03fa905080806109e957fe5b5080610a375760405162461bcd60e51b815260206004820152601560248201527f70616972696e672d6f70636f64652d6661696c656400000000000000000000006044820152606401610109565b505115159695505050505050565b6040805160e08101909152600060a0820181815260c0830191909152815260208101610a6f610ad2565b8152602001610a7c610ad2565b8152602001610a89610ad2565b8152602001606081525090565b60405180606001604052806003906020820280368337509192915050565b60405180608001604052806004906020820280368337509192915050565b6040518060400160405280610ae5610b15565b8152602001610af2610b15565b905290565b60405180602001604052806001906020820280368337509192915050565b60405180604001604052806002906020820280368337509192915050565b803573ffffffffffffffffffffffffffffffffffffffff81168114610b5757600080fd5b919050565b600060208284031215610b6e57600080fd5b610b7782610b33565b9392505050565b8060005b6002811015610ba1578151845260209384019390910190600101610b82565b50505050565b610bb2828251610b7e565b6020810151610bc46040840182610b7e565b505050565b602080825282518051838301528101516040830152600090610200830181850151610bf76060860182610ba7565b50604080860151610c0b60e0870182610ba7565b506060860151610c1f610160870182610ba7565b5060808601516101e0868101528051928390528301916000906102208701905b80831015610c7057610c5c82865180518252602090810151910152565b938501936001929092019190830190610c3f565b50979650505050505050565b634e487b7160e01b600052604160045260246000fd5b6040805190810167ffffffffffffffff81118282101715610cb557610cb5610c7c565b60405290565b60405160a0810167ffffffffffffffff81118282101715610cb557610cb5610c7c565b604051601f8201601f1916810167ffffffffffffffff81118282101715610d0757610d07610c7c565b604052919050565b600067ffffffffffffffff821115610d2957610d29610c7c565b5060051b60200190565b600060408284031215610d4557600080fd5b610d4d610c92565b9050813581526020820135602082015292915050565b600082601f830112610d7457600080fd5b610d7c610c92565b806040840185811115610d8e57600080fd5b845b81811015610da8578035845260209384019301610d90565b509095945050505050565b6000818303610100811215610dc757600080fd5b604080516060810167ffffffffffffffff8282108183111715610dec57610dec610c7c565b818452829550610dfc8888610d33565b83526080603f1986011215610e1057600080fd5b8351945083850191508482108183111715610e2d57610e2d610c7c565b508252610e3c86868401610d63565b8352610e4b8660808701610d63565b6020840152826020820152610e638660c08701610d33565b9101525092915050565b60008060006101408486031215610e8357600080fd5b610e8c84610b33565b925060208085013567ffffffffffffffff811115610ea957600080fd5b8501601f81018713610eba57600080fd5b8035610ecd610ec882610d0f565b610cde565b81815260059190911b82018301908381019089831115610eec57600080fd5b928401925b82841015610f0a57833582529284019290840190610ef1565b8096505050505050610f1f8560408601610db3565b90509250925092565b634e487b7160e01b600052601160045260246000fd5b8082018082111561009857610098610f28565b634e487b7160e01b600052603260045260246000fd5b600060018201610f7957610f79610f28565b5060010190565b600060408284031215610f9257600080fd5b610f9a610c92565b9050815181526020820151602082015292915050565b600082601f830112610fc157600080fd5b610fc9610c92565b806040840185811115610fdb57600080fd5b845b81811015610da8578051845260209384019301610fdd565b60006080828403121561100757600080fd5b61100f610c92565b905061101b8383610fb0565b815261102a8360408401610fb0565b602082015292915050565b6000602080838503121561104857600080fd5b825167ffffffffffffffff8082111561106057600080fd5b908401906101e0828703121561107557600080fd5b61107d610cbb565b6110878784610f80565b8152604061109788828601610ff5565b858301526110a88860c08601610ff5565b818301526110ba886101408601610ff5565b60608301526101c0840151838111156110d257600080fd5b80850194505087601f8501126110e757600080fd5b835192506110f7610ec884610d0f565b83815260069390931b8401850192858101908985111561111657600080fd5b948601945b8486101561113c5761112d8a87610f80565b8252948201949086019061111b565b60808401525090979650505050505050565b60008261116b57634e487b7160e01b600052601260045260246000fd5b500690565b8181038181111561009857610098610f28565b600081600019048311821515161561119d5761119d610f28565b50029056fea164736f6c6343000810000a",
  "devdoc": {
    "kind": "dev",
    "methods": {
      "getVerifyingKey(uint160)": {
        "details": "circuitId is an address where the key is deployed as bytecode",
        "params": {
          "circuitId": "ID of the circuit"
        },
        "returns": {
          "_0": "Verifying key"
        }
      },
      "verify(uint160,uint256[],((uint256,uint256),(uint256[2],uint256[2]),(uint256,uint256)))": {
        "params": {
          "circuitId": "ID of the circuit (it tells which verifying key to use)",
          "input": "Public input signals",
          "proof": "SNARK proof"
        },
        "returns": {
          "isVerified": "bool true if proof is valid"
        }
      }
    },
    "version": 1
  },
  "userdoc": {
    "kind": "user",
    "methods": {
      "getVerifyingKey(uint160)": {
        "notice": "Get the verifying key for the specified circuits"
      },
      "verify(uint160,uint256[],((uint256,uint256),(uint256[2],uint256[2]),(uint256,uint256)))": {
        "notice": "Verify the SNARK proof"
      }
    },
    "version": 1
  },
  "storageLayout": {
    "storage": [],
    "types": null
  }
}