{
  "address": "0x8050ab2D19b32A00c537669b11d13a509155CF1e",
  "abi": [
    {
      "inputs": [
        {
          "internalType": "address",
          "name": "_owner",
          "type": "address"
        },
        {
          "internalType": "address",
          "name": "zkpToken",
          "type": "address"
        },
        {
          "internalType": "address",
          "name": "taxiTree",
          "type": "address"
        },
        {
          "internalType": "address",
          "name": "busTree",
          "type": "address"
        },
        {
          "internalType": "address",
          "name": "ferryTree",
          "type": "address"
        },
        {
          "internalType": "address",
          "name": "staticTree",
          "type": "address"
        },
        {
          "internalType": "address",
          "name": "vault",
          "type": "address"
        },
        {
          "internalType": "address",
          "name": "zAccountRegistry",
          "type": "address"
        },
        {
          "internalType": "address",
          "name": "prpVoucherGrantor",
          "type": "address"
        },
        {
          "internalType": "address",
          "name": "verifier",
          "type": "address"
        }
      ],
      "stateMutability": "nonpayable",
      "type": "constructor"
    },
    {
      "anonymous": false,
      "inputs": [
        {
          "indexed": true,
          "internalType": "uint256",
          "name": "leafIndex",
          "type": "uint256"
        },
        {
          "indexed": false,
          "internalType": "bytes32",
          "name": "updatedLeaf",
          "type": "bytes32"
        },
        {
          "indexed": false,
          "internalType": "bytes32",
          "name": "updatedRoot",
          "type": "bytes32"
        },
        {
          "indexed": false,
          "internalType": "uint256",
          "name": "cacheIndex",
          "type": "uint256"
        }
      ],
      "name": "RootUpdated",
      "type": "event"
    },
    {
      "anonymous": false,
      "inputs": [
        {
          "indexed": false,
          "internalType": "uint8",
          "name": "txType",
          "type": "uint8"
        },
        {
          "indexed": false,
          "internalType": "bytes",
          "name": "content",
          "type": "bytes"
        }
      ],
      "name": "TransactionNote",
      "type": "event"
    },
    {
      "inputs": [],
      "name": "BUS_TREE",
      "outputs": [
        {
          "internalType": "contract IBusTree",
          "name": "",
          "type": "address"
        }
      ],
      "stateMutability": "view",
      "type": "function"
    },
    {
      "inputs": [],
      "name": "BUS_TREE_CONTROLLER",
      "outputs": [
        {
          "internalType": "address",
          "name": "",
          "type": "address"
        }
      ],
      "stateMutability": "view",
      "type": "function"
    },
    {
      "inputs": [],
      "name": "FERRY_TREE_CONTROLLER",
      "outputs": [
        {
          "internalType": "address",
          "name": "",
          "type": "address"
        }
      ],
      "stateMutability": "view",
      "type": "function"
    },
    {
      "inputs": [],
      "name": "OWNER",
      "outputs": [
        {
          "internalType": "address",
          "name": "",
          "type": "address"
        }
      ],
      "stateMutability": "view",
      "type": "function"
    },
    {
      "inputs": [],
      "name": "PROTOCOL_TOKEN",
      "outputs": [
        {
          "internalType": "address",
          "name": "",
          "type": "address"
        }
      ],
      "stateMutability": "view",
      "type": "function"
    },
    {
      "inputs": [],
      "name": "PRP_VOUCHER_GRANTOR",
      "outputs": [
        {
          "internalType": "address",
          "name": "",
          "type": "address"
        }
      ],
      "stateMutability": "view",
      "type": "function"
    },
    {
      "inputs": [],
      "name": "STATIC_TREE_CONTROLLER",
      "outputs": [
        {
          "internalType": "address",
          "name": "",
          "type": "address"
        }
      ],
      "stateMutability": "view",
      "type": "function"
    },
    {
      "inputs": [],
      "name": "TAXI_TREE_CONTROLLER",
      "outputs": [
        {
          "internalType": "address",
          "name": "",
          "type": "address"
        }
      ],
      "stateMutability": "view",
      "type": "function"
    },
    {
      "inputs": [],
      "name": "UNDEFINED_CACHE_INDEX",
      "outputs": [
        {
          "internalType": "uint256",
          "name": "",
          "type": "uint256"
        }
      ],
      "stateMutability": "view",
      "type": "function"
    },
    {
      "inputs": [],
      "name": "VAULT",
      "outputs": [
        {
          "internalType": "contract IVault",
          "name": "",
          "type": "address"
        }
      ],
      "stateMutability": "view",
      "type": "function"
    },
    {
      "inputs": [],
      "name": "VERIFIER",
      "outputs": [
        {
          "internalType": "contract IPantherVerifier",
          "name": "",
          "type": "address"
        }
      ],
      "stateMutability": "view",
      "type": "function"
    },
    {
      "inputs": [],
      "name": "ZACCOUNT_REGISTRY",
      "outputs": [
        {
          "internalType": "address",
          "name": "",
          "type": "address"
        }
      ],
      "stateMutability": "view",
      "type": "function"
    },
    {
      "inputs": [
        {
          "internalType": "uint256[]",
          "name": "inputs",
          "type": "uint256[]"
        },
        {
          "components": [
            {
              "components": [
                {
                  "internalType": "uint256",
                  "name": "x",
                  "type": "uint256"
                },
                {
                  "internalType": "uint256",
                  "name": "y",
                  "type": "uint256"
                }
              ],
              "internalType": "struct G1Point",
              "name": "a",
              "type": "tuple"
            },
            {
              "components": [
                {
                  "internalType": "uint256[2]",
                  "name": "x",
                  "type": "uint256[2]"
                },
                {
                  "internalType": "uint256[2]",
                  "name": "y",
                  "type": "uint256[2]"
                }
              ],
              "internalType": "struct G2Point",
              "name": "b",
              "type": "tuple"
            },
            {
              "components": [
                {
                  "internalType": "uint256",
                  "name": "x",
                  "type": "uint256"
                },
                {
                  "internalType": "uint256",
                  "name": "y",
                  "type": "uint256"
                }
              ],
              "internalType": "struct G1Point",
              "name": "c",
              "type": "tuple"
            }
          ],
          "internalType": "struct SnarkProof",
          "name": "proof",
          "type": "tuple"
        },
        {
          "internalType": "bytes",
          "name": "privateMessages",
          "type": "bytes"
        },
        {
          "internalType": "uint256",
          "name": "cachedForestRootIndex",
          "type": "uint256"
        }
      ],
      "name": "accountPrp",
      "outputs": [
        {
          "internalType": "uint256",
          "name": "utxoBusQueuePos",
          "type": "uint256"
        }
      ],
      "stateMutability": "nonpayable",
      "type": "function"
    },
    {
      "inputs": [],
      "name": "accountedRewards",
      "outputs": [
        {
          "internalType": "uint96",
          "name": "",
          "type": "uint96"
        }
      ],
      "stateMutability": "view",
      "type": "function"
    },
    {
      "inputs": [
        {
          "internalType": "uint256[]",
          "name": "inputs",
          "type": "uint256[]"
        },
        {
          "components": [
            {
              "components": [
                {
                  "internalType": "uint256",
                  "name": "x",
                  "type": "uint256"
                },
                {
                  "internalType": "uint256",
                  "name": "y",
                  "type": "uint256"
                }
              ],
              "internalType": "struct G1Point",
              "name": "a",
              "type": "tuple"
            },
            {
              "components": [
                {
                  "internalType": "uint256[2]",
                  "name": "x",
                  "type": "uint256[2]"
                },
                {
                  "internalType": "uint256[2]",
                  "name": "y",
                  "type": "uint256[2]"
                }
              ],
              "internalType": "struct G2Point",
              "name": "b",
              "type": "tuple"
            },
            {
              "components": [
                {
                  "internalType": "uint256",
                  "name": "x",
                  "type": "uint256"
                },
                {
                  "internalType": "uint256",
                  "name": "y",
                  "type": "uint256"
                }
              ],
              "internalType": "struct G1Point",
              "name": "c",
              "type": "tuple"
            }
          ],
          "internalType": "struct SnarkProof",
          "name": "proof",
          "type": "tuple"
        },
        {
          "internalType": "address",
          "name": "zkpPayer",
          "type": "address"
        },
        {
          "internalType": "bytes",
          "name": "privateMessages",
          "type": "bytes"
        },
        {
          "internalType": "uint256",
          "name": "cachedForestRootIndex",
          "type": "uint256"
        }
      ],
      "name": "createZAccountUtxo",
      "outputs": [
        {
          "internalType": "uint256",
          "name": "utxoBusQueuePos",
          "type": "uint256"
        }
      ],
      "stateMutability": "nonpayable",
      "type": "function"
    },
    {
      "inputs": [
        {
          "internalType": "uint256[]",
          "name": "inputs",
          "type": "uint256[]"
        },
        {
          "components": [
            {
              "components": [
                {
                  "internalType": "uint256",
                  "name": "x",
                  "type": "uint256"
                },
                {
                  "internalType": "uint256",
                  "name": "y",
                  "type": "uint256"
                }
              ],
              "internalType": "struct G1Point",
              "name": "a",
              "type": "tuple"
            },
            {
              "components": [
                {
                  "internalType": "uint256[2]",
                  "name": "x",
                  "type": "uint256[2]"
                },
                {
                  "internalType": "uint256[2]",
                  "name": "y",
                  "type": "uint256[2]"
                }
              ],
              "internalType": "struct G2Point",
              "name": "b",
              "type": "tuple"
            },
            {
              "components": [
                {
                  "internalType": "uint256",
                  "name": "x",
                  "type": "uint256"
                },
                {
                  "internalType": "uint256",
                  "name": "y",
                  "type": "uint256"
                }
              ],
              "internalType": "struct G1Point",
              "name": "c",
              "type": "tuple"
            }
          ],
          "internalType": "struct SnarkProof",
          "name": "proof",
          "type": "tuple"
        },
        {
          "internalType": "bytes",
          "name": "privateMessages",
          "type": "bytes"
        },
        {
          "internalType": "uint256",
          "name": "zkpAmountOutRounded",
          "type": "uint256"
        },
        {
          "internalType": "uint256",
          "name": "cachedForestRootIndex",
          "type": "uint256"
        }
      ],
      "name": "createZzkpUtxoAndSpendPrpUtxo",
      "outputs": [
        {
          "internalType": "uint256",
          "name": "zAccountUtxoBusQueuePos",
          "type": "uint256"
        }
      ],
      "stateMutability": "nonpayable",
      "type": "function"
    },
    {
      "inputs": [],
      "name": "getCacheStats",
      "outputs": [
        {
          "internalType": "uint256",
          "name": "numRootsCached",
          "type": "uint256"
        },
        {
          "internalType": "uint256",
          "name": "latestCacheIndex",
          "type": "uint256"
        }
      ],
      "stateMutability": "view",
      "type": "function"
    },
    {
      "inputs": [],
      "name": "getRoot",
      "outputs": [
        {
          "internalType": "bytes32",
          "name": "",
          "type": "bytes32"
        }
      ],
      "stateMutability": "view",
      "type": "function"
    },
    {
      "inputs": [],
      "name": "initialize",
      "outputs": [],
      "stateMutability": "nonpayable",
      "type": "function"
    },
    {
      "inputs": [
        {
          "internalType": "bytes32",
          "name": "root",
          "type": "bytes32"
        },
        {
          "internalType": "uint256",
          "name": "cacheIndex",
          "type": "uint256"
        }
      ],
      "name": "isCachedRoot",
      "outputs": [
        {
          "internalType": "bool",
          "name": "isCached",
          "type": "bool"
        }
      ],
      "stateMutability": "view",
      "type": "function"
    },
    {
      "inputs": [
        {
          "internalType": "bytes32",
          "name": "",
          "type": "bytes32"
        }
      ],
      "name": "isSpent",
      "outputs": [
        {
          "internalType": "bool",
          "name": "",
          "type": "bool"
        }
      ],
      "stateMutability": "view",
      "type": "function"
    },
    {
      "inputs": [],
      "name": "kycReward",
      "outputs": [
        {
          "internalType": "uint96",
          "name": "",
          "type": "uint96"
        }
      ],
      "stateMutability": "view",
      "type": "function"
    },
    {
      "inputs": [
        {
          "internalType": "uint256",
          "name": "",
          "type": "uint256"
        }
      ],
      "name": "leafs",
      "outputs": [
        {
          "internalType": "bytes32",
          "name": "",
          "type": "bytes32"
        }
      ],
      "stateMutability": "view",
      "type": "function"
    },
    {
      "inputs": [
        {
          "internalType": "uint256[]",
          "name": "inputs",
          "type": "uint256[]"
        },
        {
          "components": [
            {
              "components": [
                {
                  "internalType": "uint256",
                  "name": "x",
                  "type": "uint256"
                },
                {
                  "internalType": "uint256",
                  "name": "y",
                  "type": "uint256"
                }
              ],
              "internalType": "struct G1Point",
              "name": "a",
              "type": "tuple"
            },
            {
              "components": [
                {
                  "internalType": "uint256[2]",
                  "name": "x",
                  "type": "uint256[2]"
                },
                {
                  "internalType": "uint256[2]",
                  "name": "y",
                  "type": "uint256[2]"
                }
              ],
              "internalType": "struct G2Point",
              "name": "b",
              "type": "tuple"
            },
            {
              "components": [
                {
                  "internalType": "uint256",
                  "name": "x",
                  "type": "uint256"
                },
                {
                  "internalType": "uint256",
                  "name": "y",
                  "type": "uint256"
                }
              ],
              "internalType": "struct G1Point",
              "name": "c",
              "type": "tuple"
            }
          ],
          "internalType": "struct SnarkProof",
          "name": "proof",
          "type": "tuple"
        },
        {
          "internalType": "uint256",
          "name": "cachedForestRootIndex",
          "type": "uint256"
        },
        {
          "internalType": "bytes",
          "name": "privateMessages",
          "type": "bytes"
        },
        {
          "internalType": "uint8",
          "name": "tokenType",
          "type": "uint8"
        }
      ],
      "name": "main",
      "outputs": [
        {
          "internalType": "uint256",
          "name": "zAccountUtxoBusQueuePos",
          "type": "uint256"
        }
      ],
      "stateMutability": "payable",
      "type": "function"
    },
    {
      "inputs": [],
      "name": "mainCircuitId",
      "outputs": [
        {
          "internalType": "uint160",
          "name": "",
          "type": "uint160"
        }
      ],
      "stateMutability": "view",
      "type": "function"
    },
    {
      "inputs": [],
      "name": "maxTimeDelta",
      "outputs": [
        {
          "internalType": "uint32",
          "name": "",
          "type": "uint32"
        }
      ],
      "stateMutability": "view",
      "type": "function"
    },
    {
      "inputs": [],
      "name": "prpAccountConversionCircuitId",
      "outputs": [
        {
          "internalType": "uint160",
          "name": "",
          "type": "uint160"
        }
      ],
      "stateMutability": "view",
      "type": "function"
    },
    {
      "inputs": [],
      "name": "prpAccountingCircuitId",
      "outputs": [
        {
          "internalType": "uint160",
          "name": "",
          "type": "uint160"
        }
      ],
      "stateMutability": "view",
      "type": "function"
    },
    {
      "inputs": [
        {
          "components": [
            {
              "internalType": "uint8",
              "name": "tokenType",
              "type": "uint8"
            },
            {
              "internalType": "address",
              "name": "token",
              "type": "address"
            },
            {
              "internalType": "uint256",
              "name": "tokenId",
              "type": "uint256"
            },
            {
              "internalType": "address",
              "name": "extAccount",
              "type": "address"
            },
            {
              "internalType": "uint96",
              "name": "extAmount",
              "type": "uint96"
            }
          ],
          "internalType": "struct LockData",
          "name": "data",
          "type": "tuple"
        }
      ],
      "name": "unlockAssetFromVault",
      "outputs": [],
      "stateMutability": "nonpayable",
      "type": "function"
    },
    {
      "inputs": [
        {
          "internalType": "uint96",
          "name": "_kycReward",
          "type": "uint96"
        }
      ],
      "name": "updateKycReward",
      "outputs": [],
      "stateMutability": "nonpayable",
      "type": "function"
    },
    {
      "inputs": [
        {
          "internalType": "uint160",
          "name": "_circuitId",
          "type": "uint160"
        }
      ],
      "name": "updateMainCircuitId",
      "outputs": [],
      "stateMutability": "nonpayable",
      "type": "function"
    },
    {
      "inputs": [
        {
          "internalType": "uint32",
          "name": "_maxTimeDelta",
          "type": "uint32"
        }
      ],
      "name": "updateMaxTimeDelta",
      "outputs": [],
      "stateMutability": "nonpayable",
      "type": "function"
    },
    {
      "inputs": [
        {
          "internalType": "uint160",
          "name": "_circuitId",
          "type": "uint160"
        }
      ],
      "name": "updatePrpAccountConversionCircuitId",
      "outputs": [],
      "stateMutability": "nonpayable",
      "type": "function"
    },
    {
      "inputs": [
        {
          "internalType": "uint160",
          "name": "_circuitId",
          "type": "uint160"
        }
      ],
      "name": "updatePrpAccountingCircuitId",
      "outputs": [],
      "stateMutability": "nonpayable",
      "type": "function"
    },
    {
      "inputs": [
        {
          "internalType": "bytes32",
          "name": "updatedLeaf",
          "type": "bytes32"
        },
        {
          "internalType": "uint256",
          "name": "leafIndex",
          "type": "uint256"
        }
      ],
      "name": "updateRoot",
      "outputs": [],
      "stateMutability": "nonpayable",
      "type": "function"
    },
    {
      "inputs": [
        {
          "internalType": "address",
          "name": "_unlocker",
          "type": "address"
        },
        {
          "internalType": "bool",
          "name": "_status",
          "type": "bool"
        }
      ],
      "name": "updateVaultAssetUnlocker",
      "outputs": [],
      "stateMutability": "nonpayable",
      "type": "function"
    },
    {
      "inputs": [
        {
          "internalType": "uint160",
          "name": "_circuitId",
          "type": "uint160"
        }
      ],
      "name": "updateZAccountRegistrationCircuitId",
      "outputs": [],
      "stateMutability": "nonpayable",
      "type": "function"
    },
    {
      "inputs": [
        {
          "internalType": "address",
          "name": "",
          "type": "address"
        }
      ],
      "name": "vaultAssetUnlockers",
      "outputs": [
        {
          "internalType": "bool",
          "name": "",
          "type": "bool"
        }
      ],
      "stateMutability": "view",
      "type": "function"
    },
    {
      "inputs": [],
      "name": "zAccountRegistrationCircuitId",
      "outputs": [
        {
          "internalType": "uint160",
          "name": "",
          "type": "uint160"
        }
      ],
      "stateMutability": "view",
      "type": "function"
    }
  ],
  "transactionHash": "0x17d74cd9ddd017d2c19c4dede0c82629076a39903ab4d6dac19d84edf951c360",
  "args": [
    "0xfB474a7FeCDaFBD412ebF0d60A0C32794F82d3dD",
    "0x4004C49aBb96B11D89A52DeCCa2D1522da7f3089",
    "0x2EEEF61718ae9743050028075D5B16ef5bF22c88",
    "0x678D34aA4fc546bA806287a8289FfdAA84681a03",
    "0x5c91d70Cd7cf569CA9Ac8DE588705B3f118647DF",
    "0xAbFdb07BC6db782F9bdd6C6BA65ee40081eFA4c4",
    "0x9619bd59411a8387a4119e548017C5b86c7bCec5",
    "0x518cD70a767d87Bcec1262adcf7bf5520e2e3B5D",
    "0x0b8D09a40B696d8173088cdA505DaD0167394B4C",
    "0xeeAfce13506847a19141A4513718df17383f4f7b"
  ],
  "numDeployments": 8,
  "solcInputHash": "8929a618e86647edd07b95deef0dbe59",
  "bytecode": "0x6101e06040523480156200001257600080fd5b50604051620058ea380380620058ea83398101604081905262000035916200023c565b8988888888846001600160a01b038116620000975760405162461bcd60e51b815260206004820152601a60248201527f496d6d4f776e3a207a65726f206f776e6572206164647265737300000000000060448201526064015b60405180910390fd5b6001600160a01b03908116608052841615801590620000be57506001600160a01b03831615155b8015620000d357506001600160a01b03821615155b8015620000e857506001600160a01b03811615155b6200012b5760405162461bcd60e51b8152602060048201526012602482015271696e69743a207a65726f206164647265737360701b60448201526064016200008e565b6001600160a01b0393841660a05291831660c052821660e052811661010052851615801591506200016457506001600160a01b03891615155b80156200017957506001600160a01b03811615155b80156200018e57506001600160a01b03831615155b8015620001a357506001600160a01b03821615155b6040518060400160405280600581526020016450503a453160d81b81525090620001e25760405162461bcd60e51b81526004016200008e91906200030b565b506001600160a01b039889166101405292881661012052948716610160529086166101805285166101a05250509091166101c052506200035b9050565b80516001600160a01b03811681146200023757600080fd5b919050565b6000806000806000806000806000806101408b8d0312156200025d57600080fd5b620002688b6200021f565b99506200027860208c016200021f565b98506200028860408c016200021f565b97506200029860608c016200021f565b9650620002a860808c016200021f565b9550620002b860a08c016200021f565b9450620002c860c08c016200021f565b9350620002d860e08c016200021f565b9250620002e96101008c016200021f565b9150620002fa6101208c016200021f565b90509295989b9194979a5092959850565b600060208083528351808285015260005b818110156200033a578581018301518582016040015282016200031c565b506000604082860101526040601f19601f8301168501019250505092915050565b60805160a05160c05160e05161010051610120516101405161016051610180516101a0516101c05161543d620004ad600039600081816106cb0152612ec50152600081816106ff0152611a4e0152600081816102b7015281816115ab01528181611deb01528181612bf3015261318901526000818161030801528181611f0e01528181612d60015281816132610152613c4a0152600081816105640152613dd001526000818161048f015281816121170152818161388c01528181613a0201528181613d8c0152818161443e01526144fd0152600081816108ba0152613fac01526000818161062e0152613f810152600081816107f50152613f560152600081816106620152613f2b01526000818161033c015281816118cc01528181611994015281816120150152818161218301528181612437015281816124c9015281816126830152613367015261543d6000f3fe6080604052600436106102a05760003560e01c806376e877101161016e578063b77708ea116100cb578063dfc3f8801161007f578063e94ecd3511610064578063e94ecd3514610868578063f2f68ad314610888578063fb9b3ca4146108a857600080fd5b8063dfc3f88014610817578063e5285dcc1461083757600080fd5b8063c2e3e62b116100b0578063c2e3e62b146107a3578063c6c8de3d146107c3578063d162814d146107e357600080fd5b8063b77708ea14610762578063be05d3fb1461078257600080fd5b806385ec72da116101225780639c45c0c9116101075780639c45c0c9146106ed578063a0435dc614610721578063b4ebfb671461074157600080fd5b806385ec72da146106995780638c1ce02c146106b957600080fd5b80637b4d1da8116101535780637b4d1da81461061c5780637cfaa897146106505780638129fc1c1461068457600080fd5b806376e87710146105db5780637b01fb1b146105fc57600080fd5b80633f2ed5571161021c5780635277ab4a116101d05780635a9bdd0c116101b55780635a9bdd0c146105865780635ca1e165146105a65780636a7777f4146105bb57600080fd5b80635277ab4a14610511578063585cc6a51461055257600080fd5b8063411557d111610201578063411557d11461047d578063418ecfcd146104b157806348075116146104d157600080fd5b80633f2ed557146104235780633ff721ba1461045d57600080fd5b80632faaab7911610273578063380cb90711610258578063380cb907146103ca578063380d3d1c146103eb5780633cd7eef71461040d57600080fd5b80632faaab791461037f57806335f96fe9146103a957600080fd5b806308c84e70146102a55780630f56204b146102f6578063117803e31461032a578063176341131461035e575b600080fd5b3480156102b157600080fd5b506102d97f000000000000000000000000000000000000000000000000000000000000000081565b6040516001600160a01b0390911681526020015b60405180910390f35b34801561030257600080fd5b506102d97f000000000000000000000000000000000000000000000000000000000000000081565b34801561033657600080fd5b506102d97f000000000000000000000000000000000000000000000000000000000000000081565b61037161036c3660046148fb565b6108dc565b6040519081526020016102ed565b34801561038b57600080fd5b506103946117ec565b604080519283526020830191909152016102ed565b3480156103b557600080fd5b506101f5546102d9906001600160a01b031681565b3480156103d657600080fd5b506101f7546102d9906001600160a01b031681565b3480156103f757600080fd5b5061040b610406366004614a0e565b6118ca565b005b34801561041957600080fd5b5061037161ffff81565b34801561042f57600080fd5b506102035461044890600160c01b900463ffffffff1681565b60405163ffffffff90911681526020016102ed565b34801561046957600080fd5b50610371610478366004614a30565b61197b565b34801561048957600080fd5b506102d97f000000000000000000000000000000000000000000000000000000000000000081565b3480156104bd57600080fd5b5061040b6104cc366004614a5e565b611992565b3480156104dd57600080fd5b50610203546104f990600160601b90046001600160601b031681565b6040516001600160601b0390911681526020016102ed565b34801561051d57600080fd5b5061054261052c366004614a5e565b6101f46020526000908152604090205460ff1681565b60405190151581526020016102ed565b34801561055e57600080fd5b506102d97f000000000000000000000000000000000000000000000000000000000000000081565b34801561059257600080fd5b506103716105a1366004614ac7565b611a24565b3480156105b257600080fd5b50602054610371565b3480156105c757600080fd5b5061040b6105d6366004614b74565b612013565b3480156105e757600080fd5b506101f8546102d9906001600160a01b031681565b34801561060857600080fd5b5061040b610617366004614bad565b6120ae565b34801561062857600080fd5b506102d97f000000000000000000000000000000000000000000000000000000000000000081565b34801561065c57600080fd5b506102d97f000000000000000000000000000000000000000000000000000000000000000081565b34801561069057600080fd5b5061040b612181565b3480156106a557600080fd5b506105426106b4366004614bbf565b612318565b3480156106c557600080fd5b506102d97f000000000000000000000000000000000000000000000000000000000000000081565b3480156106f957600080fd5b506102d97f000000000000000000000000000000000000000000000000000000000000000081565b34801561072d57600080fd5b5061040b61073c366004614a5e565b612435565b34801561074d57600080fd5b506101f6546102d9906001600160a01b031681565b34801561076e57600080fd5b5061040b61077d366004614a5e565b6124c7565b34801561078e57600080fd5b50610203546104f9906001600160601b031681565b3480156107af57600080fd5b5061040b6107be366004614bbf565b612559565b3480156107cf57600080fd5b5061040b6107de366004614bf3565b612681565b3480156107ef57600080fd5b506102d97f000000000000000000000000000000000000000000000000000000000000000081565b34801561082357600080fd5b50610371610832366004614c10565b61272f565b34801561084357600080fd5b50610542610852366004614a30565b6102026020526000908152604090205460ff1681565b34801561087457600080fd5b50610371610883366004614ca4565b612e9b565b34801561089457600080fd5b5061040b6108a3366004614a5e565b613365565b3480156108b457600080fd5b506102d97f000000000000000000000000000000000000000000000000000000000000000081565b6101f85460408051808201909152600581526450503a453360d81b60208201526000916001600160a01b031661092e5760405162461bcd60e51b81526004016109259190614d7d565b60405180910390fd5b5060008660288151811061094457610944614d90565b60200260200101519050610957816133f7565b5060008660298151811061096d5761096d614d90565b6020026020010151905061098081613436565b5060008660268151811061099657610996614d90565b602002602001015190506109a981613471565b506000866000815181106109bf576109bf614d90565b6020026020010151905060008585856040516020016109e093929190614da6565b60405160208183030381529060405290506109fb82826134ae565b5050600086600a81518110610a1257610a12614d90565b6020026020010151905080600014156040518060400160405280600681526020017f50503a453138000000000000000000000000000000000000000000000000000081525090610a755760405162461bcd60e51b81526004016109259190614d7d565b5050600086600b81518110610a8c57610a8c614d90565b6020026020010151905080600014156040518060400160405280600681526020017f50503a453139000000000000000000000000000000000000000000000000000081525090610aef5760405162461bcd60e51b81526004016109259190614d7d565b5050600086600e81518110610b0657610b06614d90565b6020026020010151905080600014156040518060400160405280600681526020017f50503a453232000000000000000000000000000000000000000000000000000081525090610b695760405162461bcd60e51b81526004016109259190614d7d565b5050600086601181518110610b8057610b80614d90565b6020026020010151905080600014156040518060400160405280600681526020017f50503a453235000000000000000000000000000000000000000000000000000081525090610be35760405162461bcd60e51b81526004016109259190614d7d565b5050600086601281518110610bfa57610bfa614d90565b6020026020010151905080600014156040518060400160405280600681526020017f50503a453236000000000000000000000000000000000000000000000000000081525090610c5d5760405162461bcd60e51b81526004016109259190614d7d565b5050600086601381518110610c7457610c74614d90565b60200260200101519050600087601481518110610c9357610c93614d90565b60200260200101519050600088601581518110610cb257610cb2614d90565b60200260200101519050600089601681518110610cd157610cd1614d90565b6020026020010151905060008a601781518110610cf057610cf0614d90565b6020026020010151905060008b601881518110610d0f57610d0f614d90565b6020026020010151905060008c601981518110610d2e57610d2e614d90565b6020026020010151905060008d601a81518110610d4d57610d4d614d90565b6020026020010151905060008e601b81518110610d6c57610d6c614d90565b6020026020010151905060008f601c81518110610d8b57610d8b614d90565b6020026020010151905089600014156040518060400160405280600681526020016550503a45323760d01b81525090610dd75760405162461bcd60e51b81526004016109259190614d7d565b5060408051808201909152600681526550503a45323760d01b602082015289610e135760405162461bcd60e51b81526004016109259190614d7d565b5060408051808201909152600681526550503a45323760d01b602082015288610e4f5760405162461bcd60e51b81526004016109259190614d7d565b5060408051808201909152600681526550503a45323760d01b602082015287610e8b5760405162461bcd60e51b81526004016109259190614d7d565b5060408051808201909152600681526550503a45323760d01b602082015286610ec75760405162461bcd60e51b81526004016109259190614d7d565b5060408051808201909152600681526550503a45323760d01b602082015285610f035760405162461bcd60e51b81526004016109259190614d7d565b5060408051808201909152600681526550503a45323760d01b602082015284610f3f5760405162461bcd60e51b81526004016109259190614d7d565b5060408051808201909152600681526550503a45323760d01b602082015283610f7b5760405162461bcd60e51b81526004016109259190614d7d565b5060408051808201909152600681526550503a45323760d01b602082015282610fb75760405162461bcd60e51b81526004016109259190614d7d565b5060408051808201909152600681526550503a45323760d01b602082015281610ff35760405162461bcd60e51b81526004016109259190614d7d565b5050505050505050505050600086601d8151811061101357611013614d90565b6020026020010151905080600014156040518060400160405280600681526020017f50503a4532380000000000000000000000000000000000000000000000000000815250906110765760405162461bcd60e51b81526004016109259190614d7d565b5050600086601e8151811061108d5761108d614d90565b60200260200101519050600087601f815181106110ac576110ac614d90565b602002602001015190506000886020815181106110cb576110cb614d90565b6020026020010151905082600014156040518060400160405280600681526020016550503a45323960d01b815250906111175760405162461bcd60e51b81526004016109259190614d7d565b5060408051808201909152600681526550503a45323960d01b6020820152826111535760405162461bcd60e51b81526004016109259190614d7d565b5060408051808201909152600681526550503a45323960d01b60208201528161118f5760405162461bcd60e51b81526004016109259190614d7d565b5050505061119e83600461353b565b60006111c3876021815181106111b6576111b6614d90565b6020026020010151613612565b905060006111ea886006815181106111dd576111dd614d90565b60200260200101516136ae565b905060008860078151811061120157611201614d90565b602002602001015160001b905060008960088151811061122357611223614d90565b602002602001015160001b90506000801b8211801561124157508015155b6040518060400160405280600681526020017f50503a4533320000000000000000000000000000000000000000000000000000815250906112955760405162461bcd60e51b81526004016109259190614d7d565b506000828152610202602052604090205460ff161580156112c657506000818152610202602052604090205460ff16155b6040518060400160405280600681526020017f50503a45333300000000000000000000000000000000000000000000000000008152509061131a5760405162461bcd60e51b81526004016109259190614d7d565b50600091825261020260205260408083208054600160ff199182168117909255928452908320805490921617905588518990600990811061135d5761135d614d90565b602002602001015160001b90506000801b81116040518060400160405280600581526020016450503a453760d81b815250906113ac5760405162461bcd60e51b81526004016109259190614d7d565b5060008181526102026020908152604091829020548251808401909352600683526514140e914c4d60d21b9183019190915260ff16156113ff5760405162461bcd60e51b81526004016109259190614d7d565b50600090815261020260205260408120805460ff1916600190811790915589518a9190811061143057611430614d90565b6020026020010151905060008960028151811061144f5761144f614d90565b6020026020010151905060008a60048151811061146e5761146e614d90565b60200260200101519050826000148015611486575081155b156114e45760408051808201909152600681527f50503a4533310000000000000000000000000000000000000000000000000000602082015281156114de5760405162461bcd60e51b81526004016109259190614d7d565b506114ee565b6114ee8b8861375b565b5050506000808960258151811061150757611507614d90565b60200260200101519050600061151c82613b6e565b610203805492955090925082916000906115409084906001600160601b0316614e13565b92506101000a8154816001600160601b0302191690836001600160601b03160217905550505060008960278151811061157b5761157b614d90565b6020026020010151905061158f8189613bfd565b506101f854604051634f5267b760e11b81526001600160a01b037f0000000000000000000000000000000000000000000000000000000000000000811692639ea4cf6e926115e89291909116908d908d90600401614e77565b602060405180830381865afa158015611605573d6000803e3d6000fd5b505050506040513d601f19601f820116820180604052508101906116299190614ed6565b6040518060400160405280600581526020016450503a453560d81b815250906116655760405162461bcd60e51b81526004016109259190614d7d565b5060008960248151811061167b5761167b614d90565b602002602001015160001b905060008060008c6022815181106116a0576116a0614d90565b602002602001015160001b905060008d6023815181106116c2576116c2614d90565b602090810291909101810151604080516003808252608082019092529193506000928201606080368337019050509050858160008151811061170657611706614d90565b602002602001018181525050828160018151811061172657611726614d90565b602002602001018181525050818160028151811061174657611746614d90565b60200260200101818152505061175c8188613c43565b604051909c5091965094508c93506000925061179091506060908a906061908b906062908b908b908b908b90602001614ef3565b60405160208183030381529060405290507f207dfdd39f3236aeb44c66389652245b2a44197f48da35abc71ba0a76025ed5c6004826040516117d3929190614f7c565b60405180910390a1505050505050505095945050505050565b600b5460408051808201909152600581527f43523a4531000000000000000000000000000000000000000000000000000000602082015260009182919067ffffffffffffffff166118505760405162461bcd60e51b81526004016109259190614d7d565b50600b546000906118759067ffffffffffffffff80821691600160401b900416613d3f565b9050806000036118935761188c6001610100614f98565b91506118a2565b61189c81614fab565b90508091505b600b546118c39067ffffffffffffffff80821691600160401b900416613d60565b9250509091565b7f00000000000000000000000000000000000000000000000000000000000000006001600160a01b031633146119395760405162461bcd60e51b8152602060048201526014602482015273125b5b53dddb8e881d5b985d5d1a1bdc9a5e995960621b6044820152606401610925565b61020380546001600160601b03909216600160601b027fffffffffffffffff000000000000000000000000ffffffffffffffffffffffff909216919091179055565b6021816004811061198b57600080fd5b0154905081565b7f00000000000000000000000000000000000000000000000000000000000000006001600160a01b03163314611a015760405162461bcd60e51b8152602060048201526014602482015273125b5b53dddb8e881d5b985d5d1a1bdc9a5e995960621b6044820152606401610925565b6101f580546001600160a01b0319166001600160a01b0392909216919091179055565b60408051808201909152600581526428281d229960d91b6020820152600090336001600160a01b037f00000000000000000000000000000000000000000000000000000000000000001614611a8c5760405162461bcd60e51b81526004016109259190614d7d565b506101f55460408051808201909152600581526450503a453360d81b6020820152906001600160a01b0316611ad45760405162461bcd60e51b81526004016109259190614d7d565b5060008787600d818110611aea57611aea614d90565b90506020020135905080600014156040518060400160405280600581526020016450503a453760d81b81525090611b345760405162461bcd60e51b81526004016109259190614d7d565b505060008787600e818110611b4b57611b4b614d90565b9050602002013590508060001415604051806040016040528060058152602001640a0a0748a760db1b81525090611b955760405162461bcd60e51b81526004016109259190614d7d565b5060008888600f818110611bab57611bab614d90565b90506020020135905080600014156040518060400160405280600581526020017f50503a453900000000000000000000000000000000000000000000000000000081525090611c0d5760405162461bcd60e51b81526004016109259190614d7d565b5050600088886011818110611c2457611c24614d90565b905060200201359050806000141560405180604001604052806006815260200165050503a4531360d41b81525090611c6f5760405162461bcd60e51b81526004016109259190614d7d565b5050600088886012818110611c8657611c86614d90565b90506020020135905080600014156040518060400160405280600681526020016550503a45313160d01b81525090611cd15760405162461bcd60e51b81526004016109259190614d7d565b5050600088886005818110611ce857611ce8614d90565b90506020020135905088886005818110611d0457611d04614d90565b905060200201358163ffffffff16148015611d255750428163ffffffff1610155b6040518060400160405280600581526020016428281d229b60d91b81525090611d615760405162461bcd60e51b81526004016109259190614d7d565b50611d6d85600161353b565b611d9389896010818110611d8357611d83614d90565b9050602002013560001b85612318565b6040518060400160405280600581526020016414140e914d60da1b81525090611dcf5760405162461bcd60e51b81526004016109259190614d7d565b506101f554604051634f5267b760e11b81526001600160a01b037f0000000000000000000000000000000000000000000000000000000000000000811692639ea4cf6e92611e2a9291909116908d908d908d90600401614fc2565b602060405180830381865afa158015611e47573d6000803e3d6000fd5b505050506040513d601f19601f82011682018060405250810190611e6b9190614ed6565b6040518060400160405280600581526020016450503a453560d81b81525090611ea75760405162461bcd60e51b81526004016109259190614d7d565b5088886001818110611ebb57611ebb614d90565b90506020020135600014611ef357600089896001818110611ede57611ede614d90565b905060200201359050611ef18782613d8a565b505b60405163fc72e28560e01b81526004810183905260009081907f00000000000000000000000000000000000000000000000000000000000000006001600160a01b03169063fc72e2859060240160408051808303816000875af1158015611f5e573d6000803e3d6000fd5b505050506040513d601f19601f82011682018060405250810190611f829190615034565b915091508060ff1660088363ffffffff16901b179450600060608460628786868d604051602001611fb99796959493929190615063565b60405160208183030381529060405290507f207dfdd39f3236aeb44c66389652245b2a44197f48da35abc71ba0a76025ed5c600182604051611ffc929190614f7c565b60405180910390a150505050509695505050505050565b7f00000000000000000000000000000000000000000000000000000000000000006001600160a01b031633146120825760405162461bcd60e51b8152602060048201526014602482015273125b5b53dddb8e881d5b985d5d1a1bdc9a5e995960621b6044820152606401610925565b6001600160a01b039190911660009081526101f460205260409020805460ff1916911515919091179055565b3360009081526101f46020908152604091829020548251808401909352600583526428281d229960d91b9183019190915260ff166120ff5760405162461bcd60e51b81526004016109259190614d7d565b5060405163016f4f9b60e61b81526001600160a01b037f00000000000000000000000000000000000000000000000000000000000000001690635bd3e6c09061214c9084906004016150d4565b600060405180830381600087803b15801561216657600080fd5b505af115801561217a573d6000803e3d6000fd5b5050505050565b7f00000000000000000000000000000000000000000000000000000000000000006001600160a01b031633146121f05760405162461bcd60e51b8152602060048201526014602482015273125b5b53dddb8e881d5b985d5d1a1bdc9a5e995960621b6044820152606401610925565b602054156122405760405162461bcd60e51b815260206004820152601760248201527f50463a20416c726561647920696e697469616c697a65640000000000000000006044820152606401610925565b60005b60048160ff1610156122dc5761225b8160ff16613ed1565b6001600160a01b0316635ca1e1656040518163ffffffff1660e01b8152600401602060405180830381865afa158015612298573d6000803e3d6000fd5b505050506040513d601f19601f820116820180604052508101906122bc9190615146565b60218260ff16600481106122d2576122d2614d90565b0155600101612243565b506040805160808101918290526123139160219060049082845b8154815260200190600101908083116122f6575050505050613fd1565b602055565b600b5460009067ffffffffffffffff1680820361233957600091505061242f565b600b5460009250600160401b900467ffffffffffffffff168261235c8383613d60565b905061ffff85036123c25760006123738285614f98565b90505b8415801561238357508084115b156123bc576000199093019286600a600061239e8787613d3f565b815260200190815260200160002054036123b757600194505b612376565b5061242b565b60408051808201909152600581527f43523a453200000000000000000000000000000000000000000000000000000060208201528186106124165760405162461bcd60e51b81526004016109259190614d7d565b506000858152600a6020526040902054861493505b5050505b92915050565b7f00000000000000000000000000000000000000000000000000000000000000006001600160a01b031633146124a45760405162461bcd60e51b8152602060048201526014602482015273125b5b53dddb8e881d5b985d5d1a1bdc9a5e995960621b6044820152606401610925565b6101f880546001600160a01b0319166001600160a01b0392909216919091179055565b7f00000000000000000000000000000000000000000000000000000000000000006001600160a01b031633146125365760405162461bcd60e51b8152602060048201526014602482015273125b5b53dddb8e881d5b985d5d1a1bdc9a5e995960621b6044820152606401610925565b6101f680546001600160a01b0319166001600160a01b0392909216919091179055565b61256281613ed1565b6001600160a01b0316336001600160a01b0316146125c25760405162461bcd60e51b815260206004820152600c60248201527f756e617574686f72697a656400000000000000000000000000000000000000006044820152606401610925565b81602182600481106125d6576125d6614d90565b015560408051608081019182905260218054825260009261260d9291906004906022602085018083116122f6575050505050613fd1565b90506000600383036126295761262282613fdc565b9050612635565b61263282614014565b90505b602082815560408051868152918201849052810182905283907ffb270bf61beeb2f6245d25e705aa540499f6e32b4d19f7081ecf930bc5dfa7b09060600160405180910390a250505050565b7f00000000000000000000000000000000000000000000000000000000000000006001600160a01b031633146126f05760405162461bcd60e51b8152602060048201526014602482015273125b5b53dddb8e881d5b985d5d1a1bdc9a5e995960621b6044820152606401610925565b610203805463ffffffff909216600160c01b027fffffffff00000000ffffffffffffffffffffffffffffffffffffffffffffffff909216919091179055565b6101f75460408051808201909152600581526450503a453360d81b60208201526000916001600160a01b03166127785760405162461bcd60e51b81526004016109259190614d7d565b5060008787600081811061278e5761278e614d90565b90506020020135905080600014156040518060400160405280600681526020017f50503a4531330000000000000000000000000000000000000000000000000000815250906127f05760405162461bcd60e51b81526004016109259190614d7d565b505060008787600d81811061280757612807614d90565b905060200201359050806000141560405180604001604052806006815260200165050503a4531360d41b815250906128525760405162461bcd60e51b81526004016109259190614d7d565b505060008787600e81811061286957612869614d90565b90506020020135905080600014156040518060400160405280600681526020016550503a45313160d01b815250906128b45760405162461bcd60e51b81526004016109259190614d7d565b50506000878760088181106128cb576128cb614d90565b90506020020135905080600014156040518060400160405280600681526020017f50503a45313600000000000000000000000000000000000000000000000000008152509061292d5760405162461bcd60e51b81526004016109259190614d7d565b5060008888600b81811061294357612943614d90565b9050602002013590504681146040518060400160405280600681526020016550503a45313760d01b8152509061298c5760405162461bcd60e51b81526004016109259190614d7d565b505060006129b2898960028181106129a6576129a6614d90565b9050602002013561401f565b9050428163ffffffff1610156040518060400160405280600581526020016428281d229b60d91b815250906129fa5760405162461bcd60e51b81526004016109259190614d7d565b50612a0686600361353b565b612a1c8989600c818110611d8357611d83614d90565b6040518060400160405280600581526020016414140e914d60da1b81525090612a585760405162461bcd60e51b81526004016109259190614d7d565b50600089896003818110612a6e57612a6e614d90565b90506020020135905060008a8a6004818110612a8c57612a8c614d90565b90506020020135905067ffffffffffffffff8211158015612ab5575067ffffffffffffffff8111155b6040518060400160405280600681526020017f50503a453135000000000000000000000000000000000000000000000000000081525090612b095760405162461bcd60e51b81526004016109259190614d7d565b5050506000808387612b1b9190615175565b905060008b8b6005818110612b3257612b32614d90565b905060200201359050612b4c81838663ffffffff16614079565b925060008c8c6009818110612b6357612b63614d90565b6020908102929092013560008181526102028452604090819020548151808301909252600682526514140e914c4d60d21b948201949094529093509160ff16159050612bc25760405162461bcd60e51b81526004016109259190614d7d565b506001610202600083815260200190815260200160002060006101000a81548160ff021916908315150217905550507f00000000000000000000000000000000000000000000000000000000000000006001600160a01b0316639ea4cf6e6101f760009054906101000a90046001600160a01b03168e8e8e6040518563ffffffff1660e01b8152600401612c599493929190614fc2565b602060405180830381865afa158015612c76573d6000803e3d6000fd5b505050506040513d601f19601f82011682018060405250810190612c9a9190614ed6565b6040518060400160405280600581526020016450503a453560d81b81525090612cd65760405162461bcd60e51b81526004016109259190614d7d565b5060008c8c600a818110612cec57612cec614d90565b60408051600280825260608201835260209384029590950135955060009490935091830190803683370190505090508181600081518110612d2f57612d2f614d90565b6020026020010181815250508481600181518110612d4f57612d4f614d90565b6020026020010181815250506000807f00000000000000000000000000000000000000000000000000000000000000006001600160a01b031663a3548b99846040518263ffffffff1660e01b8152600401612daa91906151c4565b60408051808303816000875af1158015612dc8573d6000803e3d6000fd5b505050506040513d601f19601f82011682018060405250810190612dec9190615034565b915091508060ff1660088363ffffffff16901b179950612e0c338d613d8a565b8c600060608a60628887876063612e228f61409f565b89604051602001612e3b999897969594939291906151d7565b60405160208183030381529060405290507f207dfdd39f3236aeb44c66389652245b2a44197f48da35abc71ba0a76025ed5c600382604051612e7e929190614f7c565b60405180910390a150505050505050505050509695505050505050565b60408051808201909152600581526428281d229960d91b6020820152600090336001600160a01b037f00000000000000000000000000000000000000000000000000000000000000001614612f035760405162461bcd60e51b81526004016109259190614d7d565b506101f65460408051808201909152600581526450503a453360d81b6020820152906001600160a01b0316612f4b5760405162461bcd60e51b81526004016109259190614d7d565b506000612f64878760028181106129a6576129a6614d90565b9050428163ffffffff1610156040518060400160405280600581526020016428281d229b60d91b81525090612fac5760405162461bcd60e51b81526004016109259190614d7d565b50612fb884600261353b565b60008787600a818110612fcd57612fcd614d90565b9050602002013590508060001415604051806040016040528060058152602001640a0a0748a760db1b815250906130175760405162461bcd60e51b81526004016109259190614d7d565b5060008888600981811061302d5761302d614d90565b6020908102929092013560008181526102028452604090819020548151808301909252600682526514140e914c4d60d21b948201949094529093509160ff1615905061308c5760405162461bcd60e51b81526004016109259190614d7d565b50600090815261020260205260408120805460ff191660011790558888600b8181106130ba576130ba614d90565b9050602002013590504681146040518060400160405280600681526020016550503a45313760d01b815250906131035760405162461bcd60e51b81526004016109259190614d7d565b505060008888600c81811061311a5761311a614d90565b9050602002013560001b90506131308186612318565b6040518060400160405280600581526020016414140e914d60da1b8152509061316c5760405162461bcd60e51b81526004016109259190614d7d565b50506101f654604051634f5267b760e11b81526001600160a01b037f0000000000000000000000000000000000000000000000000000000000000000811692639ea4cf6e926131c89291909116908c908c908c90600401614fc2565b602060405180830381865afa1580156131e5573d6000803e3d6000fd5b505050506040513d601f19601f820116820180604052508101906132099190614ed6565b6040518060400160405280600581526020016450503a453560d81b815250906132455760405162461bcd60e51b81526004016109259190614d7d565b5060405163fc72e28560e01b81526004810182905260009081907f00000000000000000000000000000000000000000000000000000000000000006001600160a01b03169063fc72e2859060240160408051808303816000875af11580156132b1573d6000803e3d6000fd5b505050506040513d601f19601f820116820180604052508101906132d59190615034565b915091508060ff1660088363ffffffff16901b179450600060608560628686868d60405160200161330c9796959493929190615063565b60405160208183030381529060405290507f207dfdd39f3236aeb44c66389652245b2a44197f48da35abc71ba0a76025ed5c60028260405161334f929190614f7c565b60405180910390a1505050505095945050505050565b7f00000000000000000000000000000000000000000000000000000000000000006001600160a01b031633146133d45760405162461bcd60e51b8152602060048201526014602482015273125b5b53dddb8e881d5b985d5d1a1bdc9a5e995960621b6044820152606401610925565b6101f780546001600160a01b0319166001600160a01b0392909216919091179055565b604080518082019091526006815265050503a4531360d41b6020820152816134325760405162461bcd60e51b81526004016109259190614d7d565b5050565b60408051808201909152600681526550503a45313160d01b6020820152816134325760405162461bcd60e51b81526004016109259190614d7d565b60408051808201909152600681526550503a45313760d01b60208201524682146134325760405162461bcd60e51b81526004016109259190614d7d565b805160208201206134e0907f30644e72e131a029b85045b68181585d2833e84879b9709143e1f593f000000190615280565b82146040518060400160405280600681526020017f50503a4533350000000000000000000000000000000000000000000000000000815250906135365760405162461bcd60e51b81526004016109259190614d7d565b505050565b6000600660ff16838260ff168151811061355757613557614d90565b602001015160f81c60f81b60f81c60ff16146040518060400160405280600581526020017f544e3a4531000000000000000000000000000000000000000000000000000000815250906135bd5760405162461bcd60e51b81526004016109259190614d7d565b5060001960ff8316016135d3576135d3836140f4565b60011960ff8316016135e8576135e8836140f4565b60021960ff8316016135fd576135fd83614136565b60031960ff8316016135365761353683614203565b600061361d8261401f565b9050428163ffffffff161015801561366c575061020354600160c01b900463ffffffff16158061366c57506102035463ffffffff600160c01b9091048116906136699042908416614f98565b11155b6040518060400160405280600581526020016428281d229b60d91b815250906136a85760405162461bcd60e51b81526004016109259190614d7d565b50919050565b60006136b98261401f565b9050428163ffffffff1611158015613707575061020354600160c01b900463ffffffff16158061370757506102035463ffffffff600160c01b90910481169061370490831642614f98565b11155b6040518060400160405280600681526020017f50503a4533340000000000000000000000000000000000000000000000000000815250906136a85760405162461bcd60e51b81526004016109259190614d7d565b60006137808360018151811061377357613773614d90565b6020026020010151614391565b9050600061379a8460028151811061377357613773614d90565b90506000846004815181106137b1576137b1614d90565b602002602001015190506000856005815181106137d0576137d0614d90565b602002602001015190506000866028815181106137ef576137ef614d90565b602002602001015160001b9050600087600c8151811061381157613811614d90565b60200260200101519050600088600d8151811061383057613830614d90565b60200260200101519050600089600f8151811061384f5761384f614d90565b6020026020010151905060008a60108151811061386e5761386e614d90565b602002602001015190506000896001600160601b031611156139f1577f00000000000000000000000000000000000000000000000000000000000000006001600160a01b0316836001600160a01b0316146040518060400160405280600681526020016550503a45323160d01b815250906138fc5760405162461bcd60e51b81526004016109259190614d7d565b5060408051808201909152600681526550503a45323360d01b60208201526001600160a01b0383166139415760405162461bcd60e51b81526004016109259190614d7d565b5060408051808201909152600681527f50503a453234000000000000000000000000000000000000000000000000000060208201526001600160a01b03821661399d5760405162461bcd60e51b81526004016109259190614d7d565b506139f16040518060c001604052808c60ff168152602001896001600160a01b03168152602001888152602001878152602001866001600160a01b031681526020018b6001600160601b03168152506143e6565b6001600160601b03881615613b61577f00000000000000000000000000000000000000000000000000000000000000006001600160a01b0316826001600160a01b0316146040518060400160405280600681526020016550503a45323360d01b81525090613a725760405162461bcd60e51b81526004016109259190614d7d565b5060408051808201909152600681527f50503a453230000000000000000000000000000000000000000000000000000060208201526001600160a01b038516613ace5760405162461bcd60e51b81526004016109259190614d7d565b5060408051808201909152600681526550503a45323160d01b60208201526001600160a01b038416613b135760405162461bcd60e51b81526004016109259190614d7d565b50613b616040518060a001604052808c60ff168152602001896001600160a01b03168152602001888152602001836001600160a01b031681526020018a6001600160601b03168152506144a6565b5050505050505050505050565b6102035460408051808201909152600681527f50503a45333600000000000000000000000000000000000000000000000000006020820152600091600160601b90046001600160601b031690818411613bda5760405162461bcd60e51b81526004016109259190614d7d565b50613bf6613bf16001600160601b03831685614f98565b614391565b9150915091565b613c078282612318565b6040518060400160405280600581526020016414140e914d60da1b815250906135365760405162461bcd60e51b81526004016109259190614d7d565b60008060007f00000000000000000000000000000000000000000000000000000000000000006001600160a01b0316637c84874286866040518363ffffffff1660e01b8152600401613c96929190615294565b60408051808303816000875af1925050508015613cd0575060408051601f3d908101601f19168201909252613ccd91810190615034565b60015b613d2157613cdc6152bf565b806308c379a003613d155750613cf06152db565b80613cfb5750613d17565b8060405162461bcd60e51b81526004016109259190614d7d565b505b3d6000803e3d6000fd5b909690955064ffffffff00600888901b1660ff871617945092505050565b6000613d4e6001610100614f98565b613d588385614f98565b169392505050565b600080613d6d8385614f98565b90506101008111613d7e5780613d82565b6101005b949350505050565b7f00000000000000000000000000000000000000000000000000000000000000006001600160a01b0316637441ba246040518060a00160405280600060ff1681526020017f00000000000000000000000000000000000000000000000000000000000000006001600160a01b0316815260200160008152602001856001600160a01b03168152602001613e1c85614391565b6001600160601b03908116909152604080517fffffffff0000000000000000000000000000000000000000000000000000000060e086901b168152835160ff16600482015260208401516001600160a01b0390811660248301529184015160448201526060840151909116606482015260809092015116608482015260a401600060405180830381600087803b158015613eb557600080fd5b505af1158015613ec9573d6000803e3d6000fd5b505050505050565b600060048210613f235760405162461bcd60e51b815260206004820152601460248201527f50463a20494e56414c49445f4c4541465f494e440000000000000000000000006044820152606401610925565b81613f4b57507f00000000000000000000000000000000000000000000000000000000000000005b60018203613f7657507f00000000000000000000000000000000000000000000000000000000000000005b60028203613fa157507f00000000000000000000000000000000000000000000000000000000000000005b60038203613fcc57507f00000000000000000000000000000000000000000000000000000000000000005b919050565b600061242f82614554565b600b8054600160401b67ffffffffffffffff8216026fffffffffffffffff000000000000000019909116179055600061242f826146b8565b600061242f826146b8565b600064010000000082106140755760405162461bcd60e51b815260206004820152600860248201527f554e5341464533320000000000000000000000000000000000000000000000006044820152606401610925565b5090565b6040805160608101825284815260208101849052908101829052600090613d8290614723565b6000600160401b82106140755760405162461bcd60e51b815260206004820152600860248201527f554e5341464536340000000000000000000000000000000000000000000000006044820152606401610925565b60618151101560405180604001604052806005815260200164544e3a453560d81b815250906134325760405162461bcd60e51b81526004016109259190614d7d565b60616141428180615365565b8251101560405180604001604052806005815260200164544e3a453560d81b815250906141825760405162461bcd60e51b81526004016109259190614d7d565b50600760ff16828260ff168151811061419d5761419d614d90565b602001015160f81c60f81b60f81c60ff16146040518060400160405280600581526020017f544e3a4533000000000000000000000000000000000000000000000000000000815250906135365760405162461bcd60e51b81526004016109259190614d7d565b606160c26101236041614217846002615378565b614222906061615365565b61422c9190615365565b8451101560405180604001604052806005815260200164544e3a453560d81b8152509061426c5760405162461bcd60e51b81526004016109259190614d7d565b50600860ff16848460ff168151811061428757614287614d90565b016020015160f81c1480156142bb5750600860ff16848360ff16815181106142b1576142b1614d90565b016020015160f81c145b6040518060400160405280600581526020017f544e3a45320000000000000000000000000000000000000000000000000000008152509061430f5760405162461bcd60e51b81526004016109259190614d7d565b50600960ff16848261ffff168151811061432b5761432b614d90565b602001015160f81c60f81b60f81c60ff16146040518060400160405280600581526020017f544e3a45340000000000000000000000000000000000000000000000000000008152509061217a5760405162461bcd60e51b81526004016109259190614d7d565b6000600160601b82106140755760405162461bcd60e51b815260206004820152600860248201527f554e5341464539360000000000000000000000000000000000000000000000006044820152606401610925565b60408051631f2e09dd60e21b8152825160ff16600482015260208301516001600160a01b0390811660248301529183015160448201526060830151606482015260808301518216608482015260a083015160a48201527f000000000000000000000000000000000000000000000000000000000000000090911690637cb8277490349060c4016000604051808303818588803b15801561448557600080fd5b505af193505050508015614497575060015b6144a357613cdc6152bf565b50565b6040805163016f4f9b60e61b8152825160ff16600482015260208301516001600160a01b03908116602483015291830151604482015260608301518216606482015260808301516001600160601b031660848201527f000000000000000000000000000000000000000000000000000000000000000090911690635bd3e6c09060a401600060405180830381600087803b15801561454357600080fd5b505af1925050508015614497575050565b80516000907f30644e72e131a029b85045b68181585d2833e84879b9709143e1f593f00000011180156145aa575060208201517f30644e72e131a029b85045b68181585d2833e84879b9709143e1f593f0000001115b80156145d9575060408201517f30644e72e131a029b85045b68181585d2833e84879b9709143e1f593f0000001115b8015614608575060608201517f30644e72e131a029b85045b68181585d2833e84879b9709143e1f593f0000001115b60405180606001604052806022815260200161540f602291399061463f5760405162461bcd60e51b81526004016109259190614d7d565b50604051631e86251960e01b8152737af4DD5d4B0f193A1d16b2C9d2492fAEC2558FD390631e86251990614677908590600401615397565b602060405180830381865af4158015614694573d6000803e3d6000fd5b505050506040513d601f19601f8201168201806040525081019061242f9190615146565b600b5460009067ffffffffffffffff80821691600160401b9004166146dd8282613d3f565b6000818152600a6020526040902085905592506146f9826153bf565b600b805467ffffffffffffffff191667ffffffffffffffff92909216919091179055509092915050565b80516000907f30644e72e131a029b85045b68181585d2833e84879b9709143e1f593f0000001118015614779575060208201517f30644e72e131a029b85045b68181585d2833e84879b9709143e1f593f0000001115b80156147a8575060408201517f30644e72e131a029b85045b68181585d2833e84879b9709143e1f593f0000001115b60405180606001604052806022815260200161540f60229139906147df5760405162461bcd60e51b81526004016109259190614d7d565b50604051635a53025d60e01b8152733Eb4f42B303f865B2409e67031927E4c4FEB3f1F90635a53025d906146779085906004016153e6565b634e487b7160e01b600052604160045260246000fd5b601f8201601f1916810167ffffffffffffffff8111828210171561485357614853614817565b6040525050565b600061010082840312156136a857600080fd5b600082601f83011261487e57600080fd5b813567ffffffffffffffff81111561489857614898614817565b6040516148af601f8301601f19166020018261482d565b8181528460208386010111156148c457600080fd5b816020850160208301376000918101602001919091529392505050565b60ff811681146144a357600080fd5b8035613fcc816148e1565b6000806000806000610180868803121561491457600080fd5b853567ffffffffffffffff8082111561492c57600080fd5b818801915088601f83011261494057600080fd5b813560208282111561495457614954614817565b8160051b6040516149678383018261482d565b9283528481018201928281018d85111561498057600080fd5b958301955b8487101561499c5786358152958301958301614985565b5099506149ad90508b8b830161485a565b9750505061012088013594506101408801359150808211156149ce57600080fd5b506149db8882890161486d565b9250506149eb61016087016148f0565b90509295509295909350565b80356001600160601b0381168114613fcc57600080fd5b600060208284031215614a2057600080fd5b614a29826149f7565b9392505050565b600060208284031215614a4257600080fd5b5035919050565b6001600160a01b03811681146144a357600080fd5b600060208284031215614a7057600080fd5b8135614a2981614a49565b60008083601f840112614a8d57600080fd5b50813567ffffffffffffffff811115614aa557600080fd5b6020830191508360208260051b8501011115614ac057600080fd5b9250929050565b6000806000806000806101808789031215614ae157600080fd5b863567ffffffffffffffff80821115614af957600080fd5b614b058a838b01614a7b565b9098509650869150614b1a8a60208b0161485a565b95506101208901359150614b2d82614a49565b9093506101408801359080821115614b4457600080fd5b50614b5189828a0161486d565b92505061016087013590509295509295509295565b80151581146144a357600080fd5b60008060408385031215614b8757600080fd5b8235614b9281614a49565b91506020830135614ba281614b66565b809150509250929050565b600060a082840312156136a857600080fd5b60008060408385031215614bd257600080fd5b50508035926020909101359150565b63ffffffff811681146144a357600080fd5b600060208284031215614c0557600080fd5b8135614a2981614be1565b6000806000806000806101808789031215614c2a57600080fd5b863567ffffffffffffffff80821115614c4257600080fd5b614c4e8a838b01614a7b565b9098509650869150614c638a60208b0161485a565b9550610120890135915080821115614c7a57600080fd5b50614c8789828a0161486d565b935050610140870135915061016087013590509295509295509295565b60008060008060006101608688031215614cbd57600080fd5b853567ffffffffffffffff80821115614cd557600080fd5b614ce189838a01614a7b565b9097509550859150614cf68960208a0161485a565b9450610120880135915080821115614d0d57600080fd5b50614d1a8882890161486d565b9598949750929561014001359392505050565b60005b83811015614d48578181015183820152602001614d30565b50506000910152565b60008151808452614d69816020860160208601614d2d565b601f01601f19169290920160200192915050565b602081526000614a296020830184614d51565b634e487b7160e01b600052603260045260246000fd5b83815260008351614dbe816020850160208801614d2d565b60f89390931b7fff0000000000000000000000000000000000000000000000000000000000000016602092909301918201929092526021019392505050565b634e487b7160e01b600052601160045260246000fd5b6001600160601b03818116838216019080821115614e3357614e33614dfd565b5092915050565b803582526020808201359083015260408082016040840137604060808201608084013761343260c0830160c0830180358252602090810135910152565b6001600160a01b03841681526101406020808301829052845191830182905260009161016084019186810191845b81811015614ec157835185529382019392820192600101614ea5565b5050505080915050613d826040830184614e3a565b600060208284031215614ee857600080fd5b8151614a2981614b66565b600060ff60f81b808c60f81b16835263ffffffff60e01b808c60e01b166001850152818b60f81b166005850152808a60e01b166006850152818960f81b16600a85015287600b850152808760e01b16602b85015250808560f81b16602f840152508251614f67816030850160208701614d2d565b919091016030019a9950505050505050505050565b60ff83168152604060208201526000613d826040830184614d51565b8181038181111561242f5761242f614dfd565b600081614fba57614fba614dfd565b506000190190565b60006101406001600160a01b03871683528060208401528481840152506101607f07ffffffffffffffffffffffffffffffffffffffffffffffffffffffffffffff85111561500f57600080fd5b8460051b808783860137830101905061502b6040830184614e3a565b95945050505050565b6000806040838503121561504757600080fd5b825161505281614be1565b6020840151909250614ba2816148e1565b600060ff60f81b808a60f81b16835263ffffffff60e01b808a60e01b166001850152818960f81b166005850152876006850152808760e01b16602685015250808560f81b16602a8401525082516150c181602b850160208701614d2d565b91909101602b0198975050505050505050565b60a0810182356150e3816148e1565b60ff16825260208301356150f681614a49565b6001600160a01b038082166020850152604085013560408501526060850135915061512082614a49565b1660608301526001600160601b0361513a608085016149f7565b16608083015292915050565b60006020828403121561515857600080fd5b5051919050565b634e487b7160e01b600052601260045260246000fd5b6000826151845761518461515f565b500490565b600081518084526020808501945080840160005b838110156151b95781518752958201959082019060010161519d565b509495945050505050565b602081526000614a296020830184615189565b600060ff60f81b808c60f81b16835263ffffffff60e01b808c60e01b166001850152818b60f81b166005850152896006850152808960e01b16602685015250808760f81b16602a840152808660f81b16602b840152507fffffffffffffffff0000000000000000000000000000000000000000000000008460c01b16602c830152825161526b816034850160208701614d2d565b919091016034019a9950505050505050505050565b60008261528f5761528f61515f565b500690565b6040815260006152a76040830185615189565b90506001600160601b03831660208301529392505050565b600060033d11156152d85760046000803e5060005160e01c5b90565b600060443d10156152e95790565b6040516003193d81016004833e81513d67ffffffffffffffff816024840111818411171561531957505050505090565b82850191508151818111156153315750505050505090565b843d870101602082850101111561534b5750505050505090565b61535a6020828601018761482d565b509095945050505050565b8082018082111561242f5761242f614dfd565b600081600019048311821515161561539257615392614dfd565b500290565b60808101818360005b600481101561242b5781518352602092830192909101906001016153a0565b600067ffffffffffffffff8083168181036153dc576153dc614dfd565b6001019392505050565b60608101818360005b600381101561242b5781518352602092830192909101906001016153ef56fe506f736569646f6e4861736865723a20696e707574206e6f7420696e206669656c64a164736f6c6343000810000a",
  "deployedBytecode": "0x6080604052600436106102a05760003560e01c806376e877101161016e578063b77708ea116100cb578063dfc3f8801161007f578063e94ecd3511610064578063e94ecd3514610868578063f2f68ad314610888578063fb9b3ca4146108a857600080fd5b8063dfc3f88014610817578063e5285dcc1461083757600080fd5b8063c2e3e62b116100b0578063c2e3e62b146107a3578063c6c8de3d146107c3578063d162814d146107e357600080fd5b8063b77708ea14610762578063be05d3fb1461078257600080fd5b806385ec72da116101225780639c45c0c9116101075780639c45c0c9146106ed578063a0435dc614610721578063b4ebfb671461074157600080fd5b806385ec72da146106995780638c1ce02c146106b957600080fd5b80637b4d1da8116101535780637b4d1da81461061c5780637cfaa897146106505780638129fc1c1461068457600080fd5b806376e87710146105db5780637b01fb1b146105fc57600080fd5b80633f2ed5571161021c5780635277ab4a116101d05780635a9bdd0c116101b55780635a9bdd0c146105865780635ca1e165146105a65780636a7777f4146105bb57600080fd5b80635277ab4a14610511578063585cc6a51461055257600080fd5b8063411557d111610201578063411557d11461047d578063418ecfcd146104b157806348075116146104d157600080fd5b80633f2ed557146104235780633ff721ba1461045d57600080fd5b80632faaab7911610273578063380cb90711610258578063380cb907146103ca578063380d3d1c146103eb5780633cd7eef71461040d57600080fd5b80632faaab791461037f57806335f96fe9146103a957600080fd5b806308c84e70146102a55780630f56204b146102f6578063117803e31461032a578063176341131461035e575b600080fd5b3480156102b157600080fd5b506102d97f000000000000000000000000000000000000000000000000000000000000000081565b6040516001600160a01b0390911681526020015b60405180910390f35b34801561030257600080fd5b506102d97f000000000000000000000000000000000000000000000000000000000000000081565b34801561033657600080fd5b506102d97f000000000000000000000000000000000000000000000000000000000000000081565b61037161036c3660046148fb565b6108dc565b6040519081526020016102ed565b34801561038b57600080fd5b506103946117ec565b604080519283526020830191909152016102ed565b3480156103b557600080fd5b506101f5546102d9906001600160a01b031681565b3480156103d657600080fd5b506101f7546102d9906001600160a01b031681565b3480156103f757600080fd5b5061040b610406366004614a0e565b6118ca565b005b34801561041957600080fd5b5061037161ffff81565b34801561042f57600080fd5b506102035461044890600160c01b900463ffffffff1681565b60405163ffffffff90911681526020016102ed565b34801561046957600080fd5b50610371610478366004614a30565b61197b565b34801561048957600080fd5b506102d97f000000000000000000000000000000000000000000000000000000000000000081565b3480156104bd57600080fd5b5061040b6104cc366004614a5e565b611992565b3480156104dd57600080fd5b50610203546104f990600160601b90046001600160601b031681565b6040516001600160601b0390911681526020016102ed565b34801561051d57600080fd5b5061054261052c366004614a5e565b6101f46020526000908152604090205460ff1681565b60405190151581526020016102ed565b34801561055e57600080fd5b506102d97f000000000000000000000000000000000000000000000000000000000000000081565b34801561059257600080fd5b506103716105a1366004614ac7565b611a24565b3480156105b257600080fd5b50602054610371565b3480156105c757600080fd5b5061040b6105d6366004614b74565b612013565b3480156105e757600080fd5b506101f8546102d9906001600160a01b031681565b34801561060857600080fd5b5061040b610617366004614bad565b6120ae565b34801561062857600080fd5b506102d97f000000000000000000000000000000000000000000000000000000000000000081565b34801561065c57600080fd5b506102d97f000000000000000000000000000000000000000000000000000000000000000081565b34801561069057600080fd5b5061040b612181565b3480156106a557600080fd5b506105426106b4366004614bbf565b612318565b3480156106c557600080fd5b506102d97f000000000000000000000000000000000000000000000000000000000000000081565b3480156106f957600080fd5b506102d97f000000000000000000000000000000000000000000000000000000000000000081565b34801561072d57600080fd5b5061040b61073c366004614a5e565b612435565b34801561074d57600080fd5b506101f6546102d9906001600160a01b031681565b34801561076e57600080fd5b5061040b61077d366004614a5e565b6124c7565b34801561078e57600080fd5b50610203546104f9906001600160601b031681565b3480156107af57600080fd5b5061040b6107be366004614bbf565b612559565b3480156107cf57600080fd5b5061040b6107de366004614bf3565b612681565b3480156107ef57600080fd5b506102d97f000000000000000000000000000000000000000000000000000000000000000081565b34801561082357600080fd5b50610371610832366004614c10565b61272f565b34801561084357600080fd5b50610542610852366004614a30565b6102026020526000908152604090205460ff1681565b34801561087457600080fd5b50610371610883366004614ca4565b612e9b565b34801561089457600080fd5b5061040b6108a3366004614a5e565b613365565b3480156108b457600080fd5b506102d97f000000000000000000000000000000000000000000000000000000000000000081565b6101f85460408051808201909152600581526450503a453360d81b60208201526000916001600160a01b031661092e5760405162461bcd60e51b81526004016109259190614d7d565b60405180910390fd5b5060008660288151811061094457610944614d90565b60200260200101519050610957816133f7565b5060008660298151811061096d5761096d614d90565b6020026020010151905061098081613436565b5060008660268151811061099657610996614d90565b602002602001015190506109a981613471565b506000866000815181106109bf576109bf614d90565b6020026020010151905060008585856040516020016109e093929190614da6565b60405160208183030381529060405290506109fb82826134ae565b5050600086600a81518110610a1257610a12614d90565b6020026020010151905080600014156040518060400160405280600681526020017f50503a453138000000000000000000000000000000000000000000000000000081525090610a755760405162461bcd60e51b81526004016109259190614d7d565b5050600086600b81518110610a8c57610a8c614d90565b6020026020010151905080600014156040518060400160405280600681526020017f50503a453139000000000000000000000000000000000000000000000000000081525090610aef5760405162461bcd60e51b81526004016109259190614d7d565b5050600086600e81518110610b0657610b06614d90565b6020026020010151905080600014156040518060400160405280600681526020017f50503a453232000000000000000000000000000000000000000000000000000081525090610b695760405162461bcd60e51b81526004016109259190614d7d565b5050600086601181518110610b8057610b80614d90565b6020026020010151905080600014156040518060400160405280600681526020017f50503a453235000000000000000000000000000000000000000000000000000081525090610be35760405162461bcd60e51b81526004016109259190614d7d565b5050600086601281518110610bfa57610bfa614d90565b6020026020010151905080600014156040518060400160405280600681526020017f50503a453236000000000000000000000000000000000000000000000000000081525090610c5d5760405162461bcd60e51b81526004016109259190614d7d565b5050600086601381518110610c7457610c74614d90565b60200260200101519050600087601481518110610c9357610c93614d90565b60200260200101519050600088601581518110610cb257610cb2614d90565b60200260200101519050600089601681518110610cd157610cd1614d90565b6020026020010151905060008a601781518110610cf057610cf0614d90565b6020026020010151905060008b601881518110610d0f57610d0f614d90565b6020026020010151905060008c601981518110610d2e57610d2e614d90565b6020026020010151905060008d601a81518110610d4d57610d4d614d90565b6020026020010151905060008e601b81518110610d6c57610d6c614d90565b6020026020010151905060008f601c81518110610d8b57610d8b614d90565b6020026020010151905089600014156040518060400160405280600681526020016550503a45323760d01b81525090610dd75760405162461bcd60e51b81526004016109259190614d7d565b5060408051808201909152600681526550503a45323760d01b602082015289610e135760405162461bcd60e51b81526004016109259190614d7d565b5060408051808201909152600681526550503a45323760d01b602082015288610e4f5760405162461bcd60e51b81526004016109259190614d7d565b5060408051808201909152600681526550503a45323760d01b602082015287610e8b5760405162461bcd60e51b81526004016109259190614d7d565b5060408051808201909152600681526550503a45323760d01b602082015286610ec75760405162461bcd60e51b81526004016109259190614d7d565b5060408051808201909152600681526550503a45323760d01b602082015285610f035760405162461bcd60e51b81526004016109259190614d7d565b5060408051808201909152600681526550503a45323760d01b602082015284610f3f5760405162461bcd60e51b81526004016109259190614d7d565b5060408051808201909152600681526550503a45323760d01b602082015283610f7b5760405162461bcd60e51b81526004016109259190614d7d565b5060408051808201909152600681526550503a45323760d01b602082015282610fb75760405162461bcd60e51b81526004016109259190614d7d565b5060408051808201909152600681526550503a45323760d01b602082015281610ff35760405162461bcd60e51b81526004016109259190614d7d565b5050505050505050505050600086601d8151811061101357611013614d90565b6020026020010151905080600014156040518060400160405280600681526020017f50503a4532380000000000000000000000000000000000000000000000000000815250906110765760405162461bcd60e51b81526004016109259190614d7d565b5050600086601e8151811061108d5761108d614d90565b60200260200101519050600087601f815181106110ac576110ac614d90565b602002602001015190506000886020815181106110cb576110cb614d90565b6020026020010151905082600014156040518060400160405280600681526020016550503a45323960d01b815250906111175760405162461bcd60e51b81526004016109259190614d7d565b5060408051808201909152600681526550503a45323960d01b6020820152826111535760405162461bcd60e51b81526004016109259190614d7d565b5060408051808201909152600681526550503a45323960d01b60208201528161118f5760405162461bcd60e51b81526004016109259190614d7d565b5050505061119e83600461353b565b60006111c3876021815181106111b6576111b6614d90565b6020026020010151613612565b905060006111ea886006815181106111dd576111dd614d90565b60200260200101516136ae565b905060008860078151811061120157611201614d90565b602002602001015160001b905060008960088151811061122357611223614d90565b602002602001015160001b90506000801b8211801561124157508015155b6040518060400160405280600681526020017f50503a4533320000000000000000000000000000000000000000000000000000815250906112955760405162461bcd60e51b81526004016109259190614d7d565b506000828152610202602052604090205460ff161580156112c657506000818152610202602052604090205460ff16155b6040518060400160405280600681526020017f50503a45333300000000000000000000000000000000000000000000000000008152509061131a5760405162461bcd60e51b81526004016109259190614d7d565b50600091825261020260205260408083208054600160ff199182168117909255928452908320805490921617905588518990600990811061135d5761135d614d90565b602002602001015160001b90506000801b81116040518060400160405280600581526020016450503a453760d81b815250906113ac5760405162461bcd60e51b81526004016109259190614d7d565b5060008181526102026020908152604091829020548251808401909352600683526514140e914c4d60d21b9183019190915260ff16156113ff5760405162461bcd60e51b81526004016109259190614d7d565b50600090815261020260205260408120805460ff1916600190811790915589518a9190811061143057611430614d90565b6020026020010151905060008960028151811061144f5761144f614d90565b6020026020010151905060008a60048151811061146e5761146e614d90565b60200260200101519050826000148015611486575081155b156114e45760408051808201909152600681527f50503a4533310000000000000000000000000000000000000000000000000000602082015281156114de5760405162461bcd60e51b81526004016109259190614d7d565b506114ee565b6114ee8b8861375b565b5050506000808960258151811061150757611507614d90565b60200260200101519050600061151c82613b6e565b610203805492955090925082916000906115409084906001600160601b0316614e13565b92506101000a8154816001600160601b0302191690836001600160601b03160217905550505060008960278151811061157b5761157b614d90565b6020026020010151905061158f8189613bfd565b506101f854604051634f5267b760e11b81526001600160a01b037f0000000000000000000000000000000000000000000000000000000000000000811692639ea4cf6e926115e89291909116908d908d90600401614e77565b602060405180830381865afa158015611605573d6000803e3d6000fd5b505050506040513d601f19601f820116820180604052508101906116299190614ed6565b6040518060400160405280600581526020016450503a453560d81b815250906116655760405162461bcd60e51b81526004016109259190614d7d565b5060008960248151811061167b5761167b614d90565b602002602001015160001b905060008060008c6022815181106116a0576116a0614d90565b602002602001015160001b905060008d6023815181106116c2576116c2614d90565b602090810291909101810151604080516003808252608082019092529193506000928201606080368337019050509050858160008151811061170657611706614d90565b602002602001018181525050828160018151811061172657611726614d90565b602002602001018181525050818160028151811061174657611746614d90565b60200260200101818152505061175c8188613c43565b604051909c5091965094508c93506000925061179091506060908a906061908b906062908b908b908b908b90602001614ef3565b60405160208183030381529060405290507f207dfdd39f3236aeb44c66389652245b2a44197f48da35abc71ba0a76025ed5c6004826040516117d3929190614f7c565b60405180910390a1505050505050505095945050505050565b600b5460408051808201909152600581527f43523a4531000000000000000000000000000000000000000000000000000000602082015260009182919067ffffffffffffffff166118505760405162461bcd60e51b81526004016109259190614d7d565b50600b546000906118759067ffffffffffffffff80821691600160401b900416613d3f565b9050806000036118935761188c6001610100614f98565b91506118a2565b61189c81614fab565b90508091505b600b546118c39067ffffffffffffffff80821691600160401b900416613d60565b9250509091565b7f00000000000000000000000000000000000000000000000000000000000000006001600160a01b031633146119395760405162461bcd60e51b8152602060048201526014602482015273125b5b53dddb8e881d5b985d5d1a1bdc9a5e995960621b6044820152606401610925565b61020380546001600160601b03909216600160601b027fffffffffffffffff000000000000000000000000ffffffffffffffffffffffff909216919091179055565b6021816004811061198b57600080fd5b0154905081565b7f00000000000000000000000000000000000000000000000000000000000000006001600160a01b03163314611a015760405162461bcd60e51b8152602060048201526014602482015273125b5b53dddb8e881d5b985d5d1a1bdc9a5e995960621b6044820152606401610925565b6101f580546001600160a01b0319166001600160a01b0392909216919091179055565b60408051808201909152600581526428281d229960d91b6020820152600090336001600160a01b037f00000000000000000000000000000000000000000000000000000000000000001614611a8c5760405162461bcd60e51b81526004016109259190614d7d565b506101f55460408051808201909152600581526450503a453360d81b6020820152906001600160a01b0316611ad45760405162461bcd60e51b81526004016109259190614d7d565b5060008787600d818110611aea57611aea614d90565b90506020020135905080600014156040518060400160405280600581526020016450503a453760d81b81525090611b345760405162461bcd60e51b81526004016109259190614d7d565b505060008787600e818110611b4b57611b4b614d90565b9050602002013590508060001415604051806040016040528060058152602001640a0a0748a760db1b81525090611b955760405162461bcd60e51b81526004016109259190614d7d565b5060008888600f818110611bab57611bab614d90565b90506020020135905080600014156040518060400160405280600581526020017f50503a453900000000000000000000000000000000000000000000000000000081525090611c0d5760405162461bcd60e51b81526004016109259190614d7d565b5050600088886011818110611c2457611c24614d90565b905060200201359050806000141560405180604001604052806006815260200165050503a4531360d41b81525090611c6f5760405162461bcd60e51b81526004016109259190614d7d565b5050600088886012818110611c8657611c86614d90565b90506020020135905080600014156040518060400160405280600681526020016550503a45313160d01b81525090611cd15760405162461bcd60e51b81526004016109259190614d7d565b5050600088886005818110611ce857611ce8614d90565b90506020020135905088886005818110611d0457611d04614d90565b905060200201358163ffffffff16148015611d255750428163ffffffff1610155b6040518060400160405280600581526020016428281d229b60d91b81525090611d615760405162461bcd60e51b81526004016109259190614d7d565b50611d6d85600161353b565b611d9389896010818110611d8357611d83614d90565b9050602002013560001b85612318565b6040518060400160405280600581526020016414140e914d60da1b81525090611dcf5760405162461bcd60e51b81526004016109259190614d7d565b506101f554604051634f5267b760e11b81526001600160a01b037f0000000000000000000000000000000000000000000000000000000000000000811692639ea4cf6e92611e2a9291909116908d908d908d90600401614fc2565b602060405180830381865afa158015611e47573d6000803e3d6000fd5b505050506040513d601f19601f82011682018060405250810190611e6b9190614ed6565b6040518060400160405280600581526020016450503a453560d81b81525090611ea75760405162461bcd60e51b81526004016109259190614d7d565b5088886001818110611ebb57611ebb614d90565b90506020020135600014611ef357600089896001818110611ede57611ede614d90565b905060200201359050611ef18782613d8a565b505b60405163fc72e28560e01b81526004810183905260009081907f00000000000000000000000000000000000000000000000000000000000000006001600160a01b03169063fc72e2859060240160408051808303816000875af1158015611f5e573d6000803e3d6000fd5b505050506040513d601f19601f82011682018060405250810190611f829190615034565b915091508060ff1660088363ffffffff16901b179450600060608460628786868d604051602001611fb99796959493929190615063565b60405160208183030381529060405290507f207dfdd39f3236aeb44c66389652245b2a44197f48da35abc71ba0a76025ed5c600182604051611ffc929190614f7c565b60405180910390a150505050509695505050505050565b7f00000000000000000000000000000000000000000000000000000000000000006001600160a01b031633146120825760405162461bcd60e51b8152602060048201526014602482015273125b5b53dddb8e881d5b985d5d1a1bdc9a5e995960621b6044820152606401610925565b6001600160a01b039190911660009081526101f460205260409020805460ff1916911515919091179055565b3360009081526101f46020908152604091829020548251808401909352600583526428281d229960d91b9183019190915260ff166120ff5760405162461bcd60e51b81526004016109259190614d7d565b5060405163016f4f9b60e61b81526001600160a01b037f00000000000000000000000000000000000000000000000000000000000000001690635bd3e6c09061214c9084906004016150d4565b600060405180830381600087803b15801561216657600080fd5b505af115801561217a573d6000803e3d6000fd5b5050505050565b7f00000000000000000000000000000000000000000000000000000000000000006001600160a01b031633146121f05760405162461bcd60e51b8152602060048201526014602482015273125b5b53dddb8e881d5b985d5d1a1bdc9a5e995960621b6044820152606401610925565b602054156122405760405162461bcd60e51b815260206004820152601760248201527f50463a20416c726561647920696e697469616c697a65640000000000000000006044820152606401610925565b60005b60048160ff1610156122dc5761225b8160ff16613ed1565b6001600160a01b0316635ca1e1656040518163ffffffff1660e01b8152600401602060405180830381865afa158015612298573d6000803e3d6000fd5b505050506040513d601f19601f820116820180604052508101906122bc9190615146565b60218260ff16600481106122d2576122d2614d90565b0155600101612243565b506040805160808101918290526123139160219060049082845b8154815260200190600101908083116122f6575050505050613fd1565b602055565b600b5460009067ffffffffffffffff1680820361233957600091505061242f565b600b5460009250600160401b900467ffffffffffffffff168261235c8383613d60565b905061ffff85036123c25760006123738285614f98565b90505b8415801561238357508084115b156123bc576000199093019286600a600061239e8787613d3f565b815260200190815260200160002054036123b757600194505b612376565b5061242b565b60408051808201909152600581527f43523a453200000000000000000000000000000000000000000000000000000060208201528186106124165760405162461bcd60e51b81526004016109259190614d7d565b506000858152600a6020526040902054861493505b5050505b92915050565b7f00000000000000000000000000000000000000000000000000000000000000006001600160a01b031633146124a45760405162461bcd60e51b8152602060048201526014602482015273125b5b53dddb8e881d5b985d5d1a1bdc9a5e995960621b6044820152606401610925565b6101f880546001600160a01b0319166001600160a01b0392909216919091179055565b7f00000000000000000000000000000000000000000000000000000000000000006001600160a01b031633146125365760405162461bcd60e51b8152602060048201526014602482015273125b5b53dddb8e881d5b985d5d1a1bdc9a5e995960621b6044820152606401610925565b6101f680546001600160a01b0319166001600160a01b0392909216919091179055565b61256281613ed1565b6001600160a01b0316336001600160a01b0316146125c25760405162461bcd60e51b815260206004820152600c60248201527f756e617574686f72697a656400000000000000000000000000000000000000006044820152606401610925565b81602182600481106125d6576125d6614d90565b015560408051608081019182905260218054825260009261260d9291906004906022602085018083116122f6575050505050613fd1565b90506000600383036126295761262282613fdc565b9050612635565b61263282614014565b90505b602082815560408051868152918201849052810182905283907ffb270bf61beeb2f6245d25e705aa540499f6e32b4d19f7081ecf930bc5dfa7b09060600160405180910390a250505050565b7f00000000000000000000000000000000000000000000000000000000000000006001600160a01b031633146126f05760405162461bcd60e51b8152602060048201526014602482015273125b5b53dddb8e881d5b985d5d1a1bdc9a5e995960621b6044820152606401610925565b610203805463ffffffff909216600160c01b027fffffffff00000000ffffffffffffffffffffffffffffffffffffffffffffffff909216919091179055565b6101f75460408051808201909152600581526450503a453360d81b60208201526000916001600160a01b03166127785760405162461bcd60e51b81526004016109259190614d7d565b5060008787600081811061278e5761278e614d90565b90506020020135905080600014156040518060400160405280600681526020017f50503a4531330000000000000000000000000000000000000000000000000000815250906127f05760405162461bcd60e51b81526004016109259190614d7d565b505060008787600d81811061280757612807614d90565b905060200201359050806000141560405180604001604052806006815260200165050503a4531360d41b815250906128525760405162461bcd60e51b81526004016109259190614d7d565b505060008787600e81811061286957612869614d90565b90506020020135905080600014156040518060400160405280600681526020016550503a45313160d01b815250906128b45760405162461bcd60e51b81526004016109259190614d7d565b50506000878760088181106128cb576128cb614d90565b90506020020135905080600014156040518060400160405280600681526020017f50503a45313600000000000000000000000000000000000000000000000000008152509061292d5760405162461bcd60e51b81526004016109259190614d7d565b5060008888600b81811061294357612943614d90565b9050602002013590504681146040518060400160405280600681526020016550503a45313760d01b8152509061298c5760405162461bcd60e51b81526004016109259190614d7d565b505060006129b2898960028181106129a6576129a6614d90565b9050602002013561401f565b9050428163ffffffff1610156040518060400160405280600581526020016428281d229b60d91b815250906129fa5760405162461bcd60e51b81526004016109259190614d7d565b50612a0686600361353b565b612a1c8989600c818110611d8357611d83614d90565b6040518060400160405280600581526020016414140e914d60da1b81525090612a585760405162461bcd60e51b81526004016109259190614d7d565b50600089896003818110612a6e57612a6e614d90565b90506020020135905060008a8a6004818110612a8c57612a8c614d90565b90506020020135905067ffffffffffffffff8211158015612ab5575067ffffffffffffffff8111155b6040518060400160405280600681526020017f50503a453135000000000000000000000000000000000000000000000000000081525090612b095760405162461bcd60e51b81526004016109259190614d7d565b5050506000808387612b1b9190615175565b905060008b8b6005818110612b3257612b32614d90565b905060200201359050612b4c81838663ffffffff16614079565b925060008c8c6009818110612b6357612b63614d90565b6020908102929092013560008181526102028452604090819020548151808301909252600682526514140e914c4d60d21b948201949094529093509160ff16159050612bc25760405162461bcd60e51b81526004016109259190614d7d565b506001610202600083815260200190815260200160002060006101000a81548160ff021916908315150217905550507f00000000000000000000000000000000000000000000000000000000000000006001600160a01b0316639ea4cf6e6101f760009054906101000a90046001600160a01b03168e8e8e6040518563ffffffff1660e01b8152600401612c599493929190614fc2565b602060405180830381865afa158015612c76573d6000803e3d6000fd5b505050506040513d601f19601f82011682018060405250810190612c9a9190614ed6565b6040518060400160405280600581526020016450503a453560d81b81525090612cd65760405162461bcd60e51b81526004016109259190614d7d565b5060008c8c600a818110612cec57612cec614d90565b60408051600280825260608201835260209384029590950135955060009490935091830190803683370190505090508181600081518110612d2f57612d2f614d90565b6020026020010181815250508481600181518110612d4f57612d4f614d90565b6020026020010181815250506000807f00000000000000000000000000000000000000000000000000000000000000006001600160a01b031663a3548b99846040518263ffffffff1660e01b8152600401612daa91906151c4565b60408051808303816000875af1158015612dc8573d6000803e3d6000fd5b505050506040513d601f19601f82011682018060405250810190612dec9190615034565b915091508060ff1660088363ffffffff16901b179950612e0c338d613d8a565b8c600060608a60628887876063612e228f61409f565b89604051602001612e3b999897969594939291906151d7565b60405160208183030381529060405290507f207dfdd39f3236aeb44c66389652245b2a44197f48da35abc71ba0a76025ed5c600382604051612e7e929190614f7c565b60405180910390a150505050505050505050509695505050505050565b60408051808201909152600581526428281d229960d91b6020820152600090336001600160a01b037f00000000000000000000000000000000000000000000000000000000000000001614612f035760405162461bcd60e51b81526004016109259190614d7d565b506101f65460408051808201909152600581526450503a453360d81b6020820152906001600160a01b0316612f4b5760405162461bcd60e51b81526004016109259190614d7d565b506000612f64878760028181106129a6576129a6614d90565b9050428163ffffffff1610156040518060400160405280600581526020016428281d229b60d91b81525090612fac5760405162461bcd60e51b81526004016109259190614d7d565b50612fb884600261353b565b60008787600a818110612fcd57612fcd614d90565b9050602002013590508060001415604051806040016040528060058152602001640a0a0748a760db1b815250906130175760405162461bcd60e51b81526004016109259190614d7d565b5060008888600981811061302d5761302d614d90565b6020908102929092013560008181526102028452604090819020548151808301909252600682526514140e914c4d60d21b948201949094529093509160ff1615905061308c5760405162461bcd60e51b81526004016109259190614d7d565b50600090815261020260205260408120805460ff191660011790558888600b8181106130ba576130ba614d90565b9050602002013590504681146040518060400160405280600681526020016550503a45313760d01b815250906131035760405162461bcd60e51b81526004016109259190614d7d565b505060008888600c81811061311a5761311a614d90565b9050602002013560001b90506131308186612318565b6040518060400160405280600581526020016414140e914d60da1b8152509061316c5760405162461bcd60e51b81526004016109259190614d7d565b50506101f654604051634f5267b760e11b81526001600160a01b037f0000000000000000000000000000000000000000000000000000000000000000811692639ea4cf6e926131c89291909116908c908c908c90600401614fc2565b602060405180830381865afa1580156131e5573d6000803e3d6000fd5b505050506040513d601f19601f820116820180604052508101906132099190614ed6565b6040518060400160405280600581526020016450503a453560d81b815250906132455760405162461bcd60e51b81526004016109259190614d7d565b5060405163fc72e28560e01b81526004810182905260009081907f00000000000000000000000000000000000000000000000000000000000000006001600160a01b03169063fc72e2859060240160408051808303816000875af11580156132b1573d6000803e3d6000fd5b505050506040513d601f19601f820116820180604052508101906132d59190615034565b915091508060ff1660088363ffffffff16901b179450600060608560628686868d60405160200161330c9796959493929190615063565b60405160208183030381529060405290507f207dfdd39f3236aeb44c66389652245b2a44197f48da35abc71ba0a76025ed5c60028260405161334f929190614f7c565b60405180910390a1505050505095945050505050565b7f00000000000000000000000000000000000000000000000000000000000000006001600160a01b031633146133d45760405162461bcd60e51b8152602060048201526014602482015273125b5b53dddb8e881d5b985d5d1a1bdc9a5e995960621b6044820152606401610925565b6101f780546001600160a01b0319166001600160a01b0392909216919091179055565b604080518082019091526006815265050503a4531360d41b6020820152816134325760405162461bcd60e51b81526004016109259190614d7d565b5050565b60408051808201909152600681526550503a45313160d01b6020820152816134325760405162461bcd60e51b81526004016109259190614d7d565b60408051808201909152600681526550503a45313760d01b60208201524682146134325760405162461bcd60e51b81526004016109259190614d7d565b805160208201206134e0907f30644e72e131a029b85045b68181585d2833e84879b9709143e1f593f000000190615280565b82146040518060400160405280600681526020017f50503a4533350000000000000000000000000000000000000000000000000000815250906135365760405162461bcd60e51b81526004016109259190614d7d565b505050565b6000600660ff16838260ff168151811061355757613557614d90565b602001015160f81c60f81b60f81c60ff16146040518060400160405280600581526020017f544e3a4531000000000000000000000000000000000000000000000000000000815250906135bd5760405162461bcd60e51b81526004016109259190614d7d565b5060001960ff8316016135d3576135d3836140f4565b60011960ff8316016135e8576135e8836140f4565b60021960ff8316016135fd576135fd83614136565b60031960ff8316016135365761353683614203565b600061361d8261401f565b9050428163ffffffff161015801561366c575061020354600160c01b900463ffffffff16158061366c57506102035463ffffffff600160c01b9091048116906136699042908416614f98565b11155b6040518060400160405280600581526020016428281d229b60d91b815250906136a85760405162461bcd60e51b81526004016109259190614d7d565b50919050565b60006136b98261401f565b9050428163ffffffff1611158015613707575061020354600160c01b900463ffffffff16158061370757506102035463ffffffff600160c01b90910481169061370490831642614f98565b11155b6040518060400160405280600681526020017f50503a4533340000000000000000000000000000000000000000000000000000815250906136a85760405162461bcd60e51b81526004016109259190614d7d565b60006137808360018151811061377357613773614d90565b6020026020010151614391565b9050600061379a8460028151811061377357613773614d90565b90506000846004815181106137b1576137b1614d90565b602002602001015190506000856005815181106137d0576137d0614d90565b602002602001015190506000866028815181106137ef576137ef614d90565b602002602001015160001b9050600087600c8151811061381157613811614d90565b60200260200101519050600088600d8151811061383057613830614d90565b60200260200101519050600089600f8151811061384f5761384f614d90565b6020026020010151905060008a60108151811061386e5761386e614d90565b602002602001015190506000896001600160601b031611156139f1577f00000000000000000000000000000000000000000000000000000000000000006001600160a01b0316836001600160a01b0316146040518060400160405280600681526020016550503a45323160d01b815250906138fc5760405162461bcd60e51b81526004016109259190614d7d565b5060408051808201909152600681526550503a45323360d01b60208201526001600160a01b0383166139415760405162461bcd60e51b81526004016109259190614d7d565b5060408051808201909152600681527f50503a453234000000000000000000000000000000000000000000000000000060208201526001600160a01b03821661399d5760405162461bcd60e51b81526004016109259190614d7d565b506139f16040518060c001604052808c60ff168152602001896001600160a01b03168152602001888152602001878152602001866001600160a01b031681526020018b6001600160601b03168152506143e6565b6001600160601b03881615613b61577f00000000000000000000000000000000000000000000000000000000000000006001600160a01b0316826001600160a01b0316146040518060400160405280600681526020016550503a45323360d01b81525090613a725760405162461bcd60e51b81526004016109259190614d7d565b5060408051808201909152600681527f50503a453230000000000000000000000000000000000000000000000000000060208201526001600160a01b038516613ace5760405162461bcd60e51b81526004016109259190614d7d565b5060408051808201909152600681526550503a45323160d01b60208201526001600160a01b038416613b135760405162461bcd60e51b81526004016109259190614d7d565b50613b616040518060a001604052808c60ff168152602001896001600160a01b03168152602001888152602001836001600160a01b031681526020018a6001600160601b03168152506144a6565b5050505050505050505050565b6102035460408051808201909152600681527f50503a45333600000000000000000000000000000000000000000000000000006020820152600091600160601b90046001600160601b031690818411613bda5760405162461bcd60e51b81526004016109259190614d7d565b50613bf6613bf16001600160601b03831685614f98565b614391565b9150915091565b613c078282612318565b6040518060400160405280600581526020016414140e914d60da1b815250906135365760405162461bcd60e51b81526004016109259190614d7d565b60008060007f00000000000000000000000000000000000000000000000000000000000000006001600160a01b0316637c84874286866040518363ffffffff1660e01b8152600401613c96929190615294565b60408051808303816000875af1925050508015613cd0575060408051601f3d908101601f19168201909252613ccd91810190615034565b60015b613d2157613cdc6152bf565b806308c379a003613d155750613cf06152db565b80613cfb5750613d17565b8060405162461bcd60e51b81526004016109259190614d7d565b505b3d6000803e3d6000fd5b909690955064ffffffff00600888901b1660ff871617945092505050565b6000613d4e6001610100614f98565b613d588385614f98565b169392505050565b600080613d6d8385614f98565b90506101008111613d7e5780613d82565b6101005b949350505050565b7f00000000000000000000000000000000000000000000000000000000000000006001600160a01b0316637441ba246040518060a00160405280600060ff1681526020017f00000000000000000000000000000000000000000000000000000000000000006001600160a01b0316815260200160008152602001856001600160a01b03168152602001613e1c85614391565b6001600160601b03908116909152604080517fffffffff0000000000000000000000000000000000000000000000000000000060e086901b168152835160ff16600482015260208401516001600160a01b0390811660248301529184015160448201526060840151909116606482015260809092015116608482015260a401600060405180830381600087803b158015613eb557600080fd5b505af1158015613ec9573d6000803e3d6000fd5b505050505050565b600060048210613f235760405162461bcd60e51b815260206004820152601460248201527f50463a20494e56414c49445f4c4541465f494e440000000000000000000000006044820152606401610925565b81613f4b57507f00000000000000000000000000000000000000000000000000000000000000005b60018203613f7657507f00000000000000000000000000000000000000000000000000000000000000005b60028203613fa157507f00000000000000000000000000000000000000000000000000000000000000005b60038203613fcc57507f00000000000000000000000000000000000000000000000000000000000000005b919050565b600061242f82614554565b600b8054600160401b67ffffffffffffffff8216026fffffffffffffffff000000000000000019909116179055600061242f826146b8565b600061242f826146b8565b600064010000000082106140755760405162461bcd60e51b815260206004820152600860248201527f554e5341464533320000000000000000000000000000000000000000000000006044820152606401610925565b5090565b6040805160608101825284815260208101849052908101829052600090613d8290614723565b6000600160401b82106140755760405162461bcd60e51b815260206004820152600860248201527f554e5341464536340000000000000000000000000000000000000000000000006044820152606401610925565b60618151101560405180604001604052806005815260200164544e3a453560d81b815250906134325760405162461bcd60e51b81526004016109259190614d7d565b60616141428180615365565b8251101560405180604001604052806005815260200164544e3a453560d81b815250906141825760405162461bcd60e51b81526004016109259190614d7d565b50600760ff16828260ff168151811061419d5761419d614d90565b602001015160f81c60f81b60f81c60ff16146040518060400160405280600581526020017f544e3a4533000000000000000000000000000000000000000000000000000000815250906135365760405162461bcd60e51b81526004016109259190614d7d565b606160c26101236041614217846002615378565b614222906061615365565b61422c9190615365565b8451101560405180604001604052806005815260200164544e3a453560d81b8152509061426c5760405162461bcd60e51b81526004016109259190614d7d565b50600860ff16848460ff168151811061428757614287614d90565b016020015160f81c1480156142bb5750600860ff16848360ff16815181106142b1576142b1614d90565b016020015160f81c145b6040518060400160405280600581526020017f544e3a45320000000000000000000000000000000000000000000000000000008152509061430f5760405162461bcd60e51b81526004016109259190614d7d565b50600960ff16848261ffff168151811061432b5761432b614d90565b602001015160f81c60f81b60f81c60ff16146040518060400160405280600581526020017f544e3a45340000000000000000000000000000000000000000000000000000008152509061217a5760405162461bcd60e51b81526004016109259190614d7d565b6000600160601b82106140755760405162461bcd60e51b815260206004820152600860248201527f554e5341464539360000000000000000000000000000000000000000000000006044820152606401610925565b60408051631f2e09dd60e21b8152825160ff16600482015260208301516001600160a01b0390811660248301529183015160448201526060830151606482015260808301518216608482015260a083015160a48201527f000000000000000000000000000000000000000000000000000000000000000090911690637cb8277490349060c4016000604051808303818588803b15801561448557600080fd5b505af193505050508015614497575060015b6144a357613cdc6152bf565b50565b6040805163016f4f9b60e61b8152825160ff16600482015260208301516001600160a01b03908116602483015291830151604482015260608301518216606482015260808301516001600160601b031660848201527f000000000000000000000000000000000000000000000000000000000000000090911690635bd3e6c09060a401600060405180830381600087803b15801561454357600080fd5b505af1925050508015614497575050565b80516000907f30644e72e131a029b85045b68181585d2833e84879b9709143e1f593f00000011180156145aa575060208201517f30644e72e131a029b85045b68181585d2833e84879b9709143e1f593f0000001115b80156145d9575060408201517f30644e72e131a029b85045b68181585d2833e84879b9709143e1f593f0000001115b8015614608575060608201517f30644e72e131a029b85045b68181585d2833e84879b9709143e1f593f0000001115b60405180606001604052806022815260200161540f602291399061463f5760405162461bcd60e51b81526004016109259190614d7d565b50604051631e86251960e01b815273__$de5c081b01b921d8a5a1824062760900b1$__90631e86251990614677908590600401615397565b602060405180830381865af4158015614694573d6000803e3d6000fd5b505050506040513d601f19601f8201168201806040525081019061242f9190615146565b600b5460009067ffffffffffffffff80821691600160401b9004166146dd8282613d3f565b6000818152600a6020526040902085905592506146f9826153bf565b600b805467ffffffffffffffff191667ffffffffffffffff92909216919091179055509092915050565b80516000907f30644e72e131a029b85045b68181585d2833e84879b9709143e1f593f0000001118015614779575060208201517f30644e72e131a029b85045b68181585d2833e84879b9709143e1f593f0000001115b80156147a8575060408201517f30644e72e131a029b85045b68181585d2833e84879b9709143e1f593f0000001115b60405180606001604052806022815260200161540f60229139906147df5760405162461bcd60e51b81526004016109259190614d7d565b50604051635a53025d60e01b815273__$a786a838ef97de7d2113fa91ed3c799076$__90635a53025d906146779085906004016153e6565b634e487b7160e01b600052604160045260246000fd5b601f8201601f1916810167ffffffffffffffff8111828210171561485357614853614817565b6040525050565b600061010082840312156136a857600080fd5b600082601f83011261487e57600080fd5b813567ffffffffffffffff81111561489857614898614817565b6040516148af601f8301601f19166020018261482d565b8181528460208386010111156148c457600080fd5b816020850160208301376000918101602001919091529392505050565b60ff811681146144a357600080fd5b8035613fcc816148e1565b6000806000806000610180868803121561491457600080fd5b853567ffffffffffffffff8082111561492c57600080fd5b818801915088601f83011261494057600080fd5b813560208282111561495457614954614817565b8160051b6040516149678383018261482d565b9283528481018201928281018d85111561498057600080fd5b958301955b8487101561499c5786358152958301958301614985565b5099506149ad90508b8b830161485a565b9750505061012088013594506101408801359150808211156149ce57600080fd5b506149db8882890161486d565b9250506149eb61016087016148f0565b90509295509295909350565b80356001600160601b0381168114613fcc57600080fd5b600060208284031215614a2057600080fd5b614a29826149f7565b9392505050565b600060208284031215614a4257600080fd5b5035919050565b6001600160a01b03811681146144a357600080fd5b600060208284031215614a7057600080fd5b8135614a2981614a49565b60008083601f840112614a8d57600080fd5b50813567ffffffffffffffff811115614aa557600080fd5b6020830191508360208260051b8501011115614ac057600080fd5b9250929050565b6000806000806000806101808789031215614ae157600080fd5b863567ffffffffffffffff80821115614af957600080fd5b614b058a838b01614a7b565b9098509650869150614b1a8a60208b0161485a565b95506101208901359150614b2d82614a49565b9093506101408801359080821115614b4457600080fd5b50614b5189828a0161486d565b92505061016087013590509295509295509295565b80151581146144a357600080fd5b60008060408385031215614b8757600080fd5b8235614b9281614a49565b91506020830135614ba281614b66565b809150509250929050565b600060a082840312156136a857600080fd5b60008060408385031215614bd257600080fd5b50508035926020909101359150565b63ffffffff811681146144a357600080fd5b600060208284031215614c0557600080fd5b8135614a2981614be1565b6000806000806000806101808789031215614c2a57600080fd5b863567ffffffffffffffff80821115614c4257600080fd5b614c4e8a838b01614a7b565b9098509650869150614c638a60208b0161485a565b9550610120890135915080821115614c7a57600080fd5b50614c8789828a0161486d565b935050610140870135915061016087013590509295509295509295565b60008060008060006101608688031215614cbd57600080fd5b853567ffffffffffffffff80821115614cd557600080fd5b614ce189838a01614a7b565b9097509550859150614cf68960208a0161485a565b9450610120880135915080821115614d0d57600080fd5b50614d1a8882890161486d565b9598949750929561014001359392505050565b60005b83811015614d48578181015183820152602001614d30565b50506000910152565b60008151808452614d69816020860160208601614d2d565b601f01601f19169290920160200192915050565b602081526000614a296020830184614d51565b634e487b7160e01b600052603260045260246000fd5b83815260008351614dbe816020850160208801614d2d565b60f89390931b7fff0000000000000000000000000000000000000000000000000000000000000016602092909301918201929092526021019392505050565b634e487b7160e01b600052601160045260246000fd5b6001600160601b03818116838216019080821115614e3357614e33614dfd565b5092915050565b803582526020808201359083015260408082016040840137604060808201608084013761343260c0830160c0830180358252602090810135910152565b6001600160a01b03841681526101406020808301829052845191830182905260009161016084019186810191845b81811015614ec157835185529382019392820192600101614ea5565b5050505080915050613d826040830184614e3a565b600060208284031215614ee857600080fd5b8151614a2981614b66565b600060ff60f81b808c60f81b16835263ffffffff60e01b808c60e01b166001850152818b60f81b166005850152808a60e01b166006850152818960f81b16600a85015287600b850152808760e01b16602b85015250808560f81b16602f840152508251614f67816030850160208701614d2d565b919091016030019a9950505050505050505050565b60ff83168152604060208201526000613d826040830184614d51565b8181038181111561242f5761242f614dfd565b600081614fba57614fba614dfd565b506000190190565b60006101406001600160a01b03871683528060208401528481840152506101607f07ffffffffffffffffffffffffffffffffffffffffffffffffffffffffffffff85111561500f57600080fd5b8460051b808783860137830101905061502b6040830184614e3a565b95945050505050565b6000806040838503121561504757600080fd5b825161505281614be1565b6020840151909250614ba2816148e1565b600060ff60f81b808a60f81b16835263ffffffff60e01b808a60e01b166001850152818960f81b166005850152876006850152808760e01b16602685015250808560f81b16602a8401525082516150c181602b850160208701614d2d565b91909101602b0198975050505050505050565b60a0810182356150e3816148e1565b60ff16825260208301356150f681614a49565b6001600160a01b038082166020850152604085013560408501526060850135915061512082614a49565b1660608301526001600160601b0361513a608085016149f7565b16608083015292915050565b60006020828403121561515857600080fd5b5051919050565b634e487b7160e01b600052601260045260246000fd5b6000826151845761518461515f565b500490565b600081518084526020808501945080840160005b838110156151b95781518752958201959082019060010161519d565b509495945050505050565b602081526000614a296020830184615189565b600060ff60f81b808c60f81b16835263ffffffff60e01b808c60e01b166001850152818b60f81b166005850152896006850152808960e01b16602685015250808760f81b16602a840152808660f81b16602b840152507fffffffffffffffff0000000000000000000000000000000000000000000000008460c01b16602c830152825161526b816034850160208701614d2d565b919091016034019a9950505050505050505050565b60008261528f5761528f61515f565b500690565b6040815260006152a76040830185615189565b90506001600160601b03831660208301529392505050565b600060033d11156152d85760046000803e5060005160e01c5b90565b600060443d10156152e95790565b6040516003193d81016004833e81513d67ffffffffffffffff816024840111818411171561531957505050505090565b82850191508151818111156153315750505050505090565b843d870101602082850101111561534b5750505050505090565b61535a6020828601018761482d565b509095945050505050565b8082018082111561242f5761242f614dfd565b600081600019048311821515161561539257615392614dfd565b500290565b60808101818360005b600481101561242b5781518352602092830192909101906001016153a0565b600067ffffffffffffffff8083168181036153dc576153dc614dfd565b6001019392505050565b60608101818360005b600381101561242b5781518352602092830192909101906001016153ef56fe506f736569646f6e4861736865723a20696e707574206e6f7420696e206669656c64a164736f6c6343000810000a",
  "libraries": {
    "PoseidonT4": "0x3Eb4f42B303f865B2409e67031927E4c4FEB3f1F",
    "PoseidonT5": "0x7af4DD5d4B0f193A1d16b2C9d2492fAEC2558FD3"
  },
  "devdoc": {
    "kind": "dev",
    "methods": {
      "accountPrp(uint256[],((uint256,uint256),(uint256[2],uint256[2]),(uint256,uint256)),bytes,uint256)": {
        "details": "It spends the old zAccount utxo and create a new one with increased prp balance. It can be executed only be prpVoucherGrantor.",
        "params": {
          "cachedForestRootIndex": "forest merkle root index. 0 means the most updated root.",
          "inputs": "[14] - magicalConstraint;",
          "privateMessages": "the private message that contains zAccount utxo data. zAccount utxo data contains bytes1 msgType, bytes32 ephemeralKey and bytes64 cypherText This data is used to spend the newly created utxo.",
          "proof": "A proof associated with the zAccount and a secret."
        }
      },
      "createZAccountUtxo(uint256[],((uint256,uint256),(uint256[2],uint256[2]),(uint256,uint256)),address,bytes,uint256)": {
        "details": "It can be executed only by zAccountsRegistry contract.",
        "params": {
          "cachedForestRootIndex": "forest merkle root index. 0 means the most updated root.",
          "inputs": "[18] - magicalConstraint",
          "privateMessages": "the private message that contains zAccount utxo data. zAccount utxo data contains bytes1 msgType, bytes32 ephemeralKey and bytes64 cypherText",
          "proof": "A proof associated with the zAccount and a secret.",
          "zkpPayer": "Wallet that withdraws onboarding zkp rewards"
        }
      },
      "createZzkpUtxoAndSpendPrpUtxo(uint256[],((uint256,uint256),(uint256[2],uint256[2]),(uint256,uint256)),bytes,uint256,uint256)": {
        "details": "It converts prp to zZkp. The msg.sender should approve pantherPool to transfer the ZKPs to the vault in order to create new zAsset utxo. In ideal case, the msg sender is prpConverter. This function also spend the old zAccount utxo and creates new one with decreased prp balance.",
        "params": {
          "cachedForestRootIndex": "forest merkle root index. 0 means the most updated root.",
          "inputs": "[14] - magicalConstraint;",
          "privateMessages": "the private message that contains zAccount utxo data. zAccount utxo data contains bytes1 msgType, bytes32 ephemeralKey and bytes64 cypherText This data is used to spend the newly created utxo.",
          "proof": "A proof associated with the zAccount and a secret.",
          "zkpAmountOutRounded": "The zkp amount to be locked in the vault, rounded by 1e12."
        }
      },
      "main(uint256[],((uint256,uint256),(uint256[2],uint256[2]),(uint256,uint256)),uint256,bytes,uint8)": {
        "params": {
          "inputs": "[41] - magicalConstraint;"
        }
      }
    },
    "version": 1
  },
  "userdoc": {
    "kind": "user",
    "methods": {
      "OWNER()": {
        "notice": "The owner who has privileged rights"
      },
      "accountPrp(uint256[],((uint256,uint256),(uint256[2],uint256[2]),(uint256,uint256)),bytes,uint256)": {
        "notice": "Accounts prp to zAccount"
      },
      "createZAccountUtxo(uint256[],((uint256,uint256),(uint256[2],uint256[2]),(uint256,uint256)),address,bytes,uint256)": {
        "notice": "Creates zAccount utxo"
      },
      "createZzkpUtxoAndSpendPrpUtxo(uint256[],((uint256,uint256),(uint256[2],uint256[2]),(uint256,uint256)),bytes,uint256,uint256)": {
        "notice": "Accounts prp conversion"
      }
    },
    "version": 1
  },
  "storageLayout": {
    "storage": [
      {
        "astId": 23107,
        "contract": "contracts/protocol/PantherPoolV1.sol:PantherPoolV1",
        "label": "__gap",
        "offset": 0,
        "slot": "0",
        "type": "t_array(t_uint256)10_storage"
      },
      {
        "astId": 23125,
        "contract": "contracts/protocol/PantherPoolV1.sol:PantherPoolV1",
        "label": "_cachedRoots",
        "offset": 0,
        "slot": "10",
        "type": "t_mapping(t_uint256,t_bytes32)"
      },
      {
        "astId": 23127,
        "contract": "contracts/protocol/PantherPoolV1.sol:PantherPoolV1",
        "label": "_cachedRootsCounter",
        "offset": 0,
        "slot": "11",
        "type": "t_uint64"
      },
      {
        "astId": 23129,
        "contract": "contracts/protocol/PantherPoolV1.sol:PantherPoolV1",
        "label": "_cacheStartPos",
        "offset": 8,
        "slot": "11",
        "type": "t_uint64"
      },
      {
        "astId": 23375,
        "contract": "contracts/protocol/PantherPoolV1.sol:PantherPoolV1",
        "label": "_trailingGap",
        "offset": 0,
        "slot": "12",
        "type": "t_array(t_uint256)10_storage"
      },
      {
        "astId": 21225,
        "contract": "contracts/protocol/PantherPoolV1.sol:PantherPoolV1",
        "label": "_startGap",
        "offset": 0,
        "slot": "22",
        "type": "t_array(t_bytes32)10_storage"
      },
      {
        "astId": 21241,
        "contract": "contracts/protocol/PantherPoolV1.sol:PantherPoolV1",
        "label": "_forestRoot",
        "offset": 0,
        "slot": "32",
        "type": "t_bytes32"
      },
      {
        "astId": 21245,
        "contract": "contracts/protocol/PantherPoolV1.sol:PantherPoolV1",
        "label": "leafs",
        "offset": 0,
        "slot": "33",
        "type": "t_array(t_bytes32)4_storage"
      },
      {
        "astId": 21259,
        "contract": "contracts/protocol/PantherPoolV1.sol:PantherPoolV1",
        "label": "_endGap",
        "offset": 0,
        "slot": "37",
        "type": "t_array(t_bytes32)10_storage"
      },
      {
        "astId": 8528,
        "contract": "contracts/protocol/PantherPoolV1.sol:PantherPoolV1",
        "label": "__gap",
        "offset": 0,
        "slot": "47",
        "type": "t_array(t_uint256)453_storage"
      },
      {
        "astId": 8547,
        "contract": "contracts/protocol/PantherPoolV1.sol:PantherPoolV1",
        "label": "vaultAssetUnlockers",
        "offset": 0,
        "slot": "500",
        "type": "t_mapping(t_address,t_bool)"
      },
      {
        "astId": 8549,
        "contract": "contracts/protocol/PantherPoolV1.sol:PantherPoolV1",
        "label": "zAccountRegistrationCircuitId",
        "offset": 0,
        "slot": "501",
        "type": "t_uint160"
      },
      {
        "astId": 8551,
        "contract": "contracts/protocol/PantherPoolV1.sol:PantherPoolV1",
        "label": "prpAccountingCircuitId",
        "offset": 0,
        "slot": "502",
        "type": "t_uint160"
      },
      {
        "astId": 8553,
        "contract": "contracts/protocol/PantherPoolV1.sol:PantherPoolV1",
        "label": "prpAccountConversionCircuitId",
        "offset": 0,
        "slot": "503",
        "type": "t_uint160"
      },
      {
        "astId": 8555,
        "contract": "contracts/protocol/PantherPoolV1.sol:PantherPoolV1",
        "label": "mainCircuitId",
        "offset": 0,
        "slot": "504",
        "type": "t_uint160"
      },
      {
        "astId": 8559,
        "contract": "contracts/protocol/PantherPoolV1.sol:PantherPoolV1",
        "label": "__circuiteIdsGap",
        "offset": 0,
        "slot": "505",
        "type": "t_array(t_uint256)9_storage"
      },
      {
        "astId": 8563,
        "contract": "contracts/protocol/PantherPoolV1.sol:PantherPoolV1",
        "label": "isSpent",
        "offset": 0,
        "slot": "514",
        "type": "t_mapping(t_bytes32,t_bool)"
      },
      {
        "astId": 8565,
        "contract": "contracts/protocol/PantherPoolV1.sol:PantherPoolV1",
        "label": "accountedRewards",
        "offset": 0,
        "slot": "515",
        "type": "t_uint96"
      },
      {
        "astId": 8567,
        "contract": "contracts/protocol/PantherPoolV1.sol:PantherPoolV1",
        "label": "kycReward",
        "offset": 12,
        "slot": "515",
        "type": "t_uint96"
      },
      {
        "astId": 8569,
        "contract": "contracts/protocol/PantherPoolV1.sol:PantherPoolV1",
        "label": "maxTimeDelta",
        "offset": 24,
        "slot": "515",
        "type": "t_uint32"
      }
    ],
    "types": {
      "t_address": {
        "encoding": "inplace",
        "label": "address",
        "numberOfBytes": "20"
      },
      "t_array(t_bytes32)10_storage": {
        "base": "t_bytes32",
        "encoding": "inplace",
        "label": "bytes32[10]",
        "numberOfBytes": "320"
      },
      "t_array(t_bytes32)4_storage": {
        "base": "t_bytes32",
        "encoding": "inplace",
        "label": "bytes32[4]",
        "numberOfBytes": "128"
      },
      "t_array(t_uint256)10_storage": {
        "base": "t_uint256",
        "encoding": "inplace",
        "label": "uint256[10]",
        "numberOfBytes": "320"
      },
      "t_array(t_uint256)453_storage": {
        "base": "t_uint256",
        "encoding": "inplace",
        "label": "uint256[453]",
        "numberOfBytes": "14496"
      },
      "t_array(t_uint256)9_storage": {
        "base": "t_uint256",
        "encoding": "inplace",
        "label": "uint256[9]",
        "numberOfBytes": "288"
      },
      "t_bool": {
        "encoding": "inplace",
        "label": "bool",
        "numberOfBytes": "1"
      },
      "t_bytes32": {
        "encoding": "inplace",
        "label": "bytes32",
        "numberOfBytes": "32"
      },
      "t_mapping(t_address,t_bool)": {
        "encoding": "mapping",
        "key": "t_address",
        "label": "mapping(address => bool)",
        "numberOfBytes": "32",
        "value": "t_bool"
      },
      "t_mapping(t_bytes32,t_bool)": {
        "encoding": "mapping",
        "key": "t_bytes32",
        "label": "mapping(bytes32 => bool)",
        "numberOfBytes": "32",
        "value": "t_bool"
      },
      "t_mapping(t_uint256,t_bytes32)": {
        "encoding": "mapping",
        "key": "t_uint256",
        "label": "mapping(uint256 => bytes32)",
        "numberOfBytes": "32",
        "value": "t_bytes32"
      },
      "t_uint160": {
        "encoding": "inplace",
        "label": "uint160",
        "numberOfBytes": "20"
      },
      "t_uint256": {
        "encoding": "inplace",
        "label": "uint256",
        "numberOfBytes": "32"
      },
      "t_uint32": {
        "encoding": "inplace",
        "label": "uint32",
        "numberOfBytes": "4"
      },
      "t_uint64": {
        "encoding": "inplace",
        "label": "uint64",
        "numberOfBytes": "8"
      },
      "t_uint96": {
        "encoding": "inplace",
        "label": "uint96",
        "numberOfBytes": "12"
      }
    }
  }
}