{
  "address": "0x983008D9ac4B2b2E8B25Cde40aA30a331FF6a90D",
  "abi": [
    {
      "inputs": [
        {
          "internalType": "address",
          "name": "_toPolygonRewardSender",
          "type": "address"
        },
        {
          "internalType": "address",
          "name": "_fxChild",
          "type": "address"
        },
        {
          "internalType": "address",
          "name": "_prpVoucherGrantor",
          "type": "address"
        },
        {
          "internalType": "address",
          "name": "_prpConverter",
          "type": "address"
        }
      ],
      "stateMutability": "nonpayable",
      "type": "constructor"
    },
    {
      "anonymous": false,
      "inputs": [
        {
          "indexed": false,
          "internalType": "uint256",
          "name": "_nonce",
          "type": "uint256"
        },
        {
          "indexed": false,
          "internalType": "bytes",
          "name": "data",
          "type": "bytes"
        }
      ],
      "name": "PrpRewardMsgRelayed",
      "type": "event"
    },
    {
      "inputs": [],
      "name": "FX_CHILD",
      "outputs": [
        {
          "internalType": "address",
          "name": "",
          "type": "address"
        }
      ],
      "stateMutability": "view",
      "type": "function"
    },
    {
      "inputs": [],
      "name": "PRP_CONVERTER",
      "outputs": [
        {
          "internalType": "address",
          "name": "",
          "type": "address"
        }
      ],
      "stateMutability": "view",
      "type": "function"
    },
    {
      "inputs": [],
      "name": "PRP_VOUCHER_GRANTOR",
      "outputs": [
        {
          "internalType": "address",
          "name": "",
          "type": "address"
        }
      ],
      "stateMutability": "view",
      "type": "function"
    },
    {
      "inputs": [],
      "name": "TO_POLYGON_REWARD_SENDER",
      "outputs": [
        {
          "internalType": "address",
          "name": "",
          "type": "address"
        }
      ],
      "stateMutability": "view",
      "type": "function"
    },
    {
      "inputs": [],
      "name": "nonce",
      "outputs": [
        {
          "internalType": "uint256",
          "name": "",
          "type": "uint256"
        }
      ],
      "stateMutability": "view",
      "type": "function"
    },
    {
      "inputs": [
        {
          "internalType": "uint256",
          "name": "",
          "type": "uint256"
        },
        {
          "internalType": "address",
          "name": "rootMessageSender",
          "type": "address"
        },
        {
          "internalType": "bytes",
          "name": "content",
          "type": "bytes"
        }
      ],
      "name": "processMessageFromRoot",
      "outputs": [],
      "stateMutability": "nonpayable",
      "type": "function"
    }
  ],
  "transactionHash": "0xa190fb43ab475e29155754e1f1c04d7d8ca920e995d3736fdd99545578cd5fd0",
  "args": [
    "0x9619bd59411a8387a4119e548017C5b86c7bCec5",
    "0xCf73231F28B7331BBe3124B907840A94851f9f11",
    "0x0b8D09a40B696d8173088cdA505DaD0167394B4C",
    "0x2ca8E95f31B6576aEe0559189bdC7b655ba72132"
  ],
  "numDeployments": 1,
  "solcInputHash": "86e3d9f2d99a962ecd4b506d1a57c1b9",
  "bytecode": "0x61010060405234801561001157600080fd5b506040516108ab3803806108ab833981016040819052610030916100f0565b6001600160a01b0383161580159061005057506001600160a01b03841615155b801561006457506001600160a01b03821615155b801561007857506001600160a01b03811615155b6100b25760405162461bcd60e51b8152602060048201526007602482015266504d523a45303160c81b604482015260640160405180910390fd5b6001600160a01b0392831660805292821660a052811660c0521660e052610144565b80516001600160a01b03811681146100eb57600080fd5b919050565b6000806000806080858703121561010657600080fd5b61010f856100d4565b935061011d602086016100d4565b925061012b604086016100d4565b9150610139606086016100d4565b905092959194509250565b60805160a05160c05160e0516107156101966000396000818161013a01526103b801526000818160c0015261034001526000818160e701526101db015260008181607c015261016701526107156000f3fe608060405234801561001057600080fd5b50600436106100725760003560e01c80639a7c4b71116100505780639a7c4b7114610109578063affed0e01461011e578063ef92a79f1461013557600080fd5b806382f9deb5146100775780638c1ce02c146100bb5780638f4a5f3a146100e2575b600080fd5b61009e7f000000000000000000000000000000000000000000000000000000000000000081565b6040516001600160a01b0390911681526020015b60405180910390f35b61009e7f000000000000000000000000000000000000000000000000000000000000000081565b61009e7f000000000000000000000000000000000000000000000000000000000000000081565b61011c61011736600461060e565b61015c565b005b61012760005481565b6040519081526020016100b2565b61009e7f000000000000000000000000000000000000000000000000000000000000000081565b336001600160a01b037f000000000000000000000000000000000000000000000000000000000000000016146101d95760405162461bcd60e51b815260206004820152601260248201527f504d523a494e56414c49445f43414c4c4552000000000000000000000000000060448201526064015b60405180910390fd5b7f00000000000000000000000000000000000000000000000000000000000000006001600160a01b0316836001600160a01b03161461025a5760405162461bcd60e51b815260206004820152601260248201527f504d523a494e56414c49445f53454e444552000000000000000000000000000060448201526064016101d0565b600080600061029e85858080601f01602080910402602001604051908101604052809392919081815260200183838082843760009201919091525061046d92505050565b92509250925060005483116102f55760405162461bcd60e51b815260206004820152601160248201527f504d523a494e56414c49445f4e4f4e434500000000000000000000000000000060448201526064016101d0565b6000838155604051638abfdf8760e01b81526004810183905260248101919091527fffffffff00000000000000000000000000000000000000000000000000000000831660448201527f00000000000000000000000000000000000000000000000000000000000000006001600160a01b031690638abfdf87906064016020604051808303816000875af1158015610391573d6000803e3d6000fd5b505050506040513d601f19601f820116820180604052508101906103b591906106a3565b507f00000000000000000000000000000000000000000000000000000000000000006001600160a01b03166377ec1ac06040518163ffffffff1660e01b8152600401600060405180830381600087803b15801561041157600080fd5b505af1158015610425573d6000803e3d6000fd5b505050507f9e5dc335520bb7700837e98ae74f5e35d2cc96c7a0d4d89f5570da421396ae2683868660405161045c939291906106bc565b60405180910390a150505050505050565b600080600083516028146104c35760405162461bcd60e51b815260206004820152601160248201527f5042443a2057524f4e475f4c454e47544800000000000000000000000000000060448201526064016101d0565b836003815181106104d6576104d66106f2565b602001015160f81c60f81b60f81c60ff166008856002815181106104fc576104fc6106f2565b602001015160f81c60f81b60f81c60ff16901b601086600181518110610524576105246106f2565b602001015160f81c60f81b60f81c60ff16901b60188760008151811061054c5761054c6106f2565b602001015160f81c60f81b60f81c60ff16901b171717925083600781518110610577576105776106f2565b602001015160f81c60f81b60f81c60ff1660088560068151811061059d5761059d6106f2565b602001015160f81c60f81b60f81c60ff16901b6010866005815181106105c5576105c56106f2565b602001015160f81c60f81b60f81c60ff16901b6018876004815181106105ed576105ed6106f2565b0160200151602890980151969860f89890981c901b17171760e01b93915050565b6000806000806060858703121561062457600080fd5b8435935060208501356001600160a01b038116811461064257600080fd5b9250604085013567ffffffffffffffff8082111561065f57600080fd5b818701915087601f83011261067357600080fd5b81358181111561068257600080fd5b88602082850101111561069457600080fd5b95989497505060200194505050565b6000602082840312156106b557600080fd5b5051919050565b83815260406020820152816040820152818360608301376000818301606090810191909152601f909201601f1916010192915050565b634e487b7160e01b600052603260045260246000fdfea164736f6c6343000810000a",
  "devdoc": {
    "kind": "dev",
    "methods": {
      "constructor": {
        "params": {
          "_fxChild": "Address of the `FxChild` (Bridge) contract on Polygon/Mumbai",
          "_toPolygonRewardSender": "Address of the AdvancedStakeRewardAdviserAndMsgSender on the mainnet/Goerli"
        }
      },
      "processMessageFromRoot(uint256,address,bytes)": {
        "params": {
          "content": "Message data",
          "rootMessageSender": "Address on the mainnet/Goerli that sent the message"
        }
      }
    },
    "stateVariables": {
      "FX_CHILD": {
        "details": "`FxChild` is the contract of the \"Fx-Portal\" on the Polygon/Mumbai"
      },
      "TO_POLYGON_REWARD_SENDER": {
        "details": "It sends messages over the PoS bridge to this contract"
      }
    },
    "version": 1
  },
  "userdoc": {
    "kind": "user",
    "methods": {
      "FX_CHILD()": {
        "notice": "Address of the `FxChild` contract on the Polygon/Mumbai network"
      },
      "TO_POLYGON_REWARD_SENDER()": {
        "notice": "Address of the PolygonRewardSender on the mainnet/Goerli"
      },
      "nonce()": {
        "notice": "Message nonce (i.e. sequential number of the latest message)"
      }
    },
    "version": 1
  },
  "storageLayout": {
    "storage": [
      {
        "astId": 8314,
        "contract": "contracts/protocol/PolygonPrpRewardMsgRelayer.sol:PolygonPrpRewardMsgRelayer",
        "label": "nonce",
        "offset": 0,
        "slot": "0",
        "type": "t_uint256"
      }
    ],
    "types": {
      "t_uint256": {
        "encoding": "inplace",
        "label": "uint256",
        "numberOfBytes": "32"
      }
    }
  }
}