{
  "address": "0xb79BE04044c287eEdd152e9219b7A84B2d26Aa1b",
  "abi": [
    {
      "inputs": [
        {
          "internalType": "address",
          "name": "_owner",
          "type": "address"
        },
        {
          "internalType": "address",
          "name": "zkpToken",
          "type": "address"
        },
        {
          "internalType": "address",
          "name": "pantherPool",
          "type": "address"
        },
        {
          "internalType": "address",
          "name": "vault",
          "type": "address"
        }
      ],
      "stateMutability": "nonpayable",
      "type": "constructor"
    },
    {
      "anonymous": false,
      "inputs": [
        {
          "indexed": false,
          "internalType": "uint256",
          "name": "prpVirtualAmount",
          "type": "uint256"
        },
        {
          "indexed": false,
          "internalType": "uint256",
          "name": "zkpAmount",
          "type": "uint256"
        }
      ],
      "name": "Initialized",
      "type": "event"
    },
    {
      "anonymous": false,
      "inputs": [
        {
          "indexed": false,
          "internalType": "uint112",
          "name": "prpReserve",
          "type": "uint112"
        },
        {
          "indexed": false,
          "internalType": "uint112",
          "name": "zkpReserve",
          "type": "uint112"
        }
      ],
      "name": "Sync",
      "type": "event"
    },
    {
      "inputs": [],
      "name": "OWNER",
      "outputs": [
        {
          "internalType": "address",
          "name": "",
          "type": "address"
        }
      ],
      "stateMutability": "view",
      "type": "function"
    },
    {
      "inputs": [],
      "name": "PANTHER_POOL",
      "outputs": [
        {
          "internalType": "address",
          "name": "",
          "type": "address"
        }
      ],
      "stateMutability": "view",
      "type": "function"
    },
    {
      "inputs": [],
      "name": "VAULT",
      "outputs": [
        {
          "internalType": "address",
          "name": "",
          "type": "address"
        }
      ],
      "stateMutability": "view",
      "type": "function"
    },
    {
      "inputs": [],
      "name": "ZKP_TOKEN",
      "outputs": [
        {
          "internalType": "address",
          "name": "",
          "type": "address"
        }
      ],
      "stateMutability": "view",
      "type": "function"
    },
    {
      "inputs": [
        {
          "internalType": "uint256[]",
          "name": "inputs",
          "type": "uint256[]"
        },
        {
          "internalType": "bytes",
          "name": "privateMessages",
          "type": "bytes"
        },
        {
          "components": [
            {
              "components": [
                {
                  "internalType": "uint256",
                  "name": "x",
                  "type": "uint256"
                },
                {
                  "internalType": "uint256",
                  "name": "y",
                  "type": "uint256"
                }
              ],
              "internalType": "struct G1Point",
              "name": "a",
              "type": "tuple"
            },
            {
              "components": [
                {
                  "internalType": "uint256[2]",
                  "name": "x",
                  "type": "uint256[2]"
                },
                {
                  "internalType": "uint256[2]",
                  "name": "y",
                  "type": "uint256[2]"
                }
              ],
              "internalType": "struct G2Point",
              "name": "b",
              "type": "tuple"
            },
            {
              "components": [
                {
                  "internalType": "uint256",
                  "name": "x",
                  "type": "uint256"
                },
                {
                  "internalType": "uint256",
                  "name": "y",
                  "type": "uint256"
                }
              ],
              "internalType": "struct G1Point",
              "name": "c",
              "type": "tuple"
            }
          ],
          "internalType": "struct SnarkProof",
          "name": "proof",
          "type": "tuple"
        },
        {
          "internalType": "uint256",
          "name": "zkpAmountOutMin",
          "type": "uint256"
        },
        {
          "internalType": "uint256",
          "name": "cachedForestRootIndex",
          "type": "uint256"
        }
      ],
      "name": "convert",
      "outputs": [
        {
          "internalType": "uint256",
          "name": "firstUtxoBusQueuePos",
          "type": "uint256"
        }
      ],
      "stateMutability": "nonpayable",
      "type": "function"
    },
    {
      "inputs": [
        {
          "internalType": "uint256",
          "name": "amountIn",
          "type": "uint256"
        },
        {
          "internalType": "uint256",
          "name": "reserveIn",
          "type": "uint256"
        },
        {
          "internalType": "uint256",
          "name": "reserveOut",
          "type": "uint256"
        }
      ],
      "name": "getAmountOut",
      "outputs": [
        {
          "internalType": "uint256",
          "name": "amountOut",
          "type": "uint256"
        }
      ],
      "stateMutability": "pure",
      "type": "function"
    },
    {
      "inputs": [],
      "name": "getReserves",
      "outputs": [
        {
          "internalType": "uint256",
          "name": "_prpReserve",
          "type": "uint256"
        },
        {
          "internalType": "uint256",
          "name": "_zkpReserve",
          "type": "uint256"
        },
        {
          "internalType": "uint32",
          "name": "_blockTimestampLast",
          "type": "uint32"
        }
      ],
      "stateMutability": "view",
      "type": "function"
    },
    {
      "inputs": [
        {
          "internalType": "uint256",
          "name": "prpVirtualAmount",
          "type": "uint256"
        },
        {
          "internalType": "uint256",
          "name": "zkpAmount",
          "type": "uint256"
        }
      ],
      "name": "initPool",
      "outputs": [],
      "stateMutability": "nonpayable",
      "type": "function"
    },
    {
      "inputs": [],
      "name": "initialized",
      "outputs": [
        {
          "internalType": "bool",
          "name": "",
          "type": "bool"
        }
      ],
      "stateMutability": "view",
      "type": "function"
    },
    {
      "inputs": [
        {
          "internalType": "address",
          "name": "token",
          "type": "address"
        },
        {
          "internalType": "address",
          "name": "to",
          "type": "address"
        },
        {
          "internalType": "uint256",
          "name": "amount",
          "type": "uint256"
        }
      ],
      "name": "rescueErc20",
      "outputs": [],
      "stateMutability": "nonpayable",
      "type": "function"
    },
    {
      "inputs": [
        {
          "internalType": "uint256",
          "name": "prpVirtualBalance",
          "type": "uint256"
        },
        {
          "internalType": "uint256",
          "name": "zkpBalance",
          "type": "uint256"
        }
      ],
      "name": "update",
      "outputs": [],
      "stateMutability": "nonpayable",
      "type": "function"
    },
    {
      "inputs": [],
      "name": "updateZkpReserve",
      "outputs": [],
      "stateMutability": "nonpayable",
      "type": "function"
    }
  ],
  "transactionHash": "0x13ad3f70701d85214885fd9b5d93cfc2417dac77bb8f9415039b8d3c7255a7fd",
  "args": [
    "0xfB474a7FeCDaFBD412ebF0d60A0C32794F82d3dD",
    "0x4004C49aBb96B11D89A52DeCCa2D1522da7f3089",
    "0xfDfD920F2152565E9D7b589e4e9faeE6699AD4bd",
    "0x9619bd59411a8387a4119e548017C5b86c7bCec5"
  ],
  "numDeployments": 5,
  "solcInputHash": "49b44ec4e11a0ae4e40669eb63e560b0",
  "bytecode": "0x6101006040523480156200001257600080fd5b5060405162001bdd38038062001bdd83398101604081905262000035916200014a565b836001600160a01b038116620000925760405162461bcd60e51b815260206004820152601a60248201527f496d6d4f776e3a207a65726f206f776e6572206164647265737300000000000060448201526064015b60405180910390fd5b6001600160a01b03908116608052831615801590620000b957506001600160a01b03821615155b8015620000ce57506001600160a01b03811615155b6040518060400160405280600581526020016450433a453160d81b815250906200010d5760405162461bcd60e51b8152600401620000899190620001a7565b506001600160a01b0392831660a05290821660c0521660e05250620001f7565b80516001600160a01b03811681146200014557600080fd5b919050565b600080600080608085870312156200016157600080fd5b6200016c856200012d565b93506200017c602086016200012d565b92506200018c604086016200012d565b91506200019c606086016200012d565b905092959194509250565b600060208083528351808285015260005b81811015620001d657858101830151858201604001528201620001b8565b506000604082860101526040601f19601f8301168501019250505092915050565b60805160a05160c05160e05161195f6200027e600039600081816101d70152818161099e0152610ba60152600081816102400152610d48015260008181610219015281816107e2015281816108f60152818161097d01528181610ad20152610b8501526000818161014c01528181610356015281816103b001526109f4015261195f6000f3fe608060405234801561001057600080fd5b50600436106100d45760003560e01c8063411557d111610081578063830caefa1161005b578063830caefa146102145780638f3e52de1461023b5780639e1b00451461026257600080fd5b8063411557d1146101d2578063737d7b12146101f957806377ec1ac01461020c57600080fd5b8063158ef93e116100b2578063158ef93e14610186578063243feb99146101aa5780632fb565e8146101bf57600080fd5b8063054d50d4146100d95780630902f1ac146100ff578063117803e314610147575b600080fd5b6100ec6100e73660046112c0565b610275565b6040519081526020015b60405180910390f35b6032546040805167ffffffffffffffff83168152600160401b83046bffffffffffffffffffffffff166020820152600160a01b90920463ffffffff16908201526060016100f6565b61016e7f000000000000000000000000000000000000000000000000000000000000000081565b6040516001600160a01b0390911681526020016100f6565b60325461019a90600160c01b900460ff1681565b60405190151581526020016100f6565b6101bd6101b8366004611308565b610320565b005b6101bd6101cd366004611344565b6103ae565b61016e7f000000000000000000000000000000000000000000000000000000000000000081565b6100ec610207366004611565565b610434565b6101bd61088f565b61016e7f000000000000000000000000000000000000000000000000000000000000000081565b61016e7f000000000000000000000000000000000000000000000000000000000000000081565b6101bd610270366004611344565b6109f2565b600080841180156102865750600083115b80156102925750600082115b6040518060400160405280600581526020017f50433a4536000000000000000000000000000000000000000000000000000000815250906102ef5760405162461bcd60e51b81526004016102e6919061167b565b60405180910390fd5b5060006102fc83866116ab565b9050600061030a86866116ca565b905061031681836116f9565b9695505050505050565b60408051808201909152600681527f50433a453132000000000000000000000000000000000000000000000000000060208201527f00000000000000000000000000000000000000000000000000000000000000006001600160a01b0316331461039d5760405162461bcd60e51b81526004016102e6919061167b565b506103a9838383610c13565b505050565b7f00000000000000000000000000000000000000000000000000000000000000006001600160a01b031633146104265760405162461bcd60e51b815260206004820152601460248201527f496d6d4f776e3a20756e617574686f72697a656400000000000000000000000060448201526064016102e6565b6104308282610c1e565b5050565b6000808888600081811061044a5761044a61170d565b90506020020135905060008787858760405160200161046c9493929190611723565b60408051601f19818403018152919052805160208201209091506104b1907f30644e72e131a029b85045b68181585d2833e84879b9709143e1f593f00000019061173d565b82146040518060400160405280600681526020017f50433a4531330000000000000000000000000000000000000000000000000000815250906105075760405162461bcd60e51b81526004016102e6919061167b565b50505060008888600381811061051f5761051f61170d565b905060200201359050806000146040518060400160405280600681526020017f50433a4531340000000000000000000000000000000000000000000000000000815250906105805760405162461bcd60e51b81526004016102e6919061167b565b50506000806105be60325467ffffffffffffffff8116916bffffffffffffffffffffffff600160401b8304169163ffffffff600160a01b9091041690565b5091509150600081116040518060400160405280600581526020017f50433a45380000000000000000000000000000000000000000000000000000008152509061061b5760405162461bcd60e51b81526004016102e6919061167b565b506000808b8b60048181106106325761063261170d565b9050602002013590506000610648828686610275565b905060008d8d600881811061065f5761065f61170d565b905060200201359050808210156040518060400160405280600581526020017f50433a4537000000000000000000000000000000000000000000000000000000815250906106c05760405162461bcd60e51b81526004016102e6919061167b565b5060408051808201909152600581527f50433a45390000000000000000000000000000000000000000000000000000006020820152898310156107165760405162461bcd60e51b81526004016102e6919061167b565b5080818381610727576107276116e3565b040293508484106040518060400160405280600681526020017f50433a4531300000000000000000000000000000000000000000000000000000815250906107825760405162461bcd60e51b81526004016102e6919061167b565b5050506107cb8c8c8a8d8d8080601f0160208091040260200160405190810160405280939291908181526020018383808284376000920191909152508992508d9150610d2e9050565b945060006107d982866116ca565b905060006108077f000000000000000000000000000000000000000000000000000000000000000030610e1e565b905061081385876116ab565b61081d82846116ab565b10156040518060400160405280600681526020017f50433a4531310000000000000000000000000000000000000000000000000000815250906108735760405162461bcd60e51b81526004016102e6919061167b565b5061087e8282610c1e565b505050505050979650505050505050565b60325460408051808201909152600581527f50433a4533000000000000000000000000000000000000000000000000000000602082015290600160c01b900460ff166108ee5760405162461bcd60e51b81526004016102e6919061167b565b50600061091b7f000000000000000000000000000000000000000000000000000000000000000030610e1e565b905060008061095960325467ffffffffffffffff8116916bffffffffffffffffffffffff600160401b8304169163ffffffff600160a01b9091041690565b509150915080831161096a57505050565b60006109768285611751565b90506109c37f00000000000000000000000000000000000000000000000000000000000000007f000000000000000000000000000000000000000000000000000000000000000083610f83565b60006109d0828486610275565b905060006109de8286611751565b90506109ea8187610c1e565b505050505050565b7f00000000000000000000000000000000000000000000000000000000000000006001600160a01b03163314610a6a5760405162461bcd60e51b815260206004820152601460248201527f496d6d4f776e3a20756e617574686f72697a656400000000000000000000000060448201526064016102e6565b60325460408051808201909152600581527f50433a4532000000000000000000000000000000000000000000000000000000602082015290600160c01b900460ff1615610aca5760405162461bcd60e51b81526004016102e6919061167b565b506000610af77f000000000000000000000000000000000000000000000000000000000000000030610e1e565b9050818110156040518060400160405280600581526020017f50433a453500000000000000000000000000000000000000000000000000000081525090610b515760405162461bcd60e51b81526004016102e6919061167b565b50603280547fffffffffffffff00ffffffffffffffffffffffffffffffffffffffffffffffff16600160c01b179055610bcb7f00000000000000000000000000000000000000000000000000000000000000007f000000000000000000000000000000000000000000000000000000000000000084610f83565b610bd58383610c1e565b60408051848152602081018490527f997896709b4e932ee42750e2e14ed1f7ab6c60bd911ff567aa2485cf0b20051b910160405180910390a1505050565b6103a983838361109d565b610c278261111c565b6032805467ffffffffffffffff191667ffffffffffffffff92909216919091179055610c5281611175565b603260086101000a8154816bffffffffffffffffffffffff02191690836bffffffffffffffffffffffff160217905550610c8b426111d3565b6032805463ffffffff92909216600160a01b027fffffffffffffffff00000000ffffffffffffffffffffffffffffffffffffffff83168117918290556040805167ffffffffffffffff928316929094169190911783526bffffffffffffffffffffffff600160401b9092049190911660208301527f1c411e9a96e071241c2f21f7726b17ae89e3cab4c78be50e062b03a9fffbbad1910160405180910390a15050565b6040516301bf87f160e71b81526000906001600160a01b037f0000000000000000000000000000000000000000000000000000000000000000169063dfc3f88090610d87908a908a908a908a908a908a9060040161178d565b6020604051808303816000875af1925050508015610dc2575060408051601f3d908101601f19168201909252610dbf91810190611855565b60015b610e1357610dce61186e565b806308c379a003610e075750610de261188a565b80610ded5750610e09565b8060405162461bcd60e51b81526004016102e6919061167b565b505b3d6000803e3d6000fd5b979650505050505050565b6000806000846001600160a01b03166370a0823185604051602401610e5291906001600160a01b0391909116815260200190565b6040516020818303038152906040529060e01b6020820180517bffffffffffffffffffffffffffffffffffffffffffffffffffffffff8381831617835250505050604051610ea09190611914565b6000604051808303816000865af19150503d8060008114610edd576040519150601f19603f3d011682016040523d82523d6000602084013e610ee2565b606091505b5091509150818015610ef45750805115155b610f665760405162461bcd60e51b815260206004820152602560248201527f5472616e7366657248656c7065723a2062616c616e63654f662063616c6c206660448201527f61696c656400000000000000000000000000000000000000000000000000000060648201526084016102e6565b80806020019051810190610f7a9190611855565b95945050505050565b82803b610fd25760405162461bcd60e51b815260206004820152601d60248201527f5472616e7366657248656c7065723a207a65726f20636f646573697a6500000060448201526064016102e6565b6040516001600160a01b0384811660248301526044820184905260009182918716906339509351906064015b6040516020818303038152906040529060e01b6020820180517bffffffffffffffffffffffffffffffffffffffffffffffffffffffff838183161783525050505060405161104c9190611914565b6000604051808303816000865af19150503d8060008114611089576040519150601f19603f3d011682016040523d82523d6000602084013e61108e565b606091505b50915091506109ea8282611229565b82803b6110ec5760405162461bcd60e51b815260206004820152601d60248201527f5472616e7366657248656c7065723a207a65726f20636f646573697a6500000060448201526064016102e6565b6040516001600160a01b03848116602483015260448201849052600091829187169063a9059cbb90606401610ffe565b6000600160401b82106111715760405162461bcd60e51b815260206004820152600860248201527f554e53414645363400000000000000000000000000000000000000000000000060448201526064016102e6565b5090565b60006c0100000000000000000000000082106111715760405162461bcd60e51b815260206004820152600860248201527f554e53414645393600000000000000000000000000000000000000000000000060448201526064016102e6565b600064010000000082106111715760405162461bcd60e51b815260206004820152600860248201527f554e53414645333200000000000000000000000000000000000000000000000060448201526064016102e6565b81801561124e57508051158061124e57508080602001905181019061124e9190611930565b6104305760405162461bcd60e51b815260206004820152602a60248201527f5472616e7366657248656c7065723a20746f6b656e20636f6e7472616374206360448201527f616c6c206661696c65640000000000000000000000000000000000000000000060648201526084016102e6565b6000806000606084860312156112d557600080fd5b505081359360208301359350604090920135919050565b80356001600160a01b038116811461130357600080fd5b919050565b60008060006060848603121561131d57600080fd5b611326846112ec565b9250611334602085016112ec565b9150604084013590509250925092565b6000806040838503121561135757600080fd5b50508035926020909101359150565b60008083601f84011261137857600080fd5b50813567ffffffffffffffff81111561139057600080fd5b6020830191508360208285010111156113a857600080fd5b9250929050565b634e487b7160e01b600052604160045260246000fd5b6040810181811067ffffffffffffffff821117156113e5576113e56113af565b60405250565b601f8201601f1916810167ffffffffffffffff81118282101715611411576114116113af565b6040525050565b60006040828403121561142a57600080fd5b6040516040810181811067ffffffffffffffff8211171561144d5761144d6113af565b604052823581526020928301359281019290925250919050565b600082601f83011261147857600080fd5b604051611484816113c5565b80604084018581111561149657600080fd5b845b818110156114b0578035835260209283019201611498565b509195945050505050565b60008183036101008112156114cf57600080fd5b6040516060810181811067ffffffffffffffff821117156114f2576114f26113af565b6040529150816115028585611418565b81526080603f198301121561151657600080fd5b6040519150611524826113c5565b6115318560408601611467565b82526115408560808601611467565b60208301528160208201526115588560c08601611418565b6040820152505092915050565b6000806000806000806000610180888a03121561158157600080fd5b873567ffffffffffffffff8082111561159957600080fd5b818a0191508a601f8301126115ad57600080fd5b8135818111156115bc57600080fd5b8b60208260051b85010111156115d157600080fd5b6020928301995097509089013590808211156115ec57600080fd5b506115f98a828b01611366565b909650945061160d90508960408a016114bb565b92506101408801359150610160880135905092959891949750929550565b60005b8381101561164657818101518382015260200161162e565b50506000910152565b6000815180845261166781602086016020860161162b565b601f01601f19169290920160200192915050565b60208152600061168e602083018461164f565b9392505050565b634e487b7160e01b600052601160045260246000fd5b60008160001904831182151516156116c5576116c5611695565b500290565b808201808211156116dd576116dd611695565b92915050565b634e487b7160e01b600052601260045260246000fd5b600082611708576117086116e3565b500490565b634e487b7160e01b600052603260045260246000fd5b838582379092019081526020810191909152604001919050565b60008261174c5761174c6116e3565b500690565b818103818111156116dd576116dd611695565b8060005b6002811015611787578151845260209384019390910190600101611768565b50505050565b610180808252810186905260006101a07f07ffffffffffffffffffffffffffffffffffffffffffffffffffffffffffffff8811156117ca57600080fd5b8760051b808a838601378751805160208087019190915201516040850152830160208801516117fd606086018251611764565b6020015161180e60a0860182611764565b506040880151805160e086015260200151610100850152838103820161012085015261183c8183018861164f565b6101408501969096525050506101600152949350505050565b60006020828403121561186757600080fd5b5051919050565b600060033d11156118875760046000803e5060005160e01c5b90565b600060443d10156118985790565b6040516003193d81016004833e81513d67ffffffffffffffff81602484011181841117156118c857505050505090565b82850191508151818111156118e05750505050505090565b843d87010160208285010111156118fa5750505050505090565b611909602082860101876113eb565b509095945050505050565b6000825161192681846020870161162b565b9190910192915050565b60006020828403121561194257600080fd5b8151801515811461168e57600080fdfea164736f6c6343000810000a",
  "devdoc": {
    "kind": "dev",
    "methods": {
      "convert(uint256[],bytes,((uint256,uint256),(uint256[2],uint256[2]),(uint256,uint256)),uint256,uint256)": {
        "details": "It converts prp to zZkp. The msg.sender should approve pantherPool to transfer the ZKPs to the vault in order to create new zAsset utxo. In ideal case, the msg sender is prpConverter. This function also spend the old zAccount utxo and creates new one with decreased prp balance.",
        "params": {
          "cachedForestRootIndex": "forest merkle root index. 0 means the most updated root.",
          "inputs": "[14] - magicalConstraint;",
          "privateMessages": "the private message that contains zAccount utxo data. zAccount utxo data contains bytes1 msgType, bytes32 ephemeralKey and bytes64 cypherText This data is used to spend the newly created utxo.",
          "proof": "A proof associated with the zAccount and a secret.",
          "zkpAmountOutMin": "Minimum zZkp to receive."
        }
      },
      "rescueErc20(address,address,uint256)": {
        "details": "May be only called by the {OWNER}"
      }
    },
    "version": 1
  },
  "userdoc": {
    "kind": "user",
    "methods": {
      "OWNER()": {
        "notice": "The owner who has privileged rights"
      },
      "PANTHER_POOL()": {
        "notice": "Address of the PantherPool contract"
      },
      "VAULT()": {
        "notice": "Address of the Vault contract"
      },
      "ZKP_TOKEN()": {
        "notice": "Address of the $ZKP token contract"
      },
      "convert(uint256[],bytes,((uint256,uint256),(uint256[2],uint256[2]),(uint256,uint256)),uint256,uint256)": {
        "notice": "Accounts prp conversion"
      }
    },
    "version": 1
  },
  "storageLayout": {
    "storage": [
      {
        "astId": 9872,
        "contract": "contracts/protocol/PrpConverter.sol:PrpConverter",
        "label": "__gap",
        "offset": 0,
        "slot": "0",
        "type": "t_array(t_uint256)50_storage"
      },
      {
        "astId": 9883,
        "contract": "contracts/protocol/PrpConverter.sol:PrpConverter",
        "label": "prpReserve",
        "offset": 0,
        "slot": "50",
        "type": "t_uint64"
      },
      {
        "astId": 9885,
        "contract": "contracts/protocol/PrpConverter.sol:PrpConverter",
        "label": "zkpReserve",
        "offset": 8,
        "slot": "50",
        "type": "t_uint96"
      },
      {
        "astId": 9887,
        "contract": "contracts/protocol/PrpConverter.sol:PrpConverter",
        "label": "blockTimestampLast",
        "offset": 20,
        "slot": "50",
        "type": "t_uint32"
      },
      {
        "astId": 9889,
        "contract": "contracts/protocol/PrpConverter.sol:PrpConverter",
        "label": "initialized",
        "offset": 24,
        "slot": "50",
        "type": "t_bool"
      }
    ],
    "types": {
      "t_array(t_uint256)50_storage": {
        "base": "t_uint256",
        "encoding": "inplace",
        "label": "uint256[50]",
        "numberOfBytes": "1600"
      },
      "t_bool": {
        "encoding": "inplace",
        "label": "bool",
        "numberOfBytes": "1"
      },
      "t_uint256": {
        "encoding": "inplace",
        "label": "uint256",
        "numberOfBytes": "32"
      },
      "t_uint32": {
        "encoding": "inplace",
        "label": "uint32",
        "numberOfBytes": "4"
      },
      "t_uint64": {
        "encoding": "inplace",
        "label": "uint64",
        "numberOfBytes": "8"
      },
      "t_uint96": {
        "encoding": "inplace",
        "label": "uint96",
        "numberOfBytes": "12"
      }
    }
  }
}