{
  "address": "0x386a64E8E8e50e40D75f3C3570aeBc8427b3E665",
  "abi": [
    {
      "inputs": [
        {
          "internalType": "address",
          "name": "_owner",
          "type": "address"
        },
        {
          "internalType": "address",
          "name": "_pantherPoolV1",
          "type": "address"
        }
      ],
      "stateMutability": "nonpayable",
      "type": "constructor"
    },
    {
      "anonymous": false,
      "inputs": [
        {
          "indexed": true,
          "internalType": "bytes32",
          "name": "secretHash",
          "type": "bytes32"
        }
      ],
      "name": "RewardClaimed",
      "type": "event"
    },
    {
      "anonymous": false,
      "inputs": [
        {
          "indexed": true,
          "internalType": "bytes32",
          "name": "secretHash",
          "type": "bytes32"
        },
        {
          "indexed": false,
          "internalType": "uint256",
          "name": "prpAmount",
          "type": "uint256"
        }
      ],
      "name": "RewardVoucherGenerated",
      "type": "event"
    },
    {
      "anonymous": false,
      "inputs": [
        {
          "indexed": false,
          "internalType": "address",
          "name": "allowedContract",
          "type": "address"
        },
        {
          "indexed": false,
          "internalType": "bytes4",
          "name": "voucherType",
          "type": "bytes4"
        },
        {
          "indexed": false,
          "internalType": "uint64",
          "name": "limit",
          "type": "uint64"
        },
        {
          "indexed": false,
          "internalType": "uint64",
          "name": "amount",
          "type": "uint64"
        }
      ],
      "name": "VoucherTermsUpdated",
      "type": "event"
    },
    {
      "inputs": [],
      "name": "OWNER",
      "outputs": [
        {
          "internalType": "address",
          "name": "",
          "type": "address"
        }
      ],
      "stateMutability": "view",
      "type": "function"
    },
    {
      "inputs": [],
      "name": "PANTHER_POOL_V1",
      "outputs": [
        {
          "internalType": "contract IPantherPoolV1",
          "name": "",
          "type": "address"
        }
      ],
      "stateMutability": "view",
      "type": "function"
    },
    {
      "inputs": [
        {
          "internalType": "bytes32",
          "name": "",
          "type": "bytes32"
        }
      ],
      "name": "balance",
      "outputs": [
        {
          "internalType": "uint256",
          "name": "",
          "type": "uint256"
        }
      ],
      "stateMutability": "view",
      "type": "function"
    },
    {
      "inputs": [
        {
          "internalType": "uint256[]",
          "name": "inputs",
          "type": "uint256[]"
        },
        {
          "internalType": "bytes",
          "name": "privateMessages",
          "type": "bytes"
        },
        {
          "components": [
            {
              "components": [
                {
                  "internalType": "uint256",
                  "name": "x",
                  "type": "uint256"
                },
                {
                  "internalType": "uint256",
                  "name": "y",
                  "type": "uint256"
                }
              ],
              "internalType": "struct G1Point",
              "name": "a",
              "type": "tuple"
            },
            {
              "components": [
                {
                  "internalType": "uint256[2]",
                  "name": "x",
                  "type": "uint256[2]"
                },
                {
                  "internalType": "uint256[2]",
                  "name": "y",
                  "type": "uint256[2]"
                }
              ],
              "internalType": "struct G2Point",
              "name": "b",
              "type": "tuple"
            },
            {
              "components": [
                {
                  "internalType": "uint256",
                  "name": "x",
                  "type": "uint256"
                },
                {
                  "internalType": "uint256",
                  "name": "y",
                  "type": "uint256"
                }
              ],
              "internalType": "struct G1Point",
              "name": "c",
              "type": "tuple"
            }
          ],
          "internalType": "struct SnarkProof",
          "name": "proof",
          "type": "tuple"
        },
        {
          "internalType": "uint256",
          "name": "cachedForestRootIndex",
          "type": "uint256"
        }
      ],
      "name": "claimRewards",
      "outputs": [
        {
          "internalType": "uint256",
          "name": "utxoBusQueuePos",
          "type": "uint256"
        }
      ],
      "stateMutability": "nonpayable",
      "type": "function"
    },
    {
      "inputs": [
        {
          "internalType": "bytes32",
          "name": "_secretHash",
          "type": "bytes32"
        },
        {
          "internalType": "uint64",
          "name": "_amount",
          "type": "uint64"
        },
        {
          "internalType": "bytes4",
          "name": "_voucherType",
          "type": "bytes4"
        }
      ],
      "name": "generateRewards",
      "outputs": [
        {
          "internalType": "uint256",
          "name": "",
          "type": "uint256"
        }
      ],
      "stateMutability": "nonpayable",
      "type": "function"
    },
    {
      "inputs": [
        {
          "internalType": "address",
          "name": "_allowedContract",
          "type": "address"
        },
        {
          "internalType": "bytes4",
          "name": "_voucherType",
          "type": "bytes4"
        },
        {
          "internalType": "uint64",
          "name": "_limit",
          "type": "uint64"
        },
        {
          "internalType": "uint64",
          "name": "_amount",
          "type": "uint64"
        },
        {
          "internalType": "bool",
          "name": "_enabled",
          "type": "bool"
        }
      ],
      "name": "updateVoucherTerms",
      "outputs": [],
      "stateMutability": "nonpayable",
      "type": "function"
    },
    {
      "inputs": [
        {
          "internalType": "address",
          "name": "",
          "type": "address"
        },
        {
          "internalType": "bytes4",
          "name": "",
          "type": "bytes4"
        }
      ],
      "name": "voucherTerms",
      "outputs": [
        {
          "internalType": "uint64",
          "name": "rewardsGranted",
          "type": "uint64"
        },
        {
          "internalType": "uint64",
          "name": "limit",
          "type": "uint64"
        },
        {
          "internalType": "uint64",
          "name": "amount",
          "type": "uint64"
        },
        {
          "internalType": "bool",
          "name": "enabled",
          "type": "bool"
        },
        {
          "internalType": "uint56",
          "name": "_reserved",
          "type": "uint56"
        }
      ],
      "stateMutability": "view",
      "type": "function"
    }
  ],
  "transactionHash": "0x7ad6039d17331c13f6291cd15a77fbe76b078a80a3aa0388d3789d2366ae1144",
  "args": [
    "0xfB474a7FeCDaFBD412ebF0d60A0C32794F82d3dD",
    "0xfDfD920F2152565E9D7b589e4e9faeE6699AD4bd"
  ],
  "numDeployments": 5,
  "solcInputHash": "e07d00e15da450650eee85a11885296a",
  "bytecode": "0x60c0604052603280546001600160401b03191660011790553480156200002457600080fd5b50604051620013d4380380620013d4833981016040819052620000479162000146565b816001600160a01b038116620000a45760405162461bcd60e51b815260206004820152601a60248201527f496d6d4f776e3a207a65726f206f776e6572206164647265737300000000000060448201526064015b60405180910390fd5b6001600160a01b0316608052620000bb81620000ce565b6001600160a01b031660a052506200017e565b6001600160a01b038116620001265760405162461bcd60e51b815260206004820152601760248201527f554e45585045435445445f5a45524f5f4144445245535300000000000000000060448201526064016200009b565b50565b80516001600160a01b03811681146200014157600080fd5b919050565b600080604083850312156200015a57600080fd5b620001658362000129565b9150620001756020840162000129565b90509250929050565b60805160a051611224620001b06000396000818160ec0152610b910152600081816087015261088701526112246000f3fe608060405234801561001057600080fd5b506004361061007d5760003560e01c806389eba4211161005b57806389eba4211461010e5780638abfdf871461012e578063bd37399414610141578063e85c3cb0146101f057600080fd5b8063117803e3146100825780631f60f44a146100c657806344ba7d51146100e7575b600080fd5b6100a97f000000000000000000000000000000000000000000000000000000000000000081565b6040516001600160a01b0390911681526020015b60405180910390f35b6100d96100d4366004610d8d565b610205565b6040519081526020016100bd565b6100a97f000000000000000000000000000000000000000000000000000000000000000081565b6100d961011c366004610e40565b60336020526000908152604090205481565b6100d961013c366004610e8e565b6105bb565b6101ac61014f366004610ee1565b603460209081526000928352604080842090915290825290205467ffffffffffffffff80821691680100000000000000008104821691600160801b82041690600160c01b810460ff1690600160c81b900466ffffffffffffff1685565b6040805167ffffffffffffffff9687168152948616602086015292909416918301919091521515606082015266ffffffffffffff909116608082015260a0016100bd565b6102036101fe366004610f14565b610885565b005b6000808686600d81811061021b5761021b610f82565b60209081029290920135600081815260339093526040909220546032549293509167ffffffffffffffff16821190506102c15760405162461bcd60e51b815260206004820152602560248201527f507270566f75636865724772616e746f723a204e6f2072657761726420746f2060448201527f636c61696d00000000000000000000000000000000000000000000000000000060648201526084015b60405180910390fd5b6000888860048181106102d6576102d6610f82565b905060200201359050806000146103555760405162461bcd60e51b815260206004820152602f60248201527f507270566f75636865724772616e746f723a204e6f6e207a65726f207769746860448201527f6472617720616d6f756e7420707270000000000000000000000000000000000060648201526084016102b8565b5060008888600381811061036b5761036b610f82565b90506020020135905067ffffffffffffffff8111156103f25760405162461bcd60e51b815260206004820152602760248201527f507270566f75636865724772616e746f723a20546f6f206c617267652070727060448201527f20616d6f756e740000000000000000000000000000000000000000000000000060648201526084016102b8565b8082146104675760405162461bcd60e51b815260206004820152602b60248201527f507270566f75636865724772616e746f723a20496e636f72726563742072657760448201527f6172642062616c616e636500000000000000000000000000000000000000000060648201526084016102b8565b5060008888600081811061047d5761047d610f82565b9050602002013590506000878660405160200161049b929190610fbc565b60408051601f19818403018152919052805160208201209091506104e0907f30644e72e131a029b85045b68181585d2833e84879b9709143e1f593f000000190610fde565b82146105545760405162461bcd60e51b815260206004820152602b60248201527f507270566f75636865724772616e746f723a20496e76616c696420657874726160448201527f20696e707574206861736800000000000000000000000000000000000000000060648201526084016102b8565b5050603254600083815260336020526040902067ffffffffffffffff90911690556105828888878988610b77565b60405190935082907f1d0eb023ad533d7ca88117e904d40b4d1d92a113aedffb0ae7cecbeae9987e0b90600090a2505095945050505050565b3360009081526034602090815260408083206001600160e01b0319851684529091528120548290600160c01b900460ff1661065e5760405162461bcd60e51b815260206004820152603360248201527f507270566f75636865724772616e746f723a20496e616374697665206f72206960448201527f6e76616c696420766f756368657220747970650000000000000000000000000060648201526084016102b8565b3360009081526034602090815260408083206001600160e01b0319871684528252808320815160a081018352905467ffffffffffffffff8082168352680100000000000000008204811694830194909452600160801b8104841692820192909252600160c01b820460ff1615156060820152600160c81b90910466ffffffffffffff166080820152919086166106f85781604001516106fa565b855b9050816020015167ffffffffffffffff1681836000015161071b9190611016565b67ffffffffffffffff1611156107365760009350505061087d565b60325460008881526033602052604090205467ffffffffffffffff909116101561078d576000878152603360205260408120805467ffffffffffffffff8416929061078290849061103e565b909155506107c39050565b6032546107a590829067ffffffffffffffff16611016565b600088815260336020526040902067ffffffffffffffff9190911690555b3360009081526034602090815260408083206001600160e01b0319891684529091528120805483929061080190849067ffffffffffffffff16611016565b92506101000a81548167ffffffffffffffff021916908367ffffffffffffffff160217905550867f333ec773258dd165a05b0a80e10fe36df819de075d42d667ba12533380368a3f82604051610867919067ffffffffffffffff91909116815260200190565b60405180910390a267ffffffffffffffff169250505b509392505050565b7f00000000000000000000000000000000000000000000000000000000000000006001600160a01b031633146108fd5760405162461bcd60e51b815260206004820152601460248201527f496d6d4f776e3a20756e617574686f72697a656400000000000000000000000060448201526064016102b8565b61090685610c64565b6001600160a01b03851660009081526034602090815260408083206001600160e01b03198816845290915290205467ffffffffffffffff16806109498486611016565b67ffffffffffffffff1610156109c75760405162461bcd60e51b815260206004820152603e60248201527f507270566f75636865724772616e746f723a204c696d69742063616e6e6f742060448201527f6265206c657373207468616e20726577617264732067656e657261746564000060648201526084016102b8565b6040805160a08101825267ffffffffffffffff80841682528681166020808401918252878316848601908152871515606086019081526000608087018181526001600160a01b038f168252603485528882206001600160e01b03198f16835290945287902095518654945192519151935166ffffffffffffff16600160c81b0278ffffffffffffffffffffffffffffffffffffffffffffffffff941515600160c01b027fffffffffffffff00ffffffffffffffffffffffffffffffffffffffffffffffff938816600160801b02939093167fffffffffffffff000000000000000000ffffffffffffffffffffffffffffffff94881668010000000000000000026fffffffffffffffffffffffffffffffff1990971692909716919091179490941791909116939093179290921791909116179055517f8dd4edec761e0d339fcdff8e7cbbb774e5ebe9b848ce7ca0a55fc239bdc0806f90610b679088908890889088906001600160a01b039490941684526001600160e01b031992909216602084015267ffffffffffffffff908116604084015216606082015260800190565b60405180910390a1505050505050565b60405163e94ecd3560e01b81526000906001600160a01b037f0000000000000000000000000000000000000000000000000000000000000000169063e94ecd3590610bce9089908990899089908990600401611083565b6020604051808303816000875af1925050508015610c09575060408051601f3d908101601f19168201909252610c069181019061113e565b60015b610c5a57610c15611157565b806308c379a003610c4e5750610c29611173565b80610c345750610c50565b8060405162461bcd60e51b81526004016102b891906111fd565b505b3d6000803e3d6000fd5b9695505050505050565b6001600160a01b038116610cba5760405162461bcd60e51b815260206004820152601760248201527f554e45585045435445445f5a45524f5f4144445245535300000000000000000060448201526064016102b8565b50565b634e487b7160e01b600052604160045260246000fd5b601f8201601f1916810167ffffffffffffffff81118282101715610cf957610cf9610cbd565b6040525050565b600082601f830112610d1157600080fd5b813567ffffffffffffffff811115610d2b57610d2b610cbd565b604051610d42601f8301601f191660200182610cd3565b818152846020838601011115610d5757600080fd5b816020850160208301376000918101602001919091529392505050565b60006101008284031215610d8757600080fd5b50919050565b60008060008060006101608688031215610da657600080fd5b853567ffffffffffffffff80821115610dbe57600080fd5b818801915088601f830112610dd257600080fd5b813581811115610de157600080fd5b8960208260051b8501011115610df657600080fd5b602092830197509550908701359080821115610e1157600080fd5b50610e1e88828901610d00565b935050610e2e8760408801610d74565b94979396509194610140013592915050565b600060208284031215610e5257600080fd5b5035919050565b803567ffffffffffffffff81168114610e7157600080fd5b919050565b80356001600160e01b031981168114610e7157600080fd5b600080600060608486031215610ea357600080fd5b83359250610eb360208501610e59565b9150610ec160408501610e76565b90509250925092565b80356001600160a01b0381168114610e7157600080fd5b60008060408385031215610ef457600080fd5b610efd83610eca565b9150610f0b60208401610e76565b90509250929050565b600080600080600060a08688031215610f2c57600080fd5b610f3586610eca565b9450610f4360208701610e76565b9350610f5160408701610e59565b9250610f5f60608701610e59565b915060808601358015158114610f7457600080fd5b809150509295509295909350565b634e487b7160e01b600052603260045260246000fd5b60005b83811015610fb3578181015183820152602001610f9b565b50506000910152565b60008351610fce818460208801610f98565b9190910191825250602001919050565b600082610ffb57634e487b7160e01b600052601260045260246000fd5b500690565b634e487b7160e01b600052601160045260246000fd5b67ffffffffffffffff81811683821601908082111561103757611037611000565b5092915050565b8082018082111561105157611051611000565b92915050565b6000815180845261106f816020860160208601610f98565b601f01601f19169290920160200192915050565b610160808252810185905260006101807f07ffffffffffffffffffffffffffffffffffffffffffffffffffffffffffffff8711156110c057600080fd5b8660051b80898386013783016110e3602085018880358252602090810135910152565b6040808801606086013760406080880160a086013761111260e0850160c0890180358252602090810135910152565b818482030161012085015261112982820187611057565b92505050826101408301529695505050505050565b60006020828403121561115057600080fd5b5051919050565b600060033d11156111705760046000803e5060005160e01c5b90565b600060443d10156111815790565b6040516003193d81016004833e81513d67ffffffffffffffff81602484011181841117156111b157505050505090565b82850191508151818111156111c95750505050505090565b843d87010160208285010111156111e35750505050505090565b6111f260208286010187610cd3565b509095945050505050565b6020815260006112106020830184611057565b939250505056fea164736f6c6343000810000a",
  "devdoc": {
    "events": {
      "RewardClaimed(bytes32)": {
        "details": "Emitted when a reward voucher is successfully claimed.",
        "params": {
          "secretHash": "The secret hash for the claimed reward voucher."
        }
      },
      "RewardVoucherGenerated(bytes32,uint256)": {
        "details": "Emitted when a new reward voucher is generated.",
        "params": {
          "secretHash": "The secret hash for the reward voucher."
        }
      },
      "VoucherTermsUpdated(address,bytes4,uint64,uint64)": {
        "details": "Emitted when the voucher terms are updated.",
        "params": {
          "allowedContract": "The address of the contract allowed to generate reward vouchers.",
          "amount": "The amount of the reward voucher.",
          "limit": "The limit of the reward voucher.",
          "voucherType": "The type of the reward voucher."
        }
      }
    },
    "kind": "dev",
    "methods": {
      "claimRewards(uint256[],bytes,((uint256,uint256),(uint256[2],uint256[2]),(uint256,uint256)),uint256)": {
        "params": {
          "cachedForestRootIndex": "forest merkle root index. 0 means the most updated root.",
          "inputs": "[14] - magicalConstraint;",
          "privateMessages": "the private message that contains zAccount utxo data. zAccount utxo data contains bytes1 msgType, bytes32 ephemeralKey and bytes64 cypherText This data is used to spend the newly created utxo.",
          "proof": "A proof associated with the zAccount and a secret."
        }
      },
      "constructor": {
        "params": {
          "_owner": "The owner of the PrpVoucherGrantor contract.",
          "_pantherPoolV1": "The address of the pool contract."
        }
      },
      "generateRewards(bytes32,uint64,bytes4)": {
        "params": {
          "_amount": "The amount of the reward voucher.",
          "_secretHash": "The secret hash for the reward voucher.",
          "_voucherType": "The type of the reward voucher."
        },
        "returns": {
          "_0": "The prp amount which has be granted."
        }
      },
      "updateVoucherTerms(address,bytes4,uint64,uint64,bool)": {
        "params": {
          "_allowedContract": "The address of the contract allowed to generate reward vouchers.",
          "_amount": "The amount of PRP to grant for the voucher.",
          "_enabled": "The status of the voucher type.",
          "_limit": "The limit for the voucher grants.",
          "_voucherType": "The type of the reward voucher."
        }
      }
    },
    "title": "PrpVoucherGrantor",
    "version": 1
  },
  "userdoc": {
    "kind": "user",
    "methods": {
      "OWNER()": {
        "notice": "The owner who has privileged rights"
      },
      "claimRewards(uint256[],bytes,((uint256,uint256),(uint256[2],uint256[2]),(uint256,uint256)),uint256)": {
        "notice": "Accounts prp to zAccount"
      },
      "constructor": {
        "notice": "Constructor that sets the initial owner, pool contract and verifier contract."
      },
      "generateRewards(bytes32,uint64,bytes4)": {
        "notice": "Generates a reward voucher for a given secret hash and voucher type."
      },
      "updateVoucherTerms(address,bytes4,uint64,uint64,bool)": {
        "notice": "Sets the terms for action rewards for a given voucher type."
      }
    },
    "notice": "The PRPGrantor smart contract is designed to facilitate rewarding users with Panther Protocol rewards (nominated in PRPs) other than rewards generated by/within MASP transactions. Reward claims to be generated and utilised by users. The contract maintains a mapping of claimable PRP balances  associated with individual secrets. It accumulates generated claims associated with the same secret. A claim utilisation results in increasing the PRP balance inside the zAccount of a user by the amount of the claim. To utilise a claim (its entire balance) associated with a secret, a user must provide proof of zAccount ownership and knowledge of the secret. The contract owner has the authority to update the terms, and the smart contract is upgradable to extend the action list as needed upon DAO voting.",
    "version": 1
  },
  "storageLayout": {
    "storage": [
      {
        "astId": 3229,
        "contract": "contracts/protocol/PrpVoucherGrantor.sol:PrpVoucherGrantor",
        "label": "__gap",
        "offset": 0,
        "slot": "0",
        "type": "t_array(t_uint256)50_storage"
      },
      {
        "astId": 3235,
        "contract": "contracts/protocol/PrpVoucherGrantor.sol:PrpVoucherGrantor",
        "label": "ZERO_VALUE",
        "offset": 0,
        "slot": "50",
        "type": "t_uint64"
      },
      {
        "astId": 3239,
        "contract": "contracts/protocol/PrpVoucherGrantor.sol:PrpVoucherGrantor",
        "label": "balance",
        "offset": 0,
        "slot": "51",
        "type": "t_mapping(t_bytes32,t_uint256)"
      },
      {
        "astId": 3246,
        "contract": "contracts/protocol/PrpVoucherGrantor.sol:PrpVoucherGrantor",
        "label": "voucherTerms",
        "offset": 0,
        "slot": "52",
        "type": "t_mapping(t_address,t_mapping(t_bytes4,t_struct(VoucherTerms)3257_storage))"
      }
    ],
    "types": {
      "t_address": {
        "encoding": "inplace",
        "label": "address",
        "numberOfBytes": "20"
      },
      "t_array(t_uint256)50_storage": {
        "base": "t_uint256",
        "encoding": "inplace",
        "label": "uint256[50]",
        "numberOfBytes": "1600"
      },
      "t_bool": {
        "encoding": "inplace",
        "label": "bool",
        "numberOfBytes": "1"
      },
      "t_bytes32": {
        "encoding": "inplace",
        "label": "bytes32",
        "numberOfBytes": "32"
      },
      "t_bytes4": {
        "encoding": "inplace",
        "label": "bytes4",
        "numberOfBytes": "4"
      },
      "t_mapping(t_address,t_mapping(t_bytes4,t_struct(VoucherTerms)3257_storage))": {
        "encoding": "mapping",
        "key": "t_address",
        "label": "mapping(address => mapping(bytes4 => struct PrpVoucherGrantor.VoucherTerms))",
        "numberOfBytes": "32",
        "value": "t_mapping(t_bytes4,t_struct(VoucherTerms)3257_storage)"
      },
      "t_mapping(t_bytes32,t_uint256)": {
        "encoding": "mapping",
        "key": "t_bytes32",
        "label": "mapping(bytes32 => uint256)",
        "numberOfBytes": "32",
        "value": "t_uint256"
      },
      "t_mapping(t_bytes4,t_struct(VoucherTerms)3257_storage)": {
        "encoding": "mapping",
        "key": "t_bytes4",
        "label": "mapping(bytes4 => struct PrpVoucherGrantor.VoucherTerms)",
        "numberOfBytes": "32",
        "value": "t_struct(VoucherTerms)3257_storage"
      },
      "t_struct(VoucherTerms)3257_storage": {
        "encoding": "inplace",
        "label": "struct PrpVoucherGrantor.VoucherTerms",
        "members": [
          {
            "astId": 3248,
            "contract": "contracts/protocol/PrpVoucherGrantor.sol:PrpVoucherGrantor",
            "label": "rewardsGranted",
            "offset": 0,
            "slot": "0",
            "type": "t_uint64"
          },
          {
            "astId": 3250,
            "contract": "contracts/protocol/PrpVoucherGrantor.sol:PrpVoucherGrantor",
            "label": "limit",
            "offset": 8,
            "slot": "0",
            "type": "t_uint64"
          },
          {
            "astId": 3252,
            "contract": "contracts/protocol/PrpVoucherGrantor.sol:PrpVoucherGrantor",
            "label": "amount",
            "offset": 16,
            "slot": "0",
            "type": "t_uint64"
          },
          {
            "astId": 3254,
            "contract": "contracts/protocol/PrpVoucherGrantor.sol:PrpVoucherGrantor",
            "label": "enabled",
            "offset": 24,
            "slot": "0",
            "type": "t_bool"
          },
          {
            "astId": 3256,
            "contract": "contracts/protocol/PrpVoucherGrantor.sol:PrpVoucherGrantor",
            "label": "_reserved",
            "offset": 25,
            "slot": "0",
            "type": "t_uint56"
          }
        ],
        "numberOfBytes": "32"
      },
      "t_uint256": {
        "encoding": "inplace",
        "label": "uint256",
        "numberOfBytes": "32"
      },
      "t_uint56": {
        "encoding": "inplace",
        "label": "uint56",
        "numberOfBytes": "7"
      },
      "t_uint64": {
        "encoding": "inplace",
        "label": "uint64",
        "numberOfBytes": "8"
      }
    }
  }
}