{
  "address": "0xa3a4a395DE94520e30e6FAdD263BB3DA434059f5",
  "abi": [
    {
      "anonymous": false,
      "inputs": [
        {
          "indexed": true,
          "internalType": "address",
          "name": "previousOwner",
          "type": "address"
        },
        {
          "indexed": true,
          "internalType": "address",
          "name": "newOwner",
          "type": "address"
        }
      ],
      "name": "OwnershipTransferred",
      "type": "event"
    },
    {
      "inputs": [],
      "name": "ZKP",
      "outputs": [
        {
          "internalType": "address",
          "name": "",
          "type": "address"
        }
      ],
      "stateMutability": "view",
      "type": "function"
    },
    {
      "inputs": [],
      "name": "distribute",
      "outputs": [],
      "stateMutability": "nonpayable",
      "type": "function"
    },
    {
      "inputs": [],
      "name": "getUsers",
      "outputs": [
        {
          "components": [
            {
              "internalType": "address",
              "name": "user",
              "type": "address"
            },
            {
              "internalType": "uint256",
              "name": "rewards",
              "type": "uint256"
            }
          ],
          "internalType": "struct RewardManager.User[]",
          "name": "",
          "type": "tuple[]"
        }
      ],
      "stateMutability": "view",
      "type": "function"
    },
    {
      "inputs": [],
      "name": "owner",
      "outputs": [
        {
          "internalType": "address",
          "name": "",
          "type": "address"
        }
      ],
      "stateMutability": "view",
      "type": "function"
    },
    {
      "inputs": [],
      "name": "renounceOwnership",
      "outputs": [],
      "stateMutability": "nonpayable",
      "type": "function"
    },
    {
      "inputs": [
        {
          "internalType": "address",
          "name": "newOwner",
          "type": "address"
        }
      ],
      "name": "transferOwnership",
      "outputs": [],
      "stateMutability": "nonpayable",
      "type": "function"
    },
    {
      "inputs": [
        {
          "components": [
            {
              "internalType": "address",
              "name": "user",
              "type": "address"
            },
            {
              "internalType": "uint256",
              "name": "rewards",
              "type": "uint256"
            }
          ],
          "internalType": "struct RewardManager.User[]",
          "name": "_users",
          "type": "tuple[]"
        }
      ],
      "name": "updateUsers",
      "outputs": [],
      "stateMutability": "nonpayable",
      "type": "function"
    },
    {
      "inputs": [
        {
          "internalType": "uint256",
          "name": "",
          "type": "uint256"
        }
      ],
      "name": "users",
      "outputs": [
        {
          "internalType": "address",
          "name": "user",
          "type": "address"
        },
        {
          "internalType": "uint256",
          "name": "rewards",
          "type": "uint256"
        }
      ],
      "stateMutability": "view",
      "type": "function"
    },
    {
      "inputs": [
        {
          "internalType": "address",
          "name": "_token",
          "type": "address"
        },
        {
          "internalType": "uint256",
          "name": "_amount",
          "type": "uint256"
        }
      ],
      "name": "withdraw",
      "outputs": [],
      "stateMutability": "nonpayable",
      "type": "function"
    }
  ],
  "transactionHash": "0x48f5431bee96a8061af6ca12ffbc9aa024e06beffe0a3d626fe45ad3243e3269",
  "args": [],
  "numDeployments": 1,
  "solcInputHash": "df748b3a5bbd79c59a0b7f1034107624",
  "bytecode": "0x608060405234801561001057600080fd5b5061001a3361001f565b61006f565b600080546001600160a01b038381166001600160a01b0319831681178455604051919092169283917f8be0079c531659141344cd1fd0a4f28419497f9722a3daafe3b4186f6b6457e09190a35050565b6109cd8061007e6000396000f3fe608060405234801561001057600080fd5b50600436106100a25760003560e01c80638da5cb5b11610076578063e4fc6b6d1161005b578063e4fc6b6d14610154578063f2fde38b1461015c578063f3fef3a31461016f57600080fd5b80638da5cb5b1461011457806399a9b5891461013957600080fd5b8062ce8e3e146100a7578063217c5690146100c5578063365b98b2146100da578063715018a61461010c575b600080fd5b6100af610182565b6040516100bc9190610744565b60405180910390f35b6100d86100d3366004610828565b6101f7565b005b6100ed6100e83660046108fc565b6102e2565b604080516001600160a01b0390931683526020830191909152016100bc565b6100d861031a565b6000546001600160a01b03165b6040516001600160a01b0390911681526020016100bc565b610121734004c49abb96b11d89a52decca2d1522da7f308981565b6100d8610380565b6100d861016a366004610915565b6104ff565b6100d861017d366004610937565b6105de565b60606001805480602002602001604051908101604052809291908181526020016000905b828210156101ee576000848152602090819020604080518082019091526002850290910180546001600160a01b031682526001908101548284015290835290920191016101a6565b50505050905090565b6000546001600160a01b031633146102565760405162461bcd60e51b815260206004820181905260248201527f4f776e61626c653a2063616c6c6572206973206e6f7420746865206f776e657260448201526064015b60405180910390fd5b60005b81518110156102de57600182828151811061027657610276610961565b6020908102919091018101518254600180820185556000948552938390208251600290920201805473ffffffffffffffffffffffffffffffffffffffff19166001600160a01b03909216919091178155910151910155806102d681610977565b915050610259565b5050565b600181815481106102f257600080fd5b6000918252602090912060029091020180546001909101546001600160a01b03909116915082565b6000546001600160a01b031633146103745760405162461bcd60e51b815260206004820181905260248201527f4f776e61626c653a2063616c6c6572206973206e6f7420746865206f776e6572604482015260640161024d565b61037e60006106e7565b565b6000546001600160a01b031633146103da5760405162461bcd60e51b815260206004820181905260248201527f4f776e61626c653a2063616c6c6572206973206e6f7420746865206f776e6572604482015260640161024d565b60005b6001548110156104fc57734004c49abb96b11d89a52decca2d1522da7f30896001600160a01b031663a9059cbb6001838154811061041d5761041d610961565b6000918252602090912060029091020154600180546001600160a01b03909216918590811061044e5761044e610961565b60009182526020909120600160029092020101546040517fffffffff0000000000000000000000000000000000000000000000000000000060e085901b1681526001600160a01b03909216600483015260248201526044016020604051808303816000875af11580156104c5573d6000803e3d6000fd5b505050506040513d601f19601f820116820180604052508101906104e9919061099e565b50806104f481610977565b9150506103dd565b50565b6000546001600160a01b031633146105595760405162461bcd60e51b815260206004820181905260248201527f4f776e61626c653a2063616c6c6572206973206e6f7420746865206f776e6572604482015260640161024d565b6001600160a01b0381166105d55760405162461bcd60e51b815260206004820152602660248201527f4f776e61626c653a206e6577206f776e657220697320746865207a65726f206160448201527f6464726573730000000000000000000000000000000000000000000000000000606482015260840161024d565b6104fc816106e7565b6000546001600160a01b031633146106385760405162461bcd60e51b815260206004820181905260248201527f4f776e61626c653a2063616c6c6572206973206e6f7420746865206f776e6572604482015260640161024d565b816001600160a01b031663a9059cbb6106596000546001600160a01b031690565b6040517fffffffff0000000000000000000000000000000000000000000000000000000060e084901b1681526001600160a01b039091166004820152602481018490526044016020604051808303816000875af11580156106be573d6000803e3d6000fd5b505050506040513d601f19601f820116820180604052508101906106e2919061099e565b505050565b600080546001600160a01b0383811673ffffffffffffffffffffffffffffffffffffffff19831681178455604051919092169283917f8be0079c531659141344cd1fd0a4f28419497f9722a3daafe3b4186f6b6457e09190a35050565b602080825282518282018190526000919060409081850190868401855b8281101561078f57815180516001600160a01b03168552860151868501529284019290850190600101610761565b5091979650505050505050565b634e487b7160e01b600052604160045260246000fd5b6040805190810167ffffffffffffffff811182821017156107d5576107d561079c565b60405290565b604051601f8201601f1916810167ffffffffffffffff811182821017156108045761080461079c565b604052919050565b80356001600160a01b038116811461082357600080fd5b919050565b6000602080838503121561083b57600080fd5b823567ffffffffffffffff8082111561085357600080fd5b818501915085601f83011261086757600080fd5b8135818111156108795761087961079c565b610887848260051b016107db565b818152848101925060069190911b8301840190878211156108a757600080fd5b928401925b818410156108f157604084890312156108c55760008081fd5b6108cd6107b2565b6108d68561080c565b815284860135868201528352604090930192918401916108ac565b979650505050505050565b60006020828403121561090e57600080fd5b5035919050565b60006020828403121561092757600080fd5b6109308261080c565b9392505050565b6000806040838503121561094a57600080fd5b6109538361080c565b946020939093013593505050565b634e487b7160e01b600052603260045260246000fd5b60006001820161099757634e487b7160e01b600052601160045260246000fd5b5060010190565b6000602082840312156109b057600080fd5b8151801515811461093057600080fdfea164736f6c6343000810000a",
  "devdoc": {
    "kind": "dev",
    "methods": {
      "owner()": {
        "details": "Returns the address of the current owner."
      },
      "renounceOwnership()": {
        "details": "Leaves the contract without owner. It will not be possible to call `onlyOwner` functions anymore. Can only be called by the current owner. NOTE: Renouncing ownership will leave the contract without an owner, thereby removing any functionality that is only available to the owner."
      },
      "transferOwnership(address)": {
        "details": "Transfers ownership of the contract to a new account (`newOwner`). Can only be called by the current owner."
      }
    },
    "version": 1
  },
  "userdoc": {
    "kind": "user",
    "methods": {},
    "version": 1
  },
  "storageLayout": {
    "storage": [
      {
        "astId": 7,
        "contract": "contracts/RewardManager.sol:RewardManager",
        "label": "_owner",
        "offset": 0,
        "slot": "0",
        "type": "t_address"
      },
      {
        "astId": 1628,
        "contract": "contracts/RewardManager.sol:RewardManager",
        "label": "users",
        "offset": 0,
        "slot": "1",
        "type": "t_array(t_struct(User)1624_storage)dyn_storage"
      }
    ],
    "types": {
      "t_address": {
        "encoding": "inplace",
        "label": "address",
        "numberOfBytes": "20"
      },
      "t_array(t_struct(User)1624_storage)dyn_storage": {
        "base": "t_struct(User)1624_storage",
        "encoding": "dynamic_array",
        "label": "struct RewardManager.User[]",
        "numberOfBytes": "32"
      },
      "t_struct(User)1624_storage": {
        "encoding": "inplace",
        "label": "struct RewardManager.User",
        "members": [
          {
            "astId": 1621,
            "contract": "contracts/RewardManager.sol:RewardManager",
            "label": "user",
            "offset": 0,
            "slot": "0",
            "type": "t_address"
          },
          {
            "astId": 1623,
            "contract": "contracts/RewardManager.sol:RewardManager",
            "label": "rewards",
            "offset": 0,
            "slot": "1",
            "type": "t_uint256"
          }
        ],
        "numberOfBytes": "64"
      },
      "t_uint256": {
        "encoding": "inplace",
        "label": "uint256",
        "numberOfBytes": "32"
      }
    }
  }
}