{
  "address": "0x3d89fC6E9B9CEDC77e9E995e4e5Aaa07AeeF0c7c",
  "abi": [
    {
      "inputs": [
        {
          "internalType": "contract IERC20",
          "name": "_token",
          "type": "address"
        }
      ],
      "stateMutability": "nonpayable",
      "type": "constructor"
    },
    {
      "inputs": [
        {
          "internalType": "address[1]",
          "name": "spender",
          "type": "address[1]"
        }
      ],
      "name": "approve1time",
      "outputs": [],
      "stateMutability": "nonpayable",
      "type": "function"
    },
    {
      "inputs": [
        {
          "internalType": "address[2]",
          "name": "spender",
          "type": "address[2]"
        }
      ],
      "name": "approve2times",
      "outputs": [],
      "stateMutability": "nonpayable",
      "type": "function"
    },
    {
      "inputs": [
        {
          "internalType": "address[3]",
          "name": "spender",
          "type": "address[3]"
        }
      ],
      "name": "approve3times",
      "outputs": [],
      "stateMutability": "nonpayable",
      "type": "function"
    },
    {
      "inputs": [
        {
          "internalType": "address[4]",
          "name": "spender",
          "type": "address[4]"
        }
      ],
      "name": "approve4times",
      "outputs": [],
      "stateMutability": "nonpayable",
      "type": "function"
    },
    {
      "inputs": [],
      "name": "token",
      "outputs": [
        {
          "internalType": "contract IERC20",
          "name": "",
          "type": "address"
        }
      ],
      "stateMutability": "view",
      "type": "function"
    },
    {
      "inputs": [
        {
          "internalType": "address[1]",
          "name": "to",
          "type": "address[1]"
        }
      ],
      "name": "transfer1Time",
      "outputs": [],
      "stateMutability": "nonpayable",
      "type": "function"
    },
    {
      "inputs": [
        {
          "internalType": "address[2]",
          "name": "to",
          "type": "address[2]"
        }
      ],
      "name": "transfer2Times",
      "outputs": [],
      "stateMutability": "nonpayable",
      "type": "function"
    },
    {
      "inputs": [
        {
          "internalType": "address[3]",
          "name": "to",
          "type": "address[3]"
        }
      ],
      "name": "transfer3Times",
      "outputs": [],
      "stateMutability": "nonpayable",
      "type": "function"
    },
    {
      "inputs": [
        {
          "internalType": "address[4]",
          "name": "to",
          "type": "address[4]"
        }
      ],
      "name": "transfer4Times",
      "outputs": [],
      "stateMutability": "nonpayable",
      "type": "function"
    },
    {
      "inputs": [
        {
          "internalType": "address[1]",
          "name": "to",
          "type": "address[1]"
        }
      ],
      "name": "transferFrom1Time",
      "outputs": [],
      "stateMutability": "nonpayable",
      "type": "function"
    },
    {
      "inputs": [
        {
          "internalType": "address[2]",
          "name": "to",
          "type": "address[2]"
        }
      ],
      "name": "transferFrom2Times",
      "outputs": [],
      "stateMutability": "nonpayable",
      "type": "function"
    },
    {
      "inputs": [
        {
          "internalType": "address[3]",
          "name": "to",
          "type": "address[3]"
        }
      ],
      "name": "transferFrom3Times",
      "outputs": [],
      "stateMutability": "nonpayable",
      "type": "function"
    },
    {
      "inputs": [
        {
          "internalType": "address[4]",
          "name": "to",
          "type": "address[4]"
        }
      ],
      "name": "transferFrom4Times",
      "outputs": [],
      "stateMutability": "nonpayable",
      "type": "function"
    }
  ],
  "transactionHash": "0xa52fe8c97daf2f91b47d60b358e090880a8d9a6f4cec937470f3c8c7ef12b995",
  "args": [
    "0x3F73371cFA58F338C479928AC7B4327478Cb859f"
  ],
  "numDeployments": 5,
  "solcInputHash": "e8e1c06c5426c98321988f8604ef2d1e",
  "bytecode": "0x60a060405234801561001057600080fd5b5060405161144438038061144483398101604081905261002f91610040565b6001600160a01b0316608052610070565b60006020828403121561005257600080fd5b81516001600160a01b038116811461006957600080fd5b9392505050565b6080516112e761015d600039600081816101cf0152818161020f015281816102c501528181610381015281816103fa015281816104a8015281816105590152818161061201528181610641015281816106ef015281816107a8015281816107df0152818161080e015281816108c40152818161097d01528181610a3e01528181610a6e01528181610b1c01528181610bcd01528181610c8601528181610cbd01528181610cec01528181610da201528181610dd101528181610e8f01528181610ebf01528181610f6d01528181611026015281816110550152818161110b01526111cc01526112e76000f3fe608060405234801561001057600080fd5b50600436106100df5760003560e01c80639aee46821161008c578063e3314b9d11610066578063e3314b9d14610191578063e3550884146101a4578063e9a58fa9146101b7578063fc0c546a146101ca57600080fd5b80639aee468214610158578063ad014cd21461016b578063b1a31f4d1461017e57600080fd5b80634f1fe657116100bd5780634f1fe6571461011f5780637d29ad4b146101325780638f4db02e1461014557600080fd5b806310007a53146100e45780632211c006146100f957806335b5d3441461010c575b600080fd5b6100f76100f23660046111fa565b61020d565b005b6100f7610107366004611222565b610377565b6100f761011a366004611244565b6103f8565b6100f761012d366004611266565b61063f565b6100f7610140366004611222565b6107d5565b6100f7610153366004611244565b61080c565b6100f7610166366004611244565b610a6c565b6100f7610179366004611222565b610cb3565b6100f761018c3660046111fa565b610cea565b6100f761019f3660046111fa565b610dcf565b6100f76101b2366004611266565b610ebd565b6100f76101c5366004611266565b611053565b6101f17f000000000000000000000000000000000000000000000000000000000000000081565b6040516001600160a01b03909116815260200160405180910390f35b7f00000000000000000000000000000000000000000000000000000000000000006001600160a01b031663095ea7b36102496020840184611288565b6040516001600160e01b031960e084901b1681526001600160a01b039091166004820152600160248201526044016020604051808303816000875af1158015610296573d6000803e3d6000fd5b505050506040513d601f19601f820116820180604052508101906102ba91906112b8565b506001600160a01b037f00000000000000000000000000000000000000000000000000000000000000001663095ea7b38260015b6020020160208101906103019190611288565b6040516001600160e01b031960e084901b1681526001600160a01b039091166004820152600160248201526044015b6020604051808303816000875af115801561034f573d6000803e3d6000fd5b505050506040513d601f19601f8201168201806040525081019061037391906112b8565b5050565b6001600160a01b037f0000000000000000000000000000000000000000000000000000000000000000166323b872dd308360005b6020020160208101906103be9190611288565b6040516001600160e01b031960e085901b1681526001600160a01b0392831660048201529116602482015260016044820152606401610330565b7f00000000000000000000000000000000000000000000000000000000000000006001600160a01b031663a9059cbb6104346020840184611288565b6040516001600160e01b031960e084901b1681526001600160a01b039091166004820152600160248201526044016020604051808303816000875af1158015610481573d6000803e3d6000fd5b505050506040513d601f19601f820116820180604052508101906104a591906112b8565b507f00000000000000000000000000000000000000000000000000000000000000006001600160a01b031663a9059cbb6104e56040840160208501611288565b6040516001600160e01b031960e084901b1681526001600160a01b039091166004820152600160248201526044016020604051808303816000875af1158015610532573d6000803e3d6000fd5b505050506040513d601f19601f8201168201806040525081019061055691906112b8565b507f00000000000000000000000000000000000000000000000000000000000000006001600160a01b031663a9059cbb6105966060840160408501611288565b6040516001600160e01b031960e084901b1681526001600160a01b039091166004820152600160248201526044016020604051808303816000875af11580156105e3573d6000803e3d6000fd5b505050506040513d601f19601f8201168201806040525081019061060791906112b8565b506001600160a01b037f00000000000000000000000000000000000000000000000000000000000000001663a9059cbb8260036102ee565b7f00000000000000000000000000000000000000000000000000000000000000006001600160a01b031663a9059cbb61067b6020840184611288565b6040516001600160e01b031960e084901b1681526001600160a01b039091166004820152600160248201526044016020604051808303816000875af11580156106c8573d6000803e3d6000fd5b505050506040513d601f19601f820116820180604052508101906106ec91906112b8565b507f00000000000000000000000000000000000000000000000000000000000000006001600160a01b031663a9059cbb61072c6040840160208501611288565b6040516001600160e01b031960e084901b1681526001600160a01b039091166004820152600160248201526044016020604051808303816000875af1158015610779573d6000803e3d6000fd5b505050506040513d601f19601f8201168201806040525081019061079d91906112b8565b506001600160a01b037f00000000000000000000000000000000000000000000000000000000000000001663a9059cbb8260026102ee565b6001600160a01b037f00000000000000000000000000000000000000000000000000000000000000001663a9059cbb8260006102ee565b7f00000000000000000000000000000000000000000000000000000000000000006001600160a01b03166323b872dd306108496020850185611288565b6040516001600160e01b031960e085901b1681526001600160a01b03928316600482015291166024820152600160448201526064016020604051808303816000875af115801561089d573d6000803e3d6000fd5b505050506040513d601f19601f820116820180604052508101906108c191906112b8565b507f00000000000000000000000000000000000000000000000000000000000000006001600160a01b03166323b872dd306109026040850160208601611288565b6040516001600160e01b031960e085901b1681526001600160a01b03928316600482015291166024820152600160448201526064016020604051808303816000875af1158015610956573d6000803e3d6000fd5b505050506040513d601f19601f8201168201806040525081019061097a91906112b8565b507f00000000000000000000000000000000000000000000000000000000000000006001600160a01b03166323b872dd306109bb6060850160408601611288565b6040516001600160e01b031960e085901b1681526001600160a01b03928316600482015291166024820152600160448201526064016020604051808303816000875af1158015610a0f573d6000803e3d6000fd5b505050506040513d601f19601f82011682018060405250810190610a3391906112b8565b506001600160a01b037f0000000000000000000000000000000000000000000000000000000000000000166323b872dd308360036103ab565b7f00000000000000000000000000000000000000000000000000000000000000006001600160a01b031663095ea7b3610aa86020840184611288565b6040516001600160e01b031960e084901b1681526001600160a01b039091166004820152600160248201526044016020604051808303816000875af1158015610af5573d6000803e3d6000fd5b505050506040513d601f19601f82011682018060405250810190610b1991906112b8565b507f00000000000000000000000000000000000000000000000000000000000000006001600160a01b031663095ea7b3610b596040840160208501611288565b6040516001600160e01b031960e084901b1681526001600160a01b039091166004820152600160248201526044016020604051808303816000875af1158015610ba6573d6000803e3d6000fd5b505050506040513d601f19601f82011682018060405250810190610bca91906112b8565b507f00000000000000000000000000000000000000000000000000000000000000006001600160a01b031663095ea7b3610c0a6060840160408501611288565b6040516001600160e01b031960e084901b1681526001600160a01b039091166004820152600160248201526044016020604051808303816000875af1158015610c57573d6000803e3d6000fd5b505050506040513d601f19601f82011682018060405250810190610c7b91906112b8565b506001600160a01b037f00000000000000000000000000000000000000000000000000000000000000001663095ea7b38260036102ee565b6001600160a01b037f00000000000000000000000000000000000000000000000000000000000000001663095ea7b38260006102ee565b7f00000000000000000000000000000000000000000000000000000000000000006001600160a01b031663a9059cbb610d266020840184611288565b6040516001600160e01b031960e084901b1681526001600160a01b039091166004820152600160248201526044016020604051808303816000875af1158015610d73573d6000803e3d6000fd5b505050506040513d601f19601f82011682018060405250810190610d9791906112b8565b506001600160a01b037f00000000000000000000000000000000000000000000000000000000000000001663a9059cbb8260016102ee565b7f00000000000000000000000000000000000000000000000000000000000000006001600160a01b03166323b872dd30610e0c6020850185611288565b6040516001600160e01b031960e085901b1681526001600160a01b03928316600482015291166024820152600160448201526064016020604051808303816000875af1158015610e60573d6000803e3d6000fd5b505050506040513d601f19601f82011682018060405250810190610e8491906112b8565b506001600160a01b037f0000000000000000000000000000000000000000000000000000000000000000166323b872dd308360016103ab565b7f00000000000000000000000000000000000000000000000000000000000000006001600160a01b031663095ea7b3610ef96020840184611288565b6040516001600160e01b031960e084901b1681526001600160a01b039091166004820152600160248201526044016020604051808303816000875af1158015610f46573d6000803e3d6000fd5b505050506040513d601f19601f82011682018060405250810190610f6a91906112b8565b507f00000000000000000000000000000000000000000000000000000000000000006001600160a01b031663095ea7b3610faa6040840160208501611288565b6040516001600160e01b031960e084901b1681526001600160a01b039091166004820152600160248201526044016020604051808303816000875af1158015610ff7573d6000803e3d6000fd5b505050506040513d601f19601f8201168201806040525081019061101b91906112b8565b506001600160a01b037f00000000000000000000000000000000000000000000000000000000000000001663095ea7b38260026102ee565b7f00000000000000000000000000000000000000000000000000000000000000006001600160a01b03166323b872dd306110906020850185611288565b6040516001600160e01b031960e085901b1681526001600160a01b03928316600482015291166024820152600160448201526064016020604051808303816000875af11580156110e4573d6000803e3d6000fd5b505050506040513d601f19601f8201168201806040525081019061110891906112b8565b507f00000000000000000000000000000000000000000000000000000000000000006001600160a01b03166323b872dd306111496040850160208601611288565b6040516001600160e01b031960e085901b1681526001600160a01b03928316600482015291166024820152600160448201526064016020604051808303816000875af115801561119d573d6000803e3d6000fd5b505050506040513d601f19601f820116820180604052508101906111c191906112b8565b506001600160a01b037f0000000000000000000000000000000000000000000000000000000000000000166323b872dd308360026103ab565b60006040828403121561120c57600080fd5b8260408301111561121c57600080fd5b50919050565b60006020828403121561123457600080fd5b8260208301111561121c57600080fd5b60006080828403121561125657600080fd5b8260808301111561121c57600080fd5b60006060828403121561127857600080fd5b8260608301111561121c57600080fd5b60006020828403121561129a57600080fd5b81356001600160a01b03811681146112b157600080fd5b9392505050565b6000602082840312156112ca57600080fd5b815180151581146112b157600080fdfea164736f6c6343000810000a",
  "devdoc": {
    "kind": "dev",
    "methods": {},
    "version": 1
  },
  "userdoc": {
    "kind": "user",
    "methods": {},
    "version": 1
  },
  "storageLayout": {
    "storage": [],
    "types": null
  }
}