{
  "address": "0x9A9a3650d534624CA3bb6d554C3A2Fe955BD4813",
  "abi": [
    {
      "inputs": [
        {
          "internalType": "address",
          "name": "_owner",
          "type": "address"
        }
      ],
      "stateMutability": "nonpayable",
      "type": "constructor"
    },
    {
      "anonymous": false,
      "inputs": [
        {
          "indexed": false,
          "internalType": "address",
          "name": "depositor",
          "type": "address"
        },
        {
          "indexed": false,
          "internalType": "uint256",
          "name": "value",
          "type": "uint256"
        },
        {
          "indexed": false,
          "internalType": "bytes32",
          "name": "salt",
          "type": "bytes32"
        },
        {
          "indexed": false,
          "internalType": "address",
          "name": "escrow",
          "type": "address"
        }
      ],
      "name": "DepositedToEscrow",
      "type": "event"
    },
    {
      "anonymous": false,
      "inputs": [
        {
          "indexed": false,
          "internalType": "address",
          "name": "depositor",
          "type": "address"
        },
        {
          "indexed": false,
          "internalType": "uint256",
          "name": "value",
          "type": "uint256"
        },
        {
          "indexed": false,
          "internalType": "bytes32",
          "name": "salt",
          "type": "bytes32"
        },
        {
          "indexed": false,
          "internalType": "address",
          "name": "escrow",
          "type": "address"
        }
      ],
      "name": "FundedFromEscrow",
      "type": "event"
    },
    {
      "anonymous": false,
      "inputs": [
        {
          "components": [
            {
              "internalType": "uint8",
              "name": "tokenType",
              "type": "uint8"
            },
            {
              "internalType": "address",
              "name": "token",
              "type": "address"
            },
            {
              "internalType": "uint256",
              "name": "tokenId",
              "type": "uint256"
            },
            {
              "internalType": "address",
              "name": "extAccount",
              "type": "address"
            },
            {
              "internalType": "uint96",
              "name": "extAmount",
              "type": "uint96"
            }
          ],
          "indexed": false,
          "internalType": "struct LockData",
          "name": "data",
          "type": "tuple"
        }
      ],
      "name": "Locked",
      "type": "event"
    },
    {
      "anonymous": false,
      "inputs": [
        {
          "indexed": false,
          "internalType": "address",
          "name": "depositor",
          "type": "address"
        },
        {
          "indexed": false,
          "internalType": "uint256",
          "name": "value",
          "type": "uint256"
        },
        {
          "indexed": false,
          "internalType": "bytes32",
          "name": "salt",
          "type": "bytes32"
        },
        {
          "indexed": false,
          "internalType": "address",
          "name": "escrow",
          "type": "address"
        }
      ],
      "name": "ReturnedFromEscrow",
      "type": "event"
    },
    {
      "anonymous": false,
      "inputs": [
        {
          "indexed": false,
          "internalType": "bytes32",
          "name": "salt",
          "type": "bytes32"
        }
      ],
      "name": "SaltUsed",
      "type": "event"
    },
    {
      "anonymous": false,
      "inputs": [
        {
          "components": [
            {
              "internalType": "uint8",
              "name": "tokenType",
              "type": "uint8"
            },
            {
              "internalType": "address",
              "name": "token",
              "type": "address"
            },
            {
              "internalType": "uint256",
              "name": "tokenId",
              "type": "uint256"
            },
            {
              "internalType": "address",
              "name": "extAccount",
              "type": "address"
            },
            {
              "internalType": "uint96",
              "name": "extAmount",
              "type": "uint96"
            }
          ],
          "indexed": false,
          "internalType": "struct LockData",
          "name": "data",
          "type": "tuple"
        }
      ],
      "name": "Unlocked",
      "type": "event"
    },
    {
      "inputs": [],
      "name": "OWNER",
      "outputs": [
        {
          "internalType": "address",
          "name": "",
          "type": "address"
        }
      ],
      "stateMutability": "view",
      "type": "function"
    },
    {
      "inputs": [
        {
          "internalType": "bytes32",
          "name": "salt",
          "type": "bytes32"
        },
        {
          "internalType": "address",
          "name": "depositor",
          "type": "address"
        }
      ],
      "name": "getEscrowAddress",
      "outputs": [
        {
          "internalType": "address",
          "name": "escrowAddr",
          "type": "address"
        }
      ],
      "stateMutability": "view",
      "type": "function"
    },
    {
      "inputs": [
        {
          "components": [
            {
              "internalType": "uint8",
              "name": "tokenType",
              "type": "uint8"
            },
            {
              "internalType": "address",
              "name": "token",
              "type": "address"
            },
            {
              "internalType": "uint256",
              "name": "tokenId",
              "type": "uint256"
            },
            {
              "internalType": "address",
              "name": "extAccount",
              "type": "address"
            },
            {
              "internalType": "uint96",
              "name": "extAmount",
              "type": "uint96"
            }
          ],
          "internalType": "struct LockData",
          "name": "lData",
          "type": "tuple"
        }
      ],
      "name": "lockAsset",
      "outputs": [],
      "stateMutability": "nonpayable",
      "type": "function"
    },
    {
      "inputs": [
        {
          "components": [
            {
              "internalType": "uint8",
              "name": "tokenType",
              "type": "uint8"
            },
            {
              "internalType": "address",
              "name": "token",
              "type": "address"
            },
            {
              "internalType": "uint256",
              "name": "tokenId",
              "type": "uint256"
            },
            {
              "internalType": "bytes32",
              "name": "salt",
              "type": "bytes32"
            },
            {
              "internalType": "address",
              "name": "extAccount",
              "type": "address"
            },
            {
              "internalType": "uint256",
              "name": "extAmount",
              "type": "uint256"
            }
          ],
          "internalType": "struct SaltedLockData",
          "name": "slData",
          "type": "tuple"
        }
      ],
      "name": "lockAssetWithSalt",
      "outputs": [],
      "stateMutability": "payable",
      "type": "function"
    },
    {
      "inputs": [
        {
          "internalType": "address",
          "name": "",
          "type": "address"
        },
        {
          "internalType": "address",
          "name": "",
          "type": "address"
        },
        {
          "internalType": "uint256",
          "name": "",
          "type": "uint256"
        },
        {
          "internalType": "uint256",
          "name": "",
          "type": "uint256"
        },
        {
          "internalType": "bytes",
          "name": "",
          "type": "bytes"
        }
      ],
      "name": "onERC1155Received",
      "outputs": [
        {
          "internalType": "bytes4",
          "name": "",
          "type": "bytes4"
        }
      ],
      "stateMutability": "pure",
      "type": "function"
    },
    {
      "inputs": [
        {
          "internalType": "address",
          "name": "",
          "type": "address"
        },
        {
          "internalType": "address",
          "name": "",
          "type": "address"
        },
        {
          "internalType": "uint256",
          "name": "",
          "type": "uint256"
        },
        {
          "internalType": "bytes",
          "name": "",
          "type": "bytes"
        }
      ],
      "name": "onERC721Received",
      "outputs": [
        {
          "internalType": "bytes4",
          "name": "",
          "type": "bytes4"
        }
      ],
      "stateMutability": "nonpayable",
      "type": "function"
    },
    {
      "inputs": [
        {
          "internalType": "bytes32",
          "name": "salt",
          "type": "bytes32"
        }
      ],
      "name": "sendEthToEscrow",
      "outputs": [],
      "stateMutability": "payable",
      "type": "function"
    },
    {
      "inputs": [
        {
          "components": [
            {
              "internalType": "uint8",
              "name": "tokenType",
              "type": "uint8"
            },
            {
              "internalType": "address",
              "name": "token",
              "type": "address"
            },
            {
              "internalType": "uint256",
              "name": "tokenId",
              "type": "uint256"
            },
            {
              "internalType": "address",
              "name": "extAccount",
              "type": "address"
            },
            {
              "internalType": "uint96",
              "name": "extAmount",
              "type": "uint96"
            }
          ],
          "internalType": "struct LockData",
          "name": "lData",
          "type": "tuple"
        }
      ],
      "name": "unlockAsset",
      "outputs": [],
      "stateMutability": "nonpayable",
      "type": "function"
    },
    {
      "inputs": [
        {
          "internalType": "bytes32",
          "name": "salt",
          "type": "bytes32"
        }
      ],
      "name": "withdrawEthFromEscrow",
      "outputs": [],
      "stateMutability": "nonpayable",
      "type": "function"
    }
  ],
  "transactionHash": "0x6d2ef0f78b6a88af0809e54b70cccec315c8393394e642736ae780bc522ddec9",
  "args": [
    "0xfDfD920F2152565E9D7b589e4e9faeE6699AD4bd"
  ],
  "numDeployments": 3,
  "solcInputHash": "90684727832637485fcc6e52a125c6c2",
  "bytecode": "0x60a06040523480156200001157600080fd5b5060405162002554380380620025548339810160408190526200003491620000a3565b806001600160a01b038116620000905760405162461bcd60e51b815260206004820152601a60248201527f496d6d4f776e3a207a65726f206f776e65722061646472657373000000000000604482015260640160405180910390fd5b6001600160a01b031660805250620000d5565b600060208284031215620000b657600080fd5b81516001600160a01b0381168114620000ce57600080fd5b9392505050565b60805161244f620001056000396000818160ad0152818161021f015281816104a4015261063e015261244f6000f3fe6080604052600436106100965760003560e01c80637cb8277411610069578063dc69062f1161004e578063dc69062f146101bd578063f23a6e61146101d0578063f2952a35146101fd57600080fd5b80637cb827741461018a57806392ab73d91461019d57600080fd5b8063117803e31461009b578063150b7a02146100ec5780635bd3e6c0146101485780637441ba241461016a575b600080fd5b3480156100a757600080fd5b506100cf7f000000000000000000000000000000000000000000000000000000000000000081565b6040516001600160a01b0390911681526020015b60405180910390f35b3480156100f857600080fd5b50610117610107366004611e9a565b630a85bd0160e11b949350505050565b6040517fffffffff0000000000000000000000000000000000000000000000000000000090911681526020016100e3565b34801561015457600080fd5b50610168610163366004611f5e565b61021d565b005b34801561017657600080fd5b50610168610185366004611f5e565b6104a2565b610168610198366004611f76565b61063c565b3480156101a957600080fd5b506100cf6101b8366004611f88565b610861565b6101686101cb366004611fb8565b610881565b3480156101dc57600080fd5b506101176101eb366004611fd1565b63f23a6e6160e01b9695505050505050565b34801561020957600080fd5b50610168610218366004611fb8565b610972565b7f00000000000000000000000000000000000000000000000000000000000000006001600160a01b031633146102915760405162461bcd60e51b8152602060048201526014602482015273125b5b53dddb8e881d5b985d5d1a1bdc9a5e995960621b60448201526064015b60405180910390fd5b6102a86102a3368390038301836120a8565b610a7a565b60ff6102b76020830183612133565b60ff16036102ff576102fa6102d260a083016080840161214e565b6001600160601b03166102eb6080840160608501612169565b6001600160a01b031690610e2e565b610468565b600061030e6020830183612133565b60ff1603610362576102fa6103296080830160608401612169565b61033960a084016080850161214e565b6001600160601b03166103526040850160208601612169565b6001600160a01b03169190610efc565b60106103716020830183612133565b60ff16036103b3576102fa6040820135306103926080850160608601612169565b6103a26040860160208701612169565b6001600160a01b0316929190611000565b60116103c26020830183612133565b60ff1603610435576102fa306103de6080840160608501612169565b60408401356103f360a086016080870161214e565b604080516000808252602082019092526001600160601b03929092169190506104226040880160208901612169565b6001600160a01b03169493929190611116565b604080518082018252600581526456413a453160d81b6020820152905162461bcd60e51b815261028891906004016121d6565b7f2437c8e0ff3ebf9cffe6210e0d3eeeba5191660e089a6cc3c9b146acf69bb0e98160405161049791906121e9565b60405180910390a150565b7f00000000000000000000000000000000000000000000000000000000000000006001600160a01b031633146105115760405162461bcd60e51b8152602060048201526014602482015273125b5b53dddb8e881d5b985d5d1a1bdc9a5e995960621b6044820152606401610288565b6105236102a3368390038301836120a8565b60006105326020830183612133565b60ff160361058d5761058861054d6080830160608401612169565b3061055e60a085016080860161214e565b6001600160601b03166105776040860160208701612169565b6001600160a01b0316929190611225565b61060d565b601061059c6020830183612133565b60ff16036105cd5761058860408201356105bc6080840160608501612169565b306103a26040860160208701612169565b60116105dc6020830183612133565b60ff1603610435576105886105f76080830160608401612169565b3060408401356103f360a086016080870161214e565b7f19437e3e1b685db6090b1c6e20adf08b5e54b6ad91e1422dfe7fe4345abbd0488160405161049791906121e9565b7f00000000000000000000000000000000000000000000000000000000000000006001600160a01b031633146106ab5760405162461bcd60e51b8152602060048201526014602482015273125b5b53dddb8e881d5b985d5d1a1bdc9a5e995960621b6044820152606401610288565b60006106c46106bf36849003840184612259565b6112ac565b90506106cf81610a7a565b805160608301359060ff1660fe190161070b57346000036107065761070681836060015184608001516001600160601b031661133d565b6107a1565b815160ff166107395760208201516060830151608084015161070692849290916001600160601b03166113ba565b815160ff16600f190161076257602082015160608301516040840151610706928492909161144e565b815160ff16601019016104355761070682602001518360600151846040015185608001516001600160601b03168561156790949392919063ffffffff16565b7f19437e3e1b685db6090b1c6e20adf08b5e54b6ad91e1422dfe7fe4345abbd048826040516108209190600060a08201905060ff835116825260208301516001600160a01b0380821660208501526040850151604085015280606086015116606085015250506001600160601b03608084015116608083015292915050565b60405180910390a16040518181527fc4126816992d11a9ca354e123a7f4e9a73d858a0ff44ec3a3ac077e407ad4b61906020015b60405180910390a1505050565b60008061086e84846115f9565b9050610879816116ef565b949350505050565b60408051808201909152600581527f56453a45310000000000000000000000000000000000000000000000000000006020820152346108d35760405162461bcd60e51b815260040161028891906121d6565b5060006108e082336115f9565b905060006108ed826116f6565b6040519091506001600160a01b038216903480156108fc02916000818181858888f19350505050158015610925573d6000803e3d6000fd5b50604080513381523460208201529081018490526001600160a01b03821660608201527f7e4b0ac53a5968604e6d87afde7ade3af45a8e445bca73dfdb6d9d2095c0683190608001610854565b600061097e82336115f9565b9050600061098b826116f6565b60408051808201909152600581527f56453a453200000000000000000000000000000000000000000000000000000060208201529091506001600160a01b0382163190816109ec5760405162461bcd60e51b815260040161028891906121d6565b506109f683611702565b604051339082156108fc029083906000818181858888f19350505050158015610a23573d6000803e3d6000fd5b5060408051338152602081018390529081018590526001600160a01b03831660608201527f96fba76316bfe51dc6927f2e8b2f39327b0e909d95d4df05e97830ec86bf90979060800160405180910390a150505050565b600081608001516001600160601b0316116040518060400160405280600581526020017f56413a453400000000000000000000000000000000000000000000000000000081525090610adf5760405162461bcd60e51b815260040161028891906121d6565b50606081015160408051808201909152600581527f56413a45330000000000000000000000000000000000000000000000000000006020820152906001600160a01b0316610b405760405162461bcd60e51b815260040161028891906121d6565b50805160ff1660fe1901610c6e5760006001600160a01b031681602001516001600160a01b0316146040518060400160405280600681526020017f5641313a4535000000000000000000000000000000000000000000000000000081525090610bbc5760405162461bcd60e51b815260040161028891906121d6565b50604080820151815180830190925260068252652b20989d229b60d11b602083015215610bfc5760405162461bcd60e51b815260040161028891906121d6565b50341580610c16575080608001516001600160601b031634145b6040518060400160405280600681526020017f5641313a4537000000000000000000000000000000000000000000000000000081525090610c6a5760405162461bcd60e51b815260040161028891906121d6565b5050565b60408051808201909152600681527f5641313a4538000000000000000000000000000000000000000000000000000060208201523415610cc15760405162461bcd60e51b815260040161028891906121d6565b5060006001600160a01b031681602001516001600160a01b031614156040518060400160405280600581526020017f56413a453200000000000000000000000000000000000000000000000000000081525090610d315760405162461bcd60e51b815260040161028891906121d6565b50805160ff16610d7a57604080820151815180830190925260068252652b20989d229b60d11b602083015215610c6a5760405162461bcd60e51b815260040161028891906121d6565b805160ff16600f1901610dec5780608001516001600160601b03166001146040518060400160405280600681526020017f5641313a4539000000000000000000000000000000000000000000000000000081525090610c6a5760405162461bcd60e51b815260040161028891906121d6565b805160408051808201909152600581526456413a453160d81b60208201529060ff16601114610c6a5760405162461bcd60e51b815260040161028891906121d6565b604080516000808252602082019092526001600160a01b038416908390604051610e5891906122eb565b60006040518083038185875af1925050503d8060008114610e95576040519150601f19603f3d011682016040523d82523d6000602084013e610e9a565b606091505b5050905080610ef75760405162461bcd60e51b815260206004820152602360248201527f5472616e7366657248656c7065723a20455448207472616e73666572206661696044820152621b195960ea1b6064820152608401610288565b505050565b82803b610f4b5760405162461bcd60e51b815260206004820152601d60248201527f5472616e7366657248656c7065723a207a65726f20636f646573697a650000006044820152606401610288565b604080516001600160a01b038581166024830152604480830186905283518084039091018152606490920183526020820180516001600160e01b031663a9059cbb60e01b1790529151600092839290881691610fa791906122eb565b6000604051808303816000865af19150503d8060008114610fe4576040519150601f19603f3d011682016040523d82523d6000602084013e610fe9565b606091505b5091509150610ff8828261170b565b505050505050565b83803b61104f5760405162461bcd60e51b815260206004820152601d60248201527f5472616e7366657248656c7065723a207a65726f20636f646573697a650000006044820152606401610288565b6040516001600160a01b03848116602483015283811660448301526064820186905260009182918816906342842e0e906084015b6040516020818303038152906040529060e01b6020820180516001600160e01b0383818316178352505050506040516110bc91906122eb565b6000604051808303816000865af19150503d80600081146110f9576040519150601f19603f3d011682016040523d82523d6000602084013e6110fe565b606091505b509150915061110d828261170b565b50505050505050565b85803b6111655760405162461bcd60e51b815260206004820152601d60248201527f5472616e7366657248656c7065723a207a65726f20636f646573697a650000006044820152606401610288565b600080886001600160a01b031663f242432a8989898989604051602401611190959493929190612307565b6040516020818303038152906040529060e01b6020820180516001600160e01b0383818316178352505050506040516111c991906122eb565b6000604051808303816000865af19150503d8060008114611206576040519150601f19603f3d011682016040523d82523d6000602084013e61120b565b606091505b509150915061121a828261170b565b505050505050505050565b83803b6112745760405162461bcd60e51b815260206004820152601d60248201527f5472616e7366657248656c7065723a207a65726f20636f646573697a650000006044820152606401610288565b6040516001600160a01b03858116602483015284811660448301526064820184905260009182918816906323b872dd90608401611083565b6040805160a0810182526000808252602082018190529181018290526060810182905260808101919091526040518060a00160405280836000015160ff16815260200183602001516001600160a01b031681526020018360400151815260200183608001516001600160a01b0316815260200161132c8460a001516117a2565b6001600160601b0316905292915050565b600061134984846115f9565b90506000611356826116f6565b90506113628284611804565b604080516001600160a01b038681168252602082018690528183018890528316606082015290517fc4621a08a1e3c1db79e0ff7f29727fdb56d290ccd3438ee6d88b03b5fb1742209181900360800190a15050505050565b60006113cf6001600160a01b03851630611819565b6040516001600160a01b03851660248201523060448201526064810184905290915060009060840160408051601f198184030181529190526020810180516001600160e01b03166323b872dd60e01b17905290506114308686836000611951565b50610ff883836114496001600160a01b03891630611819565b611975565b306114626001600160a01b038516836119e1565b6001600160a01b03161415604051806040016040528060078152602001665057533a45303360c81b815250906114ab5760405162461bcd60e51b815260040161028891906121d6565b506040516001600160a01b03831660248201523060448201526064810182905260009060840160408051601f198184030181529190526020810180516001600160e01b0316632142170760e11b179052905061150a8585836000611951565b503061151f6001600160a01b038616846119e1565b6001600160a01b031614604051806040016040528060078152602001665057533a45303360c81b81525090610ff85760405162461bcd60e51b815260040161028891906121d6565b600061157d6001600160a01b0386163085611b01565b60408051600080825260208201909252919250906115a690869030908790879060448101612307565b60408051601f198184030181529190526020810180516001600160e01b0316637921219560e11b17905290506115df8787836000611951565b5061110d83836114496001600160a01b038a163089611b01565b60408051808201909152600581527f56453a453300000000000000000000000000000000000000000000000000000060208201526000908361164e5760405162461bcd60e51b815260040161028891906121d6565b5060408051808201909152600581527f56453a453400000000000000000000000000000000000000000000000000000060208201526001600160a01b0383166116aa5760405162461bcd60e51b815260040161028891906121d6565b5082826040516020016116d09291909182526001600160a01b0316602082015260400190565b6040516020818303038152906040528051906020012090505b92915050565b60006116e9825b60006116e98230611c36565b610c6a81611cd3565b818015611730575080511580611730575080806020019051810190611730919061234a565b610c6a5760405162461bcd60e51b815260206004820152602a60248201527f5472616e7366657248656c7065723a20746f6b656e20636f6e7472616374206360448201527f616c6c206661696c6564000000000000000000000000000000000000000000006064820152608401610288565b60006c0100000000000000000000000082106118005760405162461bcd60e51b815260206004820152600860248201527f554e5341464539360000000000000000000000000000000000000000000000006044820152606401610288565b5090565b4761180e83611702565b610ef7828247611975565b6000806000846001600160a01b03166370a082318560405160240161184d91906001600160a01b0391909116815260200190565b6040516020818303038152906040529060e01b6020820180516001600160e01b03838183161783525050505060405161188691906122eb565b6000604051808303816000865af19150503d80600081146118c3576040519150601f19603f3d011682016040523d82523d6000602084013e6118c8565b606091505b50915091508180156118da5750805115155b6119345760405162461bcd60e51b815260206004820152602560248201527f5472616e7366657248656c7065723a2062616c616e63654f662063616c6c2066604482015264185a5b195960da1b6064820152608401610288565b80806020019051810190611948919061236c565b95945050505050565b60008061195e8585611d0a565b905061196b838783611d36565b9695505050505050565b60006119818383612385565b90508084146040518060400160405280600781526020017f5057533a45303100000000000000000000000000000000000000000000000000815250906119da5760405162461bcd60e51b815260040161028891906121d6565b5050505050565b6000806000846001600160a01b0316636352211e85604051602401611a0891815260200190565b6040516020818303038152906040529060e01b6020820180516001600160e01b038381831617835250505050604051611a4191906122eb565b6000604051808303816000865af19150503d8060008114611a7e576040519150601f19603f3d011682016040523d82523d6000602084013e611a83565b606091505b5091509150818015611a955750805115155b611aed5760405162461bcd60e51b815260206004820152602360248201527f5472616e7366657248656c7065723a206f776e65724f662063616c6c206661696044820152621b195960ea1b6064820152608401610288565b8080602001905181019061194891906123a6565b6000806000856001600160a01b031662fdd58e8686604051602401611b3b9291906001600160a01b03929092168252602082015260400190565b6040516020818303038152906040529060e01b6020820180516001600160e01b038381831617835250505050604051611b7491906122eb565b6000604051808303816000865af19150503d8060008114611bb1576040519150601f19603f3d011682016040523d82523d6000602084013e611bb6565b606091505b5091509150818015611bc85750805115155b611c225760405162461bcd60e51b815260206004820152602560248201527f5472616e7366657248656c7065723a2062616c616e63654f662063616c6c2066604482015264185a5b195960da1b6064820152608401610288565b8080602001905181019061196b919061236c565b600080611c5860408051808201909152600381526133ff60f01b602082015290565b8051602091820120604080517fff00000000000000000000000000000000000000000000000000000000000000818501526bffffffffffffffffffffffff19606088901b1660218201526035810188905260558082018490528251808303909101815260759091019091528051920191909120909150610879565b600080611cf560408051808201909152600381526133ff60f01b602082015290565b9050611d0360008483611d36565b9392505050565b60608282604051602001611d1f9291906123c3565b604051602081830303815290604052905092915050565b60008084471015611d895760405162461bcd60e51b815260206004820152601d60248201527f437265617465323a20696e73756666696369656e742062616c616e63650000006044820152606401610288565b8251600003611dda5760405162461bcd60e51b815260206004820181905260248201527f437265617465323a2062797465636f6465206c656e677468206973207a65726f6044820152606401610288565b8383516020850187f590506001600160a01b0381166108795760405162461bcd60e51b815260206004820152601960248201527f437265617465323a204661696c6564206f6e206465706c6f79000000000000006044820152606401610288565b6001600160a01b0381168114611e5057600080fd5b50565b634e487b7160e01b600052604160045260246000fd5b604051601f8201601f1916810167ffffffffffffffff81118282101715611e9257611e92611e53565b604052919050565b60008060008060808587031215611eb057600080fd5b8435611ebb81611e3b565b9350602085810135611ecc81611e3b565b935060408601359250606086013567ffffffffffffffff80821115611ef057600080fd5b818801915088601f830112611f0457600080fd5b813581811115611f1657611f16611e53565b611f28601f8201601f19168501611e69565b91508082528984828501011115611f3e57600080fd5b808484018584013760008482840101525080935050505092959194509250565b600060a08284031215611f7057600080fd5b50919050565b600060c08284031215611f7057600080fd5b60008060408385031215611f9b57600080fd5b823591506020830135611fad81611e3b565b809150509250929050565b600060208284031215611fca57600080fd5b5035919050565b60008060008060008060a08789031215611fea57600080fd5b8635611ff581611e3b565b9550602087013561200581611e3b565b94506040870135935060608701359250608087013567ffffffffffffffff8082111561203057600080fd5b818901915089601f83011261204457600080fd5b81358181111561205357600080fd5b8a602082850101111561206557600080fd5b6020830194508093505050509295509295509295565b803560ff8116811461208c57600080fd5b919050565b80356001600160601b038116811461208c57600080fd5b600060a082840312156120ba57600080fd5b60405160a0810181811067ffffffffffffffff821117156120dd576120dd611e53565b6040526120e98361207b565b815260208301356120f981611e3b565b602082015260408381013590820152606083013561211681611e3b565b606082015261212760808401612091565b60808201529392505050565b60006020828403121561214557600080fd5b611d038261207b565b60006020828403121561216057600080fd5b611d0382612091565b60006020828403121561217b57600080fd5b8135611d0381611e3b565b60005b838110156121a1578181015183820152602001612189565b50506000910152565b600081518084526121c2816020860160208601612186565b601f01601f19169290920160200192915050565b602081526000611d0360208301846121aa565b60a0810160ff6121f88461207b565b168252602083013561220981611e3b565b6001600160a01b038082166020850152604085013560408501526060850135915061223382611e3b565b1660608301526001600160601b0361224d60808501612091565b16608083015292915050565b600060c0828403121561226b57600080fd5b60405160c0810181811067ffffffffffffffff8211171561228e5761228e611e53565b60405261229a8361207b565b815260208301356122aa81611e3b565b80602083015250604083013560408201526060830135606082015260808301356122d381611e3b565b608082015260a0928301359281019290925250919050565b600082516122fd818460208701612186565b9190910192915050565b60006001600160a01b03808816835280871660208401525084604083015283606083015260a0608083015261233f60a08301846121aa565b979650505050505050565b60006020828403121561235c57600080fd5b81518015158114611d0357600080fd5b60006020828403121561237e57600080fd5b5051919050565b818103818111156116e957634e487b7160e01b600052601160045260246000fd5b6000602082840312156123b857600080fd5b8151611d0381611e3b565b7f3d6014602a3d395160601c3d3d603e80380380913d393d343d955af16026573d81527f908181803efd5b80f3000000000000000000000000000000000000000000000060208201526001600160601b03198360601b16602a8201526000825161243481603e850160208701612186565b91909101603e01939250505056fea164736f6c6343000810000a",
  "devdoc": {
    "author": "Pantherprotocol Contributors",
    "details": "It transfers assets from user to itself (Lock) and vice versa (Unlock). `PantherPool` is assumed to be the only `owner` who is authorized to trigger locking/unlocking assets.",
    "kind": "dev",
    "methods": {},
    "title": "Vault",
    "version": 1
  },
  "userdoc": {
    "kind": "user",
    "methods": {
      "OWNER()": {
        "notice": "The owner who has privileged rights"
      }
    },
    "notice": "Holder of assets (tokens) for `PantherPool` contract",
    "version": 1
  },
  "storageLayout": {
    "storage": [],
    "types": null
  }
}