{
  "address": "0xd56D205A12C7f280721D38A2694208848B568419",
  "abi": [
    {
      "inputs": [
        {
          "internalType": "address",
          "name": "_zAccountsRegistry",
          "type": "address"
        }
      ],
      "stateMutability": "nonpayable",
      "type": "constructor"
    },
    {
      "inputs": [
        {
          "internalType": "uint8",
          "name": "",
          "type": "uint8"
        },
        {
          "internalType": "uint256",
          "name": "",
          "type": "uint256"
        },
        {
          "internalType": "address",
          "name": "_signer",
          "type": "address"
        },
        {
          "internalType": "address",
          "name": "",
          "type": "address"
        },
        {
          "internalType": "address",
          "name": "",
          "type": "address"
        }
      ],
      "name": "resolveRequest",
      "outputs": [
        {
          "internalType": "bool",
          "name": "",
          "type": "bool"
        }
      ],
      "stateMutability": "view",
      "type": "function"
    },
    {
      "inputs": [],
      "name": "zAccountsRegistry",
      "outputs": [
        {
          "internalType": "contract IZAccountsRegistry",
          "name": "",
          "type": "address"
        }
      ],
      "stateMutability": "view",
      "type": "function"
    }
  ],
  "transactionHash": "0x6ef2d8a1926dd23d012d901848ece9e8f4e449cc9204eb00e60af06c502b9658",
  "args": [
    "0x518cD70a767d87Bcec1262adcf7bf5520e2e3B5D"
  ],
  "numDeployments": 1,
  "solcInputHash": "8ced4b4e64f70b0ab3e17932cf8fd4ee",
  "bytecode": "0x60a060405234801561001057600080fd5b506040516102f83803806102f883398101604081905261002f9161008e565b6001600160a01b03811661007d5760405162461bcd60e51b8152602060048201526011602482015270696e69743a7a65726f206164647265737360781b604482015260640160405180910390fd5b6001600160a01b03166080526100be565b6000602082840312156100a057600080fd5b81516001600160a01b03811681146100b757600080fd5b9392505050565b60805161021a6100de600039600081816068015260de015261021a6000f3fe608060405234801561001057600080fd5b50600436106100365760003560e01c8063834033761461003b578063cf72fa9d14610063575b600080fd5b61004e61004936600461017e565b6100af565b60405190151581526020015b60405180910390f35b61008a7f000000000000000000000000000000000000000000000000000000000000000081565b60405173ffffffffffffffffffffffffffffffffffffffff909116815260200161005a565b60405163491ea32560e11b815273ffffffffffffffffffffffffffffffffffffffff84811660048301526000917f00000000000000000000000000000000000000000000000000000000000000009091169063923d464a90602401602060405180830381865afa158015610127573d6000803e3d6000fd5b505050506040513d601f19601f8201168201806040525081019061014b91906101e4565b9695505050505050565b803573ffffffffffffffffffffffffffffffffffffffff8116811461017957600080fd5b919050565b600080600080600060a0868803121561019657600080fd5b853560ff811681146101a757600080fd5b9450602086013593506101bc60408701610155565b92506101ca60608701610155565b91506101d860808701610155565b90509295509295909350565b6000602082840312156101f657600080fd5b8151801515811461020657600080fd5b939250505056fea164736f6c6343000810000a",
  "devdoc": {
    "kind": "dev",
    "methods": {},
    "version": 1
  },
  "userdoc": {
    "kind": "user",
    "methods": {},
    "version": 1
  },
  "storageLayout": {
    "storage": [],
    "types": null
  }
}