{
  "address": "0x08150e8A49D6F11f0b6415cbF7A464162BA5e953",
  "abi": [
    {
      "inputs": [
        {
          "internalType": "address",
          "name": "_owner",
          "type": "address"
        },
        {
          "internalType": "uint8",
          "name": "_zAccountVersion",
          "type": "uint8"
        },
        {
          "internalType": "address",
          "name": "pantherPool",
          "type": "address"
        },
        {
          "internalType": "address",
          "name": "pantherStaticTree",
          "type": "address"
        },
        {
          "internalType": "address",
          "name": "onboardingController",
          "type": "address"
        }
      ],
      "stateMutability": "nonpayable",
      "type": "constructor"
    },
    {
      "anonymous": false,
      "inputs": [
        {
          "indexed": false,
          "internalType": "address",
          "name": "masterEoa",
          "type": "address"
        },
        {
          "indexed": false,
          "internalType": "bool",
          "name": "isBlackListed",
          "type": "bool"
        }
      ],
      "name": "BlacklistForMasterEoaUpdated",
      "type": "event"
    },
    {
      "anonymous": false,
      "inputs": [
        {
          "indexed": false,
          "internalType": "bytes32",
          "name": "packedPubRootSpendingKey",
          "type": "bytes32"
        },
        {
          "indexed": false,
          "internalType": "bool",
          "name": "isBlackListed",
          "type": "bool"
        }
      ],
      "name": "BlacklistForPubRootSpendingKeyUpdated",
      "type": "event"
    },
    {
      "anonymous": false,
      "inputs": [
        {
          "indexed": false,
          "internalType": "uint24",
          "name": "zAccountId",
          "type": "uint24"
        },
        {
          "indexed": false,
          "internalType": "bool",
          "name": "isBlackListed",
          "type": "bool"
        }
      ],
      "name": "BlacklistForZAccountIdUpdated",
      "type": "event"
    },
    {
      "anonymous": false,
      "inputs": [
        {
          "indexed": false,
          "internalType": "uint24",
          "name": "id",
          "type": "uint24"
        }
      ],
      "name": "ZAccountActivated",
      "type": "event"
    },
    {
      "anonymous": false,
      "inputs": [
        {
          "indexed": false,
          "internalType": "address",
          "name": "masterEoa",
          "type": "address"
        },
        {
          "components": [
            {
              "internalType": "uint192",
              "name": "_unused",
              "type": "uint192"
            },
            {
              "internalType": "uint32",
              "name": "creationBlock",
              "type": "uint32"
            },
            {
              "internalType": "uint24",
              "name": "id",
              "type": "uint24"
            },
            {
              "internalType": "uint8",
              "name": "version",
              "type": "uint8"
            },
            {
              "internalType": "bytes32",
              "name": "pubRootSpendingKey",
              "type": "bytes32"
            },
            {
              "internalType": "bytes32",
              "name": "pubReadingKey",
              "type": "bytes32"
            }
          ],
          "indexed": false,
          "internalType": "struct ZAccountsRegistry.ZAccount",
          "name": "zAccount",
          "type": "tuple"
        }
      ],
      "name": "ZAccountRegistered",
      "type": "event"
    },
    {
      "inputs": [],
      "name": "EIP712_NAME",
      "outputs": [
        {
          "internalType": "string",
          "name": "",
          "type": "string"
        }
      ],
      "stateMutability": "view",
      "type": "function"
    },
    {
      "inputs": [],
      "name": "EIP712_SALT",
      "outputs": [
        {
          "internalType": "bytes32",
          "name": "",
          "type": "bytes32"
        }
      ],
      "stateMutability": "view",
      "type": "function"
    },
    {
      "inputs": [],
      "name": "EIP712_VERSION",
      "outputs": [
        {
          "internalType": "string",
          "name": "",
          "type": "string"
        }
      ],
      "stateMutability": "view",
      "type": "function"
    },
    {
      "inputs": [],
      "name": "ONBOARDING_CONTROLLER",
      "outputs": [
        {
          "internalType": "contract IOnboardingController",
          "name": "",
          "type": "address"
        }
      ],
      "stateMutability": "view",
      "type": "function"
    },
    {
      "inputs": [],
      "name": "OWNER",
      "outputs": [
        {
          "internalType": "address",
          "name": "",
          "type": "address"
        }
      ],
      "stateMutability": "view",
      "type": "function"
    },
    {
      "inputs": [],
      "name": "PANTHER_POOL",
      "outputs": [
        {
          "internalType": "contract IPantherPoolV1",
          "name": "",
          "type": "address"
        }
      ],
      "stateMutability": "view",
      "type": "function"
    },
    {
      "inputs": [],
      "name": "PANTHER_STATIC_TREE",
      "outputs": [
        {
          "internalType": "contract ITreeRootUpdater",
          "name": "",
          "type": "address"
        }
      ],
      "stateMutability": "view",
      "type": "function"
    },
    {
      "inputs": [],
      "name": "ZACCOUNT_VERSION",
      "outputs": [
        {
          "internalType": "uint8",
          "name": "",
          "type": "uint8"
        }
      ],
      "stateMutability": "view",
      "type": "function"
    },
    {
      "inputs": [
        {
          "internalType": "uint256[]",
          "name": "inputs",
          "type": "uint256[]"
        },
        {
          "internalType": "bytes",
          "name": "privateMessages",
          "type": "bytes"
        },
        {
          "components": [
            {
              "components": [
                {
                  "internalType": "uint256",
                  "name": "x",
                  "type": "uint256"
                },
                {
                  "internalType": "uint256",
                  "name": "y",
                  "type": "uint256"
                }
              ],
              "internalType": "struct G1Point",
              "name": "a",
              "type": "tuple"
            },
            {
              "components": [
                {
                  "internalType": "uint256[2]",
                  "name": "x",
                  "type": "uint256[2]"
                },
                {
                  "internalType": "uint256[2]",
                  "name": "y",
                  "type": "uint256[2]"
                }
              ],
              "internalType": "struct G2Point",
              "name": "b",
              "type": "tuple"
            },
            {
              "components": [
                {
                  "internalType": "uint256",
                  "name": "x",
                  "type": "uint256"
                },
                {
                  "internalType": "uint256",
                  "name": "y",
                  "type": "uint256"
                }
              ],
              "internalType": "struct G1Point",
              "name": "c",
              "type": "tuple"
            }
          ],
          "internalType": "struct SnarkProof",
          "name": "proof",
          "type": "tuple"
        },
        {
          "internalType": "uint256",
          "name": "cachedForestRootIndex",
          "type": "uint256"
        }
      ],
      "name": "activateZAccount",
      "outputs": [
        {
          "internalType": "uint256",
          "name": "utxoBusQueuePos",
          "type": "uint256"
        }
      ],
      "stateMutability": "nonpayable",
      "type": "function"
    },
    {
      "inputs": [
        {
          "internalType": "address[]",
          "name": "masterEoas",
          "type": "address[]"
        },
        {
          "internalType": "bool[]",
          "name": "isBlackListed",
          "type": "bool[]"
        }
      ],
      "name": "batchUpdateBlacklistForMasterEoa",
      "outputs": [],
      "stateMutability": "nonpayable",
      "type": "function"
    },
    {
      "inputs": [
        {
          "internalType": "bytes32[]",
          "name": "packedPubRootSpendingKeys",
          "type": "bytes32[]"
        },
        {
          "internalType": "bool[]",
          "name": "isBlackListed",
          "type": "bool[]"
        }
      ],
      "name": "batchUpdateBlacklistForPubRootSpendingKey",
      "outputs": [],
      "stateMutability": "nonpayable",
      "type": "function"
    },
    {
      "inputs": [],
      "name": "getDomainSeperator",
      "outputs": [
        {
          "internalType": "bytes32",
          "name": "",
          "type": "bytes32"
        }
      ],
      "stateMutability": "view",
      "type": "function"
    },
    {
      "inputs": [],
      "name": "getRoot",
      "outputs": [
        {
          "internalType": "bytes32",
          "name": "",
          "type": "bytes32"
        }
      ],
      "stateMutability": "view",
      "type": "function"
    },
    {
      "inputs": [
        {
          "internalType": "address",
          "name": "",
          "type": "address"
        }
      ],
      "name": "isMasterEoaBlacklisted",
      "outputs": [
        {
          "internalType": "bool",
          "name": "",
          "type": "bool"
        }
      ],
      "stateMutability": "view",
      "type": "function"
    },
    {
      "inputs": [
        {
          "internalType": "bytes32",
          "name": "",
          "type": "bytes32"
        }
      ],
      "name": "isPubRootSpendingKeyBlacklisted",
      "outputs": [
        {
          "internalType": "bool",
          "name": "",
          "type": "bool"
        }
      ],
      "stateMutability": "view",
      "type": "function"
    },
    {
      "inputs": [
        {
          "internalType": "uint24",
          "name": "",
          "type": "uint24"
        }
      ],
      "name": "isZAccountIdBlacklisted",
      "outputs": [
        {
          "internalType": "bool",
          "name": "",
          "type": "bool"
        }
      ],
      "stateMutability": "view",
      "type": "function"
    },
    {
      "inputs": [
        {
          "internalType": "address",
          "name": "_masterEOA",
          "type": "address"
        }
      ],
      "name": "isZAccountWhitelisted",
      "outputs": [
        {
          "internalType": "bool",
          "name": "isWhitelisted",
          "type": "bool"
        }
      ],
      "stateMutability": "view",
      "type": "function"
    },
    {
      "inputs": [
        {
          "internalType": "uint24",
          "name": "",
          "type": "uint24"
        }
      ],
      "name": "masterEOAs",
      "outputs": [
        {
          "internalType": "address",
          "name": "",
          "type": "address"
        }
      ],
      "stateMutability": "view",
      "type": "function"
    },
    {
      "inputs": [
        {
          "components": [
            {
              "internalType": "uint256",
              "name": "x",
              "type": "uint256"
            },
            {
              "internalType": "uint256",
              "name": "y",
              "type": "uint256"
            }
          ],
          "internalType": "struct G1Point",
          "name": "_pubRootSpendingKey",
          "type": "tuple"
        },
        {
          "components": [
            {
              "internalType": "uint256",
              "name": "x",
              "type": "uint256"
            },
            {
              "internalType": "uint256",
              "name": "y",
              "type": "uint256"
            }
          ],
          "internalType": "struct G1Point",
          "name": "_pubReadingKey",
          "type": "tuple"
        },
        {
          "internalType": "uint8",
          "name": "v",
          "type": "uint8"
        },
        {
          "internalType": "bytes32",
          "name": "r",
          "type": "bytes32"
        },
        {
          "internalType": "bytes32",
          "name": "s",
          "type": "bytes32"
        }
      ],
      "name": "registerZAccount",
      "outputs": [],
      "stateMutability": "nonpayable",
      "type": "function"
    },
    {
      "inputs": [
        {
          "internalType": "uint256[]",
          "name": "mainEoas",
          "type": "uint256[]"
        },
        {
          "internalType": "uint256[]",
          "name": "zoneNullifiers",
          "type": "uint256[]"
        }
      ],
      "name": "resetStorage",
      "outputs": [],
      "stateMutability": "nonpayable",
      "type": "function"
    },
    {
      "inputs": [
        {
          "internalType": "uint24",
          "name": "zAccountId",
          "type": "uint24"
        },
        {
          "internalType": "bytes32",
          "name": "leaf",
          "type": "bytes32"
        },
        {
          "internalType": "bytes32[]",
          "name": "proofSiblings",
          "type": "bytes32[]"
        },
        {
          "internalType": "bool",
          "name": "isBlacklisted",
          "type": "bool"
        }
      ],
      "name": "updateBlacklistForZAccountId",
      "outputs": [],
      "stateMutability": "nonpayable",
      "type": "function"
    },
    {
      "inputs": [],
      "name": "zAccountIdTracker",
      "outputs": [
        {
          "internalType": "uint256",
          "name": "",
          "type": "uint256"
        }
      ],
      "stateMutability": "view",
      "type": "function"
    },
    {
      "inputs": [
        {
          "internalType": "address",
          "name": "",
          "type": "address"
        }
      ],
      "name": "zAccountStatus",
      "outputs": [
        {
          "internalType": "enum ZACCOUNT_STATUS",
          "name": "",
          "type": "uint8"
        }
      ],
      "stateMutability": "view",
      "type": "function"
    },
    {
      "inputs": [
        {
          "internalType": "address",
          "name": "",
          "type": "address"
        }
      ],
      "name": "zAccounts",
      "outputs": [
        {
          "internalType": "uint192",
          "name": "_unused",
          "type": "uint192"
        },
        {
          "internalType": "uint32",
          "name": "creationBlock",
          "type": "uint32"
        },
        {
          "internalType": "uint24",
          "name": "id",
          "type": "uint24"
        },
        {
          "internalType": "uint8",
          "name": "version",
          "type": "uint8"
        },
        {
          "internalType": "bytes32",
          "name": "pubRootSpendingKey",
          "type": "bytes32"
        },
        {
          "internalType": "bytes32",
          "name": "pubReadingKey",
          "type": "bytes32"
        }
      ],
      "stateMutability": "view",
      "type": "function"
    },
    {
      "inputs": [
        {
          "internalType": "bytes32",
          "name": "",
          "type": "bytes32"
        }
      ],
      "name": "zoneZAccountNullifiers",
      "outputs": [
        {
          "internalType": "uint256",
          "name": "",
          "type": "uint256"
        }
      ],
      "stateMutability": "view",
      "type": "function"
    }
  ],
  "transactionHash": "0x08b4a26cc54e8c3a451fb8223f0eeb577f75cff478ff1e572c37f9fa83ae054f",
  "args": [
    "0xfB474a7FeCDaFBD412ebF0d60A0C32794F82d3dD",
    1,
    "0xfDfD920F2152565E9D7b589e4e9faeE6699AD4bd",
    "0xAbFdb07BC6db782F9bdd6C6BA65ee40081eFA4c4",
    "0xb376B21d53bc77078dF17CbE6af51B377E6Bae0f"
  ],
  "numDeployments": 10,
  "solcInputHash": "db0019c4f3a3eb80d2b6c8accfdbecba",
  "bytecode": "0x6101206040523480156200001257600080fd5b506040516200306b3803806200306b833981016040819052620000359162000159565b83856001600160a01b038116620000935760405162461bcd60e51b815260206004820152601a60248201527f496d6d4f776e3a207a65726f206f776e6572206164647265737300000000000060448201526064015b60405180910390fd5b6001600160a01b0390811660805260ff90911660a052831615801590620000c257506001600160a01b03821615155b8015620000d757506001600160a01b03811615155b604051806040016040528060088152602001671690548e9a5b9a5d60c21b81525090620001195760405162461bcd60e51b81526004016200008a9190620001d0565b506001600160a01b0392831660c05290821660e052166101005250620002209050565b80516001600160a01b03811681146200015457600080fd5b919050565b600080600080600060a086880312156200017257600080fd5b6200017d866200013c565b9450602086015160ff811681146200019457600080fd5b9350620001a4604087016200013c565b9250620001b4606087016200013c565b9150620001c4608087016200013c565b90509295509295909350565b600060208083528351808285015260005b81811015620001ff57858101830151858201604001528201620001e1565b506000604082860101526040601f19601f8301168501019250505092915050565b60805160a05160c05160e05161010051612dc0620002ab6000396000818161039a01528181611beb0152611cb601526000818161048401526115bd0152600081816103c10152611c830152600081816104db0152818161181801526121350152600081816101d301528181610bbf01528181610f0c0152818161119b01526113cb0152612dc06000f3fe608060405234801561001057600080fd5b50600436106101a35760003560e01c806384ff5758116100ee578063c7a629de11610097578063cc577f6611610071578063cc577f66146104d6578063cd14c8b11461050f578063eccec5a814610522578063f1fe9a471461054257600080fd5b8063c7a629de1461046c578063c99c07561461047f578063cbe10bf0146104a657600080fd5b8063adc617f7116100c8578063adc617f714610406578063b463c7cb14610429578063b8ef7fb71461044c57600080fd5b806384ff5758146103955780638f3e52de146103bc578063923d464a146103e357600080fd5b80633b2fb7a8116101505780635c9b9c891161012a5780635c9b9c89146102d25780635ca1e165146102e557806360314315146102ed57600080fd5b80633b2fb7a8146102645780634970d87c146102a05780634a0997f3146102a957600080fd5b806320379ee51161018157806320379ee51461022257806320edf18c1461022a57806322c9531a1461025157600080fd5b806303e52083146101a8578063117803e3146101ce5780631dd5be031461020d575b600080fd5b6101bb6101b6366004612550565b610565565b6040519081526020015b60405180910390f35b6101f57f000000000000000000000000000000000000000000000000000000000000000081565b6040516001600160a01b0390911681526020016101c5565b61022061021b36600461262c565b610bbd565b005b6101bb610e0a565b6101bb7f44b818e3e3a12ecf805989195d8f38e75517386006719e2dbb1443987a34db7b81565b61022061025f36600461262c565b610f0a565b6102936040518060400160405280601081526020016f14185b9d1a195c88141c9bdd1bd8dbdb60821b81525081565b6040516101c591906126e8565b6101bb60335481565b6101f56102b7366004612715565b603a602052600090815260409020546001600160a01b031681565b6102206102e03660046127b1565b611199565b6101bb6112da565b61034c6102fb366004612815565b6039602052600090815260409020805460018201546002909201546001600160c01b03821692600160c01b830463ffffffff1692600160e01b810462ffffff1692600160f81b90910460ff16919086565b604080516001600160c01b03909716875263ffffffff909516602087015262ffffff9093169385019390935260ff166060840152608083019190915260a082015260c0016101c5565b6101f57f000000000000000000000000000000000000000000000000000000000000000081565b6101f57f000000000000000000000000000000000000000000000000000000000000000081565b6103f66103f1366004612815565b61130f565b60405190151581526020016101c5565b6103f6610414366004612715565b60386020526000908152604090205460ff1681565b6103f6610437366004612815565b60366020526000908152604090205460ff1681565b6101bb61045a36600461283e565b60346020526000908152604090205481565b61022061047a366004612867565b6113c9565b6101f57f000000000000000000000000000000000000000000000000000000000000000081565b6104c96104b4366004612815565b60356020526000908152604090205460ff1681565b6040516101c591906128ec565b6104fd7f000000000000000000000000000000000000000000000000000000000000000081565b60405160ff90911681526020016101c5565b61022061051d366004612963565b611669565b610293604051806040016040528060018152602001603160f81b81525081565b6103f661055036600461283e565b60376020526000908152604090205460ff1681565b60008585600281811061057a5761057a6129c2565b905060200201356000146040518060400160405280600781526020017f5a41523a45313600000000000000000000000000000000000000000000000000815250906105e15760405162461bcd60e51b81526004016105d891906126e8565b60405180910390fd5b506000868660008181106105f7576105f76129c2565b905060200201359050600085846040516020016106159291906129d8565b60408051601f198184030181529190528051602082012090915061065a907f30644e72e131a029b85045b68181585d2833e84879b9709143e1f593f0000001906129fa565b82146040518060400160405280600781526020017f5a41523a45313100000000000000000000000000000000000000000000000000815250906106b05760405162461bcd60e51b81526004016105d891906126e8565b5050506000868660048181106106c8576106c86129c2565b905060200201359050806000146040518060400160405280600781526020017f5a41523a45313300000000000000000000000000000000000000000000000000815250906107295760405162461bcd60e51b81526004016105d891906126e8565b5050600061074f87876003818110610743576107436129c2565b90506020020135611a2b565b905060008787600c818110610766576107666129c2565b62ffffff85166000908152603a602090815260409182902054825180840190935260068352652d20a91d229b60d11b838301529202939093013593506001600160a01b0380851691161490506107cf5760405162461bcd60e51b81526004016105d891906126e8565b50600061082160405180604001604052808b8b60068181106107f3576107f36129c2565b9050602002013581526020018b8b6007818110610812576108126129c2565b90506020020135815250611a84565b9050600080610831858585611ac4565b91509150811581906108565760405162461bcd60e51b81526004016105d891906126e8565b5050505060008888600881811061086f5761086f6129c2565b90506020020135905060008989600981811061088d5761088d6129c2565b905060200201359050816000141580156108a657508015155b6040518060400160405280600781526020017f5a41523a45313700000000000000000000000000000000000000000000000000815250906108fa5760405162461bcd60e51b81526004016105d891906126e8565b50505060008888600a818110610912576109126129c2565b90506020020135905060008989600b818110610930576109306129c2565b9050602002013590508160001415801561094957508015155b6040518060400160405280600781526020017f5a41523a453138000000000000000000000000000000000000000000000000008152509061099d5760405162461bcd60e51b81526004016105d891906126e8565b50505060008888600d8181106109b5576109b56129c2565b9050602002013560001b905060346000828152602001908152602001600020546000146040518060400160405280600681526020017f5a41523a4535000000000000000000000000000000000000000000000000000081525090610a2c5760405162461bcd60e51b81526004016105d891906126e8565b5060009081526034602090815260408083204390556001600160a01b0384168352603590915290205460ff166001816002811115610a6c57610a6c6128d6565b03610a95576001600160a01b0382166000908152603560205260409020805460ff191660021790555b6000610aef83836002811115610aad57610aad6128d6565b60028d8d6011818110610ac257610ac26129c2565b90506020020135604051602001610adb91815260200190565b604051602081830303815290604052611bd1565b905060008a8a6001818110610b0657610b066129c2565b9050602002013590508082146040518060400160405280600781526020017f5a41523a4531320000000000000000000000000000000000000000000000000081525090610b665760405162461bcd60e51b81526004016105d891906126e8565b505050610b768989888a89611c69565b60405162ffffff851681529094507fdc02c3befffd2a4f92511c89886e8238193ede29a8939bf8c631ba549eeafb209060200160405180910390a150505095945050505050565b7f00000000000000000000000000000000000000000000000000000000000000006001600160a01b03163314610c2c5760405162461bcd60e51b8152602060048201526014602482015273125b5b53dddb8e881d5b985d5d1a1bdc9a5e995960621b60448201526064016105d8565b6040805180820190915260068152655a41523a453760d01b6020820152838214610c695760405162461bcd60e51b81526004016105d891906126e8565b5060005b83811015610e0357828282818110610c8757610c876129c2565b9050602002016020810190610c9c9190612a1c565b151560376000878785818110610cb457610cb46129c2565b90506020020135815260200190815260200160002060009054906101000a900460ff1615151415604051806040016040528060068152602001650b482a4748a760d31b81525090610d185760405162461bcd60e51b81526004016105d891906126e8565b50828282818110610d2b57610d2b6129c2565b9050602002016020810190610d409190612a1c565b60376000878785818110610d5657610d566129c2565b90506020020135815260200190815260200160002060006101000a81548160ff0219169083151502179055507f57836c6e28b7607fcb54ef9169c69f14460bb2d70d40f2c62d9c20d2c9ba3d98858583818110610db557610db56129c2565b90506020020135848484818110610dce57610dce6129c2565b9050602002016020810190610de39190612a1c565b6040805192835290151560208301520160405180910390a1600101610c6d565b5050505050565b60006040518060800160405280605f8152602001612d55605f91398051602091820120604080518082018252601081526f14185b9d1a195c88141c9bdd1bd8dbdb60821b908401528051808201825260018152603160f81b908401528051928301919091527fbd6ac11eb0311bac3ff64366cc16db374956ada90d1e2aa6bb4faed25fc1d0cd908201527fc89efdaa54c0f20c7adf612882df0950f5a951637e0307cdcb4c672f298b8bc660608201524660808201523060a08201527f44b818e3e3a12ecf805989195d8f38e75517386006719e2dbb1443987a34db7b60c082015260e00160405160208183030381529060405280519060200120905090565b7f00000000000000000000000000000000000000000000000000000000000000006001600160a01b03163314610f795760405162461bcd60e51b8152602060048201526014602482015273125b5b53dddb8e881d5b985d5d1a1bdc9a5e995960621b60448201526064016105d8565b6040805180820190915260068152655a41523a453760d01b6020820152838214610fb65760405162461bcd60e51b81526004016105d891906126e8565b5060005b83811015610e0357828282818110610fd457610fd46129c2565b9050602002016020810190610fe99190612a1c565b151560366000878785818110611001576110016129c2565b90506020020160208101906110169190612815565b6001600160a01b03166001600160a01b0316815260200190815260200160002060009054906101000a900460ff1615151415604051806040016040528060068152602001650b482a4748a760d31b815250906110855760405162461bcd60e51b81526004016105d891906126e8565b50828282818110611098576110986129c2565b90506020020160208101906110ad9190612a1c565b603660008787858181106110c3576110c36129c2565b90506020020160208101906110d89190612815565b6001600160a01b031681526020810191909152604001600020805460ff19169115159190911790557f317b703ab5e9a8a94f27c3e386e8fd5e8e69bde97b4cabf3de6986ab31432f9f858583818110611133576111336129c2565b90506020020160208101906111489190612815565b84848481811061115a5761115a6129c2565b905060200201602081019061116f9190612a1c565b604080516001600160a01b03909316835290151560208301520160405180910390a1600101610fba565b7f00000000000000000000000000000000000000000000000000000000000000006001600160a01b031633146112085760405162461bcd60e51b8152602060048201526014602482015273125b5b53dddb8e881d5b985d5d1a1bdc9a5e995960621b60448201526064016105d8565b60005b82518110156112805760016035600085848151811061122c5761122c6129c2565b6020908102919091018101516001600160a01b03168252810191909152604001600020805460ff19166001836002811115611269576112696128d6565b02179055508061127881612a4d565b91505061120b565b5060005b81518110156112d5576000603460008484815181106112a5576112a56129c2565b602002602001015160001b81526020019081526020016000208190555080806112cd90612a4d565b915050611284565b505050565b60008054156112ea575060005490565b507f2a7c7c9b6ce5880b9f6f228d72bf6a575a526f29c66ecceef8b753d38bba732390565b6001600160a01b038181166000908152603960209081526040808320815160c08101835281546001600160c01b0381168252600160c01b810463ffffffff1682860152600160e01b810462ffffff16828501818152600160f81b90920460ff16606084015260018401546080840190815260029094015460a08401528652603a9094529184205492519051939491939290911615159184916113b2918790611ac4565b5090508180156113c0575080155b95945050505050565b7f00000000000000000000000000000000000000000000000000000000000000006001600160a01b031633146114385760405162461bcd60e51b8152602060048201526014602482015273125b5b53dddb8e881d5b985d5d1a1bdc9a5e995960621b60448201526064016105d8565b62ffffff85166000908152603a602090815260409182902054825180840190935260068352652d20a91d229b60d11b918301919091526001600160a01b03166114945760405162461bcd60e51b81526004016105d891906126e8565b5062ffffff851660009081526038602090815260409182902054825180840190935260068352650b482a4748a760d31b9183019190915260ff161515821515036114f15760405162461bcd60e51b81526004016105d891906126e8565b506000811561153f576115388686868680806020026020016040519081016040528093929190818152602001838360200280828437600092019190915250611d7892505050565b9050611580565b61157d8686868680806020026020016040519081016040528093929190818152602001838360200280828437600092019190915250611db292505050565b90505b62ffffff861660009081526038602052604090819020805460ff19168415151790555163c2e3e62b60e01b815260048101829052600160248201527f00000000000000000000000000000000000000000000000000000000000000006001600160a01b03169063c2e3e62b90604401600060405180830381600087803b15801561160957600080fd5b505af115801561161d573d6000803e3d6000fd5b50506040805162ffffff8a16815285151560208201527fe537daabb339ea043fe1498519b689d76b7a2a3f067b86d7eef6e3f12cf0a5dc935001905060405180910390a1505050505050565b600061167486611a84565b9050600061168186611a84565b60008381526037602090815260409182902054825180840190935260068352655a41523a453360d01b918301919091529192509060ff16156116d65760405162461bcd60e51b81526004016105d891906126e8565b5060006116e68383888888611ddd565b6001600160a01b03811660009081526036602090815260409182902054825180840190935260068352652d20a91d229960d11b918301919091529192509060ff16156117455760405162461bcd60e51b81526004016105d891906126e8565b506001600160a01b03811660009081526035602052604081205460ff166002811115611773576117736128d6565b146040518060400160405280600681526020017f5a41523a45340000000000000000000000000000000000000000000000000000815250906117c85760405162461bcd60e51b81526004016105d891906126e8565b5060006117d3611e11565b905060006040518060c0016040528060006001600160c01b031681526020016117fb43611e40565b63ffffffff908116825262ffffff808616602080850182905260ff7f0000000000000000000000000000000000000000000000000000000000000000811660408088019190915260608088018e905260809788018d90526000948552603a845281852080546001600160a01b038e167fffffffffffffffffffffffff00000000000000000000000000000000000000009091168117909155855260398452818520895181548b8701518c860151948d0151909616600160f81b027effffffffffffffffffffffffffffffffffffffffffffffffffffffffffffff94909916600160e01b02939093167bffffffffffffffffffffffffffffffffffffffffffffffffffffffff95909916600160c01b027fffffffff000000000000000000000000000000000000000000000000000000009093166001600160c01b03909116179190911792909216959095179390931783559385015160018381019190915560a0860151600290930192909255603590935291208054929350909160ff1916828002179055507fff2b812b4b9e43b7e8063fd7974bbf2bf8f989e77f8e1e3838def346e7ea91c38382604051611a17929190600060e0820190506001600160a01b03841682526001600160c01b03835116602083015263ffffffff602084015116604083015262ffffff604084015116606083015260ff6060840151166080830152608083015160a083015260a083015160c08301529392505050565b60405180910390a150505050505050505050565b600063010000008210611a805760405162461bcd60e51b815260206004820152600860248201527f554e53414645323400000000000000000000000000000000000000000000000060448201526064016105d8565b5090565b602081015181517f183227397098d014dc2822db40c0ac2e9419f4243cdcb848a1f0fac9f80000001015611abf57506020810151600160ff1b175b919050565b62ffffff831660009081526038602052604081205460609060ff1615611b2657611b23816040518060400160405280600681526020017f5a41523a45310000000000000000000000000000000000000000000000000000815250611e96565b90505b6001600160a01b03841660009081526036602052604090205460ff1615611b7257611b6f81604051806040016040528060068152602001652d20a91d229960d11b815250611e96565b90505b60008381526037602052604090205460ff1615611bb457611bb181604051806040016040528060068152602001655a41523a453360d01b815250611e96565b90505b6000815111611bc4576000611bc7565b60015b9150935093915050565b604051630b73522f60e01b81526000906001600160a01b037f00000000000000000000000000000000000000000000000000000000000000001690630b73522f90611c26908890889088908890600401612a66565b6020604051808303816000875af1158015611c45573d6000803e3d6000fd5b505050506040513d601f19601f820116820180604052508101906113c09190612a9a565b6040516316a6f74360e21b81526000906001600160a01b037f00000000000000000000000000000000000000000000000000000000000000001690635a9bdd0c90611ce2908990899089907f0000000000000000000000000000000000000000000000000000000000000000908a908a90600401612ab3565b6020604051808303816000875af1925050508015611d1d575060408051601f3d908101601f19168201909252611d1a91810190612a9a565b60015b611d6e57611d29612b7f565b806308c379a003611d625750611d3d612b9b565b80611d485750611d64565b8060405162461bcd60e51b81526004016105d891906126e8565b505b3d6000803e3d6000fd5b9695505050505050565b6000806000611d8686611f01565b60005491935091506001831b861790611da29087838589611f76565b6000819055979650505050505050565b6000806000611dc086611f01565b60005491935091506001831b19861690611da29087838589611f76565b600080611dea87876120f9565b90506000611df78261217d565b9050611e05818787876121d2565b98975050505050505050565b60335460fe60ff821610611e2f57611e2a600282612c25565b611e3a565b611e3a816001612c25565b60335590565b60006401000000008210611a805760405162461bcd60e51b815260206004820152600860248201527f554e53414645333200000000000000000000000000000000000000000000000060448201526064016105d8565b60606000835111611eb65760405180602001604052806000815250611ed7565b82604051602001611ec79190612c38565b6040516020818303038152906040525b82604051602001611ee9929190612c5d565b60405160208183030381529060405290505b92915050565b60ff8116600060fe82106040518060400160405280600681526020017f5a41523a4539000000000000000000000000000000000000000000000000000081525090611f5f5760405162461bcd60e51b81526004016105d891906126e8565b5060088362ffffff16901c62ffffff169050915091565b6000848403611fed5760405162461bcd60e51b815260206004820152602a60248201527f424955543a204e6577206c6561662063616e6e6f7420626520657175616c207460448201527f6865206f6c64206f6e650000000000000000000000000000000000000000000060648201526084016105d8565b611ff986868585612291565b6120505760405162461bcd60e51b815260206004820152602260248201527f424955543a204c656166206973206e6f742070617274206f6620746865207472604482015261656560f01b60648201526084016105d8565b50826000805b83518110156120ee578085901c6001169150816000036120ad576120a66040518060400160405280858152602001868481518110612096576120966129c2565b602002602001015181525061239c565b92506120e6565b6120e360405180604001604052808684815181106120cd576120cd6129c2565b602002602001015181526020018581525061239c565b92505b600101612056565b505095945050505050565b60006040518060800160405280604e8152602001612d07604e9139805160209182012060408051928301919091528101849052606081018390527f000000000000000000000000000000000000000000000000000000000000000060ff16608082015260a00160405160208183030381529060405280519060200120905092915050565b600060405180604001604052806002815260200161190160f01b8152506121a2610e0a565b836040516020016121b593929190612c8c565b604051602081830303815290604052805190602001209050919050565b6040805160008082526020820180845287905260ff861692820192909252606081018490526080810183905260019060a0016020604051602081039080840390855afa158015612226573d6000803e3d6000fd5b5050604051601f1901519150506001600160a01b0381166122895760405162461bcd60e51b815260206004820152601760248201527f454344534120696e76616c6964207369676e617475726500000000000000000060448201526064016105d8565b949350505050565b80516000906001901b8084106122e95760405162461bcd60e51b815260206004820152601860248201527f424955543a20696e76616c6964206c65616620696e646578000000000000000060448201526064016105d8565b846000805b8551811015612360578087901c6001169150816000036123355761232e6040518060400160405280858152602001888481518110612096576120966129c2565b9250612358565b61235560405180604001604052808884815181106120cd576120cd6129c2565b92505b6001016122ee565b50871561236f57878214611e05565b507f2a7c7c9b6ce5880b9f6f228d72bf6a575a526f29c66ecceef8b753d38bba7323149695505050505050565b6000611efb8280516000907f30644e72e131a029b85045b68181585d2833e84879b9709143e1f593f00000011180156123f8575060208201517f30644e72e131a029b85045b68181585d2833e84879b9709143e1f593f0000001115b604051806060016040528060228152602001612ce5602291399061242f5760405162461bcd60e51b81526004016105d891906126e8565b5060405163014cf2b360e51b8152737Ae48edd2Ee06Ba80863A196361B4bAAa5d8F8b19063299e566090612467908590600401612cb3565b602060405180830381865af4158015612484573d6000803e3d6000fd5b505050506040513d601f19601f82011682018060405250810190611efb9190612a9a565b60008083601f8401126124ba57600080fd5b50813567ffffffffffffffff8111156124d257600080fd5b6020830191508360208260051b85010111156124ed57600080fd5b9250929050565b634e487b7160e01b600052604160045260246000fd5b601f8201601f1916810167ffffffffffffffff81118282101715612530576125306124f4565b6040525050565b6000610100828403121561254a57600080fd5b50919050565b6000806000806000610160868803121561256957600080fd5b853567ffffffffffffffff8082111561258157600080fd5b61258d89838a016124a8565b90975095506020915087820135818111156125a757600080fd5b8801601f81018a136125b857600080fd5b8035828111156125ca576125ca6124f4565b60405192506125e2601f8201601f191685018461250a565b8083528a848284010111156125f657600080fd5b808483018585013760008482850101525050809450505061261a8760408801612537565b94979396509194610140013592915050565b6000806000806040858703121561264257600080fd5b843567ffffffffffffffff8082111561265a57600080fd5b612666888389016124a8565b9096509450602087013591508082111561267f57600080fd5b5061268c878288016124a8565b95989497509550505050565b60005b838110156126b357818101518382015260200161269b565b50506000910152565b600081518084526126d4816020860160208601612698565b601f01601f19169290920160200192915050565b6020815260006126fb60208301846126bc565b9392505050565b803562ffffff81168114611abf57600080fd5b60006020828403121561272757600080fd5b6126fb82612702565b600082601f83011261274157600080fd5b8135602067ffffffffffffffff82111561275d5761275d6124f4565b8160051b6040516127708383018261250a565b9283528481018201928281018785111561278957600080fd5b83870192505b848310156127a6578235815291830191830161278f565b509695505050505050565b600080604083850312156127c457600080fd5b823567ffffffffffffffff808211156127dc57600080fd5b6127e886838701612730565b935060208501359150808211156127fe57600080fd5b5061280b85828601612730565b9150509250929050565b60006020828403121561282757600080fd5b81356001600160a01b03811681146126fb57600080fd5b60006020828403121561285057600080fd5b5035919050565b80358015158114611abf57600080fd5b60008060008060006080868803121561287f57600080fd5b61288886612702565b945060208601359350604086013567ffffffffffffffff8111156128ab57600080fd5b6128b7888289016124a8565b90945092506128ca905060608701612857565b90509295509295909350565b634e487b7160e01b600052602160045260246000fd5b602081016003831061290e57634e487b7160e01b600052602160045260246000fd5b91905290565b60006040828403121561292657600080fd5b6040516040810181811067ffffffffffffffff82111715612949576129496124f4565b604052823581526020928301359281019290925250919050565b600080600080600060e0868803121561297b57600080fd5b6129858787612914565b94506129948760408801612914565b9350608086013560ff811681146129aa57600080fd5b9497939650939460a0810135945060c0013592915050565b634e487b7160e01b600052603260045260246000fd5b600083516129ea818460208801612698565b9190910191825250602001919050565b600082612a1757634e487b7160e01b600052601260045260246000fd5b500690565b600060208284031215612a2e57600080fd5b6126fb82612857565b634e487b7160e01b600052601160045260246000fd5b600060018201612a5f57612a5f612a37565b5060010190565b6001600160a01b038516815260ff8416602082015260ff83166040820152608060608201526000611d6e60808301846126bc565b600060208284031215612aac57600080fd5b5051919050565b610180808252810186905260006101a07f07ffffffffffffffffffffffffffffffffffffffffffffffffffffffffffffff881115612af057600080fd5b8760051b808a838601378301612b13602085018980358252602090810135910152565b6040808901606086013760406080890160a0860137612b4260e0850160c08a0180358252602090810135910152565b6001600160a01b0387166101208501528184820301610140850152612b69828201876126bc565b9250505082610160830152979650505050505050565b600060033d1115612b985760046000803e5060005160e01c5b90565b600060443d1015612ba95790565b6040516003193d81016004833e81513d67ffffffffffffffff8160248401118184111715612bd957505050505090565b8285019150815181811115612bf15750505050505090565b843d8701016020828501011115612c0b5750505050505090565b612c1a6020828601018761250a565b509095945050505050565b80820180821115611efb57611efb612a37565b60008251612c4a818460208701612698565b600b60fa1b920191825250600101919050565b60008351612c6f818460208801612698565b835190830190612c83818360208801612698565b01949350505050565b60008451612c9e818460208901612698565b91909101928352506020820152604001919050565b60408101818360005b6002811015612cdb578151835260209283019290910190600101612cbc565b5050509291505056fe506f736569646f6e4861736865723a20696e707574206e6f7420696e206669656c64526567697374726174696f6e286279746573333220707562526f6f745370656e64696e674b65792c627974657333322070756252656164696e674b65792c75696e743235362076657273696f6e29454950373132446f6d61696e28737472696e67206e616d652c737472696e672076657273696f6e2c75696e7432353620636861696e49642c6164647265737320766572696679696e67436f6e74726163742c627974657333322073616c7429a164736f6c6343000810000a",
  "deployedBytecode": "0x608060405234801561001057600080fd5b50600436106101a35760003560e01c806384ff5758116100ee578063c7a629de11610097578063cc577f6611610071578063cc577f66146104d6578063cd14c8b11461050f578063eccec5a814610522578063f1fe9a471461054257600080fd5b8063c7a629de1461046c578063c99c07561461047f578063cbe10bf0146104a657600080fd5b8063adc617f7116100c8578063adc617f714610406578063b463c7cb14610429578063b8ef7fb71461044c57600080fd5b806384ff5758146103955780638f3e52de146103bc578063923d464a146103e357600080fd5b80633b2fb7a8116101505780635c9b9c891161012a5780635c9b9c89146102d25780635ca1e165146102e557806360314315146102ed57600080fd5b80633b2fb7a8146102645780634970d87c146102a05780634a0997f3146102a957600080fd5b806320379ee51161018157806320379ee51461022257806320edf18c1461022a57806322c9531a1461025157600080fd5b806303e52083146101a8578063117803e3146101ce5780631dd5be031461020d575b600080fd5b6101bb6101b6366004612550565b610565565b6040519081526020015b60405180910390f35b6101f57f000000000000000000000000000000000000000000000000000000000000000081565b6040516001600160a01b0390911681526020016101c5565b61022061021b36600461262c565b610bbd565b005b6101bb610e0a565b6101bb7f44b818e3e3a12ecf805989195d8f38e75517386006719e2dbb1443987a34db7b81565b61022061025f36600461262c565b610f0a565b6102936040518060400160405280601081526020016f14185b9d1a195c88141c9bdd1bd8dbdb60821b81525081565b6040516101c591906126e8565b6101bb60335481565b6101f56102b7366004612715565b603a602052600090815260409020546001600160a01b031681565b6102206102e03660046127b1565b611199565b6101bb6112da565b61034c6102fb366004612815565b6039602052600090815260409020805460018201546002909201546001600160c01b03821692600160c01b830463ffffffff1692600160e01b810462ffffff1692600160f81b90910460ff16919086565b604080516001600160c01b03909716875263ffffffff909516602087015262ffffff9093169385019390935260ff166060840152608083019190915260a082015260c0016101c5565b6101f57f000000000000000000000000000000000000000000000000000000000000000081565b6101f57f000000000000000000000000000000000000000000000000000000000000000081565b6103f66103f1366004612815565b61130f565b60405190151581526020016101c5565b6103f6610414366004612715565b60386020526000908152604090205460ff1681565b6103f6610437366004612815565b60366020526000908152604090205460ff1681565b6101bb61045a36600461283e565b60346020526000908152604090205481565b61022061047a366004612867565b6113c9565b6101f57f000000000000000000000000000000000000000000000000000000000000000081565b6104c96104b4366004612815565b60356020526000908152604090205460ff1681565b6040516101c591906128ec565b6104fd7f000000000000000000000000000000000000000000000000000000000000000081565b60405160ff90911681526020016101c5565b61022061051d366004612963565b611669565b610293604051806040016040528060018152602001603160f81b81525081565b6103f661055036600461283e565b60376020526000908152604090205460ff1681565b60008585600281811061057a5761057a6129c2565b905060200201356000146040518060400160405280600781526020017f5a41523a45313600000000000000000000000000000000000000000000000000815250906105e15760405162461bcd60e51b81526004016105d891906126e8565b60405180910390fd5b506000868660008181106105f7576105f76129c2565b905060200201359050600085846040516020016106159291906129d8565b60408051601f198184030181529190528051602082012090915061065a907f30644e72e131a029b85045b68181585d2833e84879b9709143e1f593f0000001906129fa565b82146040518060400160405280600781526020017f5a41523a45313100000000000000000000000000000000000000000000000000815250906106b05760405162461bcd60e51b81526004016105d891906126e8565b5050506000868660048181106106c8576106c86129c2565b905060200201359050806000146040518060400160405280600781526020017f5a41523a45313300000000000000000000000000000000000000000000000000815250906107295760405162461bcd60e51b81526004016105d891906126e8565b5050600061074f87876003818110610743576107436129c2565b90506020020135611a2b565b905060008787600c818110610766576107666129c2565b62ffffff85166000908152603a602090815260409182902054825180840190935260068352652d20a91d229b60d11b838301529202939093013593506001600160a01b0380851691161490506107cf5760405162461bcd60e51b81526004016105d891906126e8565b50600061082160405180604001604052808b8b60068181106107f3576107f36129c2565b9050602002013581526020018b8b6007818110610812576108126129c2565b90506020020135815250611a84565b9050600080610831858585611ac4565b91509150811581906108565760405162461bcd60e51b81526004016105d891906126e8565b5050505060008888600881811061086f5761086f6129c2565b90506020020135905060008989600981811061088d5761088d6129c2565b905060200201359050816000141580156108a657508015155b6040518060400160405280600781526020017f5a41523a45313700000000000000000000000000000000000000000000000000815250906108fa5760405162461bcd60e51b81526004016105d891906126e8565b50505060008888600a818110610912576109126129c2565b90506020020135905060008989600b818110610930576109306129c2565b9050602002013590508160001415801561094957508015155b6040518060400160405280600781526020017f5a41523a453138000000000000000000000000000000000000000000000000008152509061099d5760405162461bcd60e51b81526004016105d891906126e8565b50505060008888600d8181106109b5576109b56129c2565b9050602002013560001b905060346000828152602001908152602001600020546000146040518060400160405280600681526020017f5a41523a4535000000000000000000000000000000000000000000000000000081525090610a2c5760405162461bcd60e51b81526004016105d891906126e8565b5060009081526034602090815260408083204390556001600160a01b0384168352603590915290205460ff166001816002811115610a6c57610a6c6128d6565b03610a95576001600160a01b0382166000908152603560205260409020805460ff191660021790555b6000610aef83836002811115610aad57610aad6128d6565b60028d8d6011818110610ac257610ac26129c2565b90506020020135604051602001610adb91815260200190565b604051602081830303815290604052611bd1565b905060008a8a6001818110610b0657610b066129c2565b9050602002013590508082146040518060400160405280600781526020017f5a41523a4531320000000000000000000000000000000000000000000000000081525090610b665760405162461bcd60e51b81526004016105d891906126e8565b505050610b768989888a89611c69565b60405162ffffff851681529094507fdc02c3befffd2a4f92511c89886e8238193ede29a8939bf8c631ba549eeafb209060200160405180910390a150505095945050505050565b7f00000000000000000000000000000000000000000000000000000000000000006001600160a01b03163314610c2c5760405162461bcd60e51b8152602060048201526014602482015273125b5b53dddb8e881d5b985d5d1a1bdc9a5e995960621b60448201526064016105d8565b6040805180820190915260068152655a41523a453760d01b6020820152838214610c695760405162461bcd60e51b81526004016105d891906126e8565b5060005b83811015610e0357828282818110610c8757610c876129c2565b9050602002016020810190610c9c9190612a1c565b151560376000878785818110610cb457610cb46129c2565b90506020020135815260200190815260200160002060009054906101000a900460ff1615151415604051806040016040528060068152602001650b482a4748a760d31b81525090610d185760405162461bcd60e51b81526004016105d891906126e8565b50828282818110610d2b57610d2b6129c2565b9050602002016020810190610d409190612a1c565b60376000878785818110610d5657610d566129c2565b90506020020135815260200190815260200160002060006101000a81548160ff0219169083151502179055507f57836c6e28b7607fcb54ef9169c69f14460bb2d70d40f2c62d9c20d2c9ba3d98858583818110610db557610db56129c2565b90506020020135848484818110610dce57610dce6129c2565b9050602002016020810190610de39190612a1c565b6040805192835290151560208301520160405180910390a1600101610c6d565b5050505050565b60006040518060800160405280605f8152602001612d55605f91398051602091820120604080518082018252601081526f14185b9d1a195c88141c9bdd1bd8dbdb60821b908401528051808201825260018152603160f81b908401528051928301919091527fbd6ac11eb0311bac3ff64366cc16db374956ada90d1e2aa6bb4faed25fc1d0cd908201527fc89efdaa54c0f20c7adf612882df0950f5a951637e0307cdcb4c672f298b8bc660608201524660808201523060a08201527f44b818e3e3a12ecf805989195d8f38e75517386006719e2dbb1443987a34db7b60c082015260e00160405160208183030381529060405280519060200120905090565b7f00000000000000000000000000000000000000000000000000000000000000006001600160a01b03163314610f795760405162461bcd60e51b8152602060048201526014602482015273125b5b53dddb8e881d5b985d5d1a1bdc9a5e995960621b60448201526064016105d8565b6040805180820190915260068152655a41523a453760d01b6020820152838214610fb65760405162461bcd60e51b81526004016105d891906126e8565b5060005b83811015610e0357828282818110610fd457610fd46129c2565b9050602002016020810190610fe99190612a1c565b151560366000878785818110611001576110016129c2565b90506020020160208101906110169190612815565b6001600160a01b03166001600160a01b0316815260200190815260200160002060009054906101000a900460ff1615151415604051806040016040528060068152602001650b482a4748a760d31b815250906110855760405162461bcd60e51b81526004016105d891906126e8565b50828282818110611098576110986129c2565b90506020020160208101906110ad9190612a1c565b603660008787858181106110c3576110c36129c2565b90506020020160208101906110d89190612815565b6001600160a01b031681526020810191909152604001600020805460ff19169115159190911790557f317b703ab5e9a8a94f27c3e386e8fd5e8e69bde97b4cabf3de6986ab31432f9f858583818110611133576111336129c2565b90506020020160208101906111489190612815565b84848481811061115a5761115a6129c2565b905060200201602081019061116f9190612a1c565b604080516001600160a01b03909316835290151560208301520160405180910390a1600101610fba565b7f00000000000000000000000000000000000000000000000000000000000000006001600160a01b031633146112085760405162461bcd60e51b8152602060048201526014602482015273125b5b53dddb8e881d5b985d5d1a1bdc9a5e995960621b60448201526064016105d8565b60005b82518110156112805760016035600085848151811061122c5761122c6129c2565b6020908102919091018101516001600160a01b03168252810191909152604001600020805460ff19166001836002811115611269576112696128d6565b02179055508061127881612a4d565b91505061120b565b5060005b81518110156112d5576000603460008484815181106112a5576112a56129c2565b602002602001015160001b81526020019081526020016000208190555080806112cd90612a4d565b915050611284565b505050565b60008054156112ea575060005490565b507f2a7c7c9b6ce5880b9f6f228d72bf6a575a526f29c66ecceef8b753d38bba732390565b6001600160a01b038181166000908152603960209081526040808320815160c08101835281546001600160c01b0381168252600160c01b810463ffffffff1682860152600160e01b810462ffffff16828501818152600160f81b90920460ff16606084015260018401546080840190815260029094015460a08401528652603a9094529184205492519051939491939290911615159184916113b2918790611ac4565b5090508180156113c0575080155b95945050505050565b7f00000000000000000000000000000000000000000000000000000000000000006001600160a01b031633146114385760405162461bcd60e51b8152602060048201526014602482015273125b5b53dddb8e881d5b985d5d1a1bdc9a5e995960621b60448201526064016105d8565b62ffffff85166000908152603a602090815260409182902054825180840190935260068352652d20a91d229b60d11b918301919091526001600160a01b03166114945760405162461bcd60e51b81526004016105d891906126e8565b5062ffffff851660009081526038602090815260409182902054825180840190935260068352650b482a4748a760d31b9183019190915260ff161515821515036114f15760405162461bcd60e51b81526004016105d891906126e8565b506000811561153f576115388686868680806020026020016040519081016040528093929190818152602001838360200280828437600092019190915250611d7892505050565b9050611580565b61157d8686868680806020026020016040519081016040528093929190818152602001838360200280828437600092019190915250611db292505050565b90505b62ffffff861660009081526038602052604090819020805460ff19168415151790555163c2e3e62b60e01b815260048101829052600160248201527f00000000000000000000000000000000000000000000000000000000000000006001600160a01b03169063c2e3e62b90604401600060405180830381600087803b15801561160957600080fd5b505af115801561161d573d6000803e3d6000fd5b50506040805162ffffff8a16815285151560208201527fe537daabb339ea043fe1498519b689d76b7a2a3f067b86d7eef6e3f12cf0a5dc935001905060405180910390a1505050505050565b600061167486611a84565b9050600061168186611a84565b60008381526037602090815260409182902054825180840190935260068352655a41523a453360d01b918301919091529192509060ff16156116d65760405162461bcd60e51b81526004016105d891906126e8565b5060006116e68383888888611ddd565b6001600160a01b03811660009081526036602090815260409182902054825180840190935260068352652d20a91d229960d11b918301919091529192509060ff16156117455760405162461bcd60e51b81526004016105d891906126e8565b506001600160a01b03811660009081526035602052604081205460ff166002811115611773576117736128d6565b146040518060400160405280600681526020017f5a41523a45340000000000000000000000000000000000000000000000000000815250906117c85760405162461bcd60e51b81526004016105d891906126e8565b5060006117d3611e11565b905060006040518060c0016040528060006001600160c01b031681526020016117fb43611e40565b63ffffffff908116825262ffffff808616602080850182905260ff7f0000000000000000000000000000000000000000000000000000000000000000811660408088019190915260608088018e905260809788018d90526000948552603a845281852080546001600160a01b038e167fffffffffffffffffffffffff00000000000000000000000000000000000000009091168117909155855260398452818520895181548b8701518c860151948d0151909616600160f81b027effffffffffffffffffffffffffffffffffffffffffffffffffffffffffffff94909916600160e01b02939093167bffffffffffffffffffffffffffffffffffffffffffffffffffffffff95909916600160c01b027fffffffff000000000000000000000000000000000000000000000000000000009093166001600160c01b03909116179190911792909216959095179390931783559385015160018381019190915560a0860151600290930192909255603590935291208054929350909160ff1916828002179055507fff2b812b4b9e43b7e8063fd7974bbf2bf8f989e77f8e1e3838def346e7ea91c38382604051611a17929190600060e0820190506001600160a01b03841682526001600160c01b03835116602083015263ffffffff602084015116604083015262ffffff604084015116606083015260ff6060840151166080830152608083015160a083015260a083015160c08301529392505050565b60405180910390a150505050505050505050565b600063010000008210611a805760405162461bcd60e51b815260206004820152600860248201527f554e53414645323400000000000000000000000000000000000000000000000060448201526064016105d8565b5090565b602081015181517f183227397098d014dc2822db40c0ac2e9419f4243cdcb848a1f0fac9f80000001015611abf57506020810151600160ff1b175b919050565b62ffffff831660009081526038602052604081205460609060ff1615611b2657611b23816040518060400160405280600681526020017f5a41523a45310000000000000000000000000000000000000000000000000000815250611e96565b90505b6001600160a01b03841660009081526036602052604090205460ff1615611b7257611b6f81604051806040016040528060068152602001652d20a91d229960d11b815250611e96565b90505b60008381526037602052604090205460ff1615611bb457611bb181604051806040016040528060068152602001655a41523a453360d01b815250611e96565b90505b6000815111611bc4576000611bc7565b60015b9150935093915050565b604051630b73522f60e01b81526000906001600160a01b037f00000000000000000000000000000000000000000000000000000000000000001690630b73522f90611c26908890889088908890600401612a66565b6020604051808303816000875af1158015611c45573d6000803e3d6000fd5b505050506040513d601f19601f820116820180604052508101906113c09190612a9a565b6040516316a6f74360e21b81526000906001600160a01b037f00000000000000000000000000000000000000000000000000000000000000001690635a9bdd0c90611ce2908990899089907f0000000000000000000000000000000000000000000000000000000000000000908a908a90600401612ab3565b6020604051808303816000875af1925050508015611d1d575060408051601f3d908101601f19168201909252611d1a91810190612a9a565b60015b611d6e57611d29612b7f565b806308c379a003611d625750611d3d612b9b565b80611d485750611d64565b8060405162461bcd60e51b81526004016105d891906126e8565b505b3d6000803e3d6000fd5b9695505050505050565b6000806000611d8686611f01565b60005491935091506001831b861790611da29087838589611f76565b6000819055979650505050505050565b6000806000611dc086611f01565b60005491935091506001831b19861690611da29087838589611f76565b600080611dea87876120f9565b90506000611df78261217d565b9050611e05818787876121d2565b98975050505050505050565b60335460fe60ff821610611e2f57611e2a600282612c25565b611e3a565b611e3a816001612c25565b60335590565b60006401000000008210611a805760405162461bcd60e51b815260206004820152600860248201527f554e53414645333200000000000000000000000000000000000000000000000060448201526064016105d8565b60606000835111611eb65760405180602001604052806000815250611ed7565b82604051602001611ec79190612c38565b6040516020818303038152906040525b82604051602001611ee9929190612c5d565b60405160208183030381529060405290505b92915050565b60ff8116600060fe82106040518060400160405280600681526020017f5a41523a4539000000000000000000000000000000000000000000000000000081525090611f5f5760405162461bcd60e51b81526004016105d891906126e8565b5060088362ffffff16901c62ffffff169050915091565b6000848403611fed5760405162461bcd60e51b815260206004820152602a60248201527f424955543a204e6577206c6561662063616e6e6f7420626520657175616c207460448201527f6865206f6c64206f6e650000000000000000000000000000000000000000000060648201526084016105d8565b611ff986868585612291565b6120505760405162461bcd60e51b815260206004820152602260248201527f424955543a204c656166206973206e6f742070617274206f6620746865207472604482015261656560f01b60648201526084016105d8565b50826000805b83518110156120ee578085901c6001169150816000036120ad576120a66040518060400160405280858152602001868481518110612096576120966129c2565b602002602001015181525061239c565b92506120e6565b6120e360405180604001604052808684815181106120cd576120cd6129c2565b602002602001015181526020018581525061239c565b92505b600101612056565b505095945050505050565b60006040518060800160405280604e8152602001612d07604e9139805160209182012060408051928301919091528101849052606081018390527f000000000000000000000000000000000000000000000000000000000000000060ff16608082015260a00160405160208183030381529060405280519060200120905092915050565b600060405180604001604052806002815260200161190160f01b8152506121a2610e0a565b836040516020016121b593929190612c8c565b604051602081830303815290604052805190602001209050919050565b6040805160008082526020820180845287905260ff861692820192909252606081018490526080810183905260019060a0016020604051602081039080840390855afa158015612226573d6000803e3d6000fd5b5050604051601f1901519150506001600160a01b0381166122895760405162461bcd60e51b815260206004820152601760248201527f454344534120696e76616c6964207369676e617475726500000000000000000060448201526064016105d8565b949350505050565b80516000906001901b8084106122e95760405162461bcd60e51b815260206004820152601860248201527f424955543a20696e76616c6964206c65616620696e646578000000000000000060448201526064016105d8565b846000805b8551811015612360578087901c6001169150816000036123355761232e6040518060400160405280858152602001888481518110612096576120966129c2565b9250612358565b61235560405180604001604052808884815181106120cd576120cd6129c2565b92505b6001016122ee565b50871561236f57878214611e05565b507f2a7c7c9b6ce5880b9f6f228d72bf6a575a526f29c66ecceef8b753d38bba7323149695505050505050565b6000611efb8280516000907f30644e72e131a029b85045b68181585d2833e84879b9709143e1f593f00000011180156123f8575060208201517f30644e72e131a029b85045b68181585d2833e84879b9709143e1f593f0000001115b604051806060016040528060228152602001612ce5602291399061242f5760405162461bcd60e51b81526004016105d891906126e8565b5060405163014cf2b360e51b815273__$3d381aec2d571db697c779e211a438fb21$__9063299e566090612467908590600401612cb3565b602060405180830381865af4158015612484573d6000803e3d6000fd5b505050506040513d601f19601f82011682018060405250810190611efb9190612a9a565b60008083601f8401126124ba57600080fd5b50813567ffffffffffffffff8111156124d257600080fd5b6020830191508360208260051b85010111156124ed57600080fd5b9250929050565b634e487b7160e01b600052604160045260246000fd5b601f8201601f1916810167ffffffffffffffff81118282101715612530576125306124f4565b6040525050565b6000610100828403121561254a57600080fd5b50919050565b6000806000806000610160868803121561256957600080fd5b853567ffffffffffffffff8082111561258157600080fd5b61258d89838a016124a8565b90975095506020915087820135818111156125a757600080fd5b8801601f81018a136125b857600080fd5b8035828111156125ca576125ca6124f4565b60405192506125e2601f8201601f191685018461250a565b8083528a848284010111156125f657600080fd5b808483018585013760008482850101525050809450505061261a8760408801612537565b94979396509194610140013592915050565b6000806000806040858703121561264257600080fd5b843567ffffffffffffffff8082111561265a57600080fd5b612666888389016124a8565b9096509450602087013591508082111561267f57600080fd5b5061268c878288016124a8565b95989497509550505050565b60005b838110156126b357818101518382015260200161269b565b50506000910152565b600081518084526126d4816020860160208601612698565b601f01601f19169290920160200192915050565b6020815260006126fb60208301846126bc565b9392505050565b803562ffffff81168114611abf57600080fd5b60006020828403121561272757600080fd5b6126fb82612702565b600082601f83011261274157600080fd5b8135602067ffffffffffffffff82111561275d5761275d6124f4565b8160051b6040516127708383018261250a565b9283528481018201928281018785111561278957600080fd5b83870192505b848310156127a6578235815291830191830161278f565b509695505050505050565b600080604083850312156127c457600080fd5b823567ffffffffffffffff808211156127dc57600080fd5b6127e886838701612730565b935060208501359150808211156127fe57600080fd5b5061280b85828601612730565b9150509250929050565b60006020828403121561282757600080fd5b81356001600160a01b03811681146126fb57600080fd5b60006020828403121561285057600080fd5b5035919050565b80358015158114611abf57600080fd5b60008060008060006080868803121561287f57600080fd5b61288886612702565b945060208601359350604086013567ffffffffffffffff8111156128ab57600080fd5b6128b7888289016124a8565b90945092506128ca905060608701612857565b90509295509295909350565b634e487b7160e01b600052602160045260246000fd5b602081016003831061290e57634e487b7160e01b600052602160045260246000fd5b91905290565b60006040828403121561292657600080fd5b6040516040810181811067ffffffffffffffff82111715612949576129496124f4565b604052823581526020928301359281019290925250919050565b600080600080600060e0868803121561297b57600080fd5b6129858787612914565b94506129948760408801612914565b9350608086013560ff811681146129aa57600080fd5b9497939650939460a0810135945060c0013592915050565b634e487b7160e01b600052603260045260246000fd5b600083516129ea818460208801612698565b9190910191825250602001919050565b600082612a1757634e487b7160e01b600052601260045260246000fd5b500690565b600060208284031215612a2e57600080fd5b6126fb82612857565b634e487b7160e01b600052601160045260246000fd5b600060018201612a5f57612a5f612a37565b5060010190565b6001600160a01b038516815260ff8416602082015260ff83166040820152608060608201526000611d6e60808301846126bc565b600060208284031215612aac57600080fd5b5051919050565b610180808252810186905260006101a07f07ffffffffffffffffffffffffffffffffffffffffffffffffffffffffffffff881115612af057600080fd5b8760051b808a838601378301612b13602085018980358252602090810135910152565b6040808901606086013760406080890160a0860137612b4260e0850160c08a0180358252602090810135910152565b6001600160a01b0387166101208501528184820301610140850152612b69828201876126bc565b9250505082610160830152979650505050505050565b600060033d1115612b985760046000803e5060005160e01c5b90565b600060443d1015612ba95790565b6040516003193d81016004833e81513d67ffffffffffffffff8160248401118184111715612bd957505050505090565b8285019150815181811115612bf15750505050505090565b843d8701016020828501011115612c0b5750505050505090565b612c1a6020828601018761250a565b509095945050505050565b80820180821115611efb57611efb612a37565b60008251612c4a818460208701612698565b600b60fa1b920191825250600101919050565b60008351612c6f818460208801612698565b835190830190612c83818360208801612698565b01949350505050565b60008451612c9e818460208901612698565b91909101928352506020820152604001919050565b60408101818360005b6002811015612cdb578151835260209283019290910190600101612cbc565b5050509291505056fe506f736569646f6e4861736865723a20696e707574206e6f7420696e206669656c64526567697374726174696f6e286279746573333220707562526f6f745370656e64696e674b65792c627974657333322070756252656164696e674b65792c75696e743235362076657273696f6e29454950373132446f6d61696e28737472696e67206e616d652c737472696e672076657273696f6e2c75696e7432353620636861696e49642c6164647265737320766572696679696e67436f6e74726163742c627974657333322073616c7429a164736f6c6343000810000a",
  "libraries": {
    "PoseidonT3": "0x7Ae48edd2Ee06Ba80863A196361B4bAAa5d8F8b1",
    "BabyJubJub": "0x0Ab02321Fc701C3C539F92b563B9cD4a2c0f75A4"
  },
  "devdoc": {
    "author": "Pantherprotocol Contributors",
    "kind": "dev",
    "methods": {
      "activateZAccount(uint256[],bytes,((uint256,uint256),(uint256[2],uint256[2]),(uint256,uint256)),uint256)": {
        "details": "It can be executed only after registring the zAccount. It throws if the zAccount has not been registered or it's registered but it has been blacklisted.",
        "params": {
          "cachedForestRootIndex": "forest merkle root index. 0 means the most updated root.",
          "inputs": "[18] - magicalConstraint",
          "privateMessages": "the private message that contains zAccount utxo data. zAccount utxo data contains bytes1 msgType, bytes32 ephemeralKey and bytes64 cypherText",
          "proof": "A proof associated with the zAccount and a secret."
        }
      }
    },
    "title": "ZAccountsRegistry",
    "version": 1
  },
  "userdoc": {
    "kind": "user",
    "methods": {
      "OWNER()": {
        "notice": "The owner who has privileged rights"
      },
      "activateZAccount(uint256[],bytes,((uint256,uint256),(uint256[2],uint256[2]),(uint256,uint256)),uint256)": {
        "notice": "Creates zAccount utxo"
      }
    },
    "notice": "Registry and whitelist of zAccounts allowed to interact with MASP.",
    "version": 1
  },
  "storageLayout": {
    "storage": [
      {
        "astId": 2722,
        "contract": "contracts/protocol/ZAccountsRegistry.sol:ZAccountsRegistry",
        "label": "_currentRoot",
        "offset": 0,
        "slot": "0",
        "type": "t_bytes32"
      },
      {
        "astId": 488,
        "contract": "contracts/protocol/ZAccountsRegistry.sol:ZAccountsRegistry",
        "label": "__gap",
        "offset": 0,
        "slot": "1",
        "type": "t_array(t_uint256)50_storage"
      },
      {
        "astId": 515,
        "contract": "contracts/protocol/ZAccountsRegistry.sol:ZAccountsRegistry",
        "label": "zAccountIdTracker",
        "offset": 0,
        "slot": "51",
        "type": "t_uint256"
      },
      {
        "astId": 519,
        "contract": "contracts/protocol/ZAccountsRegistry.sol:ZAccountsRegistry",
        "label": "zoneZAccountNullifiers",
        "offset": 0,
        "slot": "52",
        "type": "t_mapping(t_bytes32,t_uint256)"
      },
      {
        "astId": 524,
        "contract": "contracts/protocol/ZAccountsRegistry.sol:ZAccountsRegistry",
        "label": "zAccountStatus",
        "offset": 0,
        "slot": "53",
        "type": "t_mapping(t_address,t_enum(ZACCOUNT_STATUS)2911)"
      },
      {
        "astId": 528,
        "contract": "contracts/protocol/ZAccountsRegistry.sol:ZAccountsRegistry",
        "label": "isMasterEoaBlacklisted",
        "offset": 0,
        "slot": "54",
        "type": "t_mapping(t_address,t_bool)"
      },
      {
        "astId": 532,
        "contract": "contracts/protocol/ZAccountsRegistry.sol:ZAccountsRegistry",
        "label": "isPubRootSpendingKeyBlacklisted",
        "offset": 0,
        "slot": "55",
        "type": "t_mapping(t_bytes32,t_bool)"
      },
      {
        "astId": 536,
        "contract": "contracts/protocol/ZAccountsRegistry.sol:ZAccountsRegistry",
        "label": "isZAccountIdBlacklisted",
        "offset": 0,
        "slot": "56",
        "type": "t_mapping(t_uint24,t_bool)"
      },
      {
        "astId": 541,
        "contract": "contracts/protocol/ZAccountsRegistry.sol:ZAccountsRegistry",
        "label": "zAccounts",
        "offset": 0,
        "slot": "57",
        "type": "t_mapping(t_address,t_struct(ZAccount)513_storage)"
      },
      {
        "astId": 545,
        "contract": "contracts/protocol/ZAccountsRegistry.sol:ZAccountsRegistry",
        "label": "masterEOAs",
        "offset": 0,
        "slot": "58",
        "type": "t_mapping(t_uint24,t_address)"
      }
    ],
    "types": {
      "t_address": {
        "encoding": "inplace",
        "label": "address",
        "numberOfBytes": "20"
      },
      "t_array(t_uint256)50_storage": {
        "base": "t_uint256",
        "encoding": "inplace",
        "label": "uint256[50]",
        "numberOfBytes": "1600"
      },
      "t_bool": {
        "encoding": "inplace",
        "label": "bool",
        "numberOfBytes": "1"
      },
      "t_bytes32": {
        "encoding": "inplace",
        "label": "bytes32",
        "numberOfBytes": "32"
      },
      "t_enum(ZACCOUNT_STATUS)2911": {
        "encoding": "inplace",
        "label": "enum ZACCOUNT_STATUS",
        "numberOfBytes": "1"
      },
      "t_mapping(t_address,t_bool)": {
        "encoding": "mapping",
        "key": "t_address",
        "label": "mapping(address => bool)",
        "numberOfBytes": "32",
        "value": "t_bool"
      },
      "t_mapping(t_address,t_enum(ZACCOUNT_STATUS)2911)": {
        "encoding": "mapping",
        "key": "t_address",
        "label": "mapping(address => enum ZACCOUNT_STATUS)",
        "numberOfBytes": "32",
        "value": "t_enum(ZACCOUNT_STATUS)2911"
      },
      "t_mapping(t_address,t_struct(ZAccount)513_storage)": {
        "encoding": "mapping",
        "key": "t_address",
        "label": "mapping(address => struct ZAccountsRegistry.ZAccount)",
        "numberOfBytes": "32",
        "value": "t_struct(ZAccount)513_storage"
      },
      "t_mapping(t_bytes32,t_bool)": {
        "encoding": "mapping",
        "key": "t_bytes32",
        "label": "mapping(bytes32 => bool)",
        "numberOfBytes": "32",
        "value": "t_bool"
      },
      "t_mapping(t_bytes32,t_uint256)": {
        "encoding": "mapping",
        "key": "t_bytes32",
        "label": "mapping(bytes32 => uint256)",
        "numberOfBytes": "32",
        "value": "t_uint256"
      },
      "t_mapping(t_uint24,t_address)": {
        "encoding": "mapping",
        "key": "t_uint24",
        "label": "mapping(uint24 => address)",
        "numberOfBytes": "32",
        "value": "t_address"
      },
      "t_mapping(t_uint24,t_bool)": {
        "encoding": "mapping",
        "key": "t_uint24",
        "label": "mapping(uint24 => bool)",
        "numberOfBytes": "32",
        "value": "t_bool"
      },
      "t_struct(ZAccount)513_storage": {
        "encoding": "inplace",
        "label": "struct ZAccountsRegistry.ZAccount",
        "members": [
          {
            "astId": 502,
            "contract": "contracts/protocol/ZAccountsRegistry.sol:ZAccountsRegistry",
            "label": "_unused",
            "offset": 0,
            "slot": "0",
            "type": "t_uint192"
          },
          {
            "astId": 504,
            "contract": "contracts/protocol/ZAccountsRegistry.sol:ZAccountsRegistry",
            "label": "creationBlock",
            "offset": 24,
            "slot": "0",
            "type": "t_uint32"
          },
          {
            "astId": 506,
            "contract": "contracts/protocol/ZAccountsRegistry.sol:ZAccountsRegistry",
            "label": "id",
            "offset": 28,
            "slot": "0",
            "type": "t_uint24"
          },
          {
            "astId": 508,
            "contract": "contracts/protocol/ZAccountsRegistry.sol:ZAccountsRegistry",
            "label": "version",
            "offset": 31,
            "slot": "0",
            "type": "t_uint8"
          },
          {
            "astId": 510,
            "contract": "contracts/protocol/ZAccountsRegistry.sol:ZAccountsRegistry",
            "label": "pubRootSpendingKey",
            "offset": 0,
            "slot": "1",
            "type": "t_bytes32"
          },
          {
            "astId": 512,
            "contract": "contracts/protocol/ZAccountsRegistry.sol:ZAccountsRegistry",
            "label": "pubReadingKey",
            "offset": 0,
            "slot": "2",
            "type": "t_bytes32"
          }
        ],
        "numberOfBytes": "96"
      },
      "t_uint192": {
        "encoding": "inplace",
        "label": "uint192",
        "numberOfBytes": "24"
      },
      "t_uint24": {
        "encoding": "inplace",
        "label": "uint24",
        "numberOfBytes": "3"
      },
      "t_uint256": {
        "encoding": "inplace",
        "label": "uint256",
        "numberOfBytes": "32"
      },
      "t_uint32": {
        "encoding": "inplace",
        "label": "uint32",
        "numberOfBytes": "4"
      },
      "t_uint8": {
        "encoding": "inplace",
        "label": "uint8",
        "numberOfBytes": "1"
      }
    }
  }
}