{
  "address": "0xc1cFf0f26e6fbbD4c7D9A6A5a9fe6762e6973C2C",
  "abi": [
    {
      "inputs": [
        {
          "internalType": "address",
          "name": "owner",
          "type": "address"
        },
        {
          "internalType": "address",
          "name": "rewardToken",
          "type": "address"
        },
        {
          "internalType": "address",
          "name": "_pantherPool",
          "type": "address"
        },
        {
          "internalType": "address",
          "name": "_verifier",
          "type": "address"
        },
        {
          "internalType": "uint160",
          "name": "_circuitId",
          "type": "uint160"
        }
      ],
      "stateMutability": "nonpayable",
      "type": "constructor"
    },
    {
      "anonymous": false,
      "inputs": [
        {
          "indexed": true,
          "internalType": "uint256",
          "name": "queueId",
          "type": "uint256"
        },
        {
          "indexed": true,
          "internalType": "bytes32",
          "name": "batchRoot",
          "type": "bytes32"
        },
        {
          "indexed": false,
          "internalType": "uint256",
          "name": "numUtxosInBatch",
          "type": "uint256"
        },
        {
          "indexed": false,
          "internalType": "uint256",
          "name": "leftLeafIndexInBusTree",
          "type": "uint256"
        },
        {
          "indexed": false,
          "internalType": "bytes32",
          "name": "busTreeNewRoot",
          "type": "bytes32"
        },
        {
          "indexed": false,
          "internalType": "bytes32",
          "name": "busBranchNewRoot",
          "type": "bytes32"
        }
      ],
      "name": "BusBatchOnboarded",
      "type": "event"
    },
    {
      "anonymous": false,
      "inputs": [
        {
          "indexed": true,
          "internalType": "uint256",
          "name": "branchIndex",
          "type": "uint256"
        },
        {
          "indexed": false,
          "internalType": "bytes32",
          "name": "busBranchFinalRoot",
          "type": "bytes32"
        }
      ],
      "name": "BusBranchFilled",
      "type": "event"
    },
    {
      "anonymous": false,
      "inputs": [
        {
          "indexed": false,
          "internalType": "uint256",
          "name": "queueId",
          "type": "uint256"
        }
      ],
      "name": "BusQueueOpened",
      "type": "event"
    },
    {
      "anonymous": false,
      "inputs": [
        {
          "indexed": true,
          "internalType": "uint256",
          "name": "queueId",
          "type": "uint256"
        }
      ],
      "name": "BusQueueProcessed",
      "type": "event"
    },
    {
      "anonymous": false,
      "inputs": [
        {
          "indexed": true,
          "internalType": "uint256",
          "name": "queueId",
          "type": "uint256"
        },
        {
          "indexed": false,
          "internalType": "uint256",
          "name": "accumReward",
          "type": "uint256"
        }
      ],
      "name": "BusQueueRewardAdded",
      "type": "event"
    },
    {
      "anonymous": false,
      "inputs": [
        {
          "indexed": false,
          "internalType": "uint256",
          "name": "reservationRate",
          "type": "uint256"
        },
        {
          "indexed": false,
          "internalType": "uint256",
          "name": "premiumRate",
          "type": "uint256"
        },
        {
          "indexed": false,
          "internalType": "uint256",
          "name": "minEmptyQueueAge",
          "type": "uint256"
        }
      ],
      "name": "BusQueueRewardParamsUpdated",
      "type": "event"
    },
    {
      "anonymous": false,
      "inputs": [
        {
          "indexed": false,
          "internalType": "uint256",
          "name": "usage",
          "type": "uint256"
        }
      ],
      "name": "BusQueueRewardReserveUsed",
      "type": "event"
    },
    {
      "anonymous": false,
      "inputs": [
        {
          "indexed": false,
          "internalType": "uint256",
          "name": "extraReseve",
          "type": "uint256"
        }
      ],
      "name": "BusQueueRewardReserved",
      "type": "event"
    },
    {
      "anonymous": false,
      "inputs": [
        {
          "indexed": false,
          "internalType": "address",
          "name": "miner",
          "type": "address"
        },
        {
          "indexed": false,
          "internalType": "uint256",
          "name": "reward",
          "type": "uint256"
        }
      ],
      "name": "MinerRewarded",
      "type": "event"
    },
    {
      "anonymous": false,
      "inputs": [
        {
          "indexed": true,
          "internalType": "bytes32",
          "name": "utxo",
          "type": "bytes32"
        },
        {
          "indexed": true,
          "internalType": "uint256",
          "name": "queueId",
          "type": "uint256"
        },
        {
          "indexed": false,
          "internalType": "uint256",
          "name": "utxoIndexInBatch",
          "type": "uint256"
        }
      ],
      "name": "UtxoBusQueued",
      "type": "event"
    },
    {
      "inputs": [],
      "name": "CIRCUIT_ID",
      "outputs": [
        {
          "internalType": "uint160",
          "name": "",
          "type": "uint160"
        }
      ],
      "stateMutability": "view",
      "type": "function"
    },
    {
      "inputs": [],
      "name": "OWNER",
      "outputs": [
        {
          "internalType": "address",
          "name": "",
          "type": "address"
        }
      ],
      "stateMutability": "view",
      "type": "function"
    },
    {
      "inputs": [],
      "name": "PANTHER_POOL",
      "outputs": [
        {
          "internalType": "address",
          "name": "",
          "type": "address"
        }
      ],
      "stateMutability": "view",
      "type": "function"
    },
    {
      "inputs": [],
      "name": "REWARD_TOKEN",
      "outputs": [
        {
          "internalType": "address",
          "name": "",
          "type": "address"
        }
      ],
      "stateMutability": "view",
      "type": "function"
    },
    {
      "inputs": [],
      "name": "START_TIME",
      "outputs": [
        {
          "internalType": "uint256",
          "name": "",
          "type": "uint256"
        }
      ],
      "stateMutability": "view",
      "type": "function"
    },
    {
      "inputs": [],
      "name": "VERIFIER",
      "outputs": [
        {
          "internalType": "contract IPantherVerifier",
          "name": "",
          "type": "address"
        }
      ],
      "stateMutability": "view",
      "type": "function"
    },
    {
      "inputs": [
        {
          "internalType": "bytes32",
          "name": "utxo",
          "type": "bytes32"
        }
      ],
      "name": "addUtxoToBusQueue",
      "outputs": [
        {
          "internalType": "uint32",
          "name": "queueId",
          "type": "uint32"
        },
        {
          "internalType": "uint8",
          "name": "indexInQueue",
          "type": "uint8"
        }
      ],
      "stateMutability": "nonpayable",
      "type": "function"
    },
    {
      "inputs": [
        {
          "internalType": "bytes32[]",
          "name": "utxos",
          "type": "bytes32[]"
        },
        {
          "internalType": "uint96",
          "name": "reward",
          "type": "uint96"
        }
      ],
      "name": "addUtxosToBusQueue",
      "outputs": [
        {
          "internalType": "uint32",
          "name": "firstUtxoQueueId",
          "type": "uint32"
        },
        {
          "internalType": "uint8",
          "name": "firstUtxoIndexInQueue",
          "type": "uint8"
        }
      ],
      "stateMutability": "nonpayable",
      "type": "function"
    },
    {
      "inputs": [],
      "name": "basePerUtxoReward",
      "outputs": [
        {
          "internalType": "uint96",
          "name": "",
          "type": "uint96"
        }
      ],
      "stateMutability": "view",
      "type": "function"
    },
    {
      "inputs": [
        {
          "internalType": "uint256",
          "name": "_timestamp",
          "type": "uint256"
        }
      ],
      "name": "getAllowedUtxosAt",
      "outputs": [
        {
          "internalType": "uint256",
          "name": "allowedUtxos",
          "type": "uint256"
        }
      ],
      "stateMutability": "view",
      "type": "function"
    },
    {
      "inputs": [
        {
          "internalType": "uint32",
          "name": "queueId",
          "type": "uint32"
        }
      ],
      "name": "getBusQueue",
      "outputs": [
        {
          "components": [
            {
              "internalType": "uint32",
              "name": "queueId",
              "type": "uint32"
            },
            {
              "internalType": "uint8",
              "name": "nUtxos",
              "type": "uint8"
            },
            {
              "internalType": "uint96",
              "name": "reward",
              "type": "uint96"
            },
            {
              "internalType": "uint96",
              "name": "potentialExtraReward",
              "type": "uint96"
            },
            {
              "internalType": "uint40",
              "name": "firstUtxoBlock",
              "type": "uint40"
            },
            {
              "internalType": "uint40",
              "name": "lastUtxoBlock",
              "type": "uint40"
            },
            {
              "internalType": "uint40",
              "name": "remainingBlocks",
              "type": "uint40"
            },
            {
              "internalType": "bytes32",
              "name": "commitment",
              "type": "bytes32"
            }
          ],
          "internalType": "struct BusQueues.BusQueueRec",
          "name": "queue",
          "type": "tuple"
        }
      ],
      "stateMutability": "view",
      "type": "function"
    },
    {
      "inputs": [],
      "name": "getBusQueuesStats",
      "outputs": [
        {
          "internalType": "uint32",
          "name": "curQueueId",
          "type": "uint32"
        },
        {
          "internalType": "uint32",
          "name": "numPendingQueues",
          "type": "uint32"
        },
        {
          "internalType": "uint32",
          "name": "oldestPendingQueueId",
          "type": "uint32"
        },
        {
          "internalType": "uint96",
          "name": "rewardReserve",
          "type": "uint96"
        }
      ],
      "stateMutability": "view",
      "type": "function"
    },
    {
      "inputs": [],
      "name": "getBusTreeStats",
      "outputs": [
        {
          "internalType": "uint32",
          "name": "numBatchesInBusTree",
          "type": "uint32"
        },
        {
          "internalType": "uint32",
          "name": "numUtxosInBusTree",
          "type": "uint32"
        },
        {
          "internalType": "uint40",
          "name": "latestBranchFirstBatchBlock",
          "type": "uint40"
        },
        {
          "internalType": "uint40",
          "name": "latestBatchBlock",
          "type": "uint40"
        }
      ],
      "stateMutability": "view",
      "type": "function"
    },
    {
      "inputs": [
        {
          "internalType": "uint32",
          "name": "maxLength",
          "type": "uint32"
        }
      ],
      "name": "getOldestPendingQueues",
      "outputs": [
        {
          "components": [
            {
              "internalType": "uint32",
              "name": "queueId",
              "type": "uint32"
            },
            {
              "internalType": "uint8",
              "name": "nUtxos",
              "type": "uint8"
            },
            {
              "internalType": "uint96",
              "name": "reward",
              "type": "uint96"
            },
            {
              "internalType": "uint96",
              "name": "potentialExtraReward",
              "type": "uint96"
            },
            {
              "internalType": "uint40",
              "name": "firstUtxoBlock",
              "type": "uint40"
            },
            {
              "internalType": "uint40",
              "name": "lastUtxoBlock",
              "type": "uint40"
            },
            {
              "internalType": "uint40",
              "name": "remainingBlocks",
              "type": "uint40"
            },
            {
              "internalType": "bytes32",
              "name": "commitment",
              "type": "bytes32"
            }
          ],
          "internalType": "struct BusQueues.BusQueueRec[]",
          "name": "queues",
          "type": "tuple[]"
        }
      ],
      "stateMutability": "view",
      "type": "function"
    },
    {
      "inputs": [],
      "name": "getParams",
      "outputs": [
        {
          "internalType": "uint16",
          "name": "reservationRate",
          "type": "uint16"
        },
        {
          "internalType": "uint16",
          "name": "premiumRate",
          "type": "uint16"
        },
        {
          "internalType": "uint16",
          "name": "minEmptyQueueAge",
          "type": "uint16"
        }
      ],
      "stateMutability": "view",
      "type": "function"
    },
    {
      "inputs": [],
      "name": "getRoot",
      "outputs": [
        {
          "internalType": "bytes32",
          "name": "",
          "type": "bytes32"
        }
      ],
      "stateMutability": "view",
      "type": "function"
    },
    {
      "inputs": [],
      "name": "lastUtxoSimulationTimestamp",
      "outputs": [
        {
          "internalType": "uint32",
          "name": "",
          "type": "uint32"
        }
      ],
      "stateMutability": "view",
      "type": "function"
    },
    {
      "inputs": [
        {
          "internalType": "address",
          "name": "miner",
          "type": "address"
        },
        {
          "internalType": "uint32",
          "name": "queueId",
          "type": "uint32"
        },
        {
          "internalType": "uint256[]",
          "name": "inputs",
          "type": "uint256[]"
        },
        {
          "components": [
            {
              "components": [
                {
                  "internalType": "uint256",
                  "name": "x",
                  "type": "uint256"
                },
                {
                  "internalType": "uint256",
                  "name": "y",
                  "type": "uint256"
                }
              ],
              "internalType": "struct G1Point",
              "name": "a",
              "type": "tuple"
            },
            {
              "components": [
                {
                  "internalType": "uint256[2]",
                  "name": "x",
                  "type": "uint256[2]"
                },
                {
                  "internalType": "uint256[2]",
                  "name": "y",
                  "type": "uint256[2]"
                }
              ],
              "internalType": "struct G2Point",
              "name": "b",
              "type": "tuple"
            },
            {
              "components": [
                {
                  "internalType": "uint256",
                  "name": "x",
                  "type": "uint256"
                },
                {
                  "internalType": "uint256",
                  "name": "y",
                  "type": "uint256"
                }
              ],
              "internalType": "struct G1Point",
              "name": "c",
              "type": "tuple"
            }
          ],
          "internalType": "struct SnarkProof",
          "name": "proof",
          "type": "tuple"
        }
      ],
      "name": "onboardQueue",
      "outputs": [],
      "stateMutability": "nonpayable",
      "type": "function"
    },
    {
      "inputs": [],
      "name": "perMinuteUtxosLimit",
      "outputs": [
        {
          "internalType": "uint16",
          "name": "",
          "type": "uint16"
        }
      ],
      "stateMutability": "view",
      "type": "function"
    },
    {
      "inputs": [],
      "name": "simulateAddUtxosToBusQueue",
      "outputs": [],
      "stateMutability": "nonpayable",
      "type": "function"
    },
    {
      "inputs": [
        {
          "internalType": "uint16",
          "name": "_perMinuteUtxosLimit",
          "type": "uint16"
        },
        {
          "internalType": "uint96",
          "name": "_basePerUtxoReward",
          "type": "uint96"
        },
        {
          "internalType": "uint16",
          "name": "reservationRate",
          "type": "uint16"
        },
        {
          "internalType": "uint16",
          "name": "premiumRate",
          "type": "uint16"
        },
        {
          "internalType": "uint16",
          "name": "minEmptyQueueAge",
          "type": "uint16"
        }
      ],
      "name": "updateParams",
      "outputs": [],
      "stateMutability": "nonpayable",
      "type": "function"
    },
    {
      "inputs": [],
      "name": "utxoCounter",
      "outputs": [
        {
          "internalType": "uint32",
          "name": "",
          "type": "uint32"
        }
      ],
      "stateMutability": "view",
      "type": "function"
    }
  ],
  "transactionHash": "0xcf9f14bc87758858ef5d856c44258efcd5d2c787422050328c6bad8b633407d4",
  "args": [
    "0xfB474a7FeCDaFBD412ebF0d60A0C32794F82d3dD",
    "0x4004C49aBb96B11D89A52DeCCa2D1522da7f3089",
    "0xfDfD920F2152565E9D7b589e4e9faeE6699AD4bd",
    "0xeeAfce13506847a19141A4513718df17383f4f7b",
    "0x1F200CDAE1D8cc04e16f764591fABd097A8eC43a"
  ],
  "numDeployments": 3,
  "solcInputHash": "3c8abd805738846b8bdb7d42f12655ad",
  "bytecode": "0x6101406040523480156200001257600080fd5b5060405162003b5638038062003b56833981016040819052620000359162000264565b8482828560006001600160a01b0316816001600160a01b031614156040518060400160405280600581526020016442543a453160d81b81525090620000985760405162461bcd60e51b81526004016200008f9190620002e4565b60405180910390fd5b50604051631deb0d9b60e11b81526001600160a01b03838116600483015260019190851690633bd61b3690602401600060405180830381865afa158015620000e4573d6000803e3d6000fd5b505050506040513d6000823e601f3d908101601f191682016040526200010e9190810190620004bd565b6080015151101560405180604001604052806005815260200164212a1d229960d91b81525090620001545760405162461bcd60e51b81526004016200008f9190620002e4565b506001600160a01b0392831660805290821660a052811660c0528116620001be5760405162461bcd60e51b815260206004820152601a60248201527f496d6d4f776e3a207a65726f206f776e6572206164647265737300000000000060448201526064016200008f565b6001600160a01b0390811660e0526040805180820190915260068152655042543a453160d01b60208201529085166200020c5760405162461bcd60e51b81526004016200008f9190620002e4565b50506364abe80a6101005250506001600160a01b031661012052506037805463ffffffff60901b1916600160901b4263ffffffff1602179055620005ff565b6001600160a01b03811681146200026157600080fd5b50565b600080600080600060a086880312156200027d57600080fd5b85516200028a816200024b565b60208701519095506200029d816200024b565b6040870151909450620002b0816200024b565b6060870151909350620002c3816200024b565b6080870151909250620002d6816200024b565b809150509295509295909350565b600060208083528351808285015260005b818110156200031357858101830151858201604001528201620002f5565b506000604082860101526040601f19601f8301168501019250505092915050565b634e487b7160e01b600052604160045260246000fd5b604080519081016001600160401b03811182821017156200036f576200036f62000334565b60405290565b60405160a081016001600160401b03811182821017156200036f576200036f62000334565b604051601f8201601f191681016001600160401b0381118282101715620003c557620003c562000334565b604052919050565b600060408284031215620003e057600080fd5b620003ea6200034a565b9050815181526020820151602082015292915050565b600082601f8301126200041257600080fd5b604080519081016001600160401b038111828210171562000437576200043762000334565b80604052508060408401858111156200044f57600080fd5b845b818110156200046b57805183526020928301920162000451565b509195945050505050565b6000608082840312156200048957600080fd5b620004936200034a565b9050620004a1838362000400565b8152620004b2836040840162000400565b602082015292915050565b60006020808385031215620004d157600080fd5b82516001600160401b0380821115620004e957600080fd5b908401906101e08287031215620004ff57600080fd5b6200050962000375565b620005158784620003cd565b81526040620005278882860162000476565b858301526200053a8860c0860162000476565b818301526200054e88610140860162000476565b60608301526101c0840151838111156200056757600080fd5b80850194505087601f8501126200057d57600080fd5b83518381111562000592576200059262000334565b620005a2868260051b016200039a565b818152868101945060069190911b850186019089821115620005c357600080fd5b948601945b81861015620005ed57620005dd8a87620003cd565b85529482019493860193620005c8565b60808401525090979650505050505050565b60805160a05160c05160e05161010051610120516134cf62000687600039600081816103eb0152611d7b015260006104700152600081816101e50152610ed801526000818161038601528181610b5e015281816115b2015281816117c40152611e01015260008181610497015261090d0152600081816101a101526108e001526134cf6000f3fe608060405234801561001057600080fd5b50600436106101825760003560e01c80636fa5f135116100d857806399248ea71161008c578063ddaa26ad11610066578063ddaa26ad1461046b578063ddec19b814610492578063fc72e285146104b957600080fd5b806399248ea7146103e65780639fc4bca71461040d578063cc68fe8c1461045857600080fd5b80638309d8fa116100bd5780638309d8fa1461036a5780638f3e52de1461038157806390517d30146103a857600080fd5b80636fa5f135146103195780637c8487421461033957600080fd5b806350ef945d1161013a5780636749a2e4116101145780636749a2e4146102a75780636817f7db146102d85780636a8d3b4e146102f957600080fd5b806350ef945d1461023b5780635ca1e1651461024e5780635e615a6b1461026457600080fd5b8063117803e31161016b578063117803e3146101e05780631ab7415b146102075780634714071b1461020f57600080fd5b806302d943231461018757806308c84e701461019c575b600080fd5b61019a610195366004612d31565b6104cc565b005b6101c37f000000000000000000000000000000000000000000000000000000000000000081565b6040516001600160a01b0390911681526020015b60405180910390f35b6101c37f000000000000000000000000000000000000000000000000000000000000000081565b61019a610ca0565b60375461022690600160701b900463ffffffff1681565b60405163ffffffff90911681526020016101d7565b61019a610249366004612e34565b610ed6565b610256611008565b6040519081526020016101d7565b6002546040805161ffff6c01000000000000000000000000840481168252600160701b840481166020830152600160e01b909304909216908201526060016101d7565b6037546102c0906201000090046001600160601b031681565b6040516001600160601b0390911681526020016101d7565b6037546102e69061ffff1681565b60405161ffff90911681526020016101d7565b61030c610307366004612e99565b61103f565b6040516101d79190612f3c565b61032c610327366004612e99565b611221565b6040516101d79190612f4b565b61034c610347366004612f9a565b611585565b6040805163ffffffff909316835260ff9091166020830152016101d7565b60375461022690600160901b900463ffffffff1681565b6101c37f000000000000000000000000000000000000000000000000000000000000000081565b6103b0611666565b6040805163ffffffff9586168152938516602085015291909316908201526001600160601b0390911660608201526080016101d7565b6101c37f000000000000000000000000000000000000000000000000000000000000000081565b6004546040805163ffffffff8084168252640100000000840416602082015264ffffffffff600160401b8404811692820192909252600160681b9092041660608201526080016101d7565b61025661046636600461303d565b611733565b6102567f000000000000000000000000000000000000000000000000000000000000000081565b6101c37f000000000000000000000000000000000000000000000000000000000000000081565b61034c6104c736600461303d565b611797565b63ffffffff8316600090815260208190526040902054839060ff166105295760405162461bcd60e51b815260206004820152600e60248201526d42513a454d5054595f515545554560901b60448201526064015b60405180910390fd5b60008360008151811061053e5761053e613056565b602002602001015160001b9050610553611008565b81146040518060400160405280600581526020017f42543a4533000000000000000000000000000000000000000000000000000000815250906105a95760405162461bcd60e51b8152600401610520919061306c565b50506040516bffffffffffffffffffffffff19606087901b1660208201527fffffffff0000000000000000000000000000000000000000000000000000000060e086901b166034820152600090603801604051602081830303815290604052905060008460078151811061061f5761061f613056565b602002602001015190507f30644e72e131a029b85045b68181585d2833e84879b9709143e1f593f0000001828051906020012060001c61065f91906130d0565b81146040518060400160405280600581526020017f42543a4534000000000000000000000000000000000000000000000000000000815250906106b55760405162461bcd60e51b8152600401610520919061306c565b5050506000836008815181106106cd576106cd613056565b6020026020010151905080600014156040518060400160405280600581526020017f42543a4535000000000000000000000000000000000000000000000000000000815250906107305760405162461bcd60e51b8152600401610520919061306c565b5050600454835163ffffffff909116906000908590600290811061075657610756613056565b602002602001015190508163ffffffff1681146040518060400160405280600581526020017f42543a4536000000000000000000000000000000000000000000000000000000815250906107bd5760405162461bcd60e51b8152600401610520919061306c565b505060008060006107cd88611861565b9250925092506000876003815181106107e8576107e8613056565b602002602001015190508360001c81146040518060400160405280600581526020017f42543a45370000000000000000000000000000000000000000000000000000008152509061084c5760405162461bcd60e51b8152600401610520919061306c565b505060008760048151811061086357610863613056565b602002602001015190508260ff1681146040518060400160405280600581526020017f42543a4538000000000000000000000000000000000000000000000000000000815250906108c75760405162461bcd60e51b8152600401610520919061306c565b5050604051634f5267b760e11b81526001600160a01b037f00000000000000000000000000000000000000000000000000000000000000001690639ea4cf6e90610939907f0000000000000000000000000000000000000000000000000000000000000000908b908b90600401613107565b602060405180830381865afa158015610956573d6000803e3d6000fd5b505050506040513d601f19601f8201168201806040525081019061097a91906131b7565b6040518060400160405280600581526020017f42543a4539000000000000000000000000000000000000000000000000000000815250906109ce5760405162461bcd60e51b8152600401610520919061306c565b506000876006815181106109e4576109e4613056565b60209081029190910101516004805464ffffffffff43908116600160681b0271ffffffffff00000000000000000000000000199092169190911790915590915060006001610a34600a60026132d3565b610a3e91906132df565b8763ffffffff1616905080600003610a7a57600480546cffffffffff00000000000000001916600160401b64ffffffffff851602179055610ad8565b610a86600a60026132d3565b610a918260016132f2565b03610ad857604051838152600a88901c623fffff169081907f6b4825234564d7696c105338f7976904b9f2119bb3c25b2ecc6f5ff766addc539060200160405180910390a2505b5050600088600181518110610aef57610aef613056565b602090810291909101015160038190559050610b0c866001613305565b6004805463ffffffff191663ffffffff9283161780825560ff8716928291610b3e918591640100000000900416613305565b92506101000a81548163ffffffff021916908363ffffffff1602179055507f00000000000000000000000000000000000000000000000000000000000000006001600160a01b031663c2e3e62b8260016040518363ffffffff1660e01b8152600401610bb4929190918252602082015260400190565b600060405180830381600087803b158015610bce57600080fd5b505af1158015610be2573d6000803e3d6000fd5b50508a51643fffffffc060068a901b169250600091508b906005908110610c0b57610c0b613056565b602002602001015160001b9050808c63ffffffff167fd01e2f68a60297b8e6af6f6a73de794cfa4156df3062120b25713ff52049751d88858789604051610c76949392919060ff94909416845263ffffffff9290921660208401526040830152606082015260800190565b60405180910390a3610c918d866001600160601b0316611d62565b50505050505050505050505050565b60375460408051600160701b90920463ffffffff1660208301819052916000917f30644e72e131a029b85045b68181585d2833e84879b9709143e1f593f000000191016040516020818303038152906040528051906020012060001c610d0691906130d0565b90506000610d186003831660016132f2565b9050610d2342611733565b811115610d2f57505050565b60008167ffffffffffffffff811115610d4a57610d4a612b58565b604051908082528060200260200182016040528015610d73578160200160208202803683370190505b5090508260001b81600081518110610d8d57610d8d613056565b602090810291909101015283610da281613329565b9450600190505b82811015610e34577f30644e72e131a029b85045b68181585d2833e84879b9709143e1f593f000000185604051602001610de591815260200190565b6040516020818303038152906040528051906020012060001c610e0891906130d0565b60001b828281518110610e1d57610e1d613056565b602090810291909101015260019485019401610da9565b50603780544263ffffffff908116600160901b027fffffffffffffffffffff00000000ffffffffffffffffffffffffffffffffffff918816600160701b02919091167fffffffffffffffffffff0000000000000000ffffffffffffffffffffffffffff909216919091171790819055600090610ec19084906001600160601b036201000090910416613342565b9050610ecd8282611ea8565b50505050505050565b7f00000000000000000000000000000000000000000000000000000000000000006001600160a01b03163314610f4e5760405162461bcd60e51b815260206004820152601460248201527f496d6d4f776e3a20756e617574686f72697a65640000000000000000000000006044820152606401610520565b610f59838383612452565b60008561ffff16118015610f7657506000846001600160601b0316115b6040518060400160405280600681526020017f5042543a4533000000000000000000000000000000000000000000000000000081525090610fca5760405162461bcd60e51b8152600401610520919061306c565b5050603780546001600160601b0390941662010000026dffffffffffffffffffffffffffff1990941661ffff90951694909417929092179092555050565b6003546000901561101a575060035490565b507f1bdded415724018275c7fcc2f564f64db01b5bbeb06d65700564b05c3c59c9e690565b6040805161010081018252600080825260208201819052918101829052606081018290526080810182905260a0810182905260c0810182905260e081019190915263ffffffff80831660009081526020818152604091829020825160c081018452905460ff811682526001600160601b036101008204169282019290925264ffffffffff600160681b8304811693820193909352600160901b82049092166060830152600160b81b810483166080830152600160d81b9004821660a082015260025490911661110f846001613305565b63ffffffff1614806111245750805160ff1615155b6111705760405162461bcd60e51b815260206004820152601d60248201527f42543a554e4b4e4f574e5f4f525f50524f4345535345445f51554555450000006044820152606401610520565b60008061117c8361257c565b50915091506040518061010001604052808663ffffffff168152602001846000015160ff168152602001836001600160601b03168152602001826001600160601b03168152602001846040015164ffffffffff168152602001846060015164ffffffffff1681526020016111ef8561264f565b64ffffffffff16815263ffffffff90961660009081526001602090815260409091205496019590955250929392505050565b60025460609063ffffffff640100000000909104811690831681111561124a575063ffffffff82165b8067ffffffffffffffff81111561126357611263612b58565b6040519080825280602002602001820160405280156112d257816020015b604080516101008101825260008082526020808301829052928201819052606082018190526080820181905260a0820181905260c0820181905260e082015282526000199092019101816112815790505b50600254909250600160401b900463ffffffff1660005b8281101561157d5760006112fe600184613361565b63ffffffff80821660009081526020818152604091829020825160c081018452905460ff811682526001600160601b036101008204169282019290925264ffffffffff600160681b8304811693820193909352600160901b82049092166060830152600160b81b810483166080830152600160d81b900490911660a0820152865191925090829087908590811061139757611397613056565b602090810291909101015163ffffffff9091169052805186518790859081106113c2576113c2613056565b60209081029190910181015160ff9092169101526000806113e28361257c565b5091509150818886815181106113fa576113fa613056565b6020026020010151604001906001600160601b031690816001600160601b0316815250508088868151811061143157611431613056565b6020026020010151606001906001600160601b031690816001600160601b031681525050826040015188868151811061146c5761146c613056565b60200260200101516080019064ffffffffff16908164ffffffffff168152505082606001518886815181106114a3576114a3613056565b602002602001015160a0019064ffffffffff16908164ffffffffff16815250506114cc8361264f565b8886815181106114de576114de613056565b602002602001015160c0019064ffffffffff16908164ffffffffff1681525050600160008563ffffffff1663ffffffff1681526020019081526020016000205488868151811061153057611530613056565b602090810291909101015160e0015260a083015163ffffffff1615611559578260a00151611564565b611564866001613305565b955050505050808061157590613329565b9150506112e9565b505050919050565b60408051808201909152600681526528212a1d229960d11b60208201526000908190336001600160a01b037f000000000000000000000000000000000000000000000000000000000000000016146115f05760405162461bcd60e51b8152600401610520919061306c565b50835160408051808201909152600681527f5042543a453400000000000000000000000000000000000000000000000000006020820152906116455760405162461bcd60e51b8152600401610520919061306c565b506116518385516126ff565b61165b8484611ea8565b909590945092505050565b60025460009081908190819063ffffffff168082036116c75760405162461bcd60e51b815260206004820152600c60248201527f42543a4e4f5f51554555455300000000000000000000000000000000000000006044820152606401610520565b6116d2600182613361565b600254909550640100000000900463ffffffff169350831561170f5760025461170a90600190600160401b900463ffffffff16613361565b611712565b60005b9250600260109054906101000a90046001600160601b031691505090919293565b603754600090600160901b900463ffffffff16821161175457506000919050565b60375460009061177190600160901b900463ffffffff16846132df565b60375490915061ffff16611786603c8361337e565b6117909190613342565b9392505050565b60408051808201909152600681526528212a1d229960d11b60208201526000908190336001600160a01b037f000000000000000000000000000000000000000000000000000000000000000016146118025760405162461bcd60e51b8152600401610520919061306c565b5060408051600180825281830190925260009160208083019080368337019050509050838160008151811061183957611839613056565b602090810291909101015260375461165b9082906201000090046001600160601b0316611ea8565b63ffffffff811660009081526020819052604081205481908190849060ff166118bd5760405162461bcd60e51b815260206004820152600e60248201526d42513a454d5054595f515545554560901b6044820152606401610520565b63ffffffff80861660009081526020818152604091829020825160c081018452905460ff811682526001600160601b036101008204169282019290925264ffffffffff600160681b8304811693820193909352600160901b82049092166060830152600160b81b810483166080830152600160d81b900490911660a08201526119458161264f565b64ffffffffff16156119995760405162461bcd60e51b815260206004820152601260248201527f4251543a494d4d41545552455f515545554500000000000000000000000000006044820152606401610520565b63ffffffff8616600090815260016020526040902054815190955093506119bf81612791565b92506040518060c00160405280600060ff16815260200160006001600160601b03168152602001600064ffffffffff168152602001600064ffffffffff168152602001600063ffffffff168152602001600063ffffffff168152506000808863ffffffff1663ffffffff16815260200190815260200160002060008201518160000160006101000a81548160ff021916908360ff16021790555060208201518160000160016101000a8154816001600160601b0302191690836001600160601b03160217905550604082015181600001600d6101000a81548164ffffffffff021916908364ffffffffff16021790555060608201518160000160126101000a81548164ffffffffff021916908364ffffffffff16021790555060808201518160000160176101000a81548163ffffffff021916908363ffffffff16021790555060a082015181600001601b6101000a81548163ffffffff021916908363ffffffff1602179055509050506000801b600160008863ffffffff1663ffffffff168152602001908152602001600020819055506001600260048282829054906101000a900463ffffffff16611b729190613361565b92506101000a81548163ffffffff021916908363ffffffff16021790555060006001600260009054906101000a900463ffffffff16611bb19190613361565b90508063ffffffff168763ffffffff1603611bd457611bce61290f565b50909150505b60008260a0015163ffffffff16600014611bf2578260a00151611bfd565b611bfd886002613305565b90506000611c0c600183613361565b9050600080611c1c8b6001613305565b600254600160401b900463ffffffff90811691161490508015611c6557600280546bffffffff00000000000000001916600160401b63ffffffff87160217905560009150611cdf565b608086015163ffffffff1615611c7f578560800151611c81565b8a5b915083600080611c92600186613361565b63ffffffff9081168252602082019290925260400160002080547fff00000000ffffffffffffffffffffffffffffffffffffffffffffffffffffff16600160d81b93909216929092021790555b5063ffffffff8083166000908152602081905260408082208054948416600160b81b027fffffffffff00000000ffffffffffffffffffffffffffffffffffffffffffffff909516949094179093559151908b16917f81f0d9af25a73b8f7cf554b545eca60fbd59ab3d640c9d0c00b8914c60f5553d91a250505050509193909250565b6040805160a08101825260008082526001600160a01b037f0000000000000000000000000000000000000000000000000000000000000000811660208401908152838501928352868216606085019081526001600160601b03878116608087019081529651637b01fb1b60e01b8152865160ff1660048201529251841660248401529351604483015251821660648201529351909116608484015290917f000000000000000000000000000000000000000000000000000000000000000090911690637b01fb1b9060a401600060405180830381600087803b158015611e4757600080fd5b505af1158015611e5b573d6000803e3d6000fd5b5050604080516001600160a01b0387168152602081018690527fad874d382891006d1fa6192a11e479ffc8f49a8402d2075bcd6957cc09ebd41093500190505b60405180910390a1505050565b600080611eb7600660026132d3565b845110611f065760405162461bcd60e51b815260206004820152601160248201527f42513a544f4f5f4d414e595f5554584f530000000000000000000000000000006044820152606401610520565b6040805160c081018252600080825260208201819052918101829052606081018290526080810182905260a0810182905260025460009063ffffffff16808203611f8957611f5261290f565b91955093509150611f64846001613305565b600260086101000a81548163ffffffff021916908363ffffffff16021790555061201b565b611f94600182613361565b63ffffffff808216600081815260208181526040808320815160c081018352905460ff811682526001600160601b036101008204168285015264ffffffffff600160681b8204811683850152600160901b8204166060830152600160b81b810487166080830152600160d81b900490951660a0860152928252600190522054919550935091505b50815192945091925083914360005b88518110156122c057835160ff1660000361204d5764ffffffffff821660408501525b600089828151811061206157612061613056565b602002602001015190506120808185876000015160ff166000146129f1565b855160405160ff909116815290945063ffffffff87169082907ff0028dc6ea18f6779defbbbede247eb20ab68a721dd25f2dd7e2243d84c02e7a9060200160405180910390a36001856000018181516120d99190613392565b60ff169052506120eb600660026132d3565b855160ff16036122ad5789516000906121058460016132f2565b612118906001600160601b038d16613342565b612122919061337e565b9050808660200181815161213691906133ab565b6001600160601b031690525061214c818b6133cb565b995083866060019064ffffffffff16908164ffffffffff1681525050856000808963ffffffff1663ffffffff16815260200190815260200160002060008201518160000160006101000a81548160ff021916908360ff16021790555060208201518160000160016101000a8154816001600160601b0302191690836001600160601b03160217905550604082015181600001600d6101000a81548164ffffffffff021916908364ffffffffff16021790555060608201518160000160126101000a81548164ffffffffff021916908364ffffffffff16021790555060808201518160000160176101000a81548163ffffffff021916908363ffffffff16021790555060a082015181600001601b6101000a81548163ffffffff021916908363ffffffff16021790555090505084600160008963ffffffff1663ffffffff168152602001908152602001600020819055506122a461290f565b91985096509450505b50806122b881613329565b91505061202a565b50825160ff16156124475786836020018181516122dd91906133ab565b9150906001600160601b031690816001600160601b03168152505080836060019064ffffffffff16908164ffffffffff1681525050826000808663ffffffff1663ffffffff16815260200190815260200160002060008201518160000160006101000a81548160ff021916908360ff16021790555060208201518160000160016101000a8154816001600160601b0302191690836001600160601b03160217905550604082015181600001600d6101000a81548164ffffffffff021916908364ffffffffff16021790555060608201518160000160126101000a81548164ffffffffff021916908364ffffffffff16021790555060808201518160000160176101000a81548163ffffffff021916908363ffffffff16021790555060a082015181600001601b6101000a81548163ffffffff021916908363ffffffff16021790555090505081600160008663ffffffff1663ffffffff168152602001908152602001600020819055505b505050509250929050565b6127108361ffff161115801561246e57506127108261ffff1611155b6124ba5760405162461bcd60e51b815260206004820152601160248201527f42513a494e56414c49445f504152414d530000000000000000000000000000006044820152606401610520565b600280546fffffffff00000000000000000000000019166c0100000000000000000000000061ffff8681169182026fffff0000000000000000000000000000191692909217600160701b868416908102919091177fffff0000ffffffffffffffffffffffffffffffffffffffffffffffffffffffff16600160e01b93861693840217909355604080519182526020820193909352918201527fefe7e0ed4b98044f7cb42a3ec461e836abb61e7ef0e9caa6593abd768ff8f91590606001611e9b565b6000806000806127106002600c9054906101000a900461ffff1661ffff1686602001516001600160601b03166125b29190613342565b6125bc919061337e565b90508085602001516001600160601b03166125d791906132df565b93506000856040015164ffffffffff16436125f291906132df565b90506127106002600e9054906101000a900461ffff1661ffff168288602001516001600160601b03166126259190613342565b61262f9190613342565b612639919061337e565b935061264584836133eb565b9496939550505050565b600061265d600660026132d3565b825160ff161061266f57506000919050565b815160009060ff16612683600660026132d3565b61268d91906132df565b9050600061269d600660026132d3565b6002546126b590600160e01b900461ffff1684613342565b6126bf919061337e565b90506000846040015164ffffffffff16826126da91906132f2565b9050804310156126f3576126ee43826132df565b6126f6565b60005b95945050505050565b60375460009061271f9083906201000090046001600160601b031661340b565b9050806001600160601b0316836001600160601b031610156040518060400160405280600681526020017f5042543a453500000000000000000000000000000000000000000000000000008152509061278b5760405162461bcd60e51b8152600401610520919061306c565b50505050565b6000806000806127a08561257c565b6002549295509093509150600160801b90046001600160601b0316600082131561284457816127cf81836132f2565b600280546001600160601b0392909216600160801b027fffffffff000000000000000000000000ffffffffffffffffffffffffffffffff9092169190911790556040518181527f37609a2ba4ee8305b625c65b22eb2b06ed2a8fa770f21e1231857e824c46dbc99060200160405180910390a1505b60008212156128fb5760006128588361343a565b90508181111561287c5761286c82826132df565b61287690856132df565b93508190505b61288681836132df565b600280546001600160601b0392909216600160801b027fffffffff000000000000000000000000ffffffffffffffffffffffffffffffff9092169190911790556040518181527f61066a888817843f3bfeca62dcb688f8c02ef711d970adce75a181818c59ee1e9060200160405180910390a1505b61290583856132f2565b9695505050505050565b6040805160c081018252600080825260208201819052918101829052606081018290526080810182905260a0810182905250506002805467ffffffffffffffff198116600163ffffffff808416828101821693841764010000000063ffffffff19909616909417859004821690920116909202179091556040805160c08101825260008082526020808301829052828401829052606083018290526080830182905260a083018290529251848152919290917f86a50f6bd16ba014690cf73c5bc4b4bf369cc6dbcd9a055f54b1cd926972c6ae910160405180910390a1909192565b600081612a0757612a028385612a11565b612a09565b835b949350505050565b6000612a30604051806040016040528085815260200184815250612a39565b90505b92915050565b80516000907f30644e72e131a029b85045b68181585d2833e84879b9709143e1f593f0000001118015612a8f575060208201517f30644e72e131a029b85045b68181585d2833e84879b9709143e1f593f0000001115b6040518060600160405280602281526020016134a16022913990612ac65760405162461bcd60e51b8152600401610520919061306c565b5060405163014cf2b360e51b8152737Ae48edd2Ee06Ba80863A196361B4bAAa5d8F8b19063299e566090612afe908590600401613456565b602060405180830381865af4158015612b1b573d6000803e3d6000fd5b505050506040513d601f19601f82011682018060405250810190612a339190613487565b803563ffffffff81168114612b5357600080fd5b919050565b634e487b7160e01b600052604160045260246000fd5b6040805190810167ffffffffffffffff81118282101715612b9157612b91612b58565b60405290565b604051601f8201601f1916810167ffffffffffffffff81118282101715612bc057612bc0612b58565b604052919050565b600067ffffffffffffffff821115612be257612be2612b58565b5060051b60200190565b600060408284031215612bfe57600080fd5b6040516040810181811067ffffffffffffffff82111715612c2157612c21612b58565b604052823581526020928301359281019290925250919050565b600082601f830112612c4c57600080fd5b612c54612b6e565b806040840185811115612c6657600080fd5b845b81811015612c80578035845260209384019301612c68565b509095945050505050565b6000818303610100811215612c9f57600080fd5b6040516060810181811067ffffffffffffffff82111715612cc257612cc2612b58565b604052915081612cd28585612bec565b81526080603f1983011215612ce657600080fd5b612cee612b6e565b9150612cfd8560408601612c3b565b8252612d0c8560808601612c3b565b6020830152816020820152612d248560c08601612bec565b6040820152505092915050565b6000806000806101608587031215612d4857600080fd5b84356001600160a01b0381168114612d5f57600080fd5b93506020612d6e868201612b3f565b9350604086013567ffffffffffffffff811115612d8a57600080fd5b8601601f81018813612d9b57600080fd5b8035612dae612da982612bc8565b612b97565b81815260059190911b8201830190838101908a831115612dcd57600080fd5b928401925b82841015612deb57833582529284019290840190612dd2565b8096505050505050612e008660608701612c8b565b905092959194509250565b803561ffff81168114612b5357600080fd5b80356001600160601b0381168114612b5357600080fd5b600080600080600060a08688031215612e4c57600080fd5b612e5586612e0b565b9450612e6360208701612e1d565b9350612e7160408701612e0b565b9250612e7f60608701612e0b565b9150612e8d60808701612e0b565b90509295509295909350565b600060208284031215612eab57600080fd5b612a3082612b3f565b63ffffffff815116825260ff602082015116602083015260408101516001600160601b038082166040850152806060840151166060850152505064ffffffffff608082015116608083015260a0810151612f1760a084018264ffffffffff169052565b5060c0810151612f3060c084018264ffffffffff169052565b5060e090810151910152565b6101008101612a338284612eb4565b6020808252825182820181905260009190848201906040850190845b81811015612f8e57612f7a838551612eb4565b928401926101009290920191600101612f67565b50909695505050505050565b60008060408385031215612fad57600080fd5b823567ffffffffffffffff811115612fc457600080fd5b8301601f81018513612fd557600080fd5b80356020612fe5612da983612bc8565b82815260059290921b8301810191818101908884111561300457600080fd5b938201935b8385101561302257843582529382019390820190613009565b95506130319050868201612e1d565b93505050509250929050565b60006020828403121561304f57600080fd5b5035919050565b634e487b7160e01b600052603260045260246000fd5b600060208083528351808285015260005b818110156130995785810183015185820160400152820161307d565b506000604082860101526040601f19601f8301168501019250505092915050565b634e487b7160e01b600052601260045260246000fd5b6000826130df576130df6130ba565b500690565b8060005b600281101561278b5781518452602093840193909101906001016130e8565b6001600160a01b03841681526101406020808301829052845191830182905260009161016084019186810191845b8181101561315157835185529382019392820192600101613135565b505082935061316e60408601875180518252602090810151910152565b8086015192506131826080860184516130e4565b9190910151905061319660c08401826130e4565b50604092909201518051610100830152602001516101209091015292915050565b6000602082840312156131c957600080fd5b8151801515811461179057600080fd5b634e487b7160e01b600052601160045260246000fd5b600181815b8085111561322a578160001904821115613210576132106131d9565b8085161561321d57918102915b93841c93908002906131f4565b509250929050565b60008261324157506001612a33565b8161324e57506000612a33565b8160018114613264576002811461326e5761328a565b6001915050612a33565b60ff84111561327f5761327f6131d9565b50506001821b612a33565b5060208310610133831016604e8410600b84101617156132ad575081810a612a33565b6132b783836131ef565b80600019048211156132cb576132cb6131d9565b029392505050565b6000612a308383613232565b81810381811115612a3357612a336131d9565b80820180821115612a3357612a336131d9565b63ffffffff818116838216019080821115613322576133226131d9565b5092915050565b60006001820161333b5761333b6131d9565b5060010190565b600081600019048311821515161561335c5761335c6131d9565b500290565b63ffffffff828116828216039080821115613322576133226131d9565b60008261338d5761338d6130ba565b500490565b60ff8181168382160190811115612a3357612a336131d9565b6001600160601b03818116838216019080821115613322576133226131d9565b6001600160601b03828116828216039080821115613322576133226131d9565b8181036000831280158383131683831282161715613322576133226131d9565b60006001600160601b0380831681851681830481118215151615613431576134316131d9565b02949350505050565b6000600160ff1b820161344f5761344f6131d9565b5060000390565b60408101818360005b600281101561347e57815183526020928301929091019060010161345f565b50505092915050565b60006020828403121561349957600080fd5b505191905056fe506f736569646f6e4861736865723a20696e707574206e6f7420696e206669656c64a164736f6c6343000810000a",
  "deployedBytecode": "0x608060405234801561001057600080fd5b50600436106101825760003560e01c80636fa5f135116100d857806399248ea71161008c578063ddaa26ad11610066578063ddaa26ad1461046b578063ddec19b814610492578063fc72e285146104b957600080fd5b806399248ea7146103e65780639fc4bca71461040d578063cc68fe8c1461045857600080fd5b80638309d8fa116100bd5780638309d8fa1461036a5780638f3e52de1461038157806390517d30146103a857600080fd5b80636fa5f135146103195780637c8487421461033957600080fd5b806350ef945d1161013a5780636749a2e4116101145780636749a2e4146102a75780636817f7db146102d85780636a8d3b4e146102f957600080fd5b806350ef945d1461023b5780635ca1e1651461024e5780635e615a6b1461026457600080fd5b8063117803e31161016b578063117803e3146101e05780631ab7415b146102075780634714071b1461020f57600080fd5b806302d943231461018757806308c84e701461019c575b600080fd5b61019a610195366004612d31565b6104cc565b005b6101c37f000000000000000000000000000000000000000000000000000000000000000081565b6040516001600160a01b0390911681526020015b60405180910390f35b6101c37f000000000000000000000000000000000000000000000000000000000000000081565b61019a610ca0565b60375461022690600160701b900463ffffffff1681565b60405163ffffffff90911681526020016101d7565b61019a610249366004612e34565b610ed6565b610256611008565b6040519081526020016101d7565b6002546040805161ffff6c01000000000000000000000000840481168252600160701b840481166020830152600160e01b909304909216908201526060016101d7565b6037546102c0906201000090046001600160601b031681565b6040516001600160601b0390911681526020016101d7565b6037546102e69061ffff1681565b60405161ffff90911681526020016101d7565b61030c610307366004612e99565b61103f565b6040516101d79190612f3c565b61032c610327366004612e99565b611221565b6040516101d79190612f4b565b61034c610347366004612f9a565b611585565b6040805163ffffffff909316835260ff9091166020830152016101d7565b60375461022690600160901b900463ffffffff1681565b6101c37f000000000000000000000000000000000000000000000000000000000000000081565b6103b0611666565b6040805163ffffffff9586168152938516602085015291909316908201526001600160601b0390911660608201526080016101d7565b6101c37f000000000000000000000000000000000000000000000000000000000000000081565b6004546040805163ffffffff8084168252640100000000840416602082015264ffffffffff600160401b8404811692820192909252600160681b9092041660608201526080016101d7565b61025661046636600461303d565b611733565b6102567f000000000000000000000000000000000000000000000000000000000000000081565b6101c37f000000000000000000000000000000000000000000000000000000000000000081565b61034c6104c736600461303d565b611797565b63ffffffff8316600090815260208190526040902054839060ff166105295760405162461bcd60e51b815260206004820152600e60248201526d42513a454d5054595f515545554560901b60448201526064015b60405180910390fd5b60008360008151811061053e5761053e613056565b602002602001015160001b9050610553611008565b81146040518060400160405280600581526020017f42543a4533000000000000000000000000000000000000000000000000000000815250906105a95760405162461bcd60e51b8152600401610520919061306c565b50506040516bffffffffffffffffffffffff19606087901b1660208201527fffffffff0000000000000000000000000000000000000000000000000000000060e086901b166034820152600090603801604051602081830303815290604052905060008460078151811061061f5761061f613056565b602002602001015190507f30644e72e131a029b85045b68181585d2833e84879b9709143e1f593f0000001828051906020012060001c61065f91906130d0565b81146040518060400160405280600581526020017f42543a4534000000000000000000000000000000000000000000000000000000815250906106b55760405162461bcd60e51b8152600401610520919061306c565b5050506000836008815181106106cd576106cd613056565b6020026020010151905080600014156040518060400160405280600581526020017f42543a4535000000000000000000000000000000000000000000000000000000815250906107305760405162461bcd60e51b8152600401610520919061306c565b5050600454835163ffffffff909116906000908590600290811061075657610756613056565b602002602001015190508163ffffffff1681146040518060400160405280600581526020017f42543a4536000000000000000000000000000000000000000000000000000000815250906107bd5760405162461bcd60e51b8152600401610520919061306c565b505060008060006107cd88611861565b9250925092506000876003815181106107e8576107e8613056565b602002602001015190508360001c81146040518060400160405280600581526020017f42543a45370000000000000000000000000000000000000000000000000000008152509061084c5760405162461bcd60e51b8152600401610520919061306c565b505060008760048151811061086357610863613056565b602002602001015190508260ff1681146040518060400160405280600581526020017f42543a4538000000000000000000000000000000000000000000000000000000815250906108c75760405162461bcd60e51b8152600401610520919061306c565b5050604051634f5267b760e11b81526001600160a01b037f00000000000000000000000000000000000000000000000000000000000000001690639ea4cf6e90610939907f0000000000000000000000000000000000000000000000000000000000000000908b908b90600401613107565b602060405180830381865afa158015610956573d6000803e3d6000fd5b505050506040513d601f19601f8201168201806040525081019061097a91906131b7565b6040518060400160405280600581526020017f42543a4539000000000000000000000000000000000000000000000000000000815250906109ce5760405162461bcd60e51b8152600401610520919061306c565b506000876006815181106109e4576109e4613056565b60209081029190910101516004805464ffffffffff43908116600160681b0271ffffffffff00000000000000000000000000199092169190911790915590915060006001610a34600a60026132d3565b610a3e91906132df565b8763ffffffff1616905080600003610a7a57600480546cffffffffff00000000000000001916600160401b64ffffffffff851602179055610ad8565b610a86600a60026132d3565b610a918260016132f2565b03610ad857604051838152600a88901c623fffff169081907f6b4825234564d7696c105338f7976904b9f2119bb3c25b2ecc6f5ff766addc539060200160405180910390a2505b5050600088600181518110610aef57610aef613056565b602090810291909101015160038190559050610b0c866001613305565b6004805463ffffffff191663ffffffff9283161780825560ff8716928291610b3e918591640100000000900416613305565b92506101000a81548163ffffffff021916908363ffffffff1602179055507f00000000000000000000000000000000000000000000000000000000000000006001600160a01b031663c2e3e62b8260016040518363ffffffff1660e01b8152600401610bb4929190918252602082015260400190565b600060405180830381600087803b158015610bce57600080fd5b505af1158015610be2573d6000803e3d6000fd5b50508a51643fffffffc060068a901b169250600091508b906005908110610c0b57610c0b613056565b602002602001015160001b9050808c63ffffffff167fd01e2f68a60297b8e6af6f6a73de794cfa4156df3062120b25713ff52049751d88858789604051610c76949392919060ff94909416845263ffffffff9290921660208401526040830152606082015260800190565b60405180910390a3610c918d866001600160601b0316611d62565b50505050505050505050505050565b60375460408051600160701b90920463ffffffff1660208301819052916000917f30644e72e131a029b85045b68181585d2833e84879b9709143e1f593f000000191016040516020818303038152906040528051906020012060001c610d0691906130d0565b90506000610d186003831660016132f2565b9050610d2342611733565b811115610d2f57505050565b60008167ffffffffffffffff811115610d4a57610d4a612b58565b604051908082528060200260200182016040528015610d73578160200160208202803683370190505b5090508260001b81600081518110610d8d57610d8d613056565b602090810291909101015283610da281613329565b9450600190505b82811015610e34577f30644e72e131a029b85045b68181585d2833e84879b9709143e1f593f000000185604051602001610de591815260200190565b6040516020818303038152906040528051906020012060001c610e0891906130d0565b60001b828281518110610e1d57610e1d613056565b602090810291909101015260019485019401610da9565b50603780544263ffffffff908116600160901b027fffffffffffffffffffff00000000ffffffffffffffffffffffffffffffffffff918816600160701b02919091167fffffffffffffffffffff0000000000000000ffffffffffffffffffffffffffff909216919091171790819055600090610ec19084906001600160601b036201000090910416613342565b9050610ecd8282611ea8565b50505050505050565b7f00000000000000000000000000000000000000000000000000000000000000006001600160a01b03163314610f4e5760405162461bcd60e51b815260206004820152601460248201527f496d6d4f776e3a20756e617574686f72697a65640000000000000000000000006044820152606401610520565b610f59838383612452565b60008561ffff16118015610f7657506000846001600160601b0316115b6040518060400160405280600681526020017f5042543a4533000000000000000000000000000000000000000000000000000081525090610fca5760405162461bcd60e51b8152600401610520919061306c565b5050603780546001600160601b0390941662010000026dffffffffffffffffffffffffffff1990941661ffff90951694909417929092179092555050565b6003546000901561101a575060035490565b507f1bdded415724018275c7fcc2f564f64db01b5bbeb06d65700564b05c3c59c9e690565b6040805161010081018252600080825260208201819052918101829052606081018290526080810182905260a0810182905260c0810182905260e081019190915263ffffffff80831660009081526020818152604091829020825160c081018452905460ff811682526001600160601b036101008204169282019290925264ffffffffff600160681b8304811693820193909352600160901b82049092166060830152600160b81b810483166080830152600160d81b9004821660a082015260025490911661110f846001613305565b63ffffffff1614806111245750805160ff1615155b6111705760405162461bcd60e51b815260206004820152601d60248201527f42543a554e4b4e4f574e5f4f525f50524f4345535345445f51554555450000006044820152606401610520565b60008061117c8361257c565b50915091506040518061010001604052808663ffffffff168152602001846000015160ff168152602001836001600160601b03168152602001826001600160601b03168152602001846040015164ffffffffff168152602001846060015164ffffffffff1681526020016111ef8561264f565b64ffffffffff16815263ffffffff90961660009081526001602090815260409091205496019590955250929392505050565b60025460609063ffffffff640100000000909104811690831681111561124a575063ffffffff82165b8067ffffffffffffffff81111561126357611263612b58565b6040519080825280602002602001820160405280156112d257816020015b604080516101008101825260008082526020808301829052928201819052606082018190526080820181905260a0820181905260c0820181905260e082015282526000199092019101816112815790505b50600254909250600160401b900463ffffffff1660005b8281101561157d5760006112fe600184613361565b63ffffffff80821660009081526020818152604091829020825160c081018452905460ff811682526001600160601b036101008204169282019290925264ffffffffff600160681b8304811693820193909352600160901b82049092166060830152600160b81b810483166080830152600160d81b900490911660a0820152865191925090829087908590811061139757611397613056565b602090810291909101015163ffffffff9091169052805186518790859081106113c2576113c2613056565b60209081029190910181015160ff9092169101526000806113e28361257c565b5091509150818886815181106113fa576113fa613056565b6020026020010151604001906001600160601b031690816001600160601b0316815250508088868151811061143157611431613056565b6020026020010151606001906001600160601b031690816001600160601b031681525050826040015188868151811061146c5761146c613056565b60200260200101516080019064ffffffffff16908164ffffffffff168152505082606001518886815181106114a3576114a3613056565b602002602001015160a0019064ffffffffff16908164ffffffffff16815250506114cc8361264f565b8886815181106114de576114de613056565b602002602001015160c0019064ffffffffff16908164ffffffffff1681525050600160008563ffffffff1663ffffffff1681526020019081526020016000205488868151811061153057611530613056565b602090810291909101015160e0015260a083015163ffffffff1615611559578260a00151611564565b611564866001613305565b955050505050808061157590613329565b9150506112e9565b505050919050565b60408051808201909152600681526528212a1d229960d11b60208201526000908190336001600160a01b037f000000000000000000000000000000000000000000000000000000000000000016146115f05760405162461bcd60e51b8152600401610520919061306c565b50835160408051808201909152600681527f5042543a453400000000000000000000000000000000000000000000000000006020820152906116455760405162461bcd60e51b8152600401610520919061306c565b506116518385516126ff565b61165b8484611ea8565b909590945092505050565b60025460009081908190819063ffffffff168082036116c75760405162461bcd60e51b815260206004820152600c60248201527f42543a4e4f5f51554555455300000000000000000000000000000000000000006044820152606401610520565b6116d2600182613361565b600254909550640100000000900463ffffffff169350831561170f5760025461170a90600190600160401b900463ffffffff16613361565b611712565b60005b9250600260109054906101000a90046001600160601b031691505090919293565b603754600090600160901b900463ffffffff16821161175457506000919050565b60375460009061177190600160901b900463ffffffff16846132df565b60375490915061ffff16611786603c8361337e565b6117909190613342565b9392505050565b60408051808201909152600681526528212a1d229960d11b60208201526000908190336001600160a01b037f000000000000000000000000000000000000000000000000000000000000000016146118025760405162461bcd60e51b8152600401610520919061306c565b5060408051600180825281830190925260009160208083019080368337019050509050838160008151811061183957611839613056565b602090810291909101015260375461165b9082906201000090046001600160601b0316611ea8565b63ffffffff811660009081526020819052604081205481908190849060ff166118bd5760405162461bcd60e51b815260206004820152600e60248201526d42513a454d5054595f515545554560901b6044820152606401610520565b63ffffffff80861660009081526020818152604091829020825160c081018452905460ff811682526001600160601b036101008204169282019290925264ffffffffff600160681b8304811693820193909352600160901b82049092166060830152600160b81b810483166080830152600160d81b900490911660a08201526119458161264f565b64ffffffffff16156119995760405162461bcd60e51b815260206004820152601260248201527f4251543a494d4d41545552455f515545554500000000000000000000000000006044820152606401610520565b63ffffffff8616600090815260016020526040902054815190955093506119bf81612791565b92506040518060c00160405280600060ff16815260200160006001600160601b03168152602001600064ffffffffff168152602001600064ffffffffff168152602001600063ffffffff168152602001600063ffffffff168152506000808863ffffffff1663ffffffff16815260200190815260200160002060008201518160000160006101000a81548160ff021916908360ff16021790555060208201518160000160016101000a8154816001600160601b0302191690836001600160601b03160217905550604082015181600001600d6101000a81548164ffffffffff021916908364ffffffffff16021790555060608201518160000160126101000a81548164ffffffffff021916908364ffffffffff16021790555060808201518160000160176101000a81548163ffffffff021916908363ffffffff16021790555060a082015181600001601b6101000a81548163ffffffff021916908363ffffffff1602179055509050506000801b600160008863ffffffff1663ffffffff168152602001908152602001600020819055506001600260048282829054906101000a900463ffffffff16611b729190613361565b92506101000a81548163ffffffff021916908363ffffffff16021790555060006001600260009054906101000a900463ffffffff16611bb19190613361565b90508063ffffffff168763ffffffff1603611bd457611bce61290f565b50909150505b60008260a0015163ffffffff16600014611bf2578260a00151611bfd565b611bfd886002613305565b90506000611c0c600183613361565b9050600080611c1c8b6001613305565b600254600160401b900463ffffffff90811691161490508015611c6557600280546bffffffff00000000000000001916600160401b63ffffffff87160217905560009150611cdf565b608086015163ffffffff1615611c7f578560800151611c81565b8a5b915083600080611c92600186613361565b63ffffffff9081168252602082019290925260400160002080547fff00000000ffffffffffffffffffffffffffffffffffffffffffffffffffffff16600160d81b93909216929092021790555b5063ffffffff8083166000908152602081905260408082208054948416600160b81b027fffffffffff00000000ffffffffffffffffffffffffffffffffffffffffffffff909516949094179093559151908b16917f81f0d9af25a73b8f7cf554b545eca60fbd59ab3d640c9d0c00b8914c60f5553d91a250505050509193909250565b6040805160a08101825260008082526001600160a01b037f0000000000000000000000000000000000000000000000000000000000000000811660208401908152838501928352868216606085019081526001600160601b03878116608087019081529651637b01fb1b60e01b8152865160ff1660048201529251841660248401529351604483015251821660648201529351909116608484015290917f000000000000000000000000000000000000000000000000000000000000000090911690637b01fb1b9060a401600060405180830381600087803b158015611e4757600080fd5b505af1158015611e5b573d6000803e3d6000fd5b5050604080516001600160a01b0387168152602081018690527fad874d382891006d1fa6192a11e479ffc8f49a8402d2075bcd6957cc09ebd41093500190505b60405180910390a1505050565b600080611eb7600660026132d3565b845110611f065760405162461bcd60e51b815260206004820152601160248201527f42513a544f4f5f4d414e595f5554584f530000000000000000000000000000006044820152606401610520565b6040805160c081018252600080825260208201819052918101829052606081018290526080810182905260a0810182905260025460009063ffffffff16808203611f8957611f5261290f565b91955093509150611f64846001613305565b600260086101000a81548163ffffffff021916908363ffffffff16021790555061201b565b611f94600182613361565b63ffffffff808216600081815260208181526040808320815160c081018352905460ff811682526001600160601b036101008204168285015264ffffffffff600160681b8204811683850152600160901b8204166060830152600160b81b810487166080830152600160d81b900490951660a0860152928252600190522054919550935091505b50815192945091925083914360005b88518110156122c057835160ff1660000361204d5764ffffffffff821660408501525b600089828151811061206157612061613056565b602002602001015190506120808185876000015160ff166000146129f1565b855160405160ff909116815290945063ffffffff87169082907ff0028dc6ea18f6779defbbbede247eb20ab68a721dd25f2dd7e2243d84c02e7a9060200160405180910390a36001856000018181516120d99190613392565b60ff169052506120eb600660026132d3565b855160ff16036122ad5789516000906121058460016132f2565b612118906001600160601b038d16613342565b612122919061337e565b9050808660200181815161213691906133ab565b6001600160601b031690525061214c818b6133cb565b995083866060019064ffffffffff16908164ffffffffff1681525050856000808963ffffffff1663ffffffff16815260200190815260200160002060008201518160000160006101000a81548160ff021916908360ff16021790555060208201518160000160016101000a8154816001600160601b0302191690836001600160601b03160217905550604082015181600001600d6101000a81548164ffffffffff021916908364ffffffffff16021790555060608201518160000160126101000a81548164ffffffffff021916908364ffffffffff16021790555060808201518160000160176101000a81548163ffffffff021916908363ffffffff16021790555060a082015181600001601b6101000a81548163ffffffff021916908363ffffffff16021790555090505084600160008963ffffffff1663ffffffff168152602001908152602001600020819055506122a461290f565b91985096509450505b50806122b881613329565b91505061202a565b50825160ff16156124475786836020018181516122dd91906133ab565b9150906001600160601b031690816001600160601b03168152505080836060019064ffffffffff16908164ffffffffff1681525050826000808663ffffffff1663ffffffff16815260200190815260200160002060008201518160000160006101000a81548160ff021916908360ff16021790555060208201518160000160016101000a8154816001600160601b0302191690836001600160601b03160217905550604082015181600001600d6101000a81548164ffffffffff021916908364ffffffffff16021790555060608201518160000160126101000a81548164ffffffffff021916908364ffffffffff16021790555060808201518160000160176101000a81548163ffffffff021916908363ffffffff16021790555060a082015181600001601b6101000a81548163ffffffff021916908363ffffffff16021790555090505081600160008663ffffffff1663ffffffff168152602001908152602001600020819055505b505050509250929050565b6127108361ffff161115801561246e57506127108261ffff1611155b6124ba5760405162461bcd60e51b815260206004820152601160248201527f42513a494e56414c49445f504152414d530000000000000000000000000000006044820152606401610520565b600280546fffffffff00000000000000000000000019166c0100000000000000000000000061ffff8681169182026fffff0000000000000000000000000000191692909217600160701b868416908102919091177fffff0000ffffffffffffffffffffffffffffffffffffffffffffffffffffffff16600160e01b93861693840217909355604080519182526020820193909352918201527fefe7e0ed4b98044f7cb42a3ec461e836abb61e7ef0e9caa6593abd768ff8f91590606001611e9b565b6000806000806127106002600c9054906101000a900461ffff1661ffff1686602001516001600160601b03166125b29190613342565b6125bc919061337e565b90508085602001516001600160601b03166125d791906132df565b93506000856040015164ffffffffff16436125f291906132df565b90506127106002600e9054906101000a900461ffff1661ffff168288602001516001600160601b03166126259190613342565b61262f9190613342565b612639919061337e565b935061264584836133eb565b9496939550505050565b600061265d600660026132d3565b825160ff161061266f57506000919050565b815160009060ff16612683600660026132d3565b61268d91906132df565b9050600061269d600660026132d3565b6002546126b590600160e01b900461ffff1684613342565b6126bf919061337e565b90506000846040015164ffffffffff16826126da91906132f2565b9050804310156126f3576126ee43826132df565b6126f6565b60005b95945050505050565b60375460009061271f9083906201000090046001600160601b031661340b565b9050806001600160601b0316836001600160601b031610156040518060400160405280600681526020017f5042543a453500000000000000000000000000000000000000000000000000008152509061278b5760405162461bcd60e51b8152600401610520919061306c565b50505050565b6000806000806127a08561257c565b6002549295509093509150600160801b90046001600160601b0316600082131561284457816127cf81836132f2565b600280546001600160601b0392909216600160801b027fffffffff000000000000000000000000ffffffffffffffffffffffffffffffff9092169190911790556040518181527f37609a2ba4ee8305b625c65b22eb2b06ed2a8fa770f21e1231857e824c46dbc99060200160405180910390a1505b60008212156128fb5760006128588361343a565b90508181111561287c5761286c82826132df565b61287690856132df565b93508190505b61288681836132df565b600280546001600160601b0392909216600160801b027fffffffff000000000000000000000000ffffffffffffffffffffffffffffffff9092169190911790556040518181527f61066a888817843f3bfeca62dcb688f8c02ef711d970adce75a181818c59ee1e9060200160405180910390a1505b61290583856132f2565b9695505050505050565b6040805160c081018252600080825260208201819052918101829052606081018290526080810182905260a0810182905250506002805467ffffffffffffffff198116600163ffffffff808416828101821693841764010000000063ffffffff19909616909417859004821690920116909202179091556040805160c08101825260008082526020808301829052828401829052606083018290526080830182905260a083018290529251848152919290917f86a50f6bd16ba014690cf73c5bc4b4bf369cc6dbcd9a055f54b1cd926972c6ae910160405180910390a1909192565b600081612a0757612a028385612a11565b612a09565b835b949350505050565b6000612a30604051806040016040528085815260200184815250612a39565b90505b92915050565b80516000907f30644e72e131a029b85045b68181585d2833e84879b9709143e1f593f0000001118015612a8f575060208201517f30644e72e131a029b85045b68181585d2833e84879b9709143e1f593f0000001115b6040518060600160405280602281526020016134a16022913990612ac65760405162461bcd60e51b8152600401610520919061306c565b5060405163014cf2b360e51b815273__$3d381aec2d571db697c779e211a438fb21$__9063299e566090612afe908590600401613456565b602060405180830381865af4158015612b1b573d6000803e3d6000fd5b505050506040513d601f19601f82011682018060405250810190612a339190613487565b803563ffffffff81168114612b5357600080fd5b919050565b634e487b7160e01b600052604160045260246000fd5b6040805190810167ffffffffffffffff81118282101715612b9157612b91612b58565b60405290565b604051601f8201601f1916810167ffffffffffffffff81118282101715612bc057612bc0612b58565b604052919050565b600067ffffffffffffffff821115612be257612be2612b58565b5060051b60200190565b600060408284031215612bfe57600080fd5b6040516040810181811067ffffffffffffffff82111715612c2157612c21612b58565b604052823581526020928301359281019290925250919050565b600082601f830112612c4c57600080fd5b612c54612b6e565b806040840185811115612c6657600080fd5b845b81811015612c80578035845260209384019301612c68565b509095945050505050565b6000818303610100811215612c9f57600080fd5b6040516060810181811067ffffffffffffffff82111715612cc257612cc2612b58565b604052915081612cd28585612bec565b81526080603f1983011215612ce657600080fd5b612cee612b6e565b9150612cfd8560408601612c3b565b8252612d0c8560808601612c3b565b6020830152816020820152612d248560c08601612bec565b6040820152505092915050565b6000806000806101608587031215612d4857600080fd5b84356001600160a01b0381168114612d5f57600080fd5b93506020612d6e868201612b3f565b9350604086013567ffffffffffffffff811115612d8a57600080fd5b8601601f81018813612d9b57600080fd5b8035612dae612da982612bc8565b612b97565b81815260059190911b8201830190838101908a831115612dcd57600080fd5b928401925b82841015612deb57833582529284019290840190612dd2565b8096505050505050612e008660608701612c8b565b905092959194509250565b803561ffff81168114612b5357600080fd5b80356001600160601b0381168114612b5357600080fd5b600080600080600060a08688031215612e4c57600080fd5b612e5586612e0b565b9450612e6360208701612e1d565b9350612e7160408701612e0b565b9250612e7f60608701612e0b565b9150612e8d60808701612e0b565b90509295509295909350565b600060208284031215612eab57600080fd5b612a3082612b3f565b63ffffffff815116825260ff602082015116602083015260408101516001600160601b038082166040850152806060840151166060850152505064ffffffffff608082015116608083015260a0810151612f1760a084018264ffffffffff169052565b5060c0810151612f3060c084018264ffffffffff169052565b5060e090810151910152565b6101008101612a338284612eb4565b6020808252825182820181905260009190848201906040850190845b81811015612f8e57612f7a838551612eb4565b928401926101009290920191600101612f67565b50909695505050505050565b60008060408385031215612fad57600080fd5b823567ffffffffffffffff811115612fc457600080fd5b8301601f81018513612fd557600080fd5b80356020612fe5612da983612bc8565b82815260059290921b8301810191818101908884111561300457600080fd5b938201935b8385101561302257843582529382019390820190613009565b95506130319050868201612e1d565b93505050509250929050565b60006020828403121561304f57600080fd5b5035919050565b634e487b7160e01b600052603260045260246000fd5b600060208083528351808285015260005b818110156130995785810183015185820160400152820161307d565b506000604082860101526040601f19601f8301168501019250505092915050565b634e487b7160e01b600052601260045260246000fd5b6000826130df576130df6130ba565b500690565b8060005b600281101561278b5781518452602093840193909101906001016130e8565b6001600160a01b03841681526101406020808301829052845191830182905260009161016084019186810191845b8181101561315157835185529382019392820192600101613135565b505082935061316e60408601875180518252602090810151910152565b8086015192506131826080860184516130e4565b9190910151905061319660c08401826130e4565b50604092909201518051610100830152602001516101209091015292915050565b6000602082840312156131c957600080fd5b8151801515811461179057600080fd5b634e487b7160e01b600052601160045260246000fd5b600181815b8085111561322a578160001904821115613210576132106131d9565b8085161561321d57918102915b93841c93908002906131f4565b509250929050565b60008261324157506001612a33565b8161324e57506000612a33565b8160018114613264576002811461326e5761328a565b6001915050612a33565b60ff84111561327f5761327f6131d9565b50506001821b612a33565b5060208310610133831016604e8410600b84101617156132ad575081810a612a33565b6132b783836131ef565b80600019048211156132cb576132cb6131d9565b029392505050565b6000612a308383613232565b81810381811115612a3357612a336131d9565b80820180821115612a3357612a336131d9565b63ffffffff818116838216019080821115613322576133226131d9565b5092915050565b60006001820161333b5761333b6131d9565b5060010190565b600081600019048311821515161561335c5761335c6131d9565b500290565b63ffffffff828116828216039080821115613322576133226131d9565b60008261338d5761338d6130ba565b500490565b60ff8181168382160190811115612a3357612a336131d9565b6001600160601b03818116838216019080821115613322576133226131d9565b6001600160601b03828116828216039080821115613322576133226131d9565b8181036000831280158383131683831282161715613322576133226131d9565b60006001600160601b0380831681851681830481118215151615613431576134316131d9565b02949350505050565b6000600160ff1b820161344f5761344f6131d9565b5060000390565b60408101818360005b600281101561347e57815183526020928301929091019060010161345f565b50505092915050565b60006020828403121561349957600080fd5b505191905056fe506f736569646f6e4861736865723a20696e707574206e6f7420696e206669656c64a164736f6c6343000810000a",
  "libraries": {
    "PoseidonT3": "0x7Ae48edd2Ee06Ba80863A196361B4bAAa5d8F8b1"
  },
  "devdoc": {
    "kind": "dev",
    "methods": {
      "addUtxosToBusQueue(bytes32[],uint96)": {
        "details": "If the current queue has no space left to add all UTXOs, a part of UTXOs only are added to the current queue until it gets full, then the remaining UTXOs are added to a new queue. Index of any UTXO (not just the 1st one) may be computed as follows: - index of UTXO in a queue increments by +1 with every new UTXO added,   (from 0 for the 1st UTXO in a queue up to `QUEUE_MAX_SIZE - 1`) - number of UTXOs added to the new queue (if there are such) equals to   `firstUtxoIndexInQueue + utxos[0].length - QUEUE_MAX_SIZE` - new queue (if created) has ID equal to `firstUtxoQueueId + 1`",
        "returns": {
          "firstUtxoIndexInQueue": "Index of `utxos[0]` in the queue",
          "firstUtxoQueueId": "ID of the queue which `utxos[0]` was added to"
        }
      },
      "onboardQueue(address,uint32,uint256[],((uint256,uint256),(uint256[2],uint256[2]),(uint256,uint256)))": {
        "details": "ZK-circuit public signals:",
        "params": {
          "inputs": "[8] - magicalConstraint (non-zero random number)"
        }
      }
    },
    "version": 1
  },
  "userdoc": {
    "kind": "user",
    "methods": {
      "OWNER()": {
        "notice": "The owner who has privileged rights"
      }
    },
    "version": 1
  },
  "storageLayout": {
    "storage": [
      {
        "astId": 12795,
        "contract": "contracts/protocol/PantherBusTree.sol:PantherBusTree",
        "label": "_busQueues",
        "offset": 0,
        "slot": "0",
        "type": "t_mapping(t_uint32,t_struct(BusQueue)12773_storage)"
      },
      {
        "astId": 12799,
        "contract": "contracts/protocol/PantherBusTree.sol:PantherBusTree",
        "label": "_busQueueCommitments",
        "offset": 0,
        "slot": "1",
        "type": "t_mapping(t_uint32,t_bytes32)"
      },
      {
        "astId": 12801,
        "contract": "contracts/protocol/PantherBusTree.sol:PantherBusTree",
        "label": "_nextQueueId",
        "offset": 0,
        "slot": "2",
        "type": "t_uint32"
      },
      {
        "astId": 12803,
        "contract": "contracts/protocol/PantherBusTree.sol:PantherBusTree",
        "label": "_numPendingQueues",
        "offset": 4,
        "slot": "2",
        "type": "t_uint32"
      },
      {
        "astId": 12805,
        "contract": "contracts/protocol/PantherBusTree.sol:PantherBusTree",
        "label": "_oldestPendingQueueLink",
        "offset": 8,
        "slot": "2",
        "type": "t_uint32"
      },
      {
        "astId": 12807,
        "contract": "contracts/protocol/PantherBusTree.sol:PantherBusTree",
        "label": "_reservationRate",
        "offset": 12,
        "slot": "2",
        "type": "t_uint16"
      },
      {
        "astId": 12809,
        "contract": "contracts/protocol/PantherBusTree.sol:PantherBusTree",
        "label": "_premiumRate",
        "offset": 14,
        "slot": "2",
        "type": "t_uint16"
      },
      {
        "astId": 12811,
        "contract": "contracts/protocol/PantherBusTree.sol:PantherBusTree",
        "label": "_rewardReserve",
        "offset": 16,
        "slot": "2",
        "type": "t_uint96"
      },
      {
        "astId": 12813,
        "contract": "contracts/protocol/PantherBusTree.sol:PantherBusTree",
        "label": "_minEmptyQueueAge",
        "offset": 28,
        "slot": "2",
        "type": "t_uint16"
      },
      {
        "astId": 13957,
        "contract": "contracts/protocol/PantherBusTree.sol:PantherBusTree",
        "label": "_busTreeRoot",
        "offset": 0,
        "slot": "3",
        "type": "t_bytes32"
      },
      {
        "astId": 13959,
        "contract": "contracts/protocol/PantherBusTree.sol:PantherBusTree",
        "label": "_numBatchesInBusTree",
        "offset": 0,
        "slot": "4",
        "type": "t_uint32"
      },
      {
        "astId": 13961,
        "contract": "contracts/protocol/PantherBusTree.sol:PantherBusTree",
        "label": "_numUtxosInBusTree",
        "offset": 4,
        "slot": "4",
        "type": "t_uint32"
      },
      {
        "astId": 13963,
        "contract": "contracts/protocol/PantherBusTree.sol:PantherBusTree",
        "label": "_latestBranchFirstBatchBlock",
        "offset": 8,
        "slot": "4",
        "type": "t_uint40"
      },
      {
        "astId": 13965,
        "contract": "contracts/protocol/PantherBusTree.sol:PantherBusTree",
        "label": "_latestBatchBlock",
        "offset": 13,
        "slot": "4",
        "type": "t_uint40"
      },
      {
        "astId": 3800,
        "contract": "contracts/protocol/PantherBusTree.sol:PantherBusTree",
        "label": "__gap",
        "offset": 0,
        "slot": "5",
        "type": "t_array(t_uint256)50_storage"
      },
      {
        "astId": 3806,
        "contract": "contracts/protocol/PantherBusTree.sol:PantherBusTree",
        "label": "perMinuteUtxosLimit",
        "offset": 0,
        "slot": "55",
        "type": "t_uint16"
      },
      {
        "astId": 3808,
        "contract": "contracts/protocol/PantherBusTree.sol:PantherBusTree",
        "label": "basePerUtxoReward",
        "offset": 2,
        "slot": "55",
        "type": "t_uint96"
      },
      {
        "astId": 3810,
        "contract": "contracts/protocol/PantherBusTree.sol:PantherBusTree",
        "label": "utxoCounter",
        "offset": 14,
        "slot": "55",
        "type": "t_uint32"
      },
      {
        "astId": 3812,
        "contract": "contracts/protocol/PantherBusTree.sol:PantherBusTree",
        "label": "lastUtxoSimulationTimestamp",
        "offset": 18,
        "slot": "55",
        "type": "t_uint32"
      }
    ],
    "types": {
      "t_array(t_uint256)50_storage": {
        "base": "t_uint256",
        "encoding": "inplace",
        "label": "uint256[50]",
        "numberOfBytes": "1600"
      },
      "t_bytes32": {
        "encoding": "inplace",
        "label": "bytes32",
        "numberOfBytes": "32"
      },
      "t_mapping(t_uint32,t_bytes32)": {
        "encoding": "mapping",
        "key": "t_uint32",
        "label": "mapping(uint32 => bytes32)",
        "numberOfBytes": "32",
        "value": "t_bytes32"
      },
      "t_mapping(t_uint32,t_struct(BusQueue)12773_storage)": {
        "encoding": "mapping",
        "key": "t_uint32",
        "label": "mapping(uint32 => struct BusQueues.BusQueue)",
        "numberOfBytes": "32",
        "value": "t_struct(BusQueue)12773_storage"
      },
      "t_struct(BusQueue)12773_storage": {
        "encoding": "inplace",
        "label": "struct BusQueues.BusQueue",
        "members": [
          {
            "astId": 12762,
            "contract": "contracts/protocol/PantherBusTree.sol:PantherBusTree",
            "label": "nUtxos",
            "offset": 0,
            "slot": "0",
            "type": "t_uint8"
          },
          {
            "astId": 12764,
            "contract": "contracts/protocol/PantherBusTree.sol:PantherBusTree",
            "label": "reward",
            "offset": 1,
            "slot": "0",
            "type": "t_uint96"
          },
          {
            "astId": 12766,
            "contract": "contracts/protocol/PantherBusTree.sol:PantherBusTree",
            "label": "firstUtxoBlock",
            "offset": 13,
            "slot": "0",
            "type": "t_uint40"
          },
          {
            "astId": 12768,
            "contract": "contracts/protocol/PantherBusTree.sol:PantherBusTree",
            "label": "lastUtxoBlock",
            "offset": 18,
            "slot": "0",
            "type": "t_uint40"
          },
          {
            "astId": 12770,
            "contract": "contracts/protocol/PantherBusTree.sol:PantherBusTree",
            "label": "prevLink",
            "offset": 23,
            "slot": "0",
            "type": "t_uint32"
          },
          {
            "astId": 12772,
            "contract": "contracts/protocol/PantherBusTree.sol:PantherBusTree",
            "label": "nextLink",
            "offset": 27,
            "slot": "0",
            "type": "t_uint32"
          }
        ],
        "numberOfBytes": "32"
      },
      "t_uint16": {
        "encoding": "inplace",
        "label": "uint16",
        "numberOfBytes": "2"
      },
      "t_uint256": {
        "encoding": "inplace",
        "label": "uint256",
        "numberOfBytes": "32"
      },
      "t_uint32": {
        "encoding": "inplace",
        "label": "uint32",
        "numberOfBytes": "4"
      },
      "t_uint40": {
        "encoding": "inplace",
        "label": "uint40",
        "numberOfBytes": "5"
      },
      "t_uint8": {
        "encoding": "inplace",
        "label": "uint8",
        "numberOfBytes": "1"
      },
      "t_uint96": {
        "encoding": "inplace",
        "label": "uint96",
        "numberOfBytes": "12"
      }
    }
  }
}