{
  "address": "0xD51068afDd4d8dE0F438cc3cf7d3CF1beD04dC7b",
  "abi": [
    {
      "inputs": [
        {
          "internalType": "address",
          "name": "_owner",
          "type": "address"
        },
        {
          "internalType": "address",
          "name": "zkpToken",
          "type": "address"
        },
        {
          "internalType": "address",
          "name": "taxiTree",
          "type": "address"
        },
        {
          "internalType": "address",
          "name": "busTree",
          "type": "address"
        },
        {
          "internalType": "address",
          "name": "ferryTree",
          "type": "address"
        },
        {
          "internalType": "address",
          "name": "staticTree",
          "type": "address"
        },
        {
          "internalType": "address",
          "name": "vault",
          "type": "address"
        },
        {
          "internalType": "address",
          "name": "zAccountRegistry",
          "type": "address"
        },
        {
          "internalType": "address",
          "name": "verifier",
          "type": "address"
        }
      ],
      "stateMutability": "nonpayable",
      "type": "constructor"
    },
    {
      "anonymous": false,
      "inputs": [
        {
          "indexed": true,
          "internalType": "uint256",
          "name": "leafIndex",
          "type": "uint256"
        },
        {
          "indexed": false,
          "internalType": "bytes32",
          "name": "updatedLeaf",
          "type": "bytes32"
        },
        {
          "indexed": false,
          "internalType": "bytes32",
          "name": "updatedRoot",
          "type": "bytes32"
        },
        {
          "indexed": false,
          "internalType": "uint256",
          "name": "cacheIndex",
          "type": "uint256"
        }
      ],
      "name": "RootUpdated",
      "type": "event"
    },
    {
      "anonymous": false,
      "inputs": [
        {
          "indexed": false,
          "internalType": "uint8",
          "name": "txType",
          "type": "uint8"
        },
        {
          "indexed": false,
          "internalType": "bytes",
          "name": "content",
          "type": "bytes"
        }
      ],
      "name": "TransactionNote",
      "type": "event"
    },
    {
      "inputs": [],
      "name": "BUS_TREE",
      "outputs": [
        {
          "internalType": "contract IBusTree",
          "name": "",
          "type": "address"
        }
      ],
      "stateMutability": "view",
      "type": "function"
    },
    {
      "inputs": [],
      "name": "BUS_TREE_CONTROLLER",
      "outputs": [
        {
          "internalType": "address",
          "name": "",
          "type": "address"
        }
      ],
      "stateMutability": "view",
      "type": "function"
    },
    {
      "inputs": [],
      "name": "FERRY_TREE_CONTROLLER",
      "outputs": [
        {
          "internalType": "address",
          "name": "",
          "type": "address"
        }
      ],
      "stateMutability": "view",
      "type": "function"
    },
    {
      "inputs": [],
      "name": "OWNER",
      "outputs": [
        {
          "internalType": "address",
          "name": "",
          "type": "address"
        }
      ],
      "stateMutability": "view",
      "type": "function"
    },
    {
      "inputs": [],
      "name": "PROTOCOL_TOKEN",
      "outputs": [
        {
          "internalType": "address",
          "name": "",
          "type": "address"
        }
      ],
      "stateMutability": "view",
      "type": "function"
    },
    {
      "inputs": [],
      "name": "STATIC_TREE_CONTROLLER",
      "outputs": [
        {
          "internalType": "address",
          "name": "",
          "type": "address"
        }
      ],
      "stateMutability": "view",
      "type": "function"
    },
    {
      "inputs": [],
      "name": "TAXI_TREE_CONTROLLER",
      "outputs": [
        {
          "internalType": "address",
          "name": "",
          "type": "address"
        }
      ],
      "stateMutability": "view",
      "type": "function"
    },
    {
      "inputs": [],
      "name": "UNDEFINED_CACHE_INDEX",
      "outputs": [
        {
          "internalType": "uint256",
          "name": "",
          "type": "uint256"
        }
      ],
      "stateMutability": "view",
      "type": "function"
    },
    {
      "inputs": [],
      "name": "VAULT",
      "outputs": [
        {
          "internalType": "contract IVault",
          "name": "",
          "type": "address"
        }
      ],
      "stateMutability": "view",
      "type": "function"
    },
    {
      "inputs": [],
      "name": "VERIFIER",
      "outputs": [
        {
          "internalType": "contract IPantherVerifier",
          "name": "",
          "type": "address"
        }
      ],
      "stateMutability": "view",
      "type": "function"
    },
    {
      "inputs": [],
      "name": "ZACCOUNT_REGISTRY",
      "outputs": [
        {
          "internalType": "address",
          "name": "",
          "type": "address"
        }
      ],
      "stateMutability": "view",
      "type": "function"
    },
    {
      "inputs": [
        {
          "internalType": "uint256[]",
          "name": "inputs",
          "type": "uint256[]"
        },
        {
          "components": [
            {
              "components": [
                {
                  "internalType": "uint256",
                  "name": "x",
                  "type": "uint256"
                },
                {
                  "internalType": "uint256",
                  "name": "y",
                  "type": "uint256"
                }
              ],
              "internalType": "struct G1Point",
              "name": "a",
              "type": "tuple"
            },
            {
              "components": [
                {
                  "internalType": "uint256[2]",
                  "name": "x",
                  "type": "uint256[2]"
                },
                {
                  "internalType": "uint256[2]",
                  "name": "y",
                  "type": "uint256[2]"
                }
              ],
              "internalType": "struct G2Point",
              "name": "b",
              "type": "tuple"
            },
            {
              "components": [
                {
                  "internalType": "uint256",
                  "name": "x",
                  "type": "uint256"
                },
                {
                  "internalType": "uint256",
                  "name": "y",
                  "type": "uint256"
                }
              ],
              "internalType": "struct G1Point",
              "name": "c",
              "type": "tuple"
            }
          ],
          "internalType": "struct SnarkProof",
          "name": "proof",
          "type": "tuple"
        },
        {
          "internalType": "address",
          "name": "zkpPayer",
          "type": "address"
        },
        {
          "internalType": "bytes",
          "name": "privateMessages",
          "type": "bytes"
        },
        {
          "internalType": "uint256",
          "name": "cachedForestRootIndex",
          "type": "uint256"
        }
      ],
      "name": "createZAccountUtxo",
      "outputs": [
        {
          "internalType": "uint256",
          "name": "utxoBusQueuePos",
          "type": "uint256"
        }
      ],
      "stateMutability": "nonpayable",
      "type": "function"
    },
    {
      "inputs": [],
      "name": "getCacheStats",
      "outputs": [
        {
          "internalType": "uint256",
          "name": "numRootsCached",
          "type": "uint256"
        },
        {
          "internalType": "uint256",
          "name": "latestCacheIndex",
          "type": "uint256"
        }
      ],
      "stateMutability": "view",
      "type": "function"
    },
    {
      "inputs": [],
      "name": "getRoot",
      "outputs": [
        {
          "internalType": "bytes32",
          "name": "",
          "type": "bytes32"
        }
      ],
      "stateMutability": "view",
      "type": "function"
    },
    {
      "inputs": [],
      "name": "initialize",
      "outputs": [],
      "stateMutability": "nonpayable",
      "type": "function"
    },
    {
      "inputs": [
        {
          "internalType": "bytes32",
          "name": "root",
          "type": "bytes32"
        },
        {
          "internalType": "uint256",
          "name": "cacheIndex",
          "type": "uint256"
        }
      ],
      "name": "isCachedRoot",
      "outputs": [
        {
          "internalType": "bool",
          "name": "isCached",
          "type": "bool"
        }
      ],
      "stateMutability": "view",
      "type": "function"
    },
    {
      "inputs": [
        {
          "internalType": "uint256",
          "name": "",
          "type": "uint256"
        }
      ],
      "name": "leafs",
      "outputs": [
        {
          "internalType": "bytes32",
          "name": "",
          "type": "bytes32"
        }
      ],
      "stateMutability": "view",
      "type": "function"
    },
    {
      "inputs": [
        {
          "components": [
            {
              "internalType": "uint8",
              "name": "tokenType",
              "type": "uint8"
            },
            {
              "internalType": "address",
              "name": "token",
              "type": "address"
            },
            {
              "internalType": "uint256",
              "name": "tokenId",
              "type": "uint256"
            },
            {
              "internalType": "address",
              "name": "extAccount",
              "type": "address"
            },
            {
              "internalType": "uint96",
              "name": "extAmount",
              "type": "uint96"
            }
          ],
          "internalType": "struct LockData",
          "name": "data",
          "type": "tuple"
        }
      ],
      "name": "unlockAssetFromVault",
      "outputs": [],
      "stateMutability": "nonpayable",
      "type": "function"
    },
    {
      "inputs": [
        {
          "internalType": "bytes32",
          "name": "updatedLeaf",
          "type": "bytes32"
        },
        {
          "internalType": "uint256",
          "name": "leafIndex",
          "type": "uint256"
        }
      ],
      "name": "updateRoot",
      "outputs": [],
      "stateMutability": "nonpayable",
      "type": "function"
    },
    {
      "inputs": [
        {
          "internalType": "address",
          "name": "_unlocker",
          "type": "address"
        },
        {
          "internalType": "bool",
          "name": "_status",
          "type": "bool"
        }
      ],
      "name": "updateVaultAssetUnlocker",
      "outputs": [],
      "stateMutability": "nonpayable",
      "type": "function"
    },
    {
      "inputs": [
        {
          "internalType": "uint160",
          "name": "_circuitId",
          "type": "uint160"
        }
      ],
      "name": "updateZAccountRegistrationCircuitId",
      "outputs": [],
      "stateMutability": "nonpayable",
      "type": "function"
    },
    {
      "inputs": [
        {
          "internalType": "address",
          "name": "",
          "type": "address"
        }
      ],
      "name": "vaultAssetUnlockers",
      "outputs": [
        {
          "internalType": "bool",
          "name": "",
          "type": "bool"
        }
      ],
      "stateMutability": "view",
      "type": "function"
    },
    {
      "inputs": [],
      "name": "zAccountRegistrationCircuitId",
      "outputs": [
        {
          "internalType": "uint160",
          "name": "",
          "type": "uint160"
        }
      ],
      "stateMutability": "view",
      "type": "function"
    }
  ],
  "transactionHash": "0xf1bb5138503fac5f4afc276c6cffb3ce07bbba0e5acd34fd750518c44e3142b2",
  "args": [
    "0xfB474a7FeCDaFBD412ebF0d60A0C32794F82d3dD",
    "0x4004C49aBb96B11D89A52DeCCa2D1522da7f3089",
    "0x2EEEF61718ae9743050028075D5B16ef5bF22c88",
    "0x678D34aA4fc546bA806287a8289FfdAA84681a03",
    "0x5c91d70Cd7cf569CA9Ac8DE588705B3f118647DF",
    "0xAbFdb07BC6db782F9bdd6C6BA65ee40081eFA4c4",
    "0x9619bd59411a8387a4119e548017C5b86c7bCec5",
    "0x518cD70a767d87Bcec1262adcf7bf5520e2e3B5D",
    "0xeeAfce13506847a19141A4513718df17383f4f7b"
  ],
  "numDeployments": 2,
  "solcInputHash": "15cb9b361d83a3f33aeee89cd297a569",
  "bytecode": "0x6101c06040523480156200001257600080fd5b506040516200212a3803806200212a833981016040819052620000359162000220565b8887878787846001600160a01b038116620000975760405162461bcd60e51b815260206004820152601a60248201527f496d6d4f776e3a207a65726f206f776e6572206164647265737300000000000060448201526064015b60405180910390fd5b6001600160a01b03908116608052841615801590620000be57506001600160a01b03831615155b8015620000d357506001600160a01b03821615155b8015620000e857506001600160a01b03811615155b6200012b5760405162461bcd60e51b8152602060048201526012602482015271696e69743a207a65726f206164647265737360701b60448201526064016200008e565b6001600160a01b0393841660a05291831660c052821660e052811661010052841615801591506200016457506001600160a01b03881615155b80156200017957506001600160a01b03811615155b80156200018e57506001600160a01b03821615155b6040518060400160405280600581526020016450503a453160d81b81525090620001cd5760405162461bcd60e51b81526004016200008e9190620002db565b506001600160a01b0397881661014052918716610120529386166101605285166101805250509091166101a052506200032b9050565b80516001600160a01b03811681146200021b57600080fd5b919050565b60008060008060008060008060006101208a8c0312156200024057600080fd5b6200024b8a62000203565b98506200025b60208b0162000203565b97506200026b60408b0162000203565b96506200027b60608b0162000203565b95506200028b60808b0162000203565b94506200029b60a08b0162000203565b9350620002ab60c08b0162000203565b9250620002bb60e08b0162000203565b9150620002cc6101008b0162000203565b90509295985092959850929598565b600060208083528351808285015260005b818110156200030a57858101830151858201604001528201620002ec565b506000604082860101526040601f19601f8301168501019250505092915050565b60805160a05160c05160e05161010051610120516101405161016051610180516101a051611d2862000402600039600081816103c501526105f10152600081816101970152610aad0152600081816101db0152610be80152600081816102f401526112e101526000818161028401528181610e0a015261129d01526000818161042601526114c201526000818161035c01526114970152600081816103ff015261146c01526000818161038301526114410152600081816102020152818161051f01528181610d080152610e760152611d286000f3fe608060405234801561001057600080fd5b506004361061018d5760003560e01c80635a9bdd0c116100e35780638129fc1c1161008c578063c2e3e62b11610066578063c2e3e62b146103e7578063d162814d146103fa578063fb9b3ca41461042157600080fd5b80638129fc1c146103a557806385ec72da146103ad5780639c45c0c9146103c057600080fd5b80637b01fb1b116100bd5780637b01fb1b146103445780637b4d1da8146103575780637cfaa8971461037e57600080fd5b80635a9bdd0c146103165780635ca1e165146103295780636a7777f41461033157600080fd5b80633cd7eef711610145578063418ecfcd1161011f578063418ecfcd146102a65780635277ab4a146102bb578063585cc6a5146102ef57600080fd5b80633cd7eef7146102555780633ff721ba1461026c578063411557d11461027f57600080fd5b8063117803e311610176578063117803e3146101fd5780632faaab791461022457806335f96fe91461024157600080fd5b806308c84e70146101925780630f56204b146101d6575b600080fd5b6101b97f000000000000000000000000000000000000000000000000000000000000000081565b6040516001600160a01b0390911681526020015b60405180910390f35b6101b97f000000000000000000000000000000000000000000000000000000000000000081565b6101b97f000000000000000000000000000000000000000000000000000000000000000081565b61022c610448565b604080519283526020830191909152016101cd565b6101f5546101b9906001600160a01b031681565b61025e61ffff81565b6040519081526020016101cd565b61025e61027a366004611766565b610506565b6101b97f000000000000000000000000000000000000000000000000000000000000000081565b6102b96102b4366004611797565b61051d565b005b6102df6102c9366004611797565b6101f46020526000908152604090205460ff1681565b60405190151581526020016101cd565b6101b97f000000000000000000000000000000000000000000000000000000000000000081565b61025e610324366004611882565b6105c7565b60205461025e565b6102b961033f366004611959565b610d06565b6102b9610352366004611992565b610da1565b6101b97f000000000000000000000000000000000000000000000000000000000000000081565b6101b97f000000000000000000000000000000000000000000000000000000000000000081565b6102b9610e74565b6102df6103bb3660046119a4565b61100b565b6101b97f000000000000000000000000000000000000000000000000000000000000000081565b6102b96103f53660046119a4565b611128565b6101b97f000000000000000000000000000000000000000000000000000000000000000081565b6101b97f000000000000000000000000000000000000000000000000000000000000000081565b600b54600090819081906104709067ffffffffffffffff80821691600160401b900416611250565b60408051808201909152600581527f43523a45310000000000000000000000000000000000000000000000000000006020820152909150816104ce5760405162461bcd60e51b81526004016104c59190611a16565b60405180910390fd5b506104d881611a3f565b600b549092508291506104ff9067ffffffffffffffff80821691600160401b900416611271565b9250509091565b6021816004811061051657600080fd5b0154905081565b7f00000000000000000000000000000000000000000000000000000000000000006001600160a01b0316331461058c5760405162461bcd60e51b8152602060048201526014602482015273125b5b53dddb8e881d5b985d5d1a1bdc9a5e995960621b60448201526064016104c5565b6101f580547fffffffffffffffffffffffff0000000000000000000000000000000000000000166001600160a01b0392909216919091179055565b60408051808201909152600581526428281d229960d91b6020820152600090336001600160a01b037f0000000000000000000000000000000000000000000000000000000000000000161461062f5760405162461bcd60e51b81526004016104c59190611a16565b506101f55460408051808201909152600581527f50503a45330000000000000000000000000000000000000000000000000000006020820152906001600160a01b031661068f5760405162461bcd60e51b81526004016104c59190611a16565b506000878760098181106106a5576106a5611a56565b90506020020135905080600014156040518060400160405280600581526020017f50503a4537000000000000000000000000000000000000000000000000000000815250906107075760405162461bcd60e51b81526004016104c59190611a16565b505060008787600a81811061071e5761071e611a56565b90506020020135905080600014156040518060400160405280600581526020017f50503a4538000000000000000000000000000000000000000000000000000000815250906107805760405162461bcd60e51b81526004016104c59190611a16565b5060008888600b81811061079657610796611a56565b90506020020135905080600014156040518060400160405280600581526020017f50503a4539000000000000000000000000000000000000000000000000000000815250906107f85760405162461bcd60e51b81526004016104c59190611a16565b505060008888600d81811061080f5761080f611a56565b90506020020135905080600014156040518060400160405280600681526020017f50503a4531300000000000000000000000000000000000000000000000000000815250906108715760405162461bcd60e51b81526004016104c59190611a16565b505060008888600e81811061088857610888611a56565b90506020020135905080600014156040518060400160405280600681526020017f50503a4531310000000000000000000000000000000000000000000000000000815250906108ea5760405162461bcd60e51b81526004016104c59190611a16565b5050600660ff168460008151811061090457610904611a56565b016020015160f81c14801561091b57506061845110155b6040518060400160405280600681526020017f50503a45313200000000000000000000000000000000000000000000000000008152509061096f5760405162461bcd60e51b81526004016104c59190611a16565b5060008888600581811061098557610985611a56565b905060200201359050888860058181106109a1576109a1611a56565b905060200201358163ffffffff161480156109c25750428163ffffffff1610155b6040518060400160405280600581526020017f50503a453600000000000000000000000000000000000000000000000000000081525090610a165760405162461bcd60e51b81526004016104c59190611a16565b50610a3d8989600c818110610a2d57610a2d611a56565b9050602002013560001b8561100b565b6040518060400160405280600581526020017f50503a453400000000000000000000000000000000000000000000000000000081525090610a915760405162461bcd60e51b81526004016104c59190611a16565b506101f554604051634f5267b760e11b81526001600160a01b037f0000000000000000000000000000000000000000000000000000000000000000811692639ea4cf6e92610aec9291909116908d908d908d90600401611a6c565b602060405180830381865afa158015610b09573d6000803e3d6000fd5b505050506040513d601f19601f82011682018060405250810190610b2d9190611b0d565b6040518060400160405280600581526020017f50503a453500000000000000000000000000000000000000000000000000000081525090610b815760405162461bcd60e51b81526004016104c59190611a16565b5088886001818110610b9557610b95611a56565b90506020020135600014610bcd57600089896001818110610bb857610bb8611a56565b905060200201359050610bcb878261129b565b505b60405163fc72e28560e01b81526004810183905260009081907f00000000000000000000000000000000000000000000000000000000000000006001600160a01b03169063fc72e2859060240160408051808303816000875af1158015610c38573d6000803e3d6000fd5b505050506040513d601f19601f82011682018060405250810190610c5c9190611b39565b915091508060ff1660088363ffffffff16901b179450600060608460628e8e600b818110610c8c57610c8c611a56565b9050602002013586868d604051602001610cac9796959493929190611b71565b60405160208183030381529060405290507f207dfdd39f3236aeb44c66389652245b2a44197f48da35abc71ba0a76025ed5c600182604051610cef929190611be2565b60405180910390a150505050509695505050505050565b7f00000000000000000000000000000000000000000000000000000000000000006001600160a01b03163314610d755760405162461bcd60e51b8152602060048201526014602482015273125b5b53dddb8e881d5b985d5d1a1bdc9a5e995960621b60448201526064016104c5565b6001600160a01b039190911660009081526101f460205260409020805460ff1916911515919091179055565b3360009081526101f46020908152604091829020548251808401909352600583526428281d229960d91b9183019190915260ff16610df25760405162461bcd60e51b81526004016104c59190611a16565b5060405163016f4f9b60e61b81526001600160a01b037f00000000000000000000000000000000000000000000000000000000000000001690635bd3e6c090610e3f908490600401611bfe565b600060405180830381600087803b158015610e5957600080fd5b505af1158015610e6d573d6000803e3d6000fd5b5050505050565b7f00000000000000000000000000000000000000000000000000000000000000006001600160a01b03163314610ee35760405162461bcd60e51b8152602060048201526014602482015273125b5b53dddb8e881d5b985d5d1a1bdc9a5e995960621b60448201526064016104c5565b60205415610f335760405162461bcd60e51b815260206004820152601760248201527f50463a20416c726561647920696e697469616c697a656400000000000000000060448201526064016104c5565b60005b60048160ff161015610fcf57610f4e8160ff166113e7565b6001600160a01b0316635ca1e1656040518163ffffffff1660e01b8152600401602060405180830381865afa158015610f8b573d6000803e3d6000fd5b505050506040513d601f19601f82011682018060405250810190610faf9190611c7e565b60218260ff1660048110610fc557610fc5611a56565b0155600101610f36565b506040805160808101918290526110069160219060049082845b815481526020019060010190808311610fe95750505050506114e7565b602055565b600b5460009067ffffffffffffffff1680820361102c576000915050611122565b600b5460009250600160401b900467ffffffffffffffff168261104f8383611271565b905061ffff85036110b55760006110668285611c97565b90505b8415801561107657508084115b156110af576000199093019286600a60006110918787611250565b815260200190815260200160002054036110aa57600194505b611069565b5061111e565b60408051808201909152600581527f43523a453200000000000000000000000000000000000000000000000000000060208201528186106111095760405162461bcd60e51b81526004016104c59190611a16565b506000858152600a6020526040902054861493505b5050505b92915050565b611131816113e7565b6001600160a01b0316336001600160a01b0316146111915760405162461bcd60e51b815260206004820152600c60248201527f756e617574686f72697a6564000000000000000000000000000000000000000060448201526064016104c5565b81602182600481106111a5576111a5611a56565b01556040805160808101918290526021805482526000926111dc929190600490602260208501808311610fe95750505050506114e7565b90506000600383036111f8576111f1826114f2565b9050611204565b6112018261152a565b90505b602082815560408051868152918201849052810182905283907ffb270bf61beeb2f6245d25e705aa540499f6e32b4d19f7081ecf930bc5dfa7b09060600160405180910390a250505050565b600061125f6001610100611c97565b6112698385611c97565b169392505050565b60008061127e8385611c97565b9050610100811161128f5780611293565b6101005b949350505050565b7f00000000000000000000000000000000000000000000000000000000000000006001600160a01b0316637441ba246040518060a00160405280600060ff1681526020017f00000000000000000000000000000000000000000000000000000000000000006001600160a01b0316815260200160008152602001856001600160a01b0316815260200161132d85611535565b6bffffffffffffffffffffffff908116909152604080517fffffffff0000000000000000000000000000000000000000000000000000000060e086901b168152835160ff16600482015260208401516001600160a01b0390811660248301529184015160448201526060840151909116606482015260809092015116608482015260a401600060405180830381600087803b1580156113cb57600080fd5b505af11580156113df573d6000803e3d6000fd5b505050505050565b6000600482106114395760405162461bcd60e51b815260206004820152601460248201527f50463a20494e56414c49445f4c4541465f494e4400000000000000000000000060448201526064016104c5565b8161146157507f00000000000000000000000000000000000000000000000000000000000000005b6001820361148c57507f00000000000000000000000000000000000000000000000000000000000000005b600282036114b757507f00000000000000000000000000000000000000000000000000000000000000005b600382036114e257507f00000000000000000000000000000000000000000000000000000000000000005b919050565b600061112282611597565b600b8054600160401b67ffffffffffffffff8216026fffffffffffffffff0000000000000000199091161790556000611122826116fb565b6000611122826116fb565b60006c0100000000000000000000000082106115935760405162461bcd60e51b815260206004820152600860248201527f554e53414645393600000000000000000000000000000000000000000000000060448201526064016104c5565b5090565b80516000907f30644e72e131a029b85045b68181585d2833e84879b9709143e1f593f00000011180156115ed575060208201517f30644e72e131a029b85045b68181585d2833e84879b9709143e1f593f0000001115b801561161c575060408201517f30644e72e131a029b85045b68181585d2833e84879b9709143e1f593f0000001115b801561164b575060608201517f30644e72e131a029b85045b68181585d2833e84879b9709143e1f593f0000001115b604051806060016040528060228152602001611cfa60229139906116825760405162461bcd60e51b81526004016104c59190611a16565b50604051631e86251960e01b8152737af4DD5d4B0f193A1d16b2C9d2492fAEC2558FD390631e862519906116ba908590600401611caa565b602060405180830381865af41580156116d7573d6000803e3d6000fd5b505050506040513d601f19601f820116820180604052508101906111229190611c7e565b600b5460009067ffffffffffffffff80821691600160401b9004166117208282611250565b6000818152600a60205260409020859055925061173c82611cd2565b600b805467ffffffffffffffff191667ffffffffffffffff92909216919091179055509092915050565b60006020828403121561177857600080fd5b5035919050565b6001600160a01b038116811461179457600080fd5b50565b6000602082840312156117a957600080fd5b81356117b48161177f565b9392505050565b80356114e28161177f565b600061010082840312156117d957600080fd5b50919050565b634e487b7160e01b600052604160045260246000fd5b600082601f83011261180657600080fd5b813567ffffffffffffffff80821115611821576118216117df565b604051601f8301601f19908116603f01168101908282118183101715611849576118496117df565b8160405283815286602085880101111561186257600080fd5b836020870160208301376000602085830101528094505050505092915050565b600080600080600080610180878903121561189c57600080fd5b863567ffffffffffffffff808211156118b457600080fd5b818901915089601f8301126118c857600080fd5b8135818111156118d757600080fd5b8a60208260051b85010111156118ec57600080fd5b602083019850809750506119038a60208b016117c6565b95506119126101208a016117bb565b945061014089013591508082111561192957600080fd5b5061193689828a016117f5565b92505061016087013590509295509295509295565b801515811461179457600080fd5b6000806040838503121561196c57600080fd5b82356119778161177f565b915060208301356119878161194b565b809150509250929050565b600060a082840312156117d957600080fd5b600080604083850312156119b757600080fd5b50508035926020909101359150565b60005b838110156119e15781810151838201526020016119c9565b50506000910152565b60008151808452611a028160208601602086016119c6565b601f01601f19169290920160200192915050565b6020815260006117b460208301846119ea565b634e487b7160e01b600052601160045260246000fd5b600081611a4e57611a4e611a29565b506000190190565b634e487b7160e01b600052603260045260246000fd5b60006101406001600160a01b03871683528060208401528481840152506101607f07ffffffffffffffffffffffffffffffffffffffffffffffffffffffffffffff851115611ab957600080fd5b8460051b808783860137843560408501526020850135606085015283010190506040808401608084013760406080840160c084013760c083013561010083015260e083013561012083015295945050505050565b600060208284031215611b1f57600080fd5b81516117b48161194b565b60ff8116811461179457600080fd5b60008060408385031215611b4c57600080fd5b825163ffffffff81168114611b6057600080fd5b602084015190925061198781611b2a565b600060ff60f81b808a60f81b16835263ffffffff60e01b808a60e01b166001850152818960f81b166005850152876006850152808760e01b16602685015250808560f81b16602a840152508251611bcf81602b8501602087016119c6565b91909101602b0198975050505050505050565b60ff8316815260406020820152600061129360408301846119ea565b60a081018235611c0d81611b2a565b60ff1682526020830135611c208161177f565b6001600160a01b0380821660208501526040850135604085015260608501359150611c4a8261177f565b16606083015260808301356bffffffffffffffffffffffff8116808214611c7057600080fd5b806080850152505092915050565b600060208284031215611c9057600080fd5b5051919050565b8181038181111561112257611122611a29565b60808101818360005b600481101561111e578151835260209283019290910190600101611cb3565b600067ffffffffffffffff808316818103611cef57611cef611a29565b600101939250505056fe506f736569646f6e4861736865723a20696e707574206e6f7420696e206669656c64a164736f6c6343000810000a",
  "deployedBytecode": "0x608060405234801561001057600080fd5b506004361061018d5760003560e01c80635a9bdd0c116100e35780638129fc1c1161008c578063c2e3e62b11610066578063c2e3e62b146103e7578063d162814d146103fa578063fb9b3ca41461042157600080fd5b80638129fc1c146103a557806385ec72da146103ad5780639c45c0c9146103c057600080fd5b80637b01fb1b116100bd5780637b01fb1b146103445780637b4d1da8146103575780637cfaa8971461037e57600080fd5b80635a9bdd0c146103165780635ca1e165146103295780636a7777f41461033157600080fd5b80633cd7eef711610145578063418ecfcd1161011f578063418ecfcd146102a65780635277ab4a146102bb578063585cc6a5146102ef57600080fd5b80633cd7eef7146102555780633ff721ba1461026c578063411557d11461027f57600080fd5b8063117803e311610176578063117803e3146101fd5780632faaab791461022457806335f96fe91461024157600080fd5b806308c84e70146101925780630f56204b146101d6575b600080fd5b6101b97f000000000000000000000000000000000000000000000000000000000000000081565b6040516001600160a01b0390911681526020015b60405180910390f35b6101b97f000000000000000000000000000000000000000000000000000000000000000081565b6101b97f000000000000000000000000000000000000000000000000000000000000000081565b61022c610448565b604080519283526020830191909152016101cd565b6101f5546101b9906001600160a01b031681565b61025e61ffff81565b6040519081526020016101cd565b61025e61027a366004611766565b610506565b6101b97f000000000000000000000000000000000000000000000000000000000000000081565b6102b96102b4366004611797565b61051d565b005b6102df6102c9366004611797565b6101f46020526000908152604090205460ff1681565b60405190151581526020016101cd565b6101b97f000000000000000000000000000000000000000000000000000000000000000081565b61025e610324366004611882565b6105c7565b60205461025e565b6102b961033f366004611959565b610d06565b6102b9610352366004611992565b610da1565b6101b97f000000000000000000000000000000000000000000000000000000000000000081565b6101b97f000000000000000000000000000000000000000000000000000000000000000081565b6102b9610e74565b6102df6103bb3660046119a4565b61100b565b6101b97f000000000000000000000000000000000000000000000000000000000000000081565b6102b96103f53660046119a4565b611128565b6101b97f000000000000000000000000000000000000000000000000000000000000000081565b6101b97f000000000000000000000000000000000000000000000000000000000000000081565b600b54600090819081906104709067ffffffffffffffff80821691600160401b900416611250565b60408051808201909152600581527f43523a45310000000000000000000000000000000000000000000000000000006020820152909150816104ce5760405162461bcd60e51b81526004016104c59190611a16565b60405180910390fd5b506104d881611a3f565b600b549092508291506104ff9067ffffffffffffffff80821691600160401b900416611271565b9250509091565b6021816004811061051657600080fd5b0154905081565b7f00000000000000000000000000000000000000000000000000000000000000006001600160a01b0316331461058c5760405162461bcd60e51b8152602060048201526014602482015273125b5b53dddb8e881d5b985d5d1a1bdc9a5e995960621b60448201526064016104c5565b6101f580547fffffffffffffffffffffffff0000000000000000000000000000000000000000166001600160a01b0392909216919091179055565b60408051808201909152600581526428281d229960d91b6020820152600090336001600160a01b037f0000000000000000000000000000000000000000000000000000000000000000161461062f5760405162461bcd60e51b81526004016104c59190611a16565b506101f55460408051808201909152600581527f50503a45330000000000000000000000000000000000000000000000000000006020820152906001600160a01b031661068f5760405162461bcd60e51b81526004016104c59190611a16565b506000878760098181106106a5576106a5611a56565b90506020020135905080600014156040518060400160405280600581526020017f50503a4537000000000000000000000000000000000000000000000000000000815250906107075760405162461bcd60e51b81526004016104c59190611a16565b505060008787600a81811061071e5761071e611a56565b90506020020135905080600014156040518060400160405280600581526020017f50503a4538000000000000000000000000000000000000000000000000000000815250906107805760405162461bcd60e51b81526004016104c59190611a16565b5060008888600b81811061079657610796611a56565b90506020020135905080600014156040518060400160405280600581526020017f50503a4539000000000000000000000000000000000000000000000000000000815250906107f85760405162461bcd60e51b81526004016104c59190611a16565b505060008888600d81811061080f5761080f611a56565b90506020020135905080600014156040518060400160405280600681526020017f50503a4531300000000000000000000000000000000000000000000000000000815250906108715760405162461bcd60e51b81526004016104c59190611a16565b505060008888600e81811061088857610888611a56565b90506020020135905080600014156040518060400160405280600681526020017f50503a4531310000000000000000000000000000000000000000000000000000815250906108ea5760405162461bcd60e51b81526004016104c59190611a16565b5050600660ff168460008151811061090457610904611a56565b016020015160f81c14801561091b57506061845110155b6040518060400160405280600681526020017f50503a45313200000000000000000000000000000000000000000000000000008152509061096f5760405162461bcd60e51b81526004016104c59190611a16565b5060008888600581811061098557610985611a56565b905060200201359050888860058181106109a1576109a1611a56565b905060200201358163ffffffff161480156109c25750428163ffffffff1610155b6040518060400160405280600581526020017f50503a453600000000000000000000000000000000000000000000000000000081525090610a165760405162461bcd60e51b81526004016104c59190611a16565b50610a3d8989600c818110610a2d57610a2d611a56565b9050602002013560001b8561100b565b6040518060400160405280600581526020017f50503a453400000000000000000000000000000000000000000000000000000081525090610a915760405162461bcd60e51b81526004016104c59190611a16565b506101f554604051634f5267b760e11b81526001600160a01b037f0000000000000000000000000000000000000000000000000000000000000000811692639ea4cf6e92610aec9291909116908d908d908d90600401611a6c565b602060405180830381865afa158015610b09573d6000803e3d6000fd5b505050506040513d601f19601f82011682018060405250810190610b2d9190611b0d565b6040518060400160405280600581526020017f50503a453500000000000000000000000000000000000000000000000000000081525090610b815760405162461bcd60e51b81526004016104c59190611a16565b5088886001818110610b9557610b95611a56565b90506020020135600014610bcd57600089896001818110610bb857610bb8611a56565b905060200201359050610bcb878261129b565b505b60405163fc72e28560e01b81526004810183905260009081907f00000000000000000000000000000000000000000000000000000000000000006001600160a01b03169063fc72e2859060240160408051808303816000875af1158015610c38573d6000803e3d6000fd5b505050506040513d601f19601f82011682018060405250810190610c5c9190611b39565b915091508060ff1660088363ffffffff16901b179450600060608460628e8e600b818110610c8c57610c8c611a56565b9050602002013586868d604051602001610cac9796959493929190611b71565b60405160208183030381529060405290507f207dfdd39f3236aeb44c66389652245b2a44197f48da35abc71ba0a76025ed5c600182604051610cef929190611be2565b60405180910390a150505050509695505050505050565b7f00000000000000000000000000000000000000000000000000000000000000006001600160a01b03163314610d755760405162461bcd60e51b8152602060048201526014602482015273125b5b53dddb8e881d5b985d5d1a1bdc9a5e995960621b60448201526064016104c5565b6001600160a01b039190911660009081526101f460205260409020805460ff1916911515919091179055565b3360009081526101f46020908152604091829020548251808401909352600583526428281d229960d91b9183019190915260ff16610df25760405162461bcd60e51b81526004016104c59190611a16565b5060405163016f4f9b60e61b81526001600160a01b037f00000000000000000000000000000000000000000000000000000000000000001690635bd3e6c090610e3f908490600401611bfe565b600060405180830381600087803b158015610e5957600080fd5b505af1158015610e6d573d6000803e3d6000fd5b5050505050565b7f00000000000000000000000000000000000000000000000000000000000000006001600160a01b03163314610ee35760405162461bcd60e51b8152602060048201526014602482015273125b5b53dddb8e881d5b985d5d1a1bdc9a5e995960621b60448201526064016104c5565b60205415610f335760405162461bcd60e51b815260206004820152601760248201527f50463a20416c726561647920696e697469616c697a656400000000000000000060448201526064016104c5565b60005b60048160ff161015610fcf57610f4e8160ff166113e7565b6001600160a01b0316635ca1e1656040518163ffffffff1660e01b8152600401602060405180830381865afa158015610f8b573d6000803e3d6000fd5b505050506040513d601f19601f82011682018060405250810190610faf9190611c7e565b60218260ff1660048110610fc557610fc5611a56565b0155600101610f36565b506040805160808101918290526110069160219060049082845b815481526020019060010190808311610fe95750505050506114e7565b602055565b600b5460009067ffffffffffffffff1680820361102c576000915050611122565b600b5460009250600160401b900467ffffffffffffffff168261104f8383611271565b905061ffff85036110b55760006110668285611c97565b90505b8415801561107657508084115b156110af576000199093019286600a60006110918787611250565b815260200190815260200160002054036110aa57600194505b611069565b5061111e565b60408051808201909152600581527f43523a453200000000000000000000000000000000000000000000000000000060208201528186106111095760405162461bcd60e51b81526004016104c59190611a16565b506000858152600a6020526040902054861493505b5050505b92915050565b611131816113e7565b6001600160a01b0316336001600160a01b0316146111915760405162461bcd60e51b815260206004820152600c60248201527f756e617574686f72697a6564000000000000000000000000000000000000000060448201526064016104c5565b81602182600481106111a5576111a5611a56565b01556040805160808101918290526021805482526000926111dc929190600490602260208501808311610fe95750505050506114e7565b90506000600383036111f8576111f1826114f2565b9050611204565b6112018261152a565b90505b602082815560408051868152918201849052810182905283907ffb270bf61beeb2f6245d25e705aa540499f6e32b4d19f7081ecf930bc5dfa7b09060600160405180910390a250505050565b600061125f6001610100611c97565b6112698385611c97565b169392505050565b60008061127e8385611c97565b9050610100811161128f5780611293565b6101005b949350505050565b7f00000000000000000000000000000000000000000000000000000000000000006001600160a01b0316637441ba246040518060a00160405280600060ff1681526020017f00000000000000000000000000000000000000000000000000000000000000006001600160a01b0316815260200160008152602001856001600160a01b0316815260200161132d85611535565b6bffffffffffffffffffffffff908116909152604080517fffffffff0000000000000000000000000000000000000000000000000000000060e086901b168152835160ff16600482015260208401516001600160a01b0390811660248301529184015160448201526060840151909116606482015260809092015116608482015260a401600060405180830381600087803b1580156113cb57600080fd5b505af11580156113df573d6000803e3d6000fd5b505050505050565b6000600482106114395760405162461bcd60e51b815260206004820152601460248201527f50463a20494e56414c49445f4c4541465f494e4400000000000000000000000060448201526064016104c5565b8161146157507f00000000000000000000000000000000000000000000000000000000000000005b6001820361148c57507f00000000000000000000000000000000000000000000000000000000000000005b600282036114b757507f00000000000000000000000000000000000000000000000000000000000000005b600382036114e257507f00000000000000000000000000000000000000000000000000000000000000005b919050565b600061112282611597565b600b8054600160401b67ffffffffffffffff8216026fffffffffffffffff0000000000000000199091161790556000611122826116fb565b6000611122826116fb565b60006c0100000000000000000000000082106115935760405162461bcd60e51b815260206004820152600860248201527f554e53414645393600000000000000000000000000000000000000000000000060448201526064016104c5565b5090565b80516000907f30644e72e131a029b85045b68181585d2833e84879b9709143e1f593f00000011180156115ed575060208201517f30644e72e131a029b85045b68181585d2833e84879b9709143e1f593f0000001115b801561161c575060408201517f30644e72e131a029b85045b68181585d2833e84879b9709143e1f593f0000001115b801561164b575060608201517f30644e72e131a029b85045b68181585d2833e84879b9709143e1f593f0000001115b604051806060016040528060228152602001611cfa60229139906116825760405162461bcd60e51b81526004016104c59190611a16565b50604051631e86251960e01b815273__$de5c081b01b921d8a5a1824062760900b1$__90631e862519906116ba908590600401611caa565b602060405180830381865af41580156116d7573d6000803e3d6000fd5b505050506040513d601f19601f820116820180604052508101906111229190611c7e565b600b5460009067ffffffffffffffff80821691600160401b9004166117208282611250565b6000818152600a60205260409020859055925061173c82611cd2565b600b805467ffffffffffffffff191667ffffffffffffffff92909216919091179055509092915050565b60006020828403121561177857600080fd5b5035919050565b6001600160a01b038116811461179457600080fd5b50565b6000602082840312156117a957600080fd5b81356117b48161177f565b9392505050565b80356114e28161177f565b600061010082840312156117d957600080fd5b50919050565b634e487b7160e01b600052604160045260246000fd5b600082601f83011261180657600080fd5b813567ffffffffffffffff80821115611821576118216117df565b604051601f8301601f19908116603f01168101908282118183101715611849576118496117df565b8160405283815286602085880101111561186257600080fd5b836020870160208301376000602085830101528094505050505092915050565b600080600080600080610180878903121561189c57600080fd5b863567ffffffffffffffff808211156118b457600080fd5b818901915089601f8301126118c857600080fd5b8135818111156118d757600080fd5b8a60208260051b85010111156118ec57600080fd5b602083019850809750506119038a60208b016117c6565b95506119126101208a016117bb565b945061014089013591508082111561192957600080fd5b5061193689828a016117f5565b92505061016087013590509295509295509295565b801515811461179457600080fd5b6000806040838503121561196c57600080fd5b82356119778161177f565b915060208301356119878161194b565b809150509250929050565b600060a082840312156117d957600080fd5b600080604083850312156119b757600080fd5b50508035926020909101359150565b60005b838110156119e15781810151838201526020016119c9565b50506000910152565b60008151808452611a028160208601602086016119c6565b601f01601f19169290920160200192915050565b6020815260006117b460208301846119ea565b634e487b7160e01b600052601160045260246000fd5b600081611a4e57611a4e611a29565b506000190190565b634e487b7160e01b600052603260045260246000fd5b60006101406001600160a01b03871683528060208401528481840152506101607f07ffffffffffffffffffffffffffffffffffffffffffffffffffffffffffffff851115611ab957600080fd5b8460051b808783860137843560408501526020850135606085015283010190506040808401608084013760406080840160c084013760c083013561010083015260e083013561012083015295945050505050565b600060208284031215611b1f57600080fd5b81516117b48161194b565b60ff8116811461179457600080fd5b60008060408385031215611b4c57600080fd5b825163ffffffff81168114611b6057600080fd5b602084015190925061198781611b2a565b600060ff60f81b808a60f81b16835263ffffffff60e01b808a60e01b166001850152818960f81b166005850152876006850152808760e01b16602685015250808560f81b16602a840152508251611bcf81602b8501602087016119c6565b91909101602b0198975050505050505050565b60ff8316815260406020820152600061129360408301846119ea565b60a081018235611c0d81611b2a565b60ff1682526020830135611c208161177f565b6001600160a01b0380821660208501526040850135604085015260608501359150611c4a8261177f565b16606083015260808301356bffffffffffffffffffffffff8116808214611c7057600080fd5b806080850152505092915050565b600060208284031215611c9057600080fd5b5051919050565b8181038181111561112257611122611a29565b60808101818360005b600481101561111e578151835260209283019290910190600101611cb3565b600067ffffffffffffffff808316818103611cef57611cef611a29565b600101939250505056fe506f736569646f6e4861736865723a20696e707574206e6f7420696e206669656c64a164736f6c6343000810000a",
  "libraries": {
    "PoseidonT5": "0x7af4DD5d4B0f193A1d16b2C9d2492fAEC2558FD3"
  },
  "devdoc": {
    "kind": "dev",
    "methods": {
      "createZAccountUtxo(uint256[],((uint256,uint256),(uint256[2],uint256[2]),(uint256,uint256)),address,bytes,uint256)": {
        "params": {
          "inputs": "[14] - magicalConstraint"
        }
      }
    },
    "version": 1
  },
  "userdoc": {
    "kind": "user",
    "methods": {
      "OWNER()": {
        "notice": "The owner who has privileged rights"
      }
    },
    "version": 1
  },
  "storageLayout": {
    "storage": [
      {
        "astId": 5331,
        "contract": "contracts/protocol/PantherPoolV1.sol:PantherPoolV1",
        "label": "__gap",
        "offset": 0,
        "slot": "0",
        "type": "t_array(t_uint256)10_storage"
      },
      {
        "astId": 5349,
        "contract": "contracts/protocol/PantherPoolV1.sol:PantherPoolV1",
        "label": "_cachedRoots",
        "offset": 0,
        "slot": "10",
        "type": "t_mapping(t_uint256,t_bytes32)"
      },
      {
        "astId": 5351,
        "contract": "contracts/protocol/PantherPoolV1.sol:PantherPoolV1",
        "label": "_cachedRootsCounter",
        "offset": 0,
        "slot": "11",
        "type": "t_uint64"
      },
      {
        "astId": 5353,
        "contract": "contracts/protocol/PantherPoolV1.sol:PantherPoolV1",
        "label": "_cacheStartPos",
        "offset": 8,
        "slot": "11",
        "type": "t_uint64"
      },
      {
        "astId": 5587,
        "contract": "contracts/protocol/PantherPoolV1.sol:PantherPoolV1",
        "label": "_trailingGap",
        "offset": 0,
        "slot": "12",
        "type": "t_array(t_uint256)10_storage"
      },
      {
        "astId": 3435,
        "contract": "contracts/protocol/PantherPoolV1.sol:PantherPoolV1",
        "label": "_startGap",
        "offset": 0,
        "slot": "22",
        "type": "t_array(t_bytes32)10_storage"
      },
      {
        "astId": 3451,
        "contract": "contracts/protocol/PantherPoolV1.sol:PantherPoolV1",
        "label": "_forestRoot",
        "offset": 0,
        "slot": "32",
        "type": "t_bytes32"
      },
      {
        "astId": 3455,
        "contract": "contracts/protocol/PantherPoolV1.sol:PantherPoolV1",
        "label": "leafs",
        "offset": 0,
        "slot": "33",
        "type": "t_array(t_bytes32)4_storage"
      },
      {
        "astId": 3469,
        "contract": "contracts/protocol/PantherPoolV1.sol:PantherPoolV1",
        "label": "_endGap",
        "offset": 0,
        "slot": "37",
        "type": "t_array(t_bytes32)10_storage"
      },
      {
        "astId": 976,
        "contract": "contracts/protocol/PantherPoolV1.sol:PantherPoolV1",
        "label": "__gap",
        "offset": 0,
        "slot": "47",
        "type": "t_array(t_uint256)453_storage"
      },
      {
        "astId": 993,
        "contract": "contracts/protocol/PantherPoolV1.sol:PantherPoolV1",
        "label": "vaultAssetUnlockers",
        "offset": 0,
        "slot": "500",
        "type": "t_mapping(t_address,t_bool)"
      },
      {
        "astId": 995,
        "contract": "contracts/protocol/PantherPoolV1.sol:PantherPoolV1",
        "label": "zAccountRegistrationCircuitId",
        "offset": 0,
        "slot": "501",
        "type": "t_uint160"
      }
    ],
    "types": {
      "t_address": {
        "encoding": "inplace",
        "label": "address",
        "numberOfBytes": "20"
      },
      "t_array(t_bytes32)10_storage": {
        "base": "t_bytes32",
        "encoding": "inplace",
        "label": "bytes32[10]",
        "numberOfBytes": "320"
      },
      "t_array(t_bytes32)4_storage": {
        "base": "t_bytes32",
        "encoding": "inplace",
        "label": "bytes32[4]",
        "numberOfBytes": "128"
      },
      "t_array(t_uint256)10_storage": {
        "base": "t_uint256",
        "encoding": "inplace",
        "label": "uint256[10]",
        "numberOfBytes": "320"
      },
      "t_array(t_uint256)453_storage": {
        "base": "t_uint256",
        "encoding": "inplace",
        "label": "uint256[453]",
        "numberOfBytes": "14496"
      },
      "t_bool": {
        "encoding": "inplace",
        "label": "bool",
        "numberOfBytes": "1"
      },
      "t_bytes32": {
        "encoding": "inplace",
        "label": "bytes32",
        "numberOfBytes": "32"
      },
      "t_mapping(t_address,t_bool)": {
        "encoding": "mapping",
        "key": "t_address",
        "label": "mapping(address => bool)",
        "numberOfBytes": "32",
        "value": "t_bool"
      },
      "t_mapping(t_uint256,t_bytes32)": {
        "encoding": "mapping",
        "key": "t_uint256",
        "label": "mapping(uint256 => bytes32)",
        "numberOfBytes": "32",
        "value": "t_bytes32"
      },
      "t_uint160": {
        "encoding": "inplace",
        "label": "uint160",
        "numberOfBytes": "20"
      },
      "t_uint256": {
        "encoding": "inplace",
        "label": "uint256",
        "numberOfBytes": "32"
      },
      "t_uint64": {
        "encoding": "inplace",
        "label": "uint64",
        "numberOfBytes": "8"
      }
    }
  }
}