{
  "address": "0xd7Df8c6615ccF73f38820272d4a706D628a2e2C1",
  "abi": [
    {
      "inputs": [
        {
          "internalType": "address",
          "name": "_owner",
          "type": "address"
        },
        {
          "internalType": "uint8",
          "name": "_zAccountVersion",
          "type": "uint8"
        },
        {
          "internalType": "address",
          "name": "pantherPool",
          "type": "address"
        },
        {
          "internalType": "address",
          "name": "pantherStaticTree",
          "type": "address"
        },
        {
          "internalType": "address",
          "name": "onboardingController",
          "type": "address"
        }
      ],
      "stateMutability": "nonpayable",
      "type": "constructor"
    },
    {
      "anonymous": false,
      "inputs": [
        {
          "indexed": false,
          "internalType": "address",
          "name": "masterEoa",
          "type": "address"
        },
        {
          "indexed": false,
          "internalType": "bool",
          "name": "isBlackListed",
          "type": "bool"
        }
      ],
      "name": "BlacklistForMasterEoaUpdated",
      "type": "event"
    },
    {
      "anonymous": false,
      "inputs": [
        {
          "indexed": false,
          "internalType": "bytes32",
          "name": "packedPubRootSpendingKey",
          "type": "bytes32"
        },
        {
          "indexed": false,
          "internalType": "bool",
          "name": "isBlackListed",
          "type": "bool"
        }
      ],
      "name": "BlacklistForPubRootSpendingKeyUpdated",
      "type": "event"
    },
    {
      "anonymous": false,
      "inputs": [
        {
          "indexed": false,
          "internalType": "uint24",
          "name": "zAccountId",
          "type": "uint24"
        },
        {
          "indexed": false,
          "internalType": "bool",
          "name": "isBlackListed",
          "type": "bool"
        }
      ],
      "name": "BlacklistForZAccountIdUpdated",
      "type": "event"
    },
    {
      "anonymous": false,
      "inputs": [
        {
          "indexed": false,
          "internalType": "uint24",
          "name": "id",
          "type": "uint24"
        }
      ],
      "name": "ZAccountActivated",
      "type": "event"
    },
    {
      "anonymous": false,
      "inputs": [
        {
          "indexed": false,
          "internalType": "address",
          "name": "masterEoa",
          "type": "address"
        },
        {
          "components": [
            {
              "internalType": "uint224",
              "name": "_unused",
              "type": "uint224"
            },
            {
              "internalType": "uint24",
              "name": "id",
              "type": "uint24"
            },
            {
              "internalType": "uint8",
              "name": "version",
              "type": "uint8"
            },
            {
              "internalType": "bytes32",
              "name": "pubRootSpendingKey",
              "type": "bytes32"
            },
            {
              "internalType": "bytes32",
              "name": "pubReadingKey",
              "type": "bytes32"
            }
          ],
          "indexed": false,
          "internalType": "struct ZAccountsRegistry.ZAccount",
          "name": "zAccount",
          "type": "tuple"
        }
      ],
      "name": "ZAccountRegistered",
      "type": "event"
    },
    {
      "inputs": [],
      "name": "EIP712_NAME",
      "outputs": [
        {
          "internalType": "string",
          "name": "",
          "type": "string"
        }
      ],
      "stateMutability": "view",
      "type": "function"
    },
    {
      "inputs": [],
      "name": "EIP712_SALT",
      "outputs": [
        {
          "internalType": "bytes32",
          "name": "",
          "type": "bytes32"
        }
      ],
      "stateMutability": "view",
      "type": "function"
    },
    {
      "inputs": [],
      "name": "EIP712_VERSION",
      "outputs": [
        {
          "internalType": "string",
          "name": "",
          "type": "string"
        }
      ],
      "stateMutability": "view",
      "type": "function"
    },
    {
      "inputs": [],
      "name": "ONBOARDING_CONTROLLER",
      "outputs": [
        {
          "internalType": "contract IOnboardingController",
          "name": "",
          "type": "address"
        }
      ],
      "stateMutability": "view",
      "type": "function"
    },
    {
      "inputs": [],
      "name": "OWNER",
      "outputs": [
        {
          "internalType": "address",
          "name": "",
          "type": "address"
        }
      ],
      "stateMutability": "view",
      "type": "function"
    },
    {
      "inputs": [],
      "name": "PANTHER_POOL",
      "outputs": [
        {
          "internalType": "contract IPantherPoolV1",
          "name": "",
          "type": "address"
        }
      ],
      "stateMutability": "view",
      "type": "function"
    },
    {
      "inputs": [],
      "name": "PANTHER_STATIC_TREE",
      "outputs": [
        {
          "internalType": "contract ITreeRootUpdater",
          "name": "",
          "type": "address"
        }
      ],
      "stateMutability": "view",
      "type": "function"
    },
    {
      "inputs": [],
      "name": "ZACCOUNT_VERSION",
      "outputs": [
        {
          "internalType": "uint8",
          "name": "",
          "type": "uint8"
        }
      ],
      "stateMutability": "view",
      "type": "function"
    },
    {
      "inputs": [
        {
          "internalType": "uint256[]",
          "name": "inputs",
          "type": "uint256[]"
        },
        {
          "internalType": "bytes",
          "name": "privateMessages",
          "type": "bytes"
        },
        {
          "components": [
            {
              "components": [
                {
                  "internalType": "uint256",
                  "name": "x",
                  "type": "uint256"
                },
                {
                  "internalType": "uint256",
                  "name": "y",
                  "type": "uint256"
                }
              ],
              "internalType": "struct G1Point",
              "name": "a",
              "type": "tuple"
            },
            {
              "components": [
                {
                  "internalType": "uint256[2]",
                  "name": "x",
                  "type": "uint256[2]"
                },
                {
                  "internalType": "uint256[2]",
                  "name": "y",
                  "type": "uint256[2]"
                }
              ],
              "internalType": "struct G2Point",
              "name": "b",
              "type": "tuple"
            },
            {
              "components": [
                {
                  "internalType": "uint256",
                  "name": "x",
                  "type": "uint256"
                },
                {
                  "internalType": "uint256",
                  "name": "y",
                  "type": "uint256"
                }
              ],
              "internalType": "struct G1Point",
              "name": "c",
              "type": "tuple"
            }
          ],
          "internalType": "struct SnarkProof",
          "name": "proof",
          "type": "tuple"
        },
        {
          "internalType": "uint256",
          "name": "cachedForestRootIndex",
          "type": "uint256"
        }
      ],
      "name": "activateZAccount",
      "outputs": [
        {
          "internalType": "uint256",
          "name": "utxoBusQueuePos",
          "type": "uint256"
        }
      ],
      "stateMutability": "nonpayable",
      "type": "function"
    },
    {
      "inputs": [
        {
          "internalType": "address[]",
          "name": "masterEoas",
          "type": "address[]"
        },
        {
          "internalType": "bool[]",
          "name": "isBlackListed",
          "type": "bool[]"
        }
      ],
      "name": "batchUpdateBlacklistForMasterEoa",
      "outputs": [],
      "stateMutability": "nonpayable",
      "type": "function"
    },
    {
      "inputs": [
        {
          "internalType": "bytes32[]",
          "name": "packedPubRootSpendingKeys",
          "type": "bytes32[]"
        },
        {
          "internalType": "bool[]",
          "name": "isBlackListed",
          "type": "bool[]"
        }
      ],
      "name": "batchUpdateBlacklistForPubRootSpendingKey",
      "outputs": [],
      "stateMutability": "nonpayable",
      "type": "function"
    },
    {
      "inputs": [],
      "name": "getDomainSeperator",
      "outputs": [
        {
          "internalType": "bytes32",
          "name": "",
          "type": "bytes32"
        }
      ],
      "stateMutability": "view",
      "type": "function"
    },
    {
      "inputs": [],
      "name": "getRoot",
      "outputs": [
        {
          "internalType": "bytes32",
          "name": "",
          "type": "bytes32"
        }
      ],
      "stateMutability": "view",
      "type": "function"
    },
    {
      "inputs": [
        {
          "internalType": "address",
          "name": "",
          "type": "address"
        }
      ],
      "name": "isMasterEoaBlacklisted",
      "outputs": [
        {
          "internalType": "bool",
          "name": "",
          "type": "bool"
        }
      ],
      "stateMutability": "view",
      "type": "function"
    },
    {
      "inputs": [
        {
          "internalType": "bytes32",
          "name": "",
          "type": "bytes32"
        }
      ],
      "name": "isPubRootSpendingKeyBlacklisted",
      "outputs": [
        {
          "internalType": "bool",
          "name": "",
          "type": "bool"
        }
      ],
      "stateMutability": "view",
      "type": "function"
    },
    {
      "inputs": [
        {
          "internalType": "uint24",
          "name": "",
          "type": "uint24"
        }
      ],
      "name": "isZAccountIdBlacklisted",
      "outputs": [
        {
          "internalType": "bool",
          "name": "",
          "type": "bool"
        }
      ],
      "stateMutability": "view",
      "type": "function"
    },
    {
      "inputs": [
        {
          "internalType": "address",
          "name": "_masterEOA",
          "type": "address"
        }
      ],
      "name": "isZAccountWhitelisted",
      "outputs": [
        {
          "internalType": "bool",
          "name": "isWhitelisted",
          "type": "bool"
        }
      ],
      "stateMutability": "view",
      "type": "function"
    },
    {
      "inputs": [
        {
          "internalType": "uint24",
          "name": "",
          "type": "uint24"
        }
      ],
      "name": "masterEOAs",
      "outputs": [
        {
          "internalType": "address",
          "name": "",
          "type": "address"
        }
      ],
      "stateMutability": "view",
      "type": "function"
    },
    {
      "inputs": [
        {
          "components": [
            {
              "internalType": "uint256",
              "name": "x",
              "type": "uint256"
            },
            {
              "internalType": "uint256",
              "name": "y",
              "type": "uint256"
            }
          ],
          "internalType": "struct G1Point",
          "name": "_pubRootSpendingKey",
          "type": "tuple"
        },
        {
          "components": [
            {
              "internalType": "uint256",
              "name": "x",
              "type": "uint256"
            },
            {
              "internalType": "uint256",
              "name": "y",
              "type": "uint256"
            }
          ],
          "internalType": "struct G1Point",
          "name": "_pubReadingKey",
          "type": "tuple"
        },
        {
          "internalType": "uint8",
          "name": "v",
          "type": "uint8"
        },
        {
          "internalType": "bytes32",
          "name": "r",
          "type": "bytes32"
        },
        {
          "internalType": "bytes32",
          "name": "s",
          "type": "bytes32"
        }
      ],
      "name": "registerZAccount",
      "outputs": [],
      "stateMutability": "nonpayable",
      "type": "function"
    },
    {
      "inputs": [
        {
          "internalType": "uint24",
          "name": "zAccountId",
          "type": "uint24"
        },
        {
          "internalType": "bytes32",
          "name": "leaf",
          "type": "bytes32"
        },
        {
          "internalType": "bytes32[]",
          "name": "proofSiblings",
          "type": "bytes32[]"
        },
        {
          "internalType": "bool",
          "name": "isBlacklisted",
          "type": "bool"
        }
      ],
      "name": "updateBlacklistForZAccountId",
      "outputs": [],
      "stateMutability": "nonpayable",
      "type": "function"
    },
    {
      "inputs": [],
      "name": "zAccountIdTracker",
      "outputs": [
        {
          "internalType": "uint256",
          "name": "",
          "type": "uint256"
        }
      ],
      "stateMutability": "view",
      "type": "function"
    },
    {
      "inputs": [
        {
          "internalType": "address",
          "name": "",
          "type": "address"
        }
      ],
      "name": "zAccountStatus",
      "outputs": [
        {
          "internalType": "enum ZACCOUNT_STATUS",
          "name": "",
          "type": "uint8"
        }
      ],
      "stateMutability": "view",
      "type": "function"
    },
    {
      "inputs": [
        {
          "internalType": "address",
          "name": "",
          "type": "address"
        }
      ],
      "name": "zAccounts",
      "outputs": [
        {
          "internalType": "uint224",
          "name": "_unused",
          "type": "uint224"
        },
        {
          "internalType": "uint24",
          "name": "id",
          "type": "uint24"
        },
        {
          "internalType": "uint8",
          "name": "version",
          "type": "uint8"
        },
        {
          "internalType": "bytes32",
          "name": "pubRootSpendingKey",
          "type": "bytes32"
        },
        {
          "internalType": "bytes32",
          "name": "pubReadingKey",
          "type": "bytes32"
        }
      ],
      "stateMutability": "view",
      "type": "function"
    },
    {
      "inputs": [
        {
          "internalType": "bytes32",
          "name": "",
          "type": "bytes32"
        }
      ],
      "name": "zoneZAccountNullifiers",
      "outputs": [
        {
          "internalType": "uint256",
          "name": "",
          "type": "uint256"
        }
      ],
      "stateMutability": "view",
      "type": "function"
    }
  ],
  "transactionHash": "0xe69e9811bf57c4c5f563907c0241013f4578d0bf34e1ff392d15eb99478b00f4",
  "args": [
    "0xfB474a7FeCDaFBD412ebF0d60A0C32794F82d3dD",
    1,
    "0xfDfD920F2152565E9D7b589e4e9faeE6699AD4bd",
    "0xAbFdb07BC6db782F9bdd6C6BA65ee40081eFA4c4",
    "0xb376B21d53bc77078dF17CbE6af51B377E6Bae0f"
  ],
  "numDeployments": 2,
  "solcInputHash": "15cb9b361d83a3f33aeee89cd297a569",
  "bytecode": "0x6101206040523480156200001257600080fd5b5060405162002b4038038062002b40833981016040819052620000359162000159565b83856001600160a01b038116620000935760405162461bcd60e51b815260206004820152601a60248201527f496d6d4f776e3a207a65726f206f776e6572206164647265737300000000000060448201526064015b60405180910390fd5b6001600160a01b0390811660805260ff90911660a052831615801590620000c257506001600160a01b03821615155b8015620000d757506001600160a01b03811615155b604051806040016040528060088152602001671690548e9a5b9a5d60c21b81525090620001195760405162461bcd60e51b81526004016200008a9190620001d0565b506001600160a01b0392831660c05290821660e052166101005250620002209050565b80516001600160a01b03811681146200015457600080fd5b919050565b600080600080600060a086880312156200017257600080fd5b6200017d866200013c565b9450602086015160ff811681146200019457600080fd5b9350620001a4604087016200013c565b9250620001b4606087016200013c565b9150620001c4608087016200013c565b90509295509295909350565b600060208083528351808285015260005b81811015620001ff57858101830151858201604001528201620001e1565b506000604082860101526040601f19601f8301168501019250505092915050565b60805160a05160c05160e0516101005161289c620002a4600039600081816103610152818161182301526118ee01526000818161044b015261127801526000818161038801526118bb0152600081816104a2015281816114b00152611d170152600081816101c8015281816109cd01528181610d1a0152611086015261289c6000f3fe608060405234801561001057600080fd5b50600436106101985760003560e01c80638f3e52de116100e3578063c99c07561161008c578063cd14c8b111610066578063cd14c8b1146104d6578063eccec5a8146104e9578063f1fe9a471461050957600080fd5b8063c99c075614610446578063cbe10bf01461046d578063cc577f661461049d57600080fd5b8063b463c7cb116100bd578063b463c7cb146103f0578063b8ef7fb714610413578063c7a629de1461043357600080fd5b80638f3e52de14610383578063923d464a146103aa578063adc617f7146103cd57600080fd5b80633b2fb7a8116101455780635ca1e1651161011f5780635ca1e165146102c757806360314315146102cf57806384ff57581461035c57600080fd5b80633b2fb7a8146102595780634970d87c146102955780634a0997f31461029e57600080fd5b806320379ee51161017657806320379ee51461021757806320edf18c1461021f57806322c9531a1461024657600080fd5b806303e520831461019d578063117803e3146101c35780631dd5be0314610202575b600080fd5b6101b06101ab366004612132565b61052c565b6040519081526020015b60405180910390f35b6101ea7f000000000000000000000000000000000000000000000000000000000000000081565b6040516001600160a01b0390911681526020016101ba565b61021561021036600461220e565b6109cb565b005b6101b0610c18565b6101b07f44b818e3e3a12ecf805989195d8f38e75517386006719e2dbb1443987a34db7b81565b61021561025436600461220e565b610d18565b6102886040518060400160405280601081526020016f14185b9d1a195c88141c9bdd1bd8dbdb60821b81525081565b6040516101ba91906122ca565b6101b060335481565b6101ea6102ac3660046122f7565b603a602052600090815260409020546001600160a01b031681565b6101b0610fa7565b61031e6102dd366004612312565b6039602052600090815260409020805460018201546002909201546001600160e01b03821692600160e01b830462ffffff1692600160f81b900460ff169185565b604080516001600160e01b03909616865262ffffff909416602086015260ff909216928401929092526060830191909152608082015260a0016101ba565b6101ea7f000000000000000000000000000000000000000000000000000000000000000081565b6101ea7f000000000000000000000000000000000000000000000000000000000000000081565b6103bd6103b8366004612312565b610fdc565b60405190151581526020016101ba565b6103bd6103db3660046122f7565b60386020526000908152604090205460ff1681565b6103bd6103fe366004612312565b60366020526000908152604090205460ff1681565b6101b061042136600461233b565b60346020526000908152604090205481565b610215610441366004612364565b611084565b6101ea7f000000000000000000000000000000000000000000000000000000000000000081565b61049061047b366004612312565b60356020526000908152604090205460ff1681565b6040516101ba91906123e9565b6104c47f000000000000000000000000000000000000000000000000000000000000000081565b60405160ff90911681526020016101ba565b6102156104e4366004612460565b611324565b610288604051806040016040528060018152602001603160f81b81525081565b6103bd61051736600461233b565b60376020526000908152604090205460ff1681565b60008086866000818110610542576105426124bf565b905060200201359050600085846040516020016105609291906124d5565b60408051601f19818403018152919052805160208201209091506105a5907f30644e72e131a029b85045b68181585d2833e84879b9709143e1f593f0000001906124f7565b82146040518060400160405280600781526020017f5a41523a45313100000000000000000000000000000000000000000000000000815250906106045760405162461bcd60e51b81526004016105fb91906122ca565b60405180910390fd5b50505060008686600481811061061c5761061c6124bf565b905060200201359050806000146040518060400160405280600781526020017f5a41523a453133000000000000000000000000000000000000000000000000008152509061067d5760405162461bcd60e51b81526004016105fb91906122ca565b505060006106a387876003818110610697576106976124bf565b90506020020135611663565b90506000878760088181106106ba576106ba6124bf565b62ffffff85166000908152603a602090815260409182902054825180840190935260068352652d20a91d229b60d11b838301529202939093013593506001600160a01b0380851691161490506107235760405162461bcd60e51b81526004016105fb91906122ca565b50600061077560405180604001604052808b8b6006818110610747576107476124bf565b9050602002013581526020018b8b6007818110610766576107666124bf565b905060200201358152506116bc565b90506000806107858585856116fc565b91509150811581906107aa5760405162461bcd60e51b81526004016105fb91906122ca565b505050506000888860098181106107c3576107c36124bf565b9050602002013560001b905060346000828152602001908152602001600020546000146040518060400160405280600681526020017f5a41523a453500000000000000000000000000000000000000000000000000008152509061083a5760405162461bcd60e51b81526004016105fb91906122ca565b5060009081526034602090815260408083204390556001600160a01b0384168352603590915290205460ff16600181600281111561087a5761087a6123d3565b036108a3576001600160a01b0382166000908152603560205260409020805460ff191660021790555b60006108fd838360028111156108bb576108bb6123d3565b60028d8d600d8181106108d0576108d06124bf565b905060200201356040516020016108e991815260200190565b604051602081830303815290604052611809565b905060008a8a6001818110610914576109146124bf565b9050602002013590508082146040518060400160405280600781526020017f5a41523a45313200000000000000000000000000000000000000000000000000815250906109745760405162461bcd60e51b81526004016105fb91906122ca565b5050506109848989888a896118a1565b60405162ffffff851681529094507fdc02c3befffd2a4f92511c89886e8238193ede29a8939bf8c631ba549eeafb209060200160405180910390a150505095945050505050565b7f00000000000000000000000000000000000000000000000000000000000000006001600160a01b03163314610a3a5760405162461bcd60e51b8152602060048201526014602482015273125b5b53dddb8e881d5b985d5d1a1bdc9a5e995960621b60448201526064016105fb565b6040805180820190915260068152655a41523a453760d01b6020820152838214610a775760405162461bcd60e51b81526004016105fb91906122ca565b5060005b83811015610c1157828282818110610a9557610a956124bf565b9050602002016020810190610aaa9190612519565b151560376000878785818110610ac257610ac26124bf565b90506020020135815260200190815260200160002060009054906101000a900460ff1615151415604051806040016040528060068152602001650b482a4748a760d31b81525090610b265760405162461bcd60e51b81526004016105fb91906122ca565b50828282818110610b3957610b396124bf565b9050602002016020810190610b4e9190612519565b60376000878785818110610b6457610b646124bf565b90506020020135815260200190815260200160002060006101000a81548160ff0219169083151502179055507f57836c6e28b7607fcb54ef9169c69f14460bb2d70d40f2c62d9c20d2c9ba3d98858583818110610bc357610bc36124bf565b90506020020135848484818110610bdc57610bdc6124bf565b9050602002016020810190610bf19190612519565b6040805192835290151560208301520160405180910390a1600101610a7b565b5050505050565b60006040518060800160405280605f8152602001612831605f91398051602091820120604080518082018252601081526f14185b9d1a195c88141c9bdd1bd8dbdb60821b908401528051808201825260018152603160f81b908401528051928301919091527fbd6ac11eb0311bac3ff64366cc16db374956ada90d1e2aa6bb4faed25fc1d0cd908201527fc89efdaa54c0f20c7adf612882df0950f5a951637e0307cdcb4c672f298b8bc660608201524660808201523060a08201527f44b818e3e3a12ecf805989195d8f38e75517386006719e2dbb1443987a34db7b60c082015260e00160405160208183030381529060405280519060200120905090565b7f00000000000000000000000000000000000000000000000000000000000000006001600160a01b03163314610d875760405162461bcd60e51b8152602060048201526014602482015273125b5b53dddb8e881d5b985d5d1a1bdc9a5e995960621b60448201526064016105fb565b6040805180820190915260068152655a41523a453760d01b6020820152838214610dc45760405162461bcd60e51b81526004016105fb91906122ca565b5060005b83811015610c1157828282818110610de257610de26124bf565b9050602002016020810190610df79190612519565b151560366000878785818110610e0f57610e0f6124bf565b9050602002016020810190610e249190612312565b6001600160a01b03166001600160a01b0316815260200190815260200160002060009054906101000a900460ff1615151415604051806040016040528060068152602001650b482a4748a760d31b81525090610e935760405162461bcd60e51b81526004016105fb91906122ca565b50828282818110610ea657610ea66124bf565b9050602002016020810190610ebb9190612519565b60366000878785818110610ed157610ed16124bf565b9050602002016020810190610ee69190612312565b6001600160a01b031681526020810191909152604001600020805460ff19169115159190911790557f317b703ab5e9a8a94f27c3e386e8fd5e8e69bde97b4cabf3de6986ab31432f9f858583818110610f4157610f416124bf565b9050602002016020810190610f569190612312565b848484818110610f6857610f686124bf565b9050602002016020810190610f7d9190612519565b604080516001600160a01b03909316835290151560208301520160405180910390a1600101610dc8565b6000805415610fb7575060005490565b507f2a7c7c9b6ce5880b9f6f228d72bf6a575a526f29c66ecceef8b753d38bba732390565b6001600160a01b038181166000908152603960209081526040808320815160a08101835281546001600160e01b0381168252600160e01b810462ffffff16828601818152600160f81b90920460ff168386015260018401546060840190815260029094015460808401528652603a90945291842054925190519394919392909116151591849161106d9187906116fc565b50905081801561107b575080155b95945050505050565b7f00000000000000000000000000000000000000000000000000000000000000006001600160a01b031633146110f35760405162461bcd60e51b8152602060048201526014602482015273125b5b53dddb8e881d5b985d5d1a1bdc9a5e995960621b60448201526064016105fb565b62ffffff85166000908152603a602090815260409182902054825180840190935260068352652d20a91d229b60d11b918301919091526001600160a01b031661114f5760405162461bcd60e51b81526004016105fb91906122ca565b5062ffffff851660009081526038602090815260409182902054825180840190935260068352650b482a4748a760d31b9183019190915260ff161515821515036111ac5760405162461bcd60e51b81526004016105fb91906122ca565b50600081156111fa576111f386868686808060200260200160405190810160405280939291908181526020018383602002808284376000920191909152506119b092505050565b905061123b565b61123886868686808060200260200160405190810160405280939291908181526020018383602002808284376000920191909152506119ea92505050565b90505b62ffffff861660009081526038602052604090819020805460ff19168415151790555163c2e3e62b60e01b815260048101829052600160248201527f00000000000000000000000000000000000000000000000000000000000000006001600160a01b03169063c2e3e62b90604401600060405180830381600087803b1580156112c457600080fd5b505af11580156112d8573d6000803e3d6000fd5b50506040805162ffffff8a16815285151560208201527fe537daabb339ea043fe1498519b689d76b7a2a3f067b86d7eef6e3f12cf0a5dc935001905060405180910390a1505050505050565b600061132f866116bc565b9050600061133c866116bc565b60008381526037602090815260409182902054825180840190935260068352655a41523a453360d01b918301919091529192509060ff16156113915760405162461bcd60e51b81526004016105fb91906122ca565b5060006113a18383888888611a15565b6001600160a01b03811660009081526036602090815260409182902054825180840190935260068352652d20a91d229960d11b918301919091529192509060ff16156114005760405162461bcd60e51b81526004016105fb91906122ca565b506001600160a01b03811660009081526035602052604081205460ff16600281111561142e5761142e6123d3565b146040518060400160405280600681526020017f5a41523a45340000000000000000000000000000000000000000000000000000815250906114835760405162461bcd60e51b81526004016105fb91906122ca565b50600061148e611a49565b6040805160a081018252600080825262ffffff808516602080850182815260ff7f00000000000000000000000000000000000000000000000000000000000000008116878901908152606088018e8152608089018e8152958852603a855289882080546001600160a01b038f167fffffffffffffffffffffffff000000000000000000000000000000000000000090911681179091558852603985528988208951815495519351909416600160f81b027effffffffffffffffffffffffffffffffffffffffffffffffffffffffffffff93909816600160e01b027fff000000000000000000000000000000000000000000000000000000000000009095166001600160e01b039490941693909317939093171694909417845551600184810191909155915160029093019290925560359091529290208054939450909260ff191682800217905550604080516001600160a01b038516815282516001600160e01b031660208083019190915283015162ffffff16818301529082015160ff1660608083019190915282015160808083019190915282015160a08201527fc5e4838912812bff83e0f820133939c9e0540032e15803606ed95cb769390aaa9060c00160405180910390a150505050505050505050565b6000630100000082106116b85760405162461bcd60e51b815260206004820152600860248201527f554e53414645323400000000000000000000000000000000000000000000000060448201526064016105fb565b5090565b602081015181517f183227397098d014dc2822db40c0ac2e9419f4243cdcb848a1f0fac9f800000010156116f757506020810151600160ff1b175b919050565b62ffffff831660009081526038602052604081205460609060ff161561175e5761175b816040518060400160405280600681526020017f5a41523a45310000000000000000000000000000000000000000000000000000815250611a78565b90505b6001600160a01b03841660009081526036602052604090205460ff16156117aa576117a781604051806040016040528060068152602001652d20a91d229960d11b815250611a78565b90505b60008381526037602052604090205460ff16156117ec576117e981604051806040016040528060068152602001655a41523a453360d01b815250611a78565b90505b60008151116117fc5760006117ff565b60015b9150935093915050565b604051630b73522f60e01b81526000906001600160a01b037f00000000000000000000000000000000000000000000000000000000000000001690630b73522f9061185e908890889088908890600401612534565b6020604051808303816000875af115801561187d573d6000803e3d6000fd5b505050506040513d601f19601f8201168201806040525081019061107b9190612568565b6040516316a6f74360e21b81526000906001600160a01b037f00000000000000000000000000000000000000000000000000000000000000001690635a9bdd0c9061191a908990899089907f0000000000000000000000000000000000000000000000000000000000000000908a908a90600401612581565b6020604051808303816000875af1925050508015611955575060408051601f3d908101601f1916820190925261195291810190612568565b60015b6119a65761196161264d565b806308c379a00361199a5750611975612669565b80611980575061199c565b8060405162461bcd60e51b81526004016105fb91906122ca565b505b3d6000803e3d6000fd5b9695505050505050565b60008060006119be86611ae3565b60005491935091506001831b8617906119da9087838589611b58565b6000819055979650505050505050565b60008060006119f886611ae3565b60005491935091506001831b198616906119da9087838589611b58565b600080611a228787611cdb565b90506000611a2f82611d5f565b9050611a3d81878787611db4565b98975050505050505050565b60335460fe60ff821610611a6757611a626002826126f3565b611a72565b611a728160016126f3565b60335590565b60606000835111611a985760405180602001604052806000815250611ab9565b82604051602001611aa99190612714565b6040516020818303038152906040525b82604051602001611acb929190612739565b60405160208183030381529060405290505b92915050565b60ff8116600060fe82106040518060400160405280600681526020017f5a41523a4539000000000000000000000000000000000000000000000000000081525090611b415760405162461bcd60e51b81526004016105fb91906122ca565b5060088362ffffff16901c62ffffff169050915091565b6000848403611bcf5760405162461bcd60e51b815260206004820152602a60248201527f424955543a204e6577206c6561662063616e6e6f7420626520657175616c207460448201527f6865206f6c64206f6e650000000000000000000000000000000000000000000060648201526084016105fb565b611bdb86868585611e73565b611c325760405162461bcd60e51b815260206004820152602260248201527f424955543a204c656166206973206e6f742070617274206f6620746865207472604482015261656560f01b60648201526084016105fb565b50826000805b8351811015611cd0578085901c600116915081600003611c8f57611c886040518060400160405280858152602001868481518110611c7857611c786124bf565b6020026020010151815250611f7e565b9250611cc8565b611cc56040518060400160405280868481518110611caf57611caf6124bf565b6020026020010151815260200185815250611f7e565b92505b600101611c38565b505095945050505050565b60006040518060800160405280604e81526020016127e3604e9139805160209182012060408051928301919091528101849052606081018390527f000000000000000000000000000000000000000000000000000000000000000060ff16608082015260a00160405160208183030381529060405280519060200120905092915050565b600060405180604001604052806002815260200161190160f01b815250611d84610c18565b83604051602001611d9793929190612768565b604051602081830303815290604052805190602001209050919050565b6040805160008082526020820180845287905260ff861692820192909252606081018490526080810183905260019060a0016020604051602081039080840390855afa158015611e08573d6000803e3d6000fd5b5050604051601f1901519150506001600160a01b038116611e6b5760405162461bcd60e51b815260206004820152601760248201527f454344534120696e76616c6964207369676e617475726500000000000000000060448201526064016105fb565b949350505050565b80516000906001901b808410611ecb5760405162461bcd60e51b815260206004820152601860248201527f424955543a20696e76616c6964206c65616620696e646578000000000000000060448201526064016105fb565b846000805b8551811015611f42578087901c600116915081600003611f1757611f106040518060400160405280858152602001888481518110611c7857611c786124bf565b9250611f3a565b611f376040518060400160405280888481518110611caf57611caf6124bf565b92505b600101611ed0565b508715611f5157878214611a3d565b507f2a7c7c9b6ce5880b9f6f228d72bf6a575a526f29c66ecceef8b753d38bba7323149695505050505050565b6000611add8280516000907f30644e72e131a029b85045b68181585d2833e84879b9709143e1f593f0000001118015611fda575060208201517f30644e72e131a029b85045b68181585d2833e84879b9709143e1f593f0000001115b6040518060600160405280602281526020016127c160229139906120115760405162461bcd60e51b81526004016105fb91906122ca565b5060405163014cf2b360e51b8152737Ae48edd2Ee06Ba80863A196361B4bAAa5d8F8b19063299e56609061204990859060040161278f565b602060405180830381865af4158015612066573d6000803e3d6000fd5b505050506040513d601f19601f82011682018060405250810190611add9190612568565b60008083601f84011261209c57600080fd5b50813567ffffffffffffffff8111156120b457600080fd5b6020830191508360208260051b85010111156120cf57600080fd5b9250929050565b634e487b7160e01b600052604160045260246000fd5b601f8201601f1916810167ffffffffffffffff81118282101715612112576121126120d6565b6040525050565b6000610100828403121561212c57600080fd5b50919050565b6000806000806000610160868803121561214b57600080fd5b853567ffffffffffffffff8082111561216357600080fd5b61216f89838a0161208a565b909750955060209150878201358181111561218957600080fd5b8801601f81018a1361219a57600080fd5b8035828111156121ac576121ac6120d6565b60405192506121c4601f8201601f19168501846120ec565b8083528a848284010111156121d857600080fd5b80848301858501376000848285010152505080945050506121fc8760408801612119565b94979396509194610140013592915050565b6000806000806040858703121561222457600080fd5b843567ffffffffffffffff8082111561223c57600080fd5b6122488883890161208a565b9096509450602087013591508082111561226157600080fd5b5061226e8782880161208a565b95989497509550505050565b60005b8381101561229557818101518382015260200161227d565b50506000910152565b600081518084526122b681602086016020860161227a565b601f01601f19169290920160200192915050565b6020815260006122dd602083018461229e565b9392505050565b803562ffffff811681146116f757600080fd5b60006020828403121561230957600080fd5b6122dd826122e4565b60006020828403121561232457600080fd5b81356001600160a01b03811681146122dd57600080fd5b60006020828403121561234d57600080fd5b5035919050565b803580151581146116f757600080fd5b60008060008060006080868803121561237c57600080fd5b612385866122e4565b945060208601359350604086013567ffffffffffffffff8111156123a857600080fd5b6123b48882890161208a565b90945092506123c7905060608701612354565b90509295509295909350565b634e487b7160e01b600052602160045260246000fd5b602081016003831061240b57634e487b7160e01b600052602160045260246000fd5b91905290565b60006040828403121561242357600080fd5b6040516040810181811067ffffffffffffffff82111715612446576124466120d6565b604052823581526020928301359281019290925250919050565b600080600080600060e0868803121561247857600080fd5b6124828787612411565b94506124918760408801612411565b9350608086013560ff811681146124a757600080fd5b9497939650939460a0810135945060c0013592915050565b634e487b7160e01b600052603260045260246000fd5b600083516124e781846020880161227a565b9190910191825250602001919050565b60008261251457634e487b7160e01b600052601260045260246000fd5b500690565b60006020828403121561252b57600080fd5b6122dd82612354565b6001600160a01b038516815260ff8416602082015260ff831660408201526080606082015260006119a6608083018461229e565b60006020828403121561257a57600080fd5b5051919050565b610180808252810186905260006101a07f07ffffffffffffffffffffffffffffffffffffffffffffffffffffffffffffff8811156125be57600080fd5b8760051b808a8386013783016125e1602085018980358252602090810135910152565b6040808901606086013760406080890160a086013761261060e0850160c08a0180358252602090810135910152565b6001600160a01b03871661012085015281848203016101408501526126378282018761229e565b9250505082610160830152979650505050505050565b600060033d11156126665760046000803e5060005160e01c5b90565b600060443d10156126775790565b6040516003193d81016004833e81513d67ffffffffffffffff81602484011181841117156126a757505050505090565b82850191508151818111156126bf5750505050505090565b843d87010160208285010111156126d95750505050505090565b6126e8602082860101876120ec565b509095945050505050565b80820180821115611add57634e487b7160e01b600052601160045260246000fd5b6000825161272681846020870161227a565b600b60fa1b920191825250600101919050565b6000835161274b81846020880161227a565b83519083019061275f81836020880161227a565b01949350505050565b6000845161277a81846020890161227a565b91909101928352506020820152604001919050565b60408101818360005b60028110156127b7578151835260209283019290910190600101612798565b5050509291505056fe506f736569646f6e4861736865723a20696e707574206e6f7420696e206669656c64526567697374726174696f6e286279746573333220707562526f6f745370656e64696e674b65792c627974657333322070756252656164696e674b65792c75696e743235362076657273696f6e29454950373132446f6d61696e28737472696e67206e616d652c737472696e672076657273696f6e2c75696e7432353620636861696e49642c6164647265737320766572696679696e67436f6e74726163742c627974657333322073616c7429a164736f6c6343000810000a",
  "deployedBytecode": "0x608060405234801561001057600080fd5b50600436106101985760003560e01c80638f3e52de116100e3578063c99c07561161008c578063cd14c8b111610066578063cd14c8b1146104d6578063eccec5a8146104e9578063f1fe9a471461050957600080fd5b8063c99c075614610446578063cbe10bf01461046d578063cc577f661461049d57600080fd5b8063b463c7cb116100bd578063b463c7cb146103f0578063b8ef7fb714610413578063c7a629de1461043357600080fd5b80638f3e52de14610383578063923d464a146103aa578063adc617f7146103cd57600080fd5b80633b2fb7a8116101455780635ca1e1651161011f5780635ca1e165146102c757806360314315146102cf57806384ff57581461035c57600080fd5b80633b2fb7a8146102595780634970d87c146102955780634a0997f31461029e57600080fd5b806320379ee51161017657806320379ee51461021757806320edf18c1461021f57806322c9531a1461024657600080fd5b806303e520831461019d578063117803e3146101c35780631dd5be0314610202575b600080fd5b6101b06101ab366004612132565b61052c565b6040519081526020015b60405180910390f35b6101ea7f000000000000000000000000000000000000000000000000000000000000000081565b6040516001600160a01b0390911681526020016101ba565b61021561021036600461220e565b6109cb565b005b6101b0610c18565b6101b07f44b818e3e3a12ecf805989195d8f38e75517386006719e2dbb1443987a34db7b81565b61021561025436600461220e565b610d18565b6102886040518060400160405280601081526020016f14185b9d1a195c88141c9bdd1bd8dbdb60821b81525081565b6040516101ba91906122ca565b6101b060335481565b6101ea6102ac3660046122f7565b603a602052600090815260409020546001600160a01b031681565b6101b0610fa7565b61031e6102dd366004612312565b6039602052600090815260409020805460018201546002909201546001600160e01b03821692600160e01b830462ffffff1692600160f81b900460ff169185565b604080516001600160e01b03909616865262ffffff909416602086015260ff909216928401929092526060830191909152608082015260a0016101ba565b6101ea7f000000000000000000000000000000000000000000000000000000000000000081565b6101ea7f000000000000000000000000000000000000000000000000000000000000000081565b6103bd6103b8366004612312565b610fdc565b60405190151581526020016101ba565b6103bd6103db3660046122f7565b60386020526000908152604090205460ff1681565b6103bd6103fe366004612312565b60366020526000908152604090205460ff1681565b6101b061042136600461233b565b60346020526000908152604090205481565b610215610441366004612364565b611084565b6101ea7f000000000000000000000000000000000000000000000000000000000000000081565b61049061047b366004612312565b60356020526000908152604090205460ff1681565b6040516101ba91906123e9565b6104c47f000000000000000000000000000000000000000000000000000000000000000081565b60405160ff90911681526020016101ba565b6102156104e4366004612460565b611324565b610288604051806040016040528060018152602001603160f81b81525081565b6103bd61051736600461233b565b60376020526000908152604090205460ff1681565b60008086866000818110610542576105426124bf565b905060200201359050600085846040516020016105609291906124d5565b60408051601f19818403018152919052805160208201209091506105a5907f30644e72e131a029b85045b68181585d2833e84879b9709143e1f593f0000001906124f7565b82146040518060400160405280600781526020017f5a41523a45313100000000000000000000000000000000000000000000000000815250906106045760405162461bcd60e51b81526004016105fb91906122ca565b60405180910390fd5b50505060008686600481811061061c5761061c6124bf565b905060200201359050806000146040518060400160405280600781526020017f5a41523a453133000000000000000000000000000000000000000000000000008152509061067d5760405162461bcd60e51b81526004016105fb91906122ca565b505060006106a387876003818110610697576106976124bf565b90506020020135611663565b90506000878760088181106106ba576106ba6124bf565b62ffffff85166000908152603a602090815260409182902054825180840190935260068352652d20a91d229b60d11b838301529202939093013593506001600160a01b0380851691161490506107235760405162461bcd60e51b81526004016105fb91906122ca565b50600061077560405180604001604052808b8b6006818110610747576107476124bf565b9050602002013581526020018b8b6007818110610766576107666124bf565b905060200201358152506116bc565b90506000806107858585856116fc565b91509150811581906107aa5760405162461bcd60e51b81526004016105fb91906122ca565b505050506000888860098181106107c3576107c36124bf565b9050602002013560001b905060346000828152602001908152602001600020546000146040518060400160405280600681526020017f5a41523a453500000000000000000000000000000000000000000000000000008152509061083a5760405162461bcd60e51b81526004016105fb91906122ca565b5060009081526034602090815260408083204390556001600160a01b0384168352603590915290205460ff16600181600281111561087a5761087a6123d3565b036108a3576001600160a01b0382166000908152603560205260409020805460ff191660021790555b60006108fd838360028111156108bb576108bb6123d3565b60028d8d600d8181106108d0576108d06124bf565b905060200201356040516020016108e991815260200190565b604051602081830303815290604052611809565b905060008a8a6001818110610914576109146124bf565b9050602002013590508082146040518060400160405280600781526020017f5a41523a45313200000000000000000000000000000000000000000000000000815250906109745760405162461bcd60e51b81526004016105fb91906122ca565b5050506109848989888a896118a1565b60405162ffffff851681529094507fdc02c3befffd2a4f92511c89886e8238193ede29a8939bf8c631ba549eeafb209060200160405180910390a150505095945050505050565b7f00000000000000000000000000000000000000000000000000000000000000006001600160a01b03163314610a3a5760405162461bcd60e51b8152602060048201526014602482015273125b5b53dddb8e881d5b985d5d1a1bdc9a5e995960621b60448201526064016105fb565b6040805180820190915260068152655a41523a453760d01b6020820152838214610a775760405162461bcd60e51b81526004016105fb91906122ca565b5060005b83811015610c1157828282818110610a9557610a956124bf565b9050602002016020810190610aaa9190612519565b151560376000878785818110610ac257610ac26124bf565b90506020020135815260200190815260200160002060009054906101000a900460ff1615151415604051806040016040528060068152602001650b482a4748a760d31b81525090610b265760405162461bcd60e51b81526004016105fb91906122ca565b50828282818110610b3957610b396124bf565b9050602002016020810190610b4e9190612519565b60376000878785818110610b6457610b646124bf565b90506020020135815260200190815260200160002060006101000a81548160ff0219169083151502179055507f57836c6e28b7607fcb54ef9169c69f14460bb2d70d40f2c62d9c20d2c9ba3d98858583818110610bc357610bc36124bf565b90506020020135848484818110610bdc57610bdc6124bf565b9050602002016020810190610bf19190612519565b6040805192835290151560208301520160405180910390a1600101610a7b565b5050505050565b60006040518060800160405280605f8152602001612831605f91398051602091820120604080518082018252601081526f14185b9d1a195c88141c9bdd1bd8dbdb60821b908401528051808201825260018152603160f81b908401528051928301919091527fbd6ac11eb0311bac3ff64366cc16db374956ada90d1e2aa6bb4faed25fc1d0cd908201527fc89efdaa54c0f20c7adf612882df0950f5a951637e0307cdcb4c672f298b8bc660608201524660808201523060a08201527f44b818e3e3a12ecf805989195d8f38e75517386006719e2dbb1443987a34db7b60c082015260e00160405160208183030381529060405280519060200120905090565b7f00000000000000000000000000000000000000000000000000000000000000006001600160a01b03163314610d875760405162461bcd60e51b8152602060048201526014602482015273125b5b53dddb8e881d5b985d5d1a1bdc9a5e995960621b60448201526064016105fb565b6040805180820190915260068152655a41523a453760d01b6020820152838214610dc45760405162461bcd60e51b81526004016105fb91906122ca565b5060005b83811015610c1157828282818110610de257610de26124bf565b9050602002016020810190610df79190612519565b151560366000878785818110610e0f57610e0f6124bf565b9050602002016020810190610e249190612312565b6001600160a01b03166001600160a01b0316815260200190815260200160002060009054906101000a900460ff1615151415604051806040016040528060068152602001650b482a4748a760d31b81525090610e935760405162461bcd60e51b81526004016105fb91906122ca565b50828282818110610ea657610ea66124bf565b9050602002016020810190610ebb9190612519565b60366000878785818110610ed157610ed16124bf565b9050602002016020810190610ee69190612312565b6001600160a01b031681526020810191909152604001600020805460ff19169115159190911790557f317b703ab5e9a8a94f27c3e386e8fd5e8e69bde97b4cabf3de6986ab31432f9f858583818110610f4157610f416124bf565b9050602002016020810190610f569190612312565b848484818110610f6857610f686124bf565b9050602002016020810190610f7d9190612519565b604080516001600160a01b03909316835290151560208301520160405180910390a1600101610dc8565b6000805415610fb7575060005490565b507f2a7c7c9b6ce5880b9f6f228d72bf6a575a526f29c66ecceef8b753d38bba732390565b6001600160a01b038181166000908152603960209081526040808320815160a08101835281546001600160e01b0381168252600160e01b810462ffffff16828601818152600160f81b90920460ff168386015260018401546060840190815260029094015460808401528652603a90945291842054925190519394919392909116151591849161106d9187906116fc565b50905081801561107b575080155b95945050505050565b7f00000000000000000000000000000000000000000000000000000000000000006001600160a01b031633146110f35760405162461bcd60e51b8152602060048201526014602482015273125b5b53dddb8e881d5b985d5d1a1bdc9a5e995960621b60448201526064016105fb565b62ffffff85166000908152603a602090815260409182902054825180840190935260068352652d20a91d229b60d11b918301919091526001600160a01b031661114f5760405162461bcd60e51b81526004016105fb91906122ca565b5062ffffff851660009081526038602090815260409182902054825180840190935260068352650b482a4748a760d31b9183019190915260ff161515821515036111ac5760405162461bcd60e51b81526004016105fb91906122ca565b50600081156111fa576111f386868686808060200260200160405190810160405280939291908181526020018383602002808284376000920191909152506119b092505050565b905061123b565b61123886868686808060200260200160405190810160405280939291908181526020018383602002808284376000920191909152506119ea92505050565b90505b62ffffff861660009081526038602052604090819020805460ff19168415151790555163c2e3e62b60e01b815260048101829052600160248201527f00000000000000000000000000000000000000000000000000000000000000006001600160a01b03169063c2e3e62b90604401600060405180830381600087803b1580156112c457600080fd5b505af11580156112d8573d6000803e3d6000fd5b50506040805162ffffff8a16815285151560208201527fe537daabb339ea043fe1498519b689d76b7a2a3f067b86d7eef6e3f12cf0a5dc935001905060405180910390a1505050505050565b600061132f866116bc565b9050600061133c866116bc565b60008381526037602090815260409182902054825180840190935260068352655a41523a453360d01b918301919091529192509060ff16156113915760405162461bcd60e51b81526004016105fb91906122ca565b5060006113a18383888888611a15565b6001600160a01b03811660009081526036602090815260409182902054825180840190935260068352652d20a91d229960d11b918301919091529192509060ff16156114005760405162461bcd60e51b81526004016105fb91906122ca565b506001600160a01b03811660009081526035602052604081205460ff16600281111561142e5761142e6123d3565b146040518060400160405280600681526020017f5a41523a45340000000000000000000000000000000000000000000000000000815250906114835760405162461bcd60e51b81526004016105fb91906122ca565b50600061148e611a49565b6040805160a081018252600080825262ffffff808516602080850182815260ff7f00000000000000000000000000000000000000000000000000000000000000008116878901908152606088018e8152608089018e8152958852603a855289882080546001600160a01b038f167fffffffffffffffffffffffff000000000000000000000000000000000000000090911681179091558852603985528988208951815495519351909416600160f81b027effffffffffffffffffffffffffffffffffffffffffffffffffffffffffffff93909816600160e01b027fff000000000000000000000000000000000000000000000000000000000000009095166001600160e01b039490941693909317939093171694909417845551600184810191909155915160029093019290925560359091529290208054939450909260ff191682800217905550604080516001600160a01b038516815282516001600160e01b031660208083019190915283015162ffffff16818301529082015160ff1660608083019190915282015160808083019190915282015160a08201527fc5e4838912812bff83e0f820133939c9e0540032e15803606ed95cb769390aaa9060c00160405180910390a150505050505050505050565b6000630100000082106116b85760405162461bcd60e51b815260206004820152600860248201527f554e53414645323400000000000000000000000000000000000000000000000060448201526064016105fb565b5090565b602081015181517f183227397098d014dc2822db40c0ac2e9419f4243cdcb848a1f0fac9f800000010156116f757506020810151600160ff1b175b919050565b62ffffff831660009081526038602052604081205460609060ff161561175e5761175b816040518060400160405280600681526020017f5a41523a45310000000000000000000000000000000000000000000000000000815250611a78565b90505b6001600160a01b03841660009081526036602052604090205460ff16156117aa576117a781604051806040016040528060068152602001652d20a91d229960d11b815250611a78565b90505b60008381526037602052604090205460ff16156117ec576117e981604051806040016040528060068152602001655a41523a453360d01b815250611a78565b90505b60008151116117fc5760006117ff565b60015b9150935093915050565b604051630b73522f60e01b81526000906001600160a01b037f00000000000000000000000000000000000000000000000000000000000000001690630b73522f9061185e908890889088908890600401612534565b6020604051808303816000875af115801561187d573d6000803e3d6000fd5b505050506040513d601f19601f8201168201806040525081019061107b9190612568565b6040516316a6f74360e21b81526000906001600160a01b037f00000000000000000000000000000000000000000000000000000000000000001690635a9bdd0c9061191a908990899089907f0000000000000000000000000000000000000000000000000000000000000000908a908a90600401612581565b6020604051808303816000875af1925050508015611955575060408051601f3d908101601f1916820190925261195291810190612568565b60015b6119a65761196161264d565b806308c379a00361199a5750611975612669565b80611980575061199c565b8060405162461bcd60e51b81526004016105fb91906122ca565b505b3d6000803e3d6000fd5b9695505050505050565b60008060006119be86611ae3565b60005491935091506001831b8617906119da9087838589611b58565b6000819055979650505050505050565b60008060006119f886611ae3565b60005491935091506001831b198616906119da9087838589611b58565b600080611a228787611cdb565b90506000611a2f82611d5f565b9050611a3d81878787611db4565b98975050505050505050565b60335460fe60ff821610611a6757611a626002826126f3565b611a72565b611a728160016126f3565b60335590565b60606000835111611a985760405180602001604052806000815250611ab9565b82604051602001611aa99190612714565b6040516020818303038152906040525b82604051602001611acb929190612739565b60405160208183030381529060405290505b92915050565b60ff8116600060fe82106040518060400160405280600681526020017f5a41523a4539000000000000000000000000000000000000000000000000000081525090611b415760405162461bcd60e51b81526004016105fb91906122ca565b5060088362ffffff16901c62ffffff169050915091565b6000848403611bcf5760405162461bcd60e51b815260206004820152602a60248201527f424955543a204e6577206c6561662063616e6e6f7420626520657175616c207460448201527f6865206f6c64206f6e650000000000000000000000000000000000000000000060648201526084016105fb565b611bdb86868585611e73565b611c325760405162461bcd60e51b815260206004820152602260248201527f424955543a204c656166206973206e6f742070617274206f6620746865207472604482015261656560f01b60648201526084016105fb565b50826000805b8351811015611cd0578085901c600116915081600003611c8f57611c886040518060400160405280858152602001868481518110611c7857611c786124bf565b6020026020010151815250611f7e565b9250611cc8565b611cc56040518060400160405280868481518110611caf57611caf6124bf565b6020026020010151815260200185815250611f7e565b92505b600101611c38565b505095945050505050565b60006040518060800160405280604e81526020016127e3604e9139805160209182012060408051928301919091528101849052606081018390527f000000000000000000000000000000000000000000000000000000000000000060ff16608082015260a00160405160208183030381529060405280519060200120905092915050565b600060405180604001604052806002815260200161190160f01b815250611d84610c18565b83604051602001611d9793929190612768565b604051602081830303815290604052805190602001209050919050565b6040805160008082526020820180845287905260ff861692820192909252606081018490526080810183905260019060a0016020604051602081039080840390855afa158015611e08573d6000803e3d6000fd5b5050604051601f1901519150506001600160a01b038116611e6b5760405162461bcd60e51b815260206004820152601760248201527f454344534120696e76616c6964207369676e617475726500000000000000000060448201526064016105fb565b949350505050565b80516000906001901b808410611ecb5760405162461bcd60e51b815260206004820152601860248201527f424955543a20696e76616c6964206c65616620696e646578000000000000000060448201526064016105fb565b846000805b8551811015611f42578087901c600116915081600003611f1757611f106040518060400160405280858152602001888481518110611c7857611c786124bf565b9250611f3a565b611f376040518060400160405280888481518110611caf57611caf6124bf565b92505b600101611ed0565b508715611f5157878214611a3d565b507f2a7c7c9b6ce5880b9f6f228d72bf6a575a526f29c66ecceef8b753d38bba7323149695505050505050565b6000611add8280516000907f30644e72e131a029b85045b68181585d2833e84879b9709143e1f593f0000001118015611fda575060208201517f30644e72e131a029b85045b68181585d2833e84879b9709143e1f593f0000001115b6040518060600160405280602281526020016127c160229139906120115760405162461bcd60e51b81526004016105fb91906122ca565b5060405163014cf2b360e51b815273__$3d381aec2d571db697c779e211a438fb21$__9063299e56609061204990859060040161278f565b602060405180830381865af4158015612066573d6000803e3d6000fd5b505050506040513d601f19601f82011682018060405250810190611add9190612568565b60008083601f84011261209c57600080fd5b50813567ffffffffffffffff8111156120b457600080fd5b6020830191508360208260051b85010111156120cf57600080fd5b9250929050565b634e487b7160e01b600052604160045260246000fd5b601f8201601f1916810167ffffffffffffffff81118282101715612112576121126120d6565b6040525050565b6000610100828403121561212c57600080fd5b50919050565b6000806000806000610160868803121561214b57600080fd5b853567ffffffffffffffff8082111561216357600080fd5b61216f89838a0161208a565b909750955060209150878201358181111561218957600080fd5b8801601f81018a1361219a57600080fd5b8035828111156121ac576121ac6120d6565b60405192506121c4601f8201601f19168501846120ec565b8083528a848284010111156121d857600080fd5b80848301858501376000848285010152505080945050506121fc8760408801612119565b94979396509194610140013592915050565b6000806000806040858703121561222457600080fd5b843567ffffffffffffffff8082111561223c57600080fd5b6122488883890161208a565b9096509450602087013591508082111561226157600080fd5b5061226e8782880161208a565b95989497509550505050565b60005b8381101561229557818101518382015260200161227d565b50506000910152565b600081518084526122b681602086016020860161227a565b601f01601f19169290920160200192915050565b6020815260006122dd602083018461229e565b9392505050565b803562ffffff811681146116f757600080fd5b60006020828403121561230957600080fd5b6122dd826122e4565b60006020828403121561232457600080fd5b81356001600160a01b03811681146122dd57600080fd5b60006020828403121561234d57600080fd5b5035919050565b803580151581146116f757600080fd5b60008060008060006080868803121561237c57600080fd5b612385866122e4565b945060208601359350604086013567ffffffffffffffff8111156123a857600080fd5b6123b48882890161208a565b90945092506123c7905060608701612354565b90509295509295909350565b634e487b7160e01b600052602160045260246000fd5b602081016003831061240b57634e487b7160e01b600052602160045260246000fd5b91905290565b60006040828403121561242357600080fd5b6040516040810181811067ffffffffffffffff82111715612446576124466120d6565b604052823581526020928301359281019290925250919050565b600080600080600060e0868803121561247857600080fd5b6124828787612411565b94506124918760408801612411565b9350608086013560ff811681146124a757600080fd5b9497939650939460a0810135945060c0013592915050565b634e487b7160e01b600052603260045260246000fd5b600083516124e781846020880161227a565b9190910191825250602001919050565b60008261251457634e487b7160e01b600052601260045260246000fd5b500690565b60006020828403121561252b57600080fd5b6122dd82612354565b6001600160a01b038516815260ff8416602082015260ff831660408201526080606082015260006119a6608083018461229e565b60006020828403121561257a57600080fd5b5051919050565b610180808252810186905260006101a07f07ffffffffffffffffffffffffffffffffffffffffffffffffffffffffffffff8811156125be57600080fd5b8760051b808a8386013783016125e1602085018980358252602090810135910152565b6040808901606086013760406080890160a086013761261060e0850160c08a0180358252602090810135910152565b6001600160a01b03871661012085015281848203016101408501526126378282018761229e565b9250505082610160830152979650505050505050565b600060033d11156126665760046000803e5060005160e01c5b90565b600060443d10156126775790565b6040516003193d81016004833e81513d67ffffffffffffffff81602484011181841117156126a757505050505090565b82850191508151818111156126bf5750505050505090565b843d87010160208285010111156126d95750505050505090565b6126e8602082860101876120ec565b509095945050505050565b80820180821115611add57634e487b7160e01b600052601160045260246000fd5b6000825161272681846020870161227a565b600b60fa1b920191825250600101919050565b6000835161274b81846020880161227a565b83519083019061275f81836020880161227a565b01949350505050565b6000845161277a81846020890161227a565b91909101928352506020820152604001919050565b60408101818360005b60028110156127b7578151835260209283019290910190600101612798565b5050509291505056fe506f736569646f6e4861736865723a20696e707574206e6f7420696e206669656c64526567697374726174696f6e286279746573333220707562526f6f745370656e64696e674b65792c627974657333322070756252656164696e674b65792c75696e743235362076657273696f6e29454950373132446f6d61696e28737472696e67206e616d652c737472696e672076657273696f6e2c75696e7432353620636861696e49642c6164647265737320766572696679696e67436f6e74726163742c627974657333322073616c7429a164736f6c6343000810000a",
  "libraries": {
    "PoseidonT3": "0x7Ae48edd2Ee06Ba80863A196361B4bAAa5d8F8b1",
    "BabyJubJub": "0x0Ab02321Fc701C3C539F92b563B9cD4a2c0f75A4"
  },
  "devdoc": {
    "author": "Pantherprotocol Contributors",
    "kind": "dev",
    "methods": {
      "activateZAccount(uint256[],bytes,((uint256,uint256),(uint256[2],uint256[2]),(uint256,uint256)),uint256)": {
        "params": {
          "inputs": "[14] - magicalConstraint (passed w/o checks)"
        }
      }
    },
    "title": "ZAccountsRegistry",
    "version": 1
  },
  "userdoc": {
    "kind": "user",
    "methods": {
      "OWNER()": {
        "notice": "The owner who has privileged rights"
      }
    },
    "notice": "Registry and whitelist of zAccounts allowed to interact with MASP.",
    "version": 1
  },
  "storageLayout": {
    "storage": [
      {
        "astId": 5991,
        "contract": "contracts/protocol/ZAccountsRegistry.sol:ZAccountsRegistry",
        "label": "_currentRoot",
        "offset": 0,
        "slot": "0",
        "type": "t_bytes32"
      },
      {
        "astId": 1420,
        "contract": "contracts/protocol/ZAccountsRegistry.sol:ZAccountsRegistry",
        "label": "__gap",
        "offset": 0,
        "slot": "1",
        "type": "t_array(t_uint256)50_storage"
      },
      {
        "astId": 1445,
        "contract": "contracts/protocol/ZAccountsRegistry.sol:ZAccountsRegistry",
        "label": "zAccountIdTracker",
        "offset": 0,
        "slot": "51",
        "type": "t_uint256"
      },
      {
        "astId": 1449,
        "contract": "contracts/protocol/ZAccountsRegistry.sol:ZAccountsRegistry",
        "label": "zoneZAccountNullifiers",
        "offset": 0,
        "slot": "52",
        "type": "t_mapping(t_bytes32,t_uint256)"
      },
      {
        "astId": 1454,
        "contract": "contracts/protocol/ZAccountsRegistry.sol:ZAccountsRegistry",
        "label": "zAccountStatus",
        "offset": 0,
        "slot": "53",
        "type": "t_mapping(t_address,t_enum(ZACCOUNT_STATUS)6180)"
      },
      {
        "astId": 1458,
        "contract": "contracts/protocol/ZAccountsRegistry.sol:ZAccountsRegistry",
        "label": "isMasterEoaBlacklisted",
        "offset": 0,
        "slot": "54",
        "type": "t_mapping(t_address,t_bool)"
      },
      {
        "astId": 1462,
        "contract": "contracts/protocol/ZAccountsRegistry.sol:ZAccountsRegistry",
        "label": "isPubRootSpendingKeyBlacklisted",
        "offset": 0,
        "slot": "55",
        "type": "t_mapping(t_bytes32,t_bool)"
      },
      {
        "astId": 1466,
        "contract": "contracts/protocol/ZAccountsRegistry.sol:ZAccountsRegistry",
        "label": "isZAccountIdBlacklisted",
        "offset": 0,
        "slot": "56",
        "type": "t_mapping(t_uint24,t_bool)"
      },
      {
        "astId": 1471,
        "contract": "contracts/protocol/ZAccountsRegistry.sol:ZAccountsRegistry",
        "label": "zAccounts",
        "offset": 0,
        "slot": "57",
        "type": "t_mapping(t_address,t_struct(ZAccount)1443_storage)"
      },
      {
        "astId": 1475,
        "contract": "contracts/protocol/ZAccountsRegistry.sol:ZAccountsRegistry",
        "label": "masterEOAs",
        "offset": 0,
        "slot": "58",
        "type": "t_mapping(t_uint24,t_address)"
      }
    ],
    "types": {
      "t_address": {
        "encoding": "inplace",
        "label": "address",
        "numberOfBytes": "20"
      },
      "t_array(t_uint256)50_storage": {
        "base": "t_uint256",
        "encoding": "inplace",
        "label": "uint256[50]",
        "numberOfBytes": "1600"
      },
      "t_bool": {
        "encoding": "inplace",
        "label": "bool",
        "numberOfBytes": "1"
      },
      "t_bytes32": {
        "encoding": "inplace",
        "label": "bytes32",
        "numberOfBytes": "32"
      },
      "t_enum(ZACCOUNT_STATUS)6180": {
        "encoding": "inplace",
        "label": "enum ZACCOUNT_STATUS",
        "numberOfBytes": "1"
      },
      "t_mapping(t_address,t_bool)": {
        "encoding": "mapping",
        "key": "t_address",
        "label": "mapping(address => bool)",
        "numberOfBytes": "32",
        "value": "t_bool"
      },
      "t_mapping(t_address,t_enum(ZACCOUNT_STATUS)6180)": {
        "encoding": "mapping",
        "key": "t_address",
        "label": "mapping(address => enum ZACCOUNT_STATUS)",
        "numberOfBytes": "32",
        "value": "t_enum(ZACCOUNT_STATUS)6180"
      },
      "t_mapping(t_address,t_struct(ZAccount)1443_storage)": {
        "encoding": "mapping",
        "key": "t_address",
        "label": "mapping(address => struct ZAccountsRegistry.ZAccount)",
        "numberOfBytes": "32",
        "value": "t_struct(ZAccount)1443_storage"
      },
      "t_mapping(t_bytes32,t_bool)": {
        "encoding": "mapping",
        "key": "t_bytes32",
        "label": "mapping(bytes32 => bool)",
        "numberOfBytes": "32",
        "value": "t_bool"
      },
      "t_mapping(t_bytes32,t_uint256)": {
        "encoding": "mapping",
        "key": "t_bytes32",
        "label": "mapping(bytes32 => uint256)",
        "numberOfBytes": "32",
        "value": "t_uint256"
      },
      "t_mapping(t_uint24,t_address)": {
        "encoding": "mapping",
        "key": "t_uint24",
        "label": "mapping(uint24 => address)",
        "numberOfBytes": "32",
        "value": "t_address"
      },
      "t_mapping(t_uint24,t_bool)": {
        "encoding": "mapping",
        "key": "t_uint24",
        "label": "mapping(uint24 => bool)",
        "numberOfBytes": "32",
        "value": "t_bool"
      },
      "t_struct(ZAccount)1443_storage": {
        "encoding": "inplace",
        "label": "struct ZAccountsRegistry.ZAccount",
        "members": [
          {
            "astId": 1434,
            "contract": "contracts/protocol/ZAccountsRegistry.sol:ZAccountsRegistry",
            "label": "_unused",
            "offset": 0,
            "slot": "0",
            "type": "t_uint224"
          },
          {
            "astId": 1436,
            "contract": "contracts/protocol/ZAccountsRegistry.sol:ZAccountsRegistry",
            "label": "id",
            "offset": 28,
            "slot": "0",
            "type": "t_uint24"
          },
          {
            "astId": 1438,
            "contract": "contracts/protocol/ZAccountsRegistry.sol:ZAccountsRegistry",
            "label": "version",
            "offset": 31,
            "slot": "0",
            "type": "t_uint8"
          },
          {
            "astId": 1440,
            "contract": "contracts/protocol/ZAccountsRegistry.sol:ZAccountsRegistry",
            "label": "pubRootSpendingKey",
            "offset": 0,
            "slot": "1",
            "type": "t_bytes32"
          },
          {
            "astId": 1442,
            "contract": "contracts/protocol/ZAccountsRegistry.sol:ZAccountsRegistry",
            "label": "pubReadingKey",
            "offset": 0,
            "slot": "2",
            "type": "t_bytes32"
          }
        ],
        "numberOfBytes": "96"
      },
      "t_uint224": {
        "encoding": "inplace",
        "label": "uint224",
        "numberOfBytes": "28"
      },
      "t_uint24": {
        "encoding": "inplace",
        "label": "uint24",
        "numberOfBytes": "3"
      },
      "t_uint256": {
        "encoding": "inplace",
        "label": "uint256",
        "numberOfBytes": "32"
      },
      "t_uint8": {
        "encoding": "inplace",
        "label": "uint8",
        "numberOfBytes": "1"
      }
    }
  }
}