{
  "address": "0xCd85e3E918F1A36F939281d3ca707EE262a364c6",
  "abi": [
    {
      "inputs": [
        {
          "internalType": "address",
          "name": "_fxRoot",
          "type": "address"
        },
        {
          "internalType": "address",
          "name": "childChainManager",
          "type": "address"
        },
        {
          "internalType": "address",
          "name": "_rootToken",
          "type": "address"
        }
      ],
      "stateMutability": "nonpayable",
      "type": "constructor"
    },
    {
      "anonymous": false,
      "inputs": [
        {
          "indexed": true,
          "internalType": "address",
          "name": "rootToken",
          "type": "address"
        },
        {
          "indexed": true,
          "internalType": "address",
          "name": "depositor",
          "type": "address"
        },
        {
          "indexed": true,
          "internalType": "address",
          "name": "userAddress",
          "type": "address"
        },
        {
          "indexed": false,
          "internalType": "uint256",
          "name": "amount",
          "type": "uint256"
        }
      ],
      "name": "FxDepositERC20",
      "type": "event"
    },
    {
      "inputs": [],
      "name": "ROOT_TOKEN",
      "outputs": [
        {
          "internalType": "address",
          "name": "",
          "type": "address"
        }
      ],
      "stateMutability": "view",
      "type": "function"
    },
    {
      "inputs": [
        {
          "internalType": "address",
          "name": "user",
          "type": "address"
        },
        {
          "internalType": "address",
          "name": "rootToken",
          "type": "address"
        },
        {
          "internalType": "bytes",
          "name": "depositData",
          "type": "bytes"
        }
      ],
      "name": "depositFor",
      "outputs": [],
      "stateMutability": "nonpayable",
      "type": "function"
    }
  ],
  "transactionHash": "0x291307efca345fc2f5e03c45a78049fb0dce1ca62774e96d61ffc1613095dae8",
  "args": [
    "0x3d1d3E34f7fB6D26245E6640E1c50710eFFf15bA",
    "0x00d640dAcA94b28d14C99169AEd671B0EFd0b54D",
    "0x542c2c3e6BBfD5979E5FEC6708764B93Ba210c51"
  ],
  "numDeployments": 1,
  "solcInputHash": "57b21eaaf9910c76f4d0118432267c50",
  "bytecode": "0x60e060405234801561001057600080fd5b5060405161067238038061067283398101604081905261002f916100cc565b6001600160a01b0383161580159061004f57506001600160a01b03811615155b6100935760405162461bcd60e51b8152602060048201526011602482015270696e69743a7a65726f206164647265737360781b604482015260640160405180910390fd5b6001600160a01b0392831660805290821660a0521660c05261010f565b80516001600160a01b03811681146100c757600080fd5b919050565b6000806000606084860312156100e157600080fd5b6100ea846100b0565b92506100f8602085016100b0565b9150610106604085016100b0565b90509250925092565b60805160a05160c05161052f610143600039600081816040015260a80152600061013401526000610107015261052f6000f3fe608060405234801561001057600080fd5b50600436106100365760003560e01c8063de84e3121461003b578063e3dec8fb1461007e575b600080fd5b6100627f000000000000000000000000000000000000000000000000000000000000000081565b6040516001600160a01b03909116815260200160405180910390f35b61009161008c3660046103cf565b610093565b005b60006100a18284018461045d565b90506100cf7f00000000000000000000000000000000000000000000000000000000000000003330846101ef565b604080516001600160a01b038781166020830152818301849052825180830384018152606083019384905263b472047760e01b9093527f0000000000000000000000000000000000000000000000000000000000000000169063b47204779061015e907f000000000000000000000000000000000000000000000000000000000000000090859060640161049a565b600060405180830381600087803b15801561017857600080fd5b505af115801561018c573d6000803e3d6000fd5b50505050856001600160a01b0316336001600160a01b0316866001600160a01b03167f8a58355ceb4626422a66b0f36743672dde8507c6be664f0e5b9de8350a132159856040516101df91815260200190565b60405180910390a4505050505050565b83803b806102445760405162461bcd60e51b815260206004820152601d60248201527f5472616e7366657248656c7065723a207a65726f20636f646573697a6500000060448201526064015b60405180910390fd5b604080516001600160a01b0387811660248301528681166044830152606480830187905283518084039091018152608490920183526020820180517bffffffffffffffffffffffffffffffffffffffffffffffffffffffff166323b872dd60e01b17905291516000928392908a16916102bd91906104dd565b6000604051808303816000865af19150503d80600081146102fa576040519150601f19603f3d011682016040523d82523d6000602084013e6102ff565b606091505b509150915061030e8282610318565b5050505050505050565b81801561033d57508051158061033d57508080602001905181019061033d91906104f9565b6103af5760405162461bcd60e51b815260206004820152602a60248201527f5472616e7366657248656c7065723a20746f6b656e20636f6e7472616374206360448201527f616c6c206661696c656400000000000000000000000000000000000000000000606482015260840161023b565b5050565b80356001600160a01b03811681146103ca57600080fd5b919050565b600080600080606085870312156103e557600080fd5b6103ee856103b3565b93506103fc602086016103b3565b9250604085013567ffffffffffffffff8082111561041957600080fd5b818701915087601f83011261042d57600080fd5b81358181111561043c57600080fd5b88602082850101111561044e57600080fd5b95989497505060200194505050565b60006020828403121561046f57600080fd5b5035919050565b60005b83811015610491578181015183820152602001610479565b50506000910152565b6001600160a01b038316815260406020820152600082518060408401526104c8816060850160208701610476565b601f01601f1916919091016060019392505050565b600082516104ef818460208701610476565b9190910192915050565b60006020828403121561050b57600080fd5b8151801515811461051b57600080fd5b939250505056fea164736f6c6343000810000a",
  "devdoc": {
    "kind": "dev",
    "methods": {},
    "version": 1
  },
  "userdoc": {
    "kind": "user",
    "methods": {},
    "version": 1
  },
  "storageLayout": {
    "storage": [
      {
        "astId": 6105,
        "contract": "contracts/common/mocks/MockRootChainManager.sol:MockRootChainManager",
        "label": "__gap",
        "offset": 0,
        "slot": "0",
        "type": "t_array(t_uint256)50_storage"
      }
    ],
    "types": {
      "t_array(t_uint256)50_storage": {
        "base": "t_uint256",
        "encoding": "inplace",
        "label": "uint256[50]",
        "numberOfBytes": "1600"
      },
      "t_uint256": {
        "encoding": "inplace",
        "label": "uint256",
        "numberOfBytes": "32"
      }
    }
  }
}