{
  "address": "0x065915B17a373953f0b4E11aB30766634F077e66",
  "abi": [
    {
      "inputs": [
        {
          "internalType": "address",
          "name": "_owner",
          "type": "address"
        },
        {
          "internalType": "address",
          "name": "_prpConverter",
          "type": "address"
        },
        {
          "internalType": "address",
          "name": "_protocolRewardMessageRelayer",
          "type": "address"
        },
        {
          "internalType": "address",
          "name": "_pantherRewardController",
          "type": "address"
        },
        {
          "internalType": "address",
          "name": "_zkpToken",
          "type": "address"
        },
        {
          "internalType": "address",
          "name": "_rootChainManagerProxy",
          "type": "address"
        },
        {
          "internalType": "address",
          "name": "_erc20PredicateProxy",
          "type": "address"
        },
        {
          "internalType": "address",
          "name": "_fxRoot",
          "type": "address"
        }
      ],
      "stateMutability": "nonpayable",
      "type": "constructor"
    },
    {
      "anonymous": false,
      "inputs": [
        {
          "indexed": false,
          "internalType": "bytes",
          "name": "message",
          "type": "bytes"
        }
      ],
      "name": "PrpRewardMessageSent",
      "type": "event"
    },
    {
      "anonymous": false,
      "inputs": [
        {
          "indexed": false,
          "internalType": "uint256",
          "name": "zkpAmount",
          "type": "uint256"
        }
      ],
      "name": "ZkpTokenSent",
      "type": "event"
    },
    {
      "inputs": [],
      "name": "OWNER",
      "outputs": [
        {
          "internalType": "address",
          "name": "",
          "type": "address"
        }
      ],
      "stateMutability": "view",
      "type": "function"
    },
    {
      "inputs": [],
      "name": "PANTHER_REWARD_CONTROLLER",
      "outputs": [
        {
          "internalType": "address",
          "name": "",
          "type": "address"
        }
      ],
      "stateMutability": "view",
      "type": "function"
    },
    {
      "inputs": [],
      "name": "PROTOCOL_REWARD_MESSAGE_RELAYER",
      "outputs": [
        {
          "internalType": "address",
          "name": "",
          "type": "address"
        }
      ],
      "stateMutability": "view",
      "type": "function"
    },
    {
      "inputs": [],
      "name": "PRP_CONVERTER",
      "outputs": [
        {
          "internalType": "address",
          "name": "",
          "type": "address"
        }
      ],
      "stateMutability": "view",
      "type": "function"
    },
    {
      "inputs": [
        {
          "internalType": "bytes32",
          "name": "secret",
          "type": "bytes32"
        }
      ],
      "name": "bridgeZkpTokensAndPrpRewardsMessage",
      "outputs": [],
      "stateMutability": "nonpayable",
      "type": "function"
    },
    {
      "inputs": [],
      "name": "lastBridgeExecution",
      "outputs": [
        {
          "internalType": "uint128",
          "name": "",
          "type": "uint128"
        }
      ],
      "stateMutability": "view",
      "type": "function"
    },
    {
      "inputs": [],
      "name": "nonce",
      "outputs": [
        {
          "internalType": "uint128",
          "name": "",
          "type": "uint128"
        }
      ],
      "stateMutability": "view",
      "type": "function"
    }
  ],
  "transactionHash": "0xb6b191249156dcba78ab6235df840265526aa554957f830333210254fb39d89a",
  "args": [
    "0xfB474a7FeCDaFBD412ebF0d60A0C32794F82d3dD",
    "0x2ca8E95f31B6576aEe0559189bdC7b655ba72132",
    "0xCf82931099154FA52F4f8619e1B9d19FeDB8D9Ca",
    "0x3Eb4f42B303f865B2409e67031927E4c4FEB3f1F",
    "0x542c2c3e6BBfD5979E5FEC6708764B93Ba210c51",
    "0xA543d6badE63ff48dEed3ceC066003f295A09790",
    "0xA543d6badE63ff48dEed3ceC066003f295A09790",
    "0x3d1d3E34f7fB6D26245E6640E1c50710eFFf15bA"
  ],
  "numDeployments": 2,
  "solcInputHash": "c1be949b0fd8c0217e2d6a92595fd866",
  "bytecode": "0x6101806040523480156200001257600080fd5b5060405162000b3538038062000b358339810160408190526200003591620001af565b876001600160a01b038116620000925760405162461bcd60e51b815260206004820152601a60248201527f496d6d4f776e3a207a65726f206f776e6572206164647265737300000000000060448201526064015b60405180910390fd5b6001600160a01b03908116608052871615801590620000b957506001600160a01b03861615155b8015620000ce57506001600160a01b03851615155b8015620000e357506001600160a01b03841615155b8015620000f857506001600160a01b03831615155b80156200010d57506001600160a01b03821615155b80156200012257506001600160a01b03811615155b620001595760405162461bcd60e51b81526020600482015260066024820152655052533a453160d01b604482015260640162000089565b6001600160a01b0396871660a05294861660c05292851660e0529084166101005283166101205282166101405216610160525062000257565b80516001600160a01b0381168114620001aa57600080fd5b919050565b600080600080600080600080610100898b031215620001cd57600080fd5b620001d88962000192565b9750620001e860208a0162000192565b9650620001f860408a0162000192565b95506200020860608a0162000192565b94506200021860808a0162000192565b93506200022860a08a0162000192565b92506200023860c08a0162000192565b91506200024860e08a0162000192565b90509295985092959890939650565b60805160a05160c05160e0516101005161012051610140516101605161085e620002d760003960006104670152600061027a015260006102a101526000818161025901526102f101526000818160cb0152610199015260008181610124015261049401526000818161017301526102d0015260006087015261085e6000f3fe608060405234801561001057600080fd5b506004361061007d5760003560e01c80634a2b1d191161005b5780634a2b1d191461011f578063568a096a14610146578063affed0e01461015b578063ef92a79f1461016e57600080fd5b8063117803e31461008257806332bcc041146100c6578063496a507d146100ed575b600080fd5b6100a97f000000000000000000000000000000000000000000000000000000000000000081565b6040516001600160a01b0390911681526020015b60405180910390f35b6100a97f000000000000000000000000000000000000000000000000000000000000000081565b60005461010790600160801b90046001600160801b031681565b6040516001600160801b0390911681526020016100bd565b6100a97f000000000000000000000000000000000000000000000000000000000000000081565b6101596101543660046106e3565b610195565b005b600054610107906001600160801b031681565b6100a97f000000000000000000000000000000000000000000000000000000000000000081565b60007f00000000000000000000000000000000000000000000000000000000000000006001600160a01b0316633c43059d6040518163ffffffff1660e01b81526004016020604051808303816000875af11580156101f7573d6000803e3d6000fd5b505050506040513d601f19601f8201168201806040525081019061021b91906106fc565b905080156102505761022c81610254565b610235826103be565b600080546001600160801b03428116600160801b0291161790555b5050565b61029f7f00000000000000000000000000000000000000000000000000000000000000007f00000000000000000000000000000000000000000000000000000000000000008361052c565b7f00000000000000000000000000000000000000000000000000000000000000006001600160a01b031663e3dec8fb7f00000000000000000000000000000000000000000000000000000000000000007f00000000000000000000000000000000000000000000000000000000000000008460405160200161032391815260200190565b6040516020818303038152906040526040518463ffffffff1660e01b815260040161035093929190610765565b600060405180830381600087803b15801561036a57600080fd5b505af115801561037e573d6000803e3d6000fd5b505050507f084a3ecff1644f6f18d2a345e327590c4f30d4bb73b808342d0b0741adf6f9e8816040516103b391815260200190565b60405180910390a150565b600080546103d6906001600160801b0316600161079a565b600080546fffffffffffffffffffffffffffffffff191663ffffffff8316179055604080517fffffffff0000000000000000000000000000000000000000000000000000000060e084901b1660208201526353a1eb8560e01b6024820152602880820186905282518083039091018152604882019283905263b472047760e01b909252919250906001600160a01b037f0000000000000000000000000000000000000000000000000000000000000000169063b4720477906104be907f0000000000000000000000000000000000000000000000000000000000000000908590604c016107cf565b600060405180830381600087803b1580156104d857600080fd5b505af11580156104ec573d6000803e3d6000fd5b505050507f77cfcad0d5e6377a2695f4e9ad251e55bf180b2939cda1cf41c840acdf8cb4ca8160405161051f91906107f9565b60405180910390a1505050565b82803b806105815760405162461bcd60e51b815260206004820152601d60248201527f5472616e7366657248656c7065723a207a65726f20636f646573697a6500000060448201526064015b60405180910390fd5b604080516001600160a01b038681166024830152604480830187905283518084039091018152606490920183526020820180517bffffffffffffffffffffffffffffffffffffffffffffffffffffffff1663095ea7b360e01b17905291516000928392908916916105f29190610813565b6000604051808303816000865af19150503d806000811461062f576040519150601f19603f3d011682016040523d82523d6000602084013e610634565b606091505b5091509150610643828261064c565b50505050505050565b818015610671575080511580610671575080806020019051810190610671919061082f565b6102505760405162461bcd60e51b815260206004820152602a60248201527f5472616e7366657248656c7065723a20746f6b656e20636f6e7472616374206360448201527f616c6c206661696c6564000000000000000000000000000000000000000000006064820152608401610578565b6000602082840312156106f557600080fd5b5035919050565b60006020828403121561070e57600080fd5b5051919050565b60005b83811015610730578181015183820152602001610718565b50506000910152565b60008151808452610751816020860160208601610715565b601f01601f19169290920160200192915050565b60006001600160a01b038086168352808516602084015250606060408301526107916060830184610739565b95945050505050565b6001600160801b038181168382160190808211156107c857634e487b7160e01b600052601160045260246000fd5b5092915050565b6001600160a01b03831681526040602082015260006107f16040830184610739565b949350505050565b60208152600061080c6020830184610739565b9392505050565b60008251610825818460208701610715565b9190910192915050565b60006020828403121561084157600080fd5b8151801515811461080c57600080fdfea164736f6c6343000810000a",
  "devdoc": {
    "author": "Pantherprotocol Contributors",
    "details": "This contract lives on Ethereum chain and asks from PantherRewardController to release $ZKP rewards and then if there are releasable $ZKPs, it interacts with the ETH<->Polygon bridge to send them to the Polygon chain via Polygon FXRoot contract. Anyone can try to release and bridge ZKPs. This contract also bridge the data which contains the address of user who has bridged ZKPs along with the specific grant type (ZKP_RELEASE_AND_BRIDGE_PRP_GRANT_TYPE) which then is used to grant PRP rewards to the user.",
    "kind": "dev",
    "methods": {},
    "stateVariables": {
      "FX_ROOT": {
        "details": "`FxRoot` is the contract of the \"Fx-Portal\" on the mainnet/Goerli."
      }
    },
    "title": "ToPolygonZkpTokenAndPrpRewardMsgSender",
    "version": 1
  },
  "userdoc": {
    "kind": "user",
    "methods": {
      "OWNER()": {
        "notice": "The owner who has privileged rights"
      },
      "PANTHER_REWARD_CONTROLLER()": {
        "notice": "address of PrpConverter on Polygon"
      },
      "PROTOCOL_REWARD_MESSAGE_RELAYER()": {
        "notice": "address of protocolMessageRelayer on Polygon"
      },
      "PRP_CONVERTER()": {
        "notice": "address of PrpConverter on Polygon"
      },
      "lastBridgeExecution()": {
        "notice": "Last bridge execution timestamp"
      },
      "nonce()": {
        "notice": "Message nonce (i.e. sequential number of the latest message)"
      }
    },
    "notice": "Responsible for Bridging $ZKPs and arbitrary messages to the Polygon chain.",
    "version": 1
  },
  "storageLayout": {
    "storage": [
      {
        "astId": 12482,
        "contract": "contracts/protocol/ToPolygonZkpTokenAndPrpRewardMsgSender.sol:ToPolygonZkpTokenAndPrpRewardMsgSender",
        "label": "nonce",
        "offset": 0,
        "slot": "0",
        "type": "t_uint128"
      },
      {
        "astId": 12485,
        "contract": "contracts/protocol/ToPolygonZkpTokenAndPrpRewardMsgSender.sol:ToPolygonZkpTokenAndPrpRewardMsgSender",
        "label": "lastBridgeExecution",
        "offset": 16,
        "slot": "0",
        "type": "t_uint128"
      }
    ],
    "types": {
      "t_uint128": {
        "encoding": "inplace",
        "label": "uint128",
        "numberOfBytes": "16"
      }
    }
  }
}